{
  "contractName": "EnglishAuctionNFT",
  "abi": [
    {
      "anonymous": false,
      "inputs": [
        {
          "indexed": false,
          "internalType": "address",
          "name": "sender",
          "type": "address"
        },
        {
          "indexed": false,
          "internalType": "uint256",
          "name": "index",
          "type": "uint256"
        },
        {
          "indexed": false,
          "internalType": "uint256",
          "name": "amount1",
          "type": "uint256"
        }
      ],
      "name": "Bid",
      "type": "event"
    },
    {
      "anonymous": false,
      "inputs": [
        {
          "indexed": false,
          "internalType": "address",
          "name": "sender",
          "type": "address"
        },
        {
          "indexed": false,
          "internalType": "uint256",
          "name": "index",
          "type": "uint256"
        }
      ],
      "name": "Claimed",
      "type": "event"
    },
    {
      "anonymous": false,
      "inputs": [
        {
          "components": [
            {
              "internalType": "address payable",
              "name": "creator",
              "type": "address"
            },
            {
              "internalType": "string",
              "name": "name",
              "type": "string"
            },
            {
              "internalType": "address",
              "name": "token0",
              "type": "address"
            },
            {
              "internalType": "address",
              "name": "token1",
              "type": "address"
            },
            {
              "internalType": "uint256",
              "name": "tokenId",
              "type": "uint256"
            },
            {
              "internalType": "uint256",
              "name": "amountMin1",
              "type": "uint256"
            },
            {
              "internalType": "uint256",
              "name": "amountMinIncr1",
              "type": "uint256"
            },
            {
              "internalType": "uint256",
              "name": "confirmTime",
              "type": "uint256"
            },
            {
              "internalType": "uint256",
              "name": "closeAt",
              "type": "uint256"
            }
          ],
          "indexed": false,
          "internalType": "struct EnglishAuctionNFT.Pool",
          "name": "pool",
          "type": "tuple"
        },
        {
          "indexed": false,
          "internalType": "uint256",
          "name": "index",
          "type": "uint256"
        }
      ],
      "name": "Created",
      "type": "event"
    },
    {
      "anonymous": false,
      "inputs": [
        {
          "indexed": true,
          "internalType": "address",
          "name": "previousOwner",
          "type": "address"
        },
        {
          "indexed": true,
          "internalType": "address",
          "name": "newOwner",
          "type": "address"
        }
      ],
      "name": "OwnershipTransferred",
      "type": "event"
    },
    {
      "inputs": [
        {
          "internalType": "uint256",
          "name": "",
          "type": "uint256"
        }
      ],
      "name": "bidCountP",
      "outputs": [
        {
          "internalType": "uint256",
          "name": "",
          "type": "uint256"
        }
      ],
      "stateMutability": "view",
      "type": "function"
    },
    {
      "inputs": [
        {
          "internalType": "uint256",
          "name": "",
          "type": "uint256"
        }
      ],
      "name": "creatorClaimedP",
      "outputs": [
        {
          "internalType": "bool",
          "name": "",
          "type": "bool"
        }
      ],
      "stateMutability": "view",
      "type": "function"
    },
    {
      "inputs": [
        {
          "internalType": "uint256",
          "name": "",
          "type": "uint256"
        }
      ],
      "name": "currentBidderAmount1P",
      "outputs": [
        {
          "internalType": "uint256",
          "name": "",
          "type": "uint256"
        }
      ],
      "stateMutability": "view",
      "type": "function"
    },
    {
      "inputs": [
        {
          "internalType": "uint256",
          "name": "",
          "type": "uint256"
        }
      ],
      "name": "currentBidderP",
      "outputs": [
        {
          "internalType": "address payable",
          "name": "",
          "type": "address"
        }
      ],
      "stateMutability": "view",
      "type": "function"
    },
    {
      "inputs": [
        {
          "internalType": "bytes32",
          "name": "key",
          "type": "bytes32"
        },
        {
          "internalType": "address",
          "name": "addr",
          "type": "address"
        }
      ],
      "name": "getConfig",
      "outputs": [
        {
          "internalType": "uint256",
          "name": "",
          "type": "uint256"
        }
      ],
      "stateMutability": "view",
      "type": "function"
    },
    {
      "inputs": [
        {
          "internalType": "bytes32",
          "name": "key",
          "type": "bytes32"
        }
      ],
      "name": "getConfig",
      "outputs": [
        {
          "internalType": "uint256",
          "name": "",
          "type": "uint256"
        }
      ],
      "stateMutability": "view",
      "type": "function"
    },
    {
      "inputs": [
        {
          "internalType": "bytes32",
          "name": "key",
          "type": "bytes32"
        },
        {
          "internalType": "uint256",
          "name": "index",
          "type": "uint256"
        }
      ],
      "name": "getConfig",
      "outputs": [
        {
          "internalType": "uint256",
          "name": "",
          "type": "uint256"
        }
      ],
      "stateMutability": "view",
      "type": "function"
    },
    {
      "inputs": [
        {
          "internalType": "address",
          "name": "",
          "type": "address"
        },
        {
          "internalType": "uint256",
          "name": "",
          "type": "uint256"
        }
      ],
      "name": "myBidP",
      "outputs": [
        {
          "internalType": "uint256",
          "name": "",
          "type": "uint256"
        }
      ],
      "stateMutability": "view",
      "type": "function"
    },
    {
      "inputs": [
        {
          "internalType": "address",
          "name": "",
          "type": "address"
        },
        {
          "internalType": "uint256",
          "name": "",
          "type": "uint256"
        }
      ],
      "name": "myBidderAmount1P",
      "outputs": [
        {
          "internalType": "uint256",
          "name": "",
          "type": "uint256"
        }
      ],
      "stateMutability": "view",
      "type": "function"
    },
    {
      "inputs": [
        {
          "internalType": "address",
          "name": "",
          "type": "address"
        },
        {
          "internalType": "uint256",
          "name": "",
          "type": "uint256"
        }
      ],
      "name": "myClaimedP",
      "outputs": [
        {
          "internalType": "bool",
          "name": "",
          "type": "bool"
        }
      ],
      "stateMutability": "view",
      "type": "function"
    },
    {
      "inputs": [
        {
          "internalType": "address",
          "name": "",
          "type": "address"
        }
      ],
      "name": "myCreatedP",
      "outputs": [
        {
          "internalType": "uint256",
          "name": "",
          "type": "uint256"
        }
      ],
      "stateMutability": "view",
      "type": "function"
    },
    {
      "inputs": [
        {
          "internalType": "string",
          "name": "",
          "type": "string"
        }
      ],
      "name": "myNameP",
      "outputs": [
        {
          "internalType": "uint256",
          "name": "",
          "type": "uint256"
        }
      ],
      "stateMutability": "view",
      "type": "function"
    },
    {
      "inputs": [],
      "name": "owner",
      "outputs": [
        {
          "internalType": "address",
          "name": "",
          "type": "address"
        }
      ],
      "stateMutability": "view",
      "type": "function"
    },
    {
      "inputs": [
        {
          "internalType": "uint256",
          "name": "",
          "type": "uint256"
        }
      ],
      "name": "pools",
      "outputs": [
        {
          "internalType": "address payable",
          "name": "creator",
          "type": "address"
        },
        {
          "internalType": "string",
          "name": "name",
          "type": "string"
        },
        {
          "internalType": "address",
          "name": "token0",
          "type": "address"
        },
        {
          "internalType": "address",
          "name": "token1",
          "type": "address"
        },
        {
          "internalType": "uint256",
          "name": "tokenId",
          "type": "uint256"
        },
        {
          "internalType": "uint256",
          "name": "amountMin1",
          "type": "uint256"
        },
        {
          "internalType": "uint256",
          "name": "amountMinIncr1",
          "type": "uint256"
        },
        {
          "internalType": "uint256",
          "name": "confirmTime",
          "type": "uint256"
        },
        {
          "internalType": "uint256",
          "name": "closeAt",
          "type": "uint256"
        }
      ],
      "stateMutability": "view",
      "type": "function"
    },
    {
      "inputs": [],
      "name": "renounceOwnership",
      "outputs": [],
      "stateMutability": "nonpayable",
      "type": "function"
    },
    {
      "inputs": [
        {
          "internalType": "bytes32",
          "name": "key",
          "type": "bytes32"
        },
        {
          "internalType": "uint256",
          "name": "value",
          "type": "uint256"
        }
      ],
      "name": "setConfig",
      "outputs": [],
      "stateMutability": "nonpayable",
      "type": "function"
    },
    {
      "inputs": [
        {
          "internalType": "bytes32",
          "name": "key",
          "type": "bytes32"
        },
        {
          "internalType": "address",
          "name": "addr",
          "type": "address"
        },
        {
          "internalType": "uint256",
          "name": "value",
          "type": "uint256"
        }
      ],
      "name": "setConfig",
      "outputs": [],
      "stateMutability": "nonpayable",
      "type": "function"
    },
    {
      "inputs": [
        {
          "internalType": "bytes32",
          "name": "key",
          "type": "bytes32"
        },
        {
          "internalType": "uint256",
          "name": "index",
          "type": "uint256"
        },
        {
          "internalType": "uint256",
          "name": "value",
          "type": "uint256"
        }
      ],
      "name": "setConfig",
      "outputs": [],
      "stateMutability": "nonpayable",
      "type": "function"
    },
    {
      "inputs": [
        {
          "internalType": "address",
          "name": "newOwner",
          "type": "address"
        }
      ],
      "name": "transferOwnership",
      "outputs": [],
      "stateMutability": "nonpayable",
      "type": "function"
    },
    {
      "inputs": [
        {
          "internalType": "address",
          "name": "_GlfAddress",
          "type": "address"
        }
      ],
      "name": "initialize",
      "outputs": [],
      "stateMutability": "nonpayable",
      "type": "function"
    },
    {
      "inputs": [
        {
          "internalType": "string",
          "name": "name",
          "type": "string"
        },
        {
          "internalType": "address",
          "name": "token0",
          "type": "address"
        },
        {
          "internalType": "uint256",
          "name": "tokenId",
          "type": "uint256"
        },
        {
          "internalType": "uint256",
          "name": "amountMin1",
          "type": "uint256"
        },
        {
          "internalType": "uint256",
          "name": "amountMinIncr1",
          "type": "uint256"
        },
        {
          "internalType": "uint256",
          "name": "confirmTime",
          "type": "uint256"
        }
      ],
      "name": "create",
      "outputs": [],
      "stateMutability": "nonpayable",
      "type": "function"
    },
    {
      "inputs": [
        {
          "internalType": "uint256",
          "name": "index",
          "type": "uint256"
        },
        {
          "internalType": "uint256",
          "name": "amount1",
          "type": "uint256"
        }
      ],
      "name": "bid",
      "outputs": [],
      "stateMutability": "payable",
      "type": "function"
    },
    {
      "inputs": [
        {
          "internalType": "uint256",
          "name": "index",
          "type": "uint256"
        }
      ],
      "name": "creatorClaim",
      "outputs": [],
      "stateMutability": "nonpayable",
      "type": "function"
    },
    {
      "inputs": [
        {
          "internalType": "uint256",
          "name": "index",
          "type": "uint256"
        }
      ],
      "name": "bidderClaim",
      "outputs": [],
      "stateMutability": "nonpayable",
      "type": "function"
    },
    {
      "inputs": [
        {
          "internalType": "address",
          "name": "",
          "type": "address"
        },
        {
          "internalType": "address",
          "name": "",
          "type": "address"
        },
        {
          "internalType": "uint256",
          "name": "",
          "type": "uint256"
        },
        {
          "internalType": "bytes",
          "name": "",
          "type": "bytes"
        }
      ],
      "name": "onERC721Received",
      "outputs": [
        {
          "internalType": "bytes4",
          "name": "",
          "type": "bytes4"
        }
      ],
      "stateMutability": "nonpayable",
      "type": "function"
    },
    {
      "inputs": [],
      "name": "getPoolCount",
      "outputs": [
        {
          "internalType": "uint256",
          "name": "",
          "type": "uint256"
        }
      ],
      "stateMutability": "view",
      "type": "function"
    },
    {
      "inputs": [
        {
          "internalType": "uint256",
          "name": "index",
          "type": "uint256"
        }
      ],
      "name": "currentBidderAmount",
      "outputs": [
        {
          "internalType": "uint256",
          "name": "",
          "type": "uint256"
        }
      ],
      "stateMutability": "view",
      "type": "function"
    },
    {
      "inputs": [],
      "name": "getTxFeeRatio",
      "outputs": [
        {
          "internalType": "uint256",
          "name": "",
          "type": "uint256"
        }
      ],
      "stateMutability": "view",
      "type": "function"
    },
    {
      "inputs": [],
      "name": "getGlfAddress",
      "outputs": [
        {
          "internalType": "address",
          "name": "",
          "type": "address"
        }
      ],
      "stateMutability": "view",
      "type": "function"
    }
  ],
  "bytecode": "0x608060405234801561001057600080fd5b50614d96806100206000396000f3fe6080604052600436106101c25760003560e01c80638695f2d2116100f7578063b21544f311610095578063ddf2be3f11610064578063ddf2be3f146106bd578063e87ba7aa146106e6578063f2fde38b14610723578063f5639ff51461074c576101c2565b8063b21544f3146105f1578063bbe7180d1461061a578063c4d66de814610657578063d286bea514610680576101c2565b80638ec872e3116100d15780638ec872e3146105075780638eec5d70146105445780639d6ce84b1461056f578063ac4afa38146105ac576101c2565b80638695f2d2146104625780638d32b6581461049f5780638da5cb5b146104dc576101c2565b8063507a0a3d1161016457806360de1d611161013e57806360de1d61146103a857806364cc79bd146103d15780636dd5b69d1461040e578063715018a61461044b576101c2565b8063507a0a3d1461031257806352665f471461034f578063598647f81461038c576101c2565b806328a42981116101a057806328a429811461025857806329402cf01461028357806329a65f8f146102ac5780632ad540ed146102e9576101c2565b8063150b7a02146101c757806315fe96dc146102045780631bb2dd6c1461022d575b600080fd5b3480156101d357600080fd5b506101ee60048036038101906101e99190613686565b610789565b6040516101fb919061477c565b60405180910390f35b34801561021057600080fd5b5061022b6004803603810190610226919061381f565b61079e565b005b34801561023957600080fd5b5061024261083c565b60405161024f9190614b29565b60405180910390f35b34801561026457600080fd5b5061026d610877565b60405161027a9190614540565b60405180910390f35b34801561028f57600080fd5b506102aa60048036038101906102a591906138aa565b6108b2565b005b3480156102b857600080fd5b506102d360048036038101906102ce9190613992565b610fa4565b6040516102e09190614b29565b60405180910390f35b3480156102f557600080fd5b50610310600480360381019061030b9190613992565b610fbc565b005b34801561031e57600080fd5b5061033960048036038101906103349190613706565b61159f565b6040516103469190614b29565b60405180910390f35b34801561035b57600080fd5b5061037660048036038101906103719190613794565b6115cd565b6040516103839190614b29565b60405180910390f35b6103a660048036038101906103a191906139e4565b611609565b005b3480156103b457600080fd5b506103cf60048036038101906103ca9190613992565b611b71565b005b3480156103dd57600080fd5b506103f860048036038101906103f39190613992565b612086565b6040516104059190614b29565b60405180910390f35b34801561041a57600080fd5b506104356004803603810190610430919061376b565b61209e565b6040516104429190614b29565b60405180910390f35b34801561045757600080fd5b506104606120bb565b005b34801561046e57600080fd5b5061048960048036038101906104849190613992565b61220c565b6040516104969190614b29565b60405180910390f35b3480156104ab57600080fd5b506104c660048036038101906104c19190613706565b6124d6565b6040516104d39190614b29565b60405180910390f35b3480156104e857600080fd5b506104f16124fb565b6040516104fe9190614540565b60405180910390f35b34801561051357600080fd5b5061052e6004803603810190610529919061381f565b612525565b60405161053b9190614b29565b60405180910390f35b34801561055057600080fd5b5061055961254b565b6040516105669190614b29565b60405180910390f35b34801561057b57600080fd5b5061059660048036038101906105919190613951565b612558565b6040516105a39190614b29565b60405180910390f35b3480156105b857600080fd5b506105d360048036038101906105ce9190613992565b612586565b6040516105e8999897969594939291906145ad565b60405180910390f35b3480156105fd57600080fd5b50610618600480360381019061061391906137d0565b6126d9565b005b34801561062657600080fd5b50610641600480360381019061063c919061365d565b612796565b60405161064e9190614b29565b60405180910390f35b34801561066357600080fd5b5061067e6004803603810190610679919061365d565b6127ae565b005b34801561068c57600080fd5b506106a760048036038101906106a29190613706565b61292d565b6040516106b49190614761565b60405180910390f35b3480156106c957600080fd5b506106e460048036038101906106df919061385b565b61295c565b005b3480156106f257600080fd5b5061070d60048036038101906107089190613992565b612a03565b60405161071a9190614761565b60405180910390f35b34801561072f57600080fd5b5061074a6004803603810190610745919061365d565b612a23565b005b34801561075857600080fd5b50610773600480360381019061076e9190613992565b612be3565b604051610780919061455b565b60405180910390f35b600063150b7a0260e01b905095945050505050565b3373ffffffffffffffffffffffffffffffffffffffff16603360009054906101000a900473ffffffffffffffffffffffffffffffffffffffff1673ffffffffffffffffffffffffffffffffffffffff161461082e576040517f08c379a0000000000000000000000000000000000000000000000000000000008152600401610825906149b9565b60405180910390fd5b6108388282612c16565b5050565b6000606560007f5478466565526174696f00000000000000000000000000000000000000000000815260200190815260200160002054905090565b6000606560007f476c664164647265737300000000000000000000000000000000000000000000815260200190815260200160002054905090565b336000606a60008373ffffffffffffffffffffffffffffffffffffffff1673ffffffffffffffffffffffffffffffffffffffff168152602001908152602001600020541115610936576040517f08c379a000000000000000000000000000000000000000000000000000000000815260040161092d90614899565b60405180910390fd5b87878080601f016020809104026020016040519081016040528093929190818152602001838380828437600081840152601f19601f820116905080830192505050505050506000606b8260405161098d9190614529565b9081526020016040518091039020541115610ab45760006001606b836040516109b69190614529565b9081526020016040518091039020540390506000606a6000606684815481106109db57fe5b906000526020600020906009020160000160009054906101000a900473ffffffffffffffffffffffffffffffffffffffff1673ffffffffffffffffffffffffffffffffffffffff1673ffffffffffffffffffffffffffffffffffffffff16815260200190815260200160002054118015610a7257504260668281548110610a5e57fe5b906000526020600020906009020160080154115b15610ab2576040517f08c379a0000000000000000000000000000000000000000000000000000000008152600401610aa9906147d9565b60405180910390fd5b505b60003390506000851415610afd576040517f08c379a0000000000000000000000000000000000000000000000000000000008152600401610af490614919565b60405180910390fd5b61012c841015610b42576040517f08c379a0000000000000000000000000000000000000000000000000000000008152600401610b39906147b9565b60405180910390fd5b62015180841115610b88576040517f08c379a0000000000000000000000000000000000000000000000000000000008152600401610b7f90614859565b60405180910390fd5b600f8a8a90501115610bcf576040517f08c379a0000000000000000000000000000000000000000000000000000000008152600401610bc690614959565b60405180910390fd5b6000610bd9610877565b90508873ffffffffffffffffffffffffffffffffffffffff166342842e0e83308b6040518463ffffffff1660e01b8152600401610c1893929190614576565b600060405180830381600087803b158015610c3257600080fd5b505af1158015610c46573d6000803e3d6000fd5b50505050610c526133d9565b82816000019073ffffffffffffffffffffffffffffffffffffffff16908173ffffffffffffffffffffffffffffffffffffffff16815250508b8b8080601f016020809104026020016040519081016040528093929190818152602001838380828437600081840152601f19601f82011690508083019250505050505050816020018190525089816040019073ffffffffffffffffffffffffffffffffffffffff16908173ffffffffffffffffffffffffffffffffffffffff168152505081816060019073ffffffffffffffffffffffffffffffffffffffff16908173ffffffffffffffffffffffffffffffffffffffff168152505088816080018181525050878160a0018181525050868160c0018181525050858160e0018181525050610d828642612c4d90919063ffffffff16565b81610100018181525050606681908060018154018082558091505060019003906000526020600020906009020160009091909190915060008201518160000160006101000a81548173ffffffffffffffffffffffffffffffffffffffff021916908373ffffffffffffffffffffffffffffffffffffffff1602179055506020820151816001019080519060200190610e1b929190613467565b5060408201518160020160006101000a81548173ffffffffffffffffffffffffffffffffffffffff021916908373ffffffffffffffffffffffffffffffffffffffff16021790555060608201518160030160006101000a81548173ffffffffffffffffffffffffffffffffffffffff021916908373ffffffffffffffffffffffffffffffffffffffff1602179055506080820151816004015560a0820151816005015560c0820151816006015560e0820151816007015561010082015181600801555050606680549050606a60008573ffffffffffffffffffffffffffffffffffffffff1673ffffffffffffffffffffffffffffffffffffffff16815260200190815260200160002081905550606680549050606b8d8d604051610f40929190614510565b908152602001604051809103902081905550600060668054905090507f5df3171ca1c576c52dbe66186f579a4726acd9e7a117b33ec1782bcd67285c4b8282604051610f8d929190614af9565b60405180910390a150505050505050505050505050565b606f6020528060005260406000206000915090505481565b806066805490508110611004576040517f08c379a0000000000000000000000000000000000000000000000000000000008152600401610ffb906148b9565b60405180910390fd5b81426066828154811061101357fe5b9060005260206000209060090201600801541115611066576040517f08c379a000000000000000000000000000000000000000000000000000000000815260040161105d90614ad9565b60405180910390fd5b60003390506110758185612ca2565b6110b4576040517f08c379a00000000000000000000000000000000000000000000000000000000081526004016110ab90614879565b60405180910390fd5b6067600085815260200190815260200160002060009054906101000a900460ff1615611115576040517f08c379a000000000000000000000000000000000000000000000000000000000815260040161110c90614939565b60405180910390fd5b60016067600086815260200190815260200160002060006101000a81548160ff021916908315150217905550606a60008273ffffffffffffffffffffffffffffffffffffffff1673ffffffffffffffffffffffffffffffffffffffff1681526020019081526020016000206000905561118c6133d9565b6066858154811061119957fe5b9060005260206000209060090201604051806101200160405290816000820160009054906101000a900473ffffffffffffffffffffffffffffffffffffffff1673ffffffffffffffffffffffffffffffffffffffff1673ffffffffffffffffffffffffffffffffffffffff168152602001600182018054600181600116156101000203166002900480601f0160208091040260200160405190810160405280929190818152602001828054600181600116156101000203166002900480156112a25780601f10611277576101008083540402835291602001916112a2565b820191906000526020600020905b81548152906001019060200180831161128557829003601f168201915b505050505081526020016002820160009054906101000a900473ffffffffffffffffffffffffffffffffffffffff1673ffffffffffffffffffffffffffffffffffffffff1673ffffffffffffffffffffffffffffffffffffffff1681526020016003820160009054906101000a900473ffffffffffffffffffffffffffffffffffffffff1673ffffffffffffffffffffffffffffffffffffffff1673ffffffffffffffffffffffffffffffffffffffff168152602001600482015481526020016005820154815260200160068201548152602001600782015481526020016008820154815250509050600073ffffffffffffffffffffffffffffffffffffffff166068600087815260200190815260200160002060009054906101000a900473ffffffffffffffffffffffffffffffffffffffff1673ffffffffffffffffffffffffffffffffffffffff16146114e35760006069600087815260200190815260200160002054905060008111156114dd576000611449670de0b6b3a764000061143b61142c61083c565b85612d2a90919063ffffffff16565b612d9a90919063ffffffff16565b905060006114608284612de490919063ffffffff16565b9050600081111561149f5761149e846000015182866060015173ffffffffffffffffffffffffffffffffffffffff16612e2e9092919063ffffffff16565b5b60008211156114da576114d961dead83866060015173ffffffffffffffffffffffffffffffffffffffff16612e2e9092919063ffffffff16565b5b50505b5061155f565b806040015173ffffffffffffffffffffffffffffffffffffffff166342842e0e30836000015184608001516040518463ffffffff1660e01b815260040161152c939291906146ca565b600060405180830381600087803b15801561154657600080fd5b505af115801561155a573d6000803e3d6000fd5b505050505b7fd8138f8a3f377c5259ca548e70e4c2de94f129f5a11036a15b69513cba2b426a8286604051611590929190614641565b60405180910390a15050505050565b606c60205281600052604060002081815481106115b857fe5b90600052602060002001600091509150505481565b6000606560008373ffffffffffffffffffffffffffffffffffffffff168560001c1860001b815260200190815260200160002054905092915050565b816066805490508110611651576040517f08c379a0000000000000000000000000000000000000000000000000000000008152600401611648906148b9565b60405180910390fd5b82426066828154811061166057fe5b906000526020600020906009020160080154116116b2576040517f08c379a00000000000000000000000000000000000000000000000000000000081526004016116a9906148f9565b60405180910390fd5b60003390506000606686815481106116c657fe5b906000526020600020906009020190508173ffffffffffffffffffffffffffffffffffffffff168160000160009054906101000a900473ffffffffffffffffffffffffffffffffffffffff1673ffffffffffffffffffffffffffffffffffffffff161415611769576040517f08c379a000000000000000000000000000000000000000000000000000000000815260040161176090614999565b60405180910390fd5b60008514156117ad576040517f08c379a00000000000000000000000000000000000000000000000000000000081526004016117a490614819565b60405180910390fd5b80600501548510156117f4576040517f08c379a00000000000000000000000000000000000000000000000000000000081526004016117eb906149f9565b60405180910390fd5b6117fd8661220c565b85101561183f576040517f08c379a000000000000000000000000000000000000000000000000000000000815260040161183690614a59565b60405180910390fd5b60008160030160009054906101000a900473ffffffffffffffffffffffffffffffffffffffff1690506118958330888473ffffffffffffffffffffffffffffffffffffffff16612eb4909392919063ffffffff16565b6118c13060008373ffffffffffffffffffffffffffffffffffffffff16612f3d9092919063ffffffff16565b6118d8826007015442612c4d90919063ffffffff16565b8260080181905550600073ffffffffffffffffffffffffffffffffffffffff166068600089815260200190815260200160002060009054906101000a900473ffffffffffffffffffffffffffffffffffffffff1673ffffffffffffffffffffffffffffffffffffffff1614158015611963575060006069600089815260200190815260200160002054115b156119da576119d96068600089815260200190815260200160002060009054906101000a900473ffffffffffffffffffffffffffffffffffffffff16606960008a8152602001908152602001600020548373ffffffffffffffffffffffffffffffffffffffff16612e2e9092919063ffffffff16565b5b826068600089815260200190815260200160002060006101000a81548173ffffffffffffffffffffffffffffffffffffffff021916908373ffffffffffffffffffffffffffffffffffffffff1602179055508560696000898152602001908152602001600020819055506001606f60008981526020019081526020016000205401606f600089815260200190815260200160002081905550606c60008473ffffffffffffffffffffffffffffffffffffffff1673ffffffffffffffffffffffffffffffffffffffff16815260200190815260200160002087908060018154018082558091505060019003906000526020600020016000909190919091505585606d60008573ffffffffffffffffffffffffffffffffffffffff1673ffffffffffffffffffffffffffffffffffffffff1681526020019081526020016000206000898152602001908152602001600020819055507f19421268847f42dd61705778018ddfc43bcdce8517e7a630acb12f122c709481838888604051611b609392919061466a565b60405180910390a150505050505050565b806066805490508110611bb9576040517f08c379a0000000000000000000000000000000000000000000000000000000008152600401611bb0906148b9565b60405180910390fd5b814260668281548110611bc857fe5b9060005260206000209060090201600801541115611c1b576040517f08c379a0000000000000000000000000000000000000000000000000000000008152600401611c1290614ad9565b60405180910390fd5b60003390508073ffffffffffffffffffffffffffffffffffffffff166068600086815260200190815260200160002060009054906101000a900473ffffffffffffffffffffffffffffffffffffffff1673ffffffffffffffffffffffffffffffffffffffff1614611cc1576040517f08c379a0000000000000000000000000000000000000000000000000000000008152600401611cb890614a19565b60405180910390fd5b606e60008273ffffffffffffffffffffffffffffffffffffffff1673ffffffffffffffffffffffffffffffffffffffff168152602001908152602001600020600085815260200190815260200160002060009054906101000a900460ff1615611d5f576040517f08c379a0000000000000000000000000000000000000000000000000000000008152600401611d5690614a39565b60405180910390fd5b6001606e60008373ffffffffffffffffffffffffffffffffffffffff1673ffffffffffffffffffffffffffffffffffffffff168152602001908152602001600020600086815260200190815260200160002060006101000a81548160ff021916908315150217905550611dd06133d9565b60668581548110611ddd57fe5b9060005260206000209060090201604051806101200160405290816000820160009054906101000a900473ffffffffffffffffffffffffffffffffffffffff1673ffffffffffffffffffffffffffffffffffffffff1673ffffffffffffffffffffffffffffffffffffffff168152602001600182018054600181600116156101000203166002900480601f016020809104026020016040519081016040528092919081815260200182805460018160011615610100020316600290048015611ee65780601f10611ebb57610100808354040283529160200191611ee6565b820191906000526020600020905b815481529060010190602001808311611ec957829003601f168201915b505050505081526020016002820160009054906101000a900473ffffffffffffffffffffffffffffffffffffffff1673ffffffffffffffffffffffffffffffffffffffff1673ffffffffffffffffffffffffffffffffffffffff1681526020016003820160009054906101000a900473ffffffffffffffffffffffffffffffffffffffff1673ffffffffffffffffffffffffffffffffffffffff1673ffffffffffffffffffffffffffffffffffffffff168152602001600482015481526020016005820154815260200160068201548152602001600782015481526020016008820154815250509050806040015173ffffffffffffffffffffffffffffffffffffffff166342842e0e308484608001516040518463ffffffff1660e01b8152600401612014939291906146ca565b600060405180830381600087803b15801561202e57600080fd5b505af1158015612042573d6000803e3d6000fd5b505050507fd8138f8a3f377c5259ca548e70e4c2de94f129f5a11036a15b69513cba2b426a8286604051612077929190614641565b60405180910390a15050505050565b60696020528060005260406000206000915090505481565b600060656000838152602001908152602001600020549050919050565b3373ffffffffffffffffffffffffffffffffffffffff16603360009054906101000a900473ffffffffffffffffffffffffffffffffffffffff1673ffffffffffffffffffffffffffffffffffffffff161461214b576040517f08c379a0000000000000000000000000000000000000000000000000000000008152600401612142906149b9565b60405180910390fd5b600073ffffffffffffffffffffffffffffffffffffffff16603360009054906101000a900473ffffffffffffffffffffffffffffffffffffffff1673ffffffffffffffffffffffffffffffffffffffff167f8be0079c531659141344cd1fd0a4f28419497f9722a3daafe3b4186f6b6457e060405160405180910390a36000603360006101000a81548173ffffffffffffffffffffffffffffffffffffffff021916908373ffffffffffffffffffffffffffffffffffffffff160217905550565b60006122166133d9565b6066838154811061222357fe5b9060005260206000209060090201604051806101200160405290816000820160009054906101000a900473ffffffffffffffffffffffffffffffffffffffff1673ffffffffffffffffffffffffffffffffffffffff1673ffffffffffffffffffffffffffffffffffffffff168152602001600182018054600181600116156101000203166002900480601f01602080910402602001604051908101604052809291908181526020018280546001816001161561010002031660029004801561232c5780601f106123015761010080835404028352916020019161232c565b820191906000526020600020905b81548152906001019060200180831161230f57829003601f168201915b505050505081526020016002820160009054906101000a900473ffffffffffffffffffffffffffffffffffffffff1673ffffffffffffffffffffffffffffffffffffffff1673ffffffffffffffffffffffffffffffffffffffff1681526020016003820160009054906101000a900473ffffffffffffffffffffffffffffffffffffffff1673ffffffffffffffffffffffffffffffffffffffff1673ffffffffffffffffffffffffffffffffffffffff16815260200160048201548152602001600582015481526020016006820154815260200160078201548152602001600882015481525050905060008160a001519050600073ffffffffffffffffffffffffffffffffffffffff166068600086815260200190815260200160002060009054906101000a900473ffffffffffffffffffffffffffffffffffffffff1673ffffffffffffffffffffffffffffffffffffffff16146124b6576124af8260c001516069600087815260200190815260200160002054612c4d90919063ffffffff16565b90506124cc565b60008260a0015114156124cb578160c0015190505b5b8092505050919050565b606d602052816000526040600020602052806000526040600020600091509150505481565b6000603360009054906101000a900473ffffffffffffffffffffffffffffffffffffffff16905090565b600060656000838560001c1860001b815260200190815260200160002054905092915050565b6000606680549050905090565b606b818051602081018201805184825260208301602085012081835280955050505050506000915090505481565b6066818154811061259357fe5b90600052602060002090600902016000915090508060000160009054906101000a900473ffffffffffffffffffffffffffffffffffffffff1690806001018054600181600116156101000203166002900480601f0160208091040260200160405190810160405280929190818152602001828054600181600116156101000203166002900480156126655780601f1061263a57610100808354040283529160200191612665565b820191906000526020600020905b81548152906001019060200180831161264857829003601f168201915b5050505050908060020160009054906101000a900473ffffffffffffffffffffffffffffffffffffffff16908060030160009054906101000a900473ffffffffffffffffffffffffffffffffffffffff16908060040154908060050154908060060154908060070154908060080154905089565b3373ffffffffffffffffffffffffffffffffffffffff16603360009054906101000a900473ffffffffffffffffffffffffffffffffffffffff1673ffffffffffffffffffffffffffffffffffffffff1614612769576040517f08c379a0000000000000000000000000000000000000000000000000000000008152600401612760906149b9565b60405180910390fd5b6127918273ffffffffffffffffffffffffffffffffffffffff168460001c1860001b82612c16565b505050565b606a6020528060005260406000206000915090505481565b600060019054906101000a900460ff16806127cd57506127cc61309b565b5b806127e457506000809054906101000a900460ff16155b612823576040517f08c379a000000000000000000000000000000000000000000000000000000000815260040161281a906149d9565b60405180910390fd5b60008060019054906101000a900460ff161590508015612873576001600060016101000a81548160ff02191690831515021790555060016000806101000a81548160ff0219169083151502179055505b61287b6130b2565b66470de4df820000606560007f5478466565526174696f000000000000000000000000000000000000000000008152602001908152602001600020819055508173ffffffffffffffffffffffffffffffffffffffff16606560007f476c66416464726573730000000000000000000000000000000000000000000081526020019081526020016000208190555080156129295760008060016101000a81548160ff0219169083151502179055505b5050565b606e6020528160005260406000206020528060005260406000206000915091509054906101000a900460ff1681565b3373ffffffffffffffffffffffffffffffffffffffff16603360009054906101000a900473ffffffffffffffffffffffffffffffffffffffff1673ffffffffffffffffffffffffffffffffffffffff16146129ec576040517f08c379a00000000000000000000000000000000000000000000000000000000081526004016129e3906149b9565b60405180910390fd5b6129fe828460001c1860001b82612c16565b505050565b60676020528060005260406000206000915054906101000a900460ff1681565b3373ffffffffffffffffffffffffffffffffffffffff16603360009054906101000a900473ffffffffffffffffffffffffffffffffffffffff1673ffffffffffffffffffffffffffffffffffffffff1614612ab3576040517f08c379a0000000000000000000000000000000000000000000000000000000008152600401612aaa906149b9565b60405180910390fd5b600073ffffffffffffffffffffffffffffffffffffffff168173ffffffffffffffffffffffffffffffffffffffff161415612b23576040517f08c379a0000000000000000000000000000000000000000000000000000000008152600401612b1a906147f9565b60405180910390fd5b8073ffffffffffffffffffffffffffffffffffffffff16603360009054906101000a900473ffffffffffffffffffffffffffffffffffffffff1673ffffffffffffffffffffffffffffffffffffffff167f8be0079c531659141344cd1fd0a4f28419497f9722a3daafe3b4186f6b6457e060405160405180910390a380603360006101000a81548173ffffffffffffffffffffffffffffffffffffffff021916908373ffffffffffffffffffffffffffffffffffffffff16021790555050565b60686020528060005260406000206000915054906101000a900473ffffffffffffffffffffffffffffffffffffffff1681565b80606560008481526020019081526020016000205414612c49578060656000848152602001908152602001600020819055505b5050565b600080828401905083811015612c98576040517f08c379a0000000000000000000000000000000000000000000000000000000008152600401612c8f90614839565b60405180910390fd5b8091505092915050565b60008273ffffffffffffffffffffffffffffffffffffffff1660668381548110612cc857fe5b906000526020600020906009020160000160009054906101000a900473ffffffffffffffffffffffffffffffffffffffff1673ffffffffffffffffffffffffffffffffffffffff161415612d1f5760019050612d24565b600090505b92915050565b600080831415612d3d5760009050612d94565b6000828402905082848281612d4e57fe5b0414612d8f576040517f08c379a0000000000000000000000000000000000000000000000000000000008152600401612d8690614979565b60405180910390fd5b809150505b92915050565b6000612ddc83836040518060400160405280601a81526020017f536166654d6174683a206469766973696f6e206279207a65726f0000000000008152506130bc565b905092915050565b6000612e2683836040518060400160405280601e81526020017f536166654d6174683a207375627472616374696f6e206f766572666c6f77000081525061311d565b905092915050565b612eaf8363a9059cbb60e01b8484604051602401612e4d929190614738565b604051602081830303815290604052907bffffffffffffffffffffffffffffffffffffffffffffffffffffffff19166020820180517bffffffffffffffffffffffffffffffffffffffffffffffffffffffff8381831617835250505050613178565b505050565b612f37846323b872dd60e01b858585604051602401612ed593929190614701565b604051602081830303815290604052907bffffffffffffffffffffffffffffffffffffffffffffffffffffffff19166020820180517bffffffffffffffffffffffffffffffffffffffffffffffffffffffff8381831617835250505050613178565b50505050565b6000811480612fd6575060008373ffffffffffffffffffffffffffffffffffffffff1663dd62ed3e30856040518363ffffffff1660e01b8152600401612f849291906146a1565b60206040518083038186803b158015612f9c57600080fd5b505afa158015612fb0573d6000803e3d6000fd5b505050506040513d601f19601f82011682018060405250810190612fd491906139bb565b145b613015576040517f08c379a000000000000000000000000000000000000000000000000000000000815260040161300c90614a99565b60405180910390fd5b6130968363095ea7b360e01b8484604051602401613034929190614738565b604051602081830303815290604052907bffffffffffffffffffffffffffffffffffffffffffffffffffffffff19166020820180517bffffffffffffffffffffffffffffffffffffffffffffffffffffffff8381831617835250505050613178565b505050565b6000803090506000813b9050600081149250505090565b6130ba6132ea565b565b60008083118290613103576040517f08c379a00000000000000000000000000000000000000000000000000000000081526004016130fa9190614797565b60405180910390fd5b50600083858161310f57fe5b049050809150509392505050565b6000838311158290613165576040517f08c379a000000000000000000000000000000000000000000000000000000000815260040161315c9190614797565b60405180910390fd5b5060008385039050809150509392505050565b6131978273ffffffffffffffffffffffffffffffffffffffff1661338e565b6131d6576040517f08c379a00000000000000000000000000000000000000000000000000000000081526004016131cd90614ab9565b60405180910390fd5b600060608373ffffffffffffffffffffffffffffffffffffffff16836040516131ff91906144f9565b6000604051808303816000865af19150503d806000811461323c576040519150601f19603f3d011682016040523d82523d6000602084013e613241565b606091505b509150915081613286576040517f08c379a000000000000000000000000000000000000000000000000000000000815260040161327d906148d9565b60405180910390fd5b6000815111156132e457808060200190518101906132a49190613742565b6132e3576040517f08c379a00000000000000000000000000000000000000000000000000000000081526004016132da90614a79565b60405180910390fd5b5b50505050565b600033905080603360006101000a81548173ffffffffffffffffffffffffffffffffffffffff021916908373ffffffffffffffffffffffffffffffffffffffff1602179055508073ffffffffffffffffffffffffffffffffffffffff16600073ffffffffffffffffffffffffffffffffffffffff167f8be0079c531659141344cd1fd0a4f28419497f9722a3daafe3b4186f6b6457e060405160405180910390a350565b60008060007fc5d2460186f7233c927e7db2dcc703c0e500b653ca82273b7bfad8045d85a47060001b9050833f91508082141580156133d057506000801b8214155b92505050919050565b604051806101200160405280600073ffffffffffffffffffffffffffffffffffffffff16815260200160608152602001600073ffffffffffffffffffffffffffffffffffffffff168152602001600073ffffffffffffffffffffffffffffffffffffffff16815260200160008152602001600081526020016000815260200160008152602001600081525090565b828054600181600116156101000203166002900490600052602060002090601f016020900481019282601f106134a857805160ff19168380011785556134d6565b828001600101855582156134d6579182015b828111156134d55782518255916020019190600101906134ba565b5b5090506134e391906134e7565b5090565b61350991905b808211156135055760008160009055506001016134ed565b5090565b90565b60008135905061351b81614d04565b92915050565b60008151905061353081614d1b565b92915050565b60008135905061354581614d32565b92915050565b60008083601f84011261355d57600080fd5b8235905067ffffffffffffffff81111561357657600080fd5b60208301915083600182028301111561358e57600080fd5b9250929050565b60008083601f8401126135a757600080fd5b8235905067ffffffffffffffff8111156135c057600080fd5b6020830191508360018202830111156135d857600080fd5b9250929050565b600082601f8301126135f057600080fd5b81356136036135fe82614b71565b614b44565b9150808252602083016020830185838301111561361f57600080fd5b61362a838284614cb1565b50505092915050565b60008135905061364281614d49565b92915050565b60008151905061365781614d49565b92915050565b60006020828403121561366f57600080fd5b600061367d8482850161350c565b91505092915050565b60008060008060006080868803121561369e57600080fd5b60006136ac8882890161350c565b95505060206136bd8882890161350c565b94505060406136ce88828901613633565b935050606086013567ffffffffffffffff8111156136eb57600080fd5b6136f78882890161354b565b92509250509295509295909350565b6000806040838503121561371957600080fd5b60006137278582860161350c565b925050602061373885828601613633565b9150509250929050565b60006020828403121561375457600080fd5b600061376284828501613521565b91505092915050565b60006020828403121561377d57600080fd5b600061378b84828501613536565b91505092915050565b600080604083850312156137a757600080fd5b60006137b585828601613536565b92505060206137c68582860161350c565b9150509250929050565b6000806000606084860312156137e557600080fd5b60006137f386828701613536565b93505060206138048682870161350c565b925050604061381586828701613633565b9150509250925092565b6000806040838503121561383257600080fd5b600061384085828601613536565b925050602061385185828601613633565b9150509250929050565b60008060006060848603121561387057600080fd5b600061387e86828701613536565b935050602061388f86828701613633565b92505060406138a086828701613633565b9150509250925092565b600080600080600080600060c0888a0312156138c557600080fd5b600088013567ffffffffffffffff8111156138df57600080fd5b6138eb8a828b01613595565b975097505060206138fe8a828b0161350c565b955050604061390f8a828b01613633565b94505060606139208a828b01613633565b93505060806139318a828b01613633565b92505060a06139428a828b01613633565b91505092959891949750929550565b60006020828403121561396357600080fd5b600082013567ffffffffffffffff81111561397d57600080fd5b613989848285016135df565b91505092915050565b6000602082840312156139a457600080fd5b60006139b284828501613633565b91505092915050565b6000602082840312156139cd57600080fd5b60006139db84828501613648565b91505092915050565b600080604083850312156139f757600080fd5b6000613a0585828601613633565b9250506020613a1685828601613633565b9150509250929050565b613a2981614c7b565b82525050565b613a3881614bfd565b82525050565b613a4781614bfd565b82525050565b613a5681614beb565b82525050565b613a6581614beb565b82525050565b613a7481614c0f565b82525050565b613a8381614c25565b82525050565b6000613a9482614b9d565b613a9e8185614bb3565b9350613aae818560208601614cc0565b80840191505092915050565b6000613ac68385614be0565b9350613ad3838584614cb1565b82840190509392505050565b6000613aea82614ba8565b613af48185614bbe565b9350613b04818560208601614cc0565b613b0d81614cf3565b840191505092915050565b6000613b2382614ba8565b613b2d8185614bcf565b9350613b3d818560208601614cc0565b613b4681614cf3565b840191505092915050565b6000613b5c82614ba8565b613b668185614be0565b9350613b76818560208601614cc0565b80840191505092915050565b6000613b8f602c83614bcf565b91507f7468652076616c7565206f6620636f6e6669726d54696d65206c65737320746860008301527f616e2035206d696e7574657300000000000000000000000000000000000000006020830152604082019050919050565b6000613bf5602983614bcf565b91507f61206c69766520706f6f6c20686173206265656e20637265617465642062792060008301527f74686973206e616d6500000000000000000000000000000000000000000000006020830152604082019050919050565b6000613c5b602683614bcf565b91507f4f776e61626c653a206e6577206f776e657220697320746865207a65726f206160008301527f64647265737300000000000000000000000000000000000000000000000000006020830152604082019050919050565b6000613cc1601c83614bcf565b91507f7468652076616c7565206f6620616d6f756e7431206973207a65726f000000006000830152602082019050919050565b6000613d01601b83614bcf565b91507f536166654d6174683a206164646974696f6e206f766572666c6f7700000000006000830152602082019050919050565b6000613d41602a83614bcf565b91507f7468652076616c7565206f6620636f6e6669726d54696d65206973206578636560008301527f65646564203120646179000000000000000000000000000000000000000000006020830152604082019050919050565b6000613da7601a83614bcf565b91507f73656e646572206973206e6f7420706f6f6c2063726561746f720000000000006000830152602082019050919050565b6000613de7602283614bcf565b91507f6120706f6f6c206861732063726561746564206279207468697320616464726560008301527f73730000000000000000000000000000000000000000000000000000000000006020830152604082019050919050565b6000613e4d601883614bcf565b91507f7468697320706f6f6c20646f6573206e6f7420657869737400000000000000006000830152602082019050919050565b6000613e8d602083614bcf565b91507f5361666545524332303a206c6f772d6c6576656c2063616c6c206661696c65646000830152602082019050919050565b6000613ecd601383614bcf565b91507f7468697320706f6f6c20697320636c6f736564000000000000000000000000006000830152602082019050919050565b6000613f0d602383614bcf565b91507f7468652076616c7565206f6620616d6f756e744d696e496e637231206973207a60008301527f65726f00000000000000000000000000000000000000000000000000000000006020830152604082019050919050565b6000613f73601d83614bcf565b91507f63726561746f722068617320636c61696d6564207468697320706f6f6c0000006000830152602082019050919050565b6000613fb3601e83614bcf565b91507f746865206c656e677468206f66206e616d6520697320746f6f206c6f6e6700006000830152602082019050919050565b6000613ff3602183614bcf565b91507f536166654d6174683a206d756c7469706c69636174696f6e206f766572666c6f60008301527f77000000000000000000000000000000000000000000000000000000000000006020830152604082019050919050565b6000614059602a83614bcf565b91507f63726561746f722063616e2774206269642074686520706f6f6c20637265617460008301527f65642062792073656c66000000000000000000000000000000000000000000006020830152604082019050919050565b60006140bf602083614bcf565b91507f4f776e61626c653a2063616c6c6572206973206e6f7420746865206f776e65726000830152602082019050919050565b60006140ff602e83614bcf565b91507f436f6e747261637420696e7374616e63652068617320616c726561647920626560008301527f656e20696e697469616c697a65640000000000000000000000000000000000006020830152604082019050919050565b6000614165603283614bcf565b91507f7468652062696420616d6f756e74206973206c6f776572207468616e206d696e60008301527f696d756d2062696464657220616d6f756e7400000000000000000000000000006020830152604082019050919050565b60006141cb602583614bcf565b91507f73656e646572206973206e6f74207468652077696e6e6572206f66207468697360008301527f20706f6f6c0000000000000000000000000000000000000000000000000000006020830152604082019050919050565b6000614231601c83614bcf565b91507f73656e6465722068617320636c61696d6564207468697320706f6f6c000000006000830152602082019050919050565b6000614271603683614bcf565b91507f7468652062696420616d6f756e74206973206c6f776572207468616e2074686560008301527f2063757272656e742062696464657220616d6f756e74000000000000000000006020830152604082019050919050565b60006142d7602a83614bcf565b91507f5361666545524332303a204552433230206f7065726174696f6e20646964206e60008301527f6f742073756363656564000000000000000000000000000000000000000000006020830152604082019050919050565b600061433d603683614bcf565b91507f5361666545524332303a20617070726f76652066726f6d206e6f6e2d7a65726f60008301527f20746f206e6f6e2d7a65726f20616c6c6f77616e6365000000000000000000006020830152604082019050919050565b60006143a3601f83614bcf565b91507f5361666545524332303a2063616c6c20746f206e6f6e2d636f6e7472616374006000830152602082019050919050565b60006143e3601783614bcf565b91507f7468697320706f6f6c206973206e6f7420636c6f7365640000000000000000006000830152602082019050919050565b60006101208301600083015161442f6000860182613a2f565b50602083015184820360208601526144478282613adf565b915050604083015161445c6040860182613a4d565b50606083015161446f6060860182613a4d565b50608083015161448260808601826144db565b5060a083015161449560a08601826144db565b5060c08301516144a860c08601826144db565b5060e08301516144bb60e08601826144db565b506101008301516144d06101008601826144db565b508091505092915050565b6144e481614c71565b82525050565b6144f381614c71565b82525050565b60006145058284613a89565b915081905092915050565b600061451d828486613aba565b91508190509392505050565b60006145358284613b51565b915081905092915050565b60006020820190506145556000830184613a5c565b92915050565b60006020820190506145706000830184613a3e565b92915050565b600060608201905061458b6000830186613a20565b6145986020830185613a5c565b6145a560408301846144ea565b949350505050565b6000610120820190506145c3600083018c613a3e565b81810360208301526145d5818b613b18565b90506145e4604083018a613a5c565b6145f16060830189613a5c565b6145fe60808301886144ea565b61460b60a08301876144ea565b61461860c08301866144ea565b61462560e08301856144ea565b6146336101008301846144ea565b9a9950505050505050505050565b60006040820190506146566000830185613a20565b61466360208301846144ea565b9392505050565b600060608201905061467f6000830186613a20565b61468c60208301856144ea565b61469960408301846144ea565b949350505050565b60006040820190506146b66000830185613a5c565b6146c36020830184613a5c565b9392505050565b60006060820190506146df6000830186613a5c565b6146ec6020830185613a20565b6146f960408301846144ea565b949350505050565b60006060820190506147166000830186613a5c565b6147236020830185613a5c565b61473060408301846144ea565b949350505050565b600060408201905061474d6000830185613a5c565b61475a60208301846144ea565b9392505050565b60006020820190506147766000830184613a6b565b92915050565b60006020820190506147916000830184613a7a565b92915050565b600060208201905081810360008301526147b18184613b18565b905092915050565b600060208201905081810360008301526147d281613b82565b9050919050565b600060208201905081810360008301526147f281613be8565b9050919050565b6000602082019050818103600083015261481281613c4e565b9050919050565b6000602082019050818103600083015261483281613cb4565b9050919050565b6000602082019050818103600083015261485281613cf4565b9050919050565b6000602082019050818103600083015261487281613d34565b9050919050565b6000602082019050818103600083015261489281613d9a565b9050919050565b600060208201905081810360008301526148b281613dda565b9050919050565b600060208201905081810360008301526148d281613e40565b9050919050565b600060208201905081810360008301526148f281613e80565b9050919050565b6000602082019050818103600083015261491281613ec0565b9050919050565b6000602082019050818103600083015261493281613f00565b9050919050565b6000602082019050818103600083015261495281613f66565b9050919050565b6000602082019050818103600083015261497281613fa6565b9050919050565b6000602082019050818103600083015261499281613fe6565b9050919050565b600060208201905081810360008301526149b28161404c565b9050919050565b600060208201905081810360008301526149d2816140b2565b9050919050565b600060208201905081810360008301526149f2816140f2565b9050919050565b60006020820190508181036000830152614a1281614158565b9050919050565b60006020820190508181036000830152614a32816141be565b9050919050565b60006020820190508181036000830152614a5281614224565b9050919050565b60006020820190508181036000830152614a7281614264565b9050919050565b60006020820190508181036000830152614a92816142ca565b9050919050565b60006020820190508181036000830152614ab281614330565b9050919050565b60006020820190508181036000830152614ad281614396565b9050919050565b60006020820190508181036000830152614af2816143d6565b9050919050565b60006040820190508181036000830152614b138185614416565b9050614b2260208301846144ea565b9392505050565b6000602082019050614b3e60008301846144ea565b92915050565b6000604051905081810181811067ffffffffffffffff82111715614b6757600080fd5b8060405250919050565b600067ffffffffffffffff821115614b8857600080fd5b601f19601f8301169050602081019050919050565b600081519050919050565b600081519050919050565b600081905092915050565b600082825260208201905092915050565b600082825260208201905092915050565b600081905092915050565b6000614bf682614c51565b9050919050565b6000614c0882614c51565b9050919050565b60008115159050919050565b6000819050919050565b60007fffffffff0000000000000000000000000000000000000000000000000000000082169050919050565b600073ffffffffffffffffffffffffffffffffffffffff82169050919050565b6000819050919050565b6000614c8682614c8d565b9050919050565b6000614c9882614c9f565b9050919050565b6000614caa82614c51565b9050919050565b82818337600083830152505050565b60005b83811015614cde578082015181840152602081019050614cc3565b83811115614ced576000848401525b50505050565b6000601f19601f8301169050919050565b614d0d81614beb565b8114614d1857600080fd5b50565b614d2481614c0f565b8114614d2f57600080fd5b50565b614d3b81614c1b565b8114614d4657600080fd5b50565b614d5281614c71565b8114614d5d57600080fd5b5056fea2646970667358221220267f54e1cbd33a2fa5efe1db273234b9d126fc081c9fbbf2a7c2deed4040b26e64736f6c63430006060033",
  "immutableReferences": {},
  "source": "// SPDX-License-Identifier: MIT\n\npragma solidity ^0.6.0;\npragma experimental ABIEncoderV2;\n\nimport \"@openzeppelin/contracts-ethereum-package/contracts/math/SafeMath.sol\";\nimport \"@openzeppelin/contracts-ethereum-package/contracts/token/ERC20/SafeERC20.sol\";\nimport \"@openzeppelin/contracts-ethereum-package/contracts/token/ERC20/IERC20.sol\";\nimport \"@openzeppelin/contracts-ethereum-package/contracts/token/ERC721/IERC721.sol\";\nimport \"@openzeppelin/contracts-ethereum-package/contracts/token/ERC721/IERC721Receiver.sol\";\nimport \"@openzeppelin/contracts-ethereum-package/contracts/Initializable.sol\";\n\n// Inheritance\nimport \"./Configurable.sol\";\n\ncontract EnglishAuctionNFT is Initializable, Configurable, IERC721Receiver {\n    using SafeMath for uint256;\n    using SafeERC20 for IERC20;\n\n    bytes32 internal constant TxFeeRatio = bytes32(\"TxFeeRatio\");\n    bytes32 internal constant GlfAddress = bytes32(\"GlfAddress\");\n    address internal constant DeadAddress = 0x000000000000000000000000000000000000dEaD;\n\n    struct Pool {\n        // address of pool creator\n        address payable creator;\n        // pool name\n        string name;\n        // address of sell token\n        address token0;\n        // address of buy token\n        address token1;\n        // token id of token0\n        uint tokenId;\n        // minimum amount of token1 that creator want to swap\n        uint amountMin1;\n        // minimum incremental amount of token1\n        uint amountMinIncr1;\n        // how many seconds the pool will be live since last bid\n        uint confirmTime;\n        // the timestamp in seconds the pool will be closed\n        uint closeAt;\n    }\n\n    Pool[] public pools;\n\n    // pool index => a flag that if creator is claimed the pool\n    mapping(uint => bool) public creatorClaimedP;\n    // pool index => the candidate of winner who bid the highest amount1 in current round\n    mapping(uint => address payable) public currentBidderP;\n    // pool index => the highest amount1 in current round\n    mapping(uint => uint) public currentBidderAmount1P;\n\n    // creator address => pool index + 1. if the result is 0, the account don't create any pool.\n    mapping(address => uint) public myCreatedP;\n    // name => pool index + 1\n    mapping(string => uint) public myNameP;\n\n    // account => array of pool index\n    mapping(address => uint[]) public myBidP;\n    // account => pool index => bid amount1\n    mapping(address => mapping(uint => uint)) public myBidderAmount1P;\n    // account => pool index => claim flag\n    mapping(address => mapping(uint => bool)) public myClaimedP;\n\n    // pool index => bid count\n    mapping(uint => uint) public bidCountP;\n\n    event Created(Pool pool, uint index);\n    event Bid(address sender, uint index, uint amount1);\n    event Claimed(address sender, uint index);\n\n    function initialize(address _GlfAddress) public initializer {\n        super.__Ownable_init();\n        config[TxFeeRatio] = 0.02 ether;\n        config[GlfAddress] = uint(_GlfAddress);\n    }\n\n    function create(\n        // name of the pool\n        string calldata name,\n        // address of token0\n        address token0,\n        // token id of token0\n        uint tokenId,\n        // minimum amount of token1\n        uint amountMin1,\n        // minimum incremental amount of token1\n        uint amountMinIncr1,\n        // confirmation time\n        uint confirmTime\n    ) external\n        isPoolNotCreate(msg.sender)\n        nameNotBeenToken(name)\n    {\n        address payable creator = msg.sender;\n\n        require(amountMinIncr1 != 0, \"the value of amountMinIncr1 is zero\");\n        require(confirmTime >= 5 minutes, \"the value of confirmTime less than 5 minutes\");\n        require(confirmTime <= 1 days, \"the value of confirmTime is exceeded 1 day\");\n        require(bytes(name).length <= 15, \"the length of name is too long\");\n\n        address token1 = getGlfAddress();\n        // transfer tokenId of token0 to this contract\n        IERC721(token0).safeTransferFrom(creator, address(this), tokenId);\n\n        // creator pool\n        Pool memory pool;\n        pool.creator = creator;\n        pool.name = name;\n        pool.token0 = token0;\n        pool.token1 = token1;\n        pool.tokenId = tokenId;\n        pool.amountMin1 = amountMin1;\n        pool.amountMinIncr1 = amountMinIncr1;\n        pool.confirmTime = confirmTime;\n        pool.closeAt = now.add(confirmTime);\n        pools.push(pool);\n        myCreatedP[creator] = pools.length;\n        myNameP[name] = pools.length;\n\n        uint index = pools.length;\n        emit Created(pool, index);\n    }\n\n    function bid(\n        // pool index\n        uint index,\n        // amount of token1\n        uint amount1\n    ) external payable\n        isPoolExist(index)\n        isPoolNotClosed(index)\n    {\n        address payable sender = msg.sender;\n\n        Pool storage pool = pools[index];\n        require(pool.creator != sender, \"creator can't bid the pool created by self\");\n        require(amount1 != 0, \"the value of amount1 is zero\");\n        require(amount1 >= pool.amountMin1, \"the bid amount is lower than minimum bidder amount\");\n        require(amount1 >= currentBidderAmount(index), \"the bid amount is lower than the current bidder amount\");\n\n        address token1 = pool.token1;\n        IERC20(token1).safeTransferFrom(sender, address(this), amount1);\n        IERC20(token1).safeApprove(address(this), 0);\n\n        // update closeAt\n        pool.closeAt = now.add(pool.confirmTime);\n\n        // return token1 to previous bidder\n        if (currentBidderP[index] != address(0) && currentBidderAmount1P[index] > 0) {\n            IERC20(token1).safeTransfer(currentBidderP[index], currentBidderAmount1P[index]);\n        }\n\n        // record new winner\n        currentBidderP[index] = sender;\n        currentBidderAmount1P[index] = amount1;\n        bidCountP[index] = bidCountP[index] + 1;\n\n        myBidP[sender].push(index);\n        myBidderAmount1P[sender][index] = amount1;\n\n        emit Bid(sender, index, amount1);\n    }\n\n    function creatorClaim(uint index) external\n        isPoolExist(index)\n        isPoolClosed(index)\n    {\n        address payable sender = msg.sender;\n        require(isCreator(sender, index), \"sender is not pool creator\");\n        require(!creatorClaimedP[index], \"creator has claimed this pool\");\n        creatorClaimedP[index] = true;\n\n        // remove ownership of this pool from creator\n        delete myCreatedP[sender];\n\n        Pool memory pool = pools[index];\n        if (currentBidderP[index] != address(0)) {\n            uint amount1 = currentBidderAmount1P[index];\n            if (amount1 > 0) {\n                // transfer token1 to creator\n                uint256 txFee = amount1.mul(getTxFeeRatio()).div(1 ether);\n                uint256 _actualAmount1 = amount1.sub(txFee);\n                if (_actualAmount1 > 0) {\n                    IERC20(pool.token1).safeTransfer(pool.creator, _actualAmount1);\n                }\n                if (txFee > 0) {\n                    IERC20(pool.token1).safeTransfer(DeadAddress, txFee);\n                }\n            }\n        } else {\n            // transfer token0 back to creator\n            IERC721(pool.token0).safeTransferFrom(address(this), pool.creator, pool.tokenId);\n        }\n\n        emit Claimed(sender, index);\n    }\n\n    function bidderClaim(uint index) external\n        isPoolExist(index)\n        isPoolClosed(index)\n    {\n        address payable sender = msg.sender;\n        require(currentBidderP[index] == sender, \"sender is not the winner of this pool\");\n        require(!myClaimedP[sender][index], \"sender has claimed this pool\");\n        myClaimedP[sender][index] = true;\n\n        // transfer token0 to bidder\n        Pool memory pool = pools[index];\n        IERC721(pool.token0).safeTransferFrom(address(this), sender, pool.tokenId);\n\n        emit Claimed(sender, index);\n    }\n\n    function onERC721Received(address, address, uint256, bytes calldata) external override returns (bytes4) {\n        return this.onERC721Received.selector;\n    }\n\n    function getPoolCount() external view returns (uint) {\n        return pools.length;\n    }\n\n    function currentBidderAmount(uint index) public view returns (uint) {\n        Pool memory pool = pools[index];\n        uint amount = pool.amountMin1;\n\n        if (currentBidderP[index] != address(0)) {\n            amount = currentBidderAmount1P[index].add(pool.amountMinIncr1);\n        } else if (pool.amountMin1 == 0) {\n            amount = pool.amountMinIncr1;\n        }\n\n        return amount;\n    }\n\n    function isCreator(address target, uint index) private view returns (bool) {\n        if (pools[index].creator == target) {\n            return true;\n        }\n        return false;\n    }\n\n    function getTxFeeRatio() public view returns (uint) {\n        return config[TxFeeRatio];\n    }\n\n    function getGlfAddress() public view returns (address) {\n        return address(config[GlfAddress]);\n    }\n\n    modifier isPoolClosed(uint index) {\n        require(pools[index].closeAt <= now, \"this pool is not closed\");\n        _;\n    }\n\n    modifier isPoolNotClosed(uint index) {\n        require(pools[index].closeAt > now, \"this pool is closed\");\n        _;\n    }\n\n    modifier isPoolNotCreate(address creator) {\n        if (myCreatedP[creator] > 0) {\n            revert(\"a pool has created by this address\");\n        }\n        _;\n    }\n\n    modifier isPoolExist(uint index) {\n        require(index < pools.length, \"this pool does not exist\");\n        _;\n    }\n\n    modifier nameNotBeenToken(string memory name) {\n        // check if someone has take this name\n        if (myNameP[name] > 0) {\n            uint index = myNameP[name] - 1;\n            if ((myCreatedP[pools[index].creator] > 0) && (pools[index].closeAt > now)) {\n                revert(\"a live pool has been created by this name\");\n            }\n        }\n        _;\n    }\n}\n",
  "sourcePath": "/Users/edwin/github/gallery.finance/gallery.finance.smart/contracts/EnglishAuctionNFT.sol",
  "compiler": {
    "name": "solc",
    "version": "0.6.6+commit.6c089d02.Emscripten.clang"
  },
  "schemaVersion": "3.2.2",
  "updatedAt": "2020-11-02T05:50:15.788Z",
  "devdoc": {
    "methods": {
      "owner()": {
        "details": "Returns the address of the current owner."
      },
      "renounceOwnership()": {
        "details": "Leaves the contract without owner. It will not be possible to call `onlyOwner` functions anymore. Can only be called by the current owner.     * NOTE: Renouncing ownership will leave the contract without an owner, thereby removing any functionality that is only available to the owner."
      },
      "transferOwnership(address)": {
        "details": "Transfers ownership of the contract to a new account (`newOwner`). Can only be called by the current owner."
      }
    }
  },
  "userdoc": {
    "methods": {}
  }
}