{
  "contractName": "FigureSwap",
  "abi": [
    {
      "anonymous": false,
      "inputs": [
        {
          "indexed": true,
          "internalType": "address",
          "name": "previousOwner",
          "type": "address"
        },
        {
          "indexed": true,
          "internalType": "address",
          "name": "newOwner",
          "type": "address"
        }
      ],
      "name": "OwnershipTransferred",
      "type": "event"
    },
    {
      "anonymous": false,
      "inputs": [
        {
          "indexed": false,
          "internalType": "uint256",
          "name": "tokenId",
          "type": "uint256"
        },
        {
          "indexed": false,
          "internalType": "uint256",
          "name": "amount",
          "type": "uint256"
        }
      ],
      "name": "Swapped",
      "type": "event"
    },
    {
      "inputs": [
        {
          "internalType": "uint256",
          "name": "",
          "type": "uint256"
        },
        {
          "internalType": "uint256",
          "name": "",
          "type": "uint256"
        }
      ],
      "name": "cardIds",
      "outputs": [
        {
          "internalType": "uint256",
          "name": "",
          "type": "uint256"
        }
      ],
      "stateMutability": "view",
      "type": "function"
    },
    {
      "inputs": [
        {
          "internalType": "uint256",
          "name": "",
          "type": "uint256"
        }
      ],
      "name": "cardPoints",
      "outputs": [
        {
          "internalType": "uint256",
          "name": "",
          "type": "uint256"
        }
      ],
      "stateMutability": "view",
      "type": "function"
    },
    {
      "inputs": [],
      "name": "cardToken",
      "outputs": [
        {
          "internalType": "address",
          "name": "",
          "type": "address"
        }
      ],
      "stateMutability": "view",
      "type": "function"
    },
    {
      "inputs": [
        {
          "internalType": "uint256",
          "name": "",
          "type": "uint256"
        },
        {
          "internalType": "uint256",
          "name": "",
          "type": "uint256"
        }
      ],
      "name": "cardsSwapped",
      "outputs": [
        {
          "internalType": "bool",
          "name": "",
          "type": "bool"
        }
      ],
      "stateMutability": "view",
      "type": "function"
    },
    {
      "inputs": [],
      "name": "galleryAddress",
      "outputs": [
        {
          "internalType": "address",
          "name": "",
          "type": "address"
        }
      ],
      "stateMutability": "view",
      "type": "function"
    },
    {
      "inputs": [],
      "name": "owner",
      "outputs": [
        {
          "internalType": "address",
          "name": "",
          "type": "address"
        }
      ],
      "stateMutability": "view",
      "type": "function"
    },
    {
      "inputs": [],
      "name": "pointToken",
      "outputs": [
        {
          "internalType": "address",
          "name": "",
          "type": "address"
        }
      ],
      "stateMutability": "view",
      "type": "function"
    },
    {
      "inputs": [],
      "name": "renounceOwnership",
      "outputs": [],
      "stateMutability": "nonpayable",
      "type": "function"
    },
    {
      "inputs": [
        {
          "internalType": "address",
          "name": "newOwner",
          "type": "address"
        }
      ],
      "name": "transferOwnership",
      "outputs": [],
      "stateMutability": "nonpayable",
      "type": "function"
    },
    {
      "inputs": [
        {
          "internalType": "address",
          "name": "_galleryAddress",
          "type": "address"
        },
        {
          "internalType": "address",
          "name": "_cardToken",
          "type": "address"
        },
        {
          "internalType": "address",
          "name": "_pointToken",
          "type": "address"
        }
      ],
      "name": "initialize",
      "outputs": [],
      "stateMutability": "nonpayable",
      "type": "function"
    },
    {
      "inputs": [
        {
          "internalType": "uint256",
          "name": "proposalId",
          "type": "uint256"
        },
        {
          "internalType": "uint256",
          "name": "figureId",
          "type": "uint256"
        }
      ],
      "name": "swap",
      "outputs": [],
      "stateMutability": "nonpayable",
      "type": "function"
    },
    {
      "inputs": [
        {
          "internalType": "address",
          "name": "_galleryAddress",
          "type": "address"
        }
      ],
      "name": "setGalleryAddress",
      "outputs": [],
      "stateMutability": "nonpayable",
      "type": "function"
    },
    {
      "inputs": [
        {
          "internalType": "address",
          "name": "_cardToken",
          "type": "address"
        }
      ],
      "name": "setCardToken",
      "outputs": [],
      "stateMutability": "nonpayable",
      "type": "function"
    },
    {
      "inputs": [
        {
          "internalType": "address",
          "name": "_pointToken",
          "type": "address"
        }
      ],
      "name": "setPointToken",
      "outputs": [],
      "stateMutability": "nonpayable",
      "type": "function"
    }
  ],
  "bytecode": "0x608060405234801561001057600080fd5b50611c9c806100206000396000f3fe608060405234801561001057600080fd5b50600436106100ea5760003560e01c8063774d67f91161008c578063c0c53b8b11610066578063c0c53b8b1461037b578063d96073cf146103ff578063e484ad8014610437578063f2fde38b14610487576100ea565b8063774d67f9146102a35780638da5cb5b146102ed578063b4252bda14610337576100ea565b8063257774d0116100c8578063257774d0146101c757806364625dbe14610213578063715018a614610257578063735d6a5214610261576100ea565b80631f7cd242146100ef578063215eef21146101335780632251d3f01461017d575b600080fd5b6101316004803603602081101561010557600080fd5b81019080803573ffffffffffffffffffffffffffffffffffffffff1690602001909291905050506104cb565b005b61013b6105d2565b604051808273ffffffffffffffffffffffffffffffffffffffff1673ffffffffffffffffffffffffffffffffffffffff16815260200191505060405180910390f35b6101856105f8565b604051808273ffffffffffffffffffffffffffffffffffffffff1673ffffffffffffffffffffffffffffffffffffffff16815260200191505060405180910390f35b6101fd600480360360408110156101dd57600080fd5b81019080803590602001909291908035906020019092919050505061061e565b6040518082815260200191505060405180910390f35b6102556004803603602081101561022957600080fd5b81019080803573ffffffffffffffffffffffffffffffffffffffff169060200190929190505050610643565b005b61025f61074a565b005b61028d6004803603602081101561027757600080fd5b81019080803590602001909291905050506108ce565b6040518082815260200191505060405180910390f35b6102ab6108e6565b604051808273ffffffffffffffffffffffffffffffffffffffff1673ffffffffffffffffffffffffffffffffffffffff16815260200191505060405180910390f35b6102f561090c565b604051808273ffffffffffffffffffffffffffffffffffffffff1673ffffffffffffffffffffffffffffffffffffffff16815260200191505060405180910390f35b6103796004803603602081101561034d57600080fd5b81019080803573ffffffffffffffffffffffffffffffffffffffff169060200190929190505050610936565b005b6103fd6004803603606081101561039157600080fd5b81019080803573ffffffffffffffffffffffffffffffffffffffff169060200190929190803573ffffffffffffffffffffffffffffffffffffffff169060200190929190803573ffffffffffffffffffffffffffffffffffffffff169060200190929190505050610b61565b005b6104356004803603604081101561041557600080fd5b810190808035906020019092919080359060200190929190505050611021565b005b61046d6004803603604081101561044d57600080fd5b8101908080359060200190929190803590602001909291905050506114e2565b604051808215151515815260200191505060405180910390f35b6104c96004803603602081101561049d57600080fd5b81019080803573ffffffffffffffffffffffffffffffffffffffff169060200190929190505050611511565b005b3373ffffffffffffffffffffffffffffffffffffffff16603360009054906101000a900473ffffffffffffffffffffffffffffffffffffffff1673ffffffffffffffffffffffffffffffffffffffff161461058e576040517f08c379a00000000000000000000000000000000000000000000000000000000081526004018080602001828103825260208152602001807f4f776e61626c653a2063616c6c6572206973206e6f7420746865206f776e657281525060200191505060405180910390fd5b80606560006101000a81548173ffffffffffffffffffffffffffffffffffffffff021916908373ffffffffffffffffffffffffffffffffffffffff16021790555050565b606660009054906101000a900473ffffffffffffffffffffffffffffffffffffffff1681565b606760009054906101000a900473ffffffffffffffffffffffffffffffffffffffff1681565b606b602052816000526040600020602052806000526040600020600091509150505481565b3373ffffffffffffffffffffffffffffffffffffffff16603360009054906101000a900473ffffffffffffffffffffffffffffffffffffffff1673ffffffffffffffffffffffffffffffffffffffff1614610706576040517f08c379a00000000000000000000000000000000000000000000000000000000081526004018080602001828103825260208152602001807f4f776e61626c653a2063616c6c6572206973206e6f7420746865206f776e657281525060200191505060405180910390fd5b80606760006101000a81548173ffffffffffffffffffffffffffffffffffffffff021916908373ffffffffffffffffffffffffffffffffffffffff16021790555050565b3373ffffffffffffffffffffffffffffffffffffffff16603360009054906101000a900473ffffffffffffffffffffffffffffffffffffffff1673ffffffffffffffffffffffffffffffffffffffff161461080d576040517f08c379a00000000000000000000000000000000000000000000000000000000081526004018080602001828103825260208152602001807f4f776e61626c653a2063616c6c6572206973206e6f7420746865206f776e657281525060200191505060405180910390fd5b600073ffffffffffffffffffffffffffffffffffffffff16603360009054906101000a900473ffffffffffffffffffffffffffffffffffffffff1673ffffffffffffffffffffffffffffffffffffffff167f8be0079c531659141344cd1fd0a4f28419497f9722a3daafe3b4186f6b6457e060405160405180910390a36000603360006101000a81548173ffffffffffffffffffffffffffffffffffffffff021916908373ffffffffffffffffffffffffffffffffffffffff160217905550565b606881600381106108db57fe5b016000915090505481565b606560009054906101000a900473ffffffffffffffffffffffffffffffffffffffff1681565b6000603360009054906101000a900473ffffffffffffffffffffffffffffffffffffffff16905090565b3373ffffffffffffffffffffffffffffffffffffffff16603360009054906101000a900473ffffffffffffffffffffffffffffffffffffffff1673ffffffffffffffffffffffffffffffffffffffff16146109f9576040517f08c379a00000000000000000000000000000000000000000000000000000000081526004018080602001828103825260208152602001807f4f776e61626c653a2063616c6c6572206973206e6f7420746865206f776e657281525060200191505060405180910390fd5b8073ffffffffffffffffffffffffffffffffffffffff166301ffc9a76380ac58cd6040518263ffffffff1660e01b8152600401808260e01b7bffffffffffffffffffffffffffffffffffffffffffffffffffffffff1916815260200191505060206040518083038186803b158015610a7057600080fd5b505afa158015610a84573d6000803e3d6000fd5b505050506040513d6020811015610a9a57600080fd5b8101908080519060200190929190505050610b1d576040517f08c379a00000000000000000000000000000000000000000000000000000000081526004018080602001828103825260178152602001807f496e76616c69642045524337323120636f6e747261637400000000000000000081525060200191505060405180910390fd5b80606660006101000a81548173ffffffffffffffffffffffffffffffffffffffff021916908373ffffffffffffffffffffffffffffffffffffffff16021790555050565b600060019054906101000a900460ff1680610b805750610b7f61171a565b5b80610b9757506000809054906101000a900460ff16155b610bec576040517f08c379a000000000000000000000000000000000000000000000000000000000815260040180806020018281038252602e815260200180611c0f602e913960400191505060405180910390fd5b60008060019054906101000a900460ff161590508015610c3c576001600060016101000a81548160ff02191690831515021790555060016000806101000a81548160ff0219169083151502179055505b610c44611731565b83606560006101000a81548173ffffffffffffffffffffffffffffffffffffffff021916908373ffffffffffffffffffffffffffffffffffffffff16021790555082606660006101000a81548173ffffffffffffffffffffffffffffffffffffffff021916908373ffffffffffffffffffffffffffffffffffffffff16021790555081606760006101000a81548173ffffffffffffffffffffffffffffffffffffffff021916908373ffffffffffffffffffffffffffffffffffffffff160217905550604051806060016040528069152d02c7e14af68000008152602001690a968163f0a57b400000815260200169065a4da25d3016c000008152506068906003610d50929190611b62565b5060008090505b600a811015610ff95760008090505b6003811015610feb577fffffffffffffffffffffffffffffffffffffffffffffffffffffffffffffffff606560009054906101000a900473ffffffffffffffffffffffffffffffffffffffff1673ffffffffffffffffffffffffffffffffffffffff166325c949c184846040518363ffffffff1660e01b8152600401808381526020018281526020019250505060206040518083038186803b158015610e0b57600080fd5b505afa158015610e1f573d6000803e3d6000fd5b505050506040513d6020811015610e3557600080fd5b810190808051906020019092919050505014610fde576000606660009054906101000a900473ffffffffffffffffffffffffffffffffffffffff1673ffffffffffffffffffffffffffffffffffffffff166318160ddd6040518163ffffffff1660e01b815260040160206040518083038186803b158015610eb557600080fd5b505afa158015610ec9573d6000803e3d6000fd5b505050506040513d6020811015610edf57600080fd5b8101908080519060200190929190505050905080606b6000858152602001908152602001600020600084815260200190815260200160002081905550606660009054906101000a900473ffffffffffffffffffffffffffffffffffffffff1673ffffffffffffffffffffffffffffffffffffffff166340c10f1930836040518363ffffffff1660e01b8152600401808373ffffffffffffffffffffffffffffffffffffffff1673ffffffffffffffffffffffffffffffffffffffff16815260200182815260200192505050600060405180830381600087803b158015610fc457600080fd5b505af1158015610fd8573d6000803e3d6000fd5b50505050505b8080600101915050610d66565b508080600101915050610d57565b50801561101b5760008060016101000a81548160ff0219169083151502179055505b50505050565b600a8210611097576040517f08c379a00000000000000000000000000000000000000000000000000000000081526004018080602001828103825260138152602001807f496e76616c69642070726f706f73616c2069640000000000000000000000000081525060200191505060405180910390fd5b6003811061110d576040517f08c379a00000000000000000000000000000000000000000000000000000000081526004018080602001828103825260118152602001807f496e76616c69642066696775726520696400000000000000000000000000000081525060200191505060405180910390fd5b7fffffffffffffffffffffffffffffffffffffffffffffffffffffffffffffffff606560009054906101000a900473ffffffffffffffffffffffffffffffffffffffff1673ffffffffffffffffffffffffffffffffffffffff166325c949c184846040518363ffffffff1660e01b8152600401808381526020018281526020019250505060206040518083038186803b1580156111a957600080fd5b505afa1580156111bd573d6000803e3d6000fd5b505050506040513d60208110156111d357600080fd5b8101908080519060200190929190505050141561123b576040517f08c379a0000000000000000000000000000000000000000000000000000000008152600401808060200182810382526021815260200180611bee6021913960400191505060405180910390fd5b606c6000838152602001908152602001600020600082815260200190815260200160002060009054906101000a900460ff16156112e0576040517f08c379a00000000000000000000000000000000000000000000000000000000081526004018080602001828103825260188152602001807f54686973206361726420686173206265656e20746f6b656e000000000000000081525060200191505060405180910390fd5b6001606c6000848152602001908152602001600020600083815260200190815260200160002060006101000a81548160ff02191690831515021790555060006068836003811061132c57fe5b0154905061137f333083606760009054906101000a900473ffffffffffffffffffffffffffffffffffffffff1673ffffffffffffffffffffffffffffffffffffffff1661173b909392919063ffffffff16565b6000606b60008581526020019081526020016000206000848152602001908152602001600020549050606660009054906101000a900473ffffffffffffffffffffffffffffffffffffffff1673ffffffffffffffffffffffffffffffffffffffff166342842e0e3033846040518463ffffffff1660e01b8152600401808473ffffffffffffffffffffffffffffffffffffffff1673ffffffffffffffffffffffffffffffffffffffff1681526020018373ffffffffffffffffffffffffffffffffffffffff1673ffffffffffffffffffffffffffffffffffffffff1681526020018281526020019350505050600060405180830381600087803b15801561148557600080fd5b505af1158015611499573d6000803e3d6000fd5b505050507f5a6443be634d8594e0dff76c972a6a74f88bf761fb6e334d88dd979516f3bc8f8183604051808381526020018281526020019250505060405180910390a150505050565b606c6020528160005260406000206020528060005260406000206000915091509054906101000a900460ff1681565b3373ffffffffffffffffffffffffffffffffffffffff16603360009054906101000a900473ffffffffffffffffffffffffffffffffffffffff1673ffffffffffffffffffffffffffffffffffffffff16146115d4576040517f08c379a00000000000000000000000000000000000000000000000000000000081526004018080602001828103825260208152602001807f4f776e61626c653a2063616c6c6572206973206e6f7420746865206f776e657281525060200191505060405180910390fd5b600073ffffffffffffffffffffffffffffffffffffffff168173ffffffffffffffffffffffffffffffffffffffff16141561165a576040517f08c379a0000000000000000000000000000000000000000000000000000000008152600401808060200182810382526026815260200180611bc86026913960400191505060405180910390fd5b8073ffffffffffffffffffffffffffffffffffffffff16603360009054906101000a900473ffffffffffffffffffffffffffffffffffffffff1673ffffffffffffffffffffffffffffffffffffffff167f8be0079c531659141344cd1fd0a4f28419497f9722a3daafe3b4186f6b6457e060405160405180910390a380603360006101000a81548173ffffffffffffffffffffffffffffffffffffffff021916908373ffffffffffffffffffffffffffffffffffffffff16021790555050565b6000803090506000813b9050600081149250505090565b611739611828565b565b611822846323b872dd60e01b858585604051602401808473ffffffffffffffffffffffffffffffffffffffff1673ffffffffffffffffffffffffffffffffffffffff1681526020018373ffffffffffffffffffffffffffffffffffffffff1673ffffffffffffffffffffffffffffffffffffffff1681526020018281526020019350505050604051602081830303815290604052907bffffffffffffffffffffffffffffffffffffffffffffffffffffffff19166020820180517bffffffffffffffffffffffffffffffffffffffffffffffffffffffff83818316178352505050506118cc565b50505050565b600033905080603360006101000a81548173ffffffffffffffffffffffffffffffffffffffff021916908373ffffffffffffffffffffffffffffffffffffffff1602179055508073ffffffffffffffffffffffffffffffffffffffff16600073ffffffffffffffffffffffffffffffffffffffff167f8be0079c531659141344cd1fd0a4f28419497f9722a3daafe3b4186f6b6457e060405160405180910390a350565b6118eb8273ffffffffffffffffffffffffffffffffffffffff16611b17565b61195d576040517f08c379a000000000000000000000000000000000000000000000000000000000815260040180806020018281038252601f8152602001807f5361666545524332303a2063616c6c20746f206e6f6e2d636f6e74726163740081525060200191505060405180910390fd5b600060608373ffffffffffffffffffffffffffffffffffffffff16836040518082805190602001908083835b602083106119ac5780518252602082019150602081019050602083039250611989565b6001836020036101000a0380198251168184511680821785525050505050509050019150506000604051808303816000865af19150503d8060008114611a0e576040519150601f19603f3d011682016040523d82523d6000602084013e611a13565b606091505b509150915081611a8b576040517f08c379a00000000000000000000000000000000000000000000000000000000081526004018080602001828103825260208152602001807f5361666545524332303a206c6f772d6c6576656c2063616c6c206661696c656481525060200191505060405180910390fd5b600081511115611b1157808060200190516020811015611aaa57600080fd5b8101908080519060200190929190505050611b10576040517f08c379a000000000000000000000000000000000000000000000000000000000815260040180806020018281038252602a815260200180611c3d602a913960400191505060405180910390fd5b5b50505050565b60008060007fc5d2460186f7233c927e7db2dcc703c0e500b653ca82273b7bfad8045d85a47060001b9050833f9150808214158015611b5957506000801b8214155b92505050919050565b8260038101928215611b91579160200282015b82811115611b90578251825591602001919060010190611b75565b5b509050611b9e9190611ba2565b5090565b611bc491905b80821115611bc0576000816000905550600101611ba8565b5090565b9056fe4f776e61626c653a206e6577206f776e657220697320746865207a65726f2061646472657373546865206964206f6620666967757265206973206e6f7420617661696c61626c65436f6e747261637420696e7374616e63652068617320616c7265616479206265656e20696e697469616c697a65645361666545524332303a204552433230206f7065726174696f6e20646964206e6f742073756363656564a2646970667358221220b9c1306274b1cf84a3dfbcf145af42356033845abcbf95c361a779385b6e399f64736f6c63430006060033",
  "immutableReferences": {},
  "source": "pragma solidity ^0.6.0;\n\nimport \"@openzeppelin/contracts-ethereum-package/contracts/math/Math.sol\";\nimport \"@openzeppelin/contracts-ethereum-package/contracts/math/SafeMath.sol\";\nimport \"@openzeppelin/contracts-ethereum-package/contracts/token/ERC20/SafeERC20.sol\";\nimport \"@openzeppelin/contracts-ethereum-package/contracts/token/ERC20/IERC20.sol\";\nimport \"@openzeppelin/contracts-ethereum-package/contracts/token/ERC721/IERC721.sol\";\nimport \"@openzeppelin/contracts-ethereum-package/contracts/token/ERC721/IERC721Enumerable.sol\";\nimport \"@openzeppelin/contracts-ethereum-package/contracts/Initializable.sol\";\n\n// Inheritance\nimport \"./OwnableUpgradeSafe.sol\";\nimport \"./interfaces/IGallery.sol\";\nimport \"./interfaces/IGalleryErc721.sol\";\n\ncontract FigureSwap is Initializable, OwnableUpgradeSafe {\n    using SafeMath for uint256;\n    using SafeERC20 for IERC20;\n\n    /* ========== CONSTANTS ========== */\n\n    uint256 constant WINNING_PROPOSAL_COUNT = 10;\n    uint256 constant WINNING_FIGURE_COUNT = 3;\n    uint256 constant GOLD_CARD_POINT   = 100000 ether;\n    uint256 constant SILVER_CARD_POINT = 50000 ether;\n    uint256 constant COPPER_CARD_POINT = 30000 ether;\n    uint256 constant NULL = 2**256 - 1;\n    address constant DEAD_ADDRESS = 0x000000000000000000000000000000000000dEaD;\n\n    /* ========== STATE VARIABLES ========== */\n\n    address public galleryAddress;\n    address public cardToken;\n    address public pointToken;\n    uint256[WINNING_FIGURE_COUNT] public cardPoints;\n    // proposal id => figure id => tokenId of cardToken\n    mapping(uint256 => mapping(uint256 => uint256)) public cardIds;\n    // proposal id => figure id => if card has been swapped\n    mapping(uint256 => mapping(uint256 => bool)) public cardsSwapped;\n\n    /* ========== CONSTRUCTOR ========== */\n\n    function initialize(\n        address _galleryAddress,\n        address _cardToken,\n        address _pointToken\n    )  external initializer {\n        super.__Ownable_init();\n        galleryAddress = _galleryAddress;\n        cardToken = _cardToken;\n        pointToken = _pointToken;\n        cardPoints = [GOLD_CARD_POINT, SILVER_CARD_POINT, COPPER_CARD_POINT];\n        for (uint256 proposalId = 0; proposalId < WINNING_PROPOSAL_COUNT; proposalId++) {\n            for (uint256 figureId = 0; figureId < WINNING_FIGURE_COUNT; figureId++) {\n                if (IGallery(galleryAddress).getTopFigure(proposalId, figureId) != NULL) {\n                    uint256 tokenId = IERC721Enumerable(cardToken).totalSupply();\n                    cardIds[proposalId][figureId] = tokenId;\n                    IGalleryErc721(cardToken).mint(address(this), tokenId);\n                }\n            }\n        }\n    }\n\n    /* ========== VIEWS ========== */\n\n    /* ========== MUTATIVE FUNCTIONS ========== */\n\n    function swap(uint256 proposalId, uint256 figureId) external {\n        require(proposalId < WINNING_PROPOSAL_COUNT, \"Invalid proposal id\");\n        require(figureId < WINNING_FIGURE_COUNT, \"Invalid figure id\");\n        require(IGallery(galleryAddress).getTopFigure(proposalId, figureId) != NULL, \"The id of figure is not available\");\n        require(!cardsSwapped[proposalId][figureId], \"This card has been token\");\n\n        // set swap flag\n        cardsSwapped[proposalId][figureId] = true;\n\n        // send ERC20 token to contract\n        uint256 amount = cardPoints[proposalId];\n        IERC20(pointToken).safeTransferFrom(msg.sender, address(this), amount);\n\n        // send ERC721 token to sender\n        uint256 tokenId = cardIds[proposalId][figureId];\n        IERC721(cardToken).safeTransferFrom(address(this), msg.sender, tokenId);\n\n        emit Swapped(tokenId, amount);\n    }\n\n    function setGalleryAddress(address _galleryAddress) external onlyOwner {\n        galleryAddress = _galleryAddress;\n    }\n\n    function setCardToken(address _cardToken) external onlyOwner {\n        require(IERC721(_cardToken).supportsInterface(0x80ac58cd), \"Invalid ERC721 contract\");\n        cardToken =_cardToken;\n    }\n\n    function setPointToken(address _pointToken) external onlyOwner {\n        pointToken = _pointToken;\n    }\n\n    /* ========== EVENTS ========== */\n\n    event Swapped(uint256 tokenId, uint256 amount);\n}",
  "sourcePath": "/Users/edwin/github/gallery.finance/gallery.finance.smart/contracts/FigureSwap.sol",
  "compiler": {
    "name": "solc",
    "version": "0.6.6+commit.6c089d02.Emscripten.clang"
  },
  "schemaVersion": "3.2.2",
  "updatedAt": "2020-10-30T10:50:23.895Z",
  "devdoc": {
    "methods": {
      "owner()": {
        "details": "Returns the address of the current owner."
      },
      "renounceOwnership()": {
        "details": "Leaves the contract without owner. It will not be possible to call `onlyOwner` functions anymore. Can only be called by the current owner.     * NOTE: Renouncing ownership will leave the contract without an owner, thereby removing any functionality that is only available to the owner."
      },
      "transferOwnership(address)": {
        "details": "Transfers ownership of the contract to a new account (`newOwner`). Can only be called by the current owner."
      }
    }
  },
  "userdoc": {
    "methods": {}
  }
}