{
  "contractName": "Gallery",
  "abi": [
    {
      "anonymous": false,
      "inputs": [
        {
          "indexed": false,
          "internalType": "uint256",
          "name": "rewards",
          "type": "uint256"
        }
      ],
      "name": "FigureClaimed",
      "type": "event"
    },
    {
      "anonymous": false,
      "inputs": [
        {
          "indexed": true,
          "internalType": "uint256",
          "name": "figureId",
          "type": "uint256"
        },
        {
          "indexed": false,
          "internalType": "uint256",
          "name": "votes",
          "type": "uint256"
        }
      ],
      "name": "FigureCreated",
      "type": "event"
    },
    {
      "anonymous": false,
      "inputs": [
        {
          "indexed": true,
          "internalType": "uint256",
          "name": "figureId",
          "type": "uint256"
        },
        {
          "indexed": false,
          "internalType": "uint256",
          "name": "votes",
          "type": "uint256"
        }
      ],
      "name": "FigureVoted",
      "type": "event"
    },
    {
      "anonymous": false,
      "inputs": [
        {
          "indexed": false,
          "internalType": "uint256",
          "name": "votes",
          "type": "uint256"
        }
      ],
      "name": "FigureWithdrawn",
      "type": "event"
    },
    {
      "anonymous": false,
      "inputs": [
        {
          "indexed": true,
          "internalType": "address",
          "name": "previousOwner",
          "type": "address"
        },
        {
          "indexed": true,
          "internalType": "address",
          "name": "newOwner",
          "type": "address"
        }
      ],
      "name": "OwnershipTransferred",
      "type": "event"
    },
    {
      "anonymous": false,
      "inputs": [
        {
          "indexed": false,
          "internalType": "address",
          "name": "account",
          "type": "address"
        }
      ],
      "name": "Paused",
      "type": "event"
    },
    {
      "anonymous": false,
      "inputs": [
        {
          "indexed": false,
          "internalType": "uint256",
          "name": "votes",
          "type": "uint256"
        }
      ],
      "name": "ProposalBurned",
      "type": "event"
    },
    {
      "anonymous": false,
      "inputs": [
        {
          "indexed": false,
          "internalType": "uint256",
          "name": "rewards",
          "type": "uint256"
        }
      ],
      "name": "ProposalClaimed",
      "type": "event"
    },
    {
      "anonymous": false,
      "inputs": [
        {
          "indexed": true,
          "internalType": "uint256",
          "name": "proposalId",
          "type": "uint256"
        },
        {
          "indexed": false,
          "internalType": "uint256",
          "name": "votes",
          "type": "uint256"
        }
      ],
      "name": "ProposalCreated",
      "type": "event"
    },
    {
      "anonymous": false,
      "inputs": [
        {
          "indexed": true,
          "internalType": "uint256",
          "name": "proposalId",
          "type": "uint256"
        },
        {
          "indexed": false,
          "internalType": "uint256",
          "name": "votes",
          "type": "uint256"
        }
      ],
      "name": "ProposalVoted",
      "type": "event"
    },
    {
      "anonymous": false,
      "inputs": [
        {
          "indexed": false,
          "internalType": "uint256",
          "name": "votes",
          "type": "uint256"
        }
      ],
      "name": "ProposalWithdrawn",
      "type": "event"
    },
    {
      "anonymous": false,
      "inputs": [
        {
          "indexed": false,
          "internalType": "address",
          "name": "account",
          "type": "address"
        }
      ],
      "name": "Unpaused",
      "type": "event"
    },
    {
      "inputs": [
        {
          "internalType": "uint256",
          "name": "",
          "type": "uint256"
        }
      ],
      "name": "figureVotes",
      "outputs": [
        {
          "internalType": "uint256",
          "name": "",
          "type": "uint256"
        }
      ],
      "stateMutability": "view",
      "type": "function"
    },
    {
      "inputs": [
        {
          "internalType": "uint256",
          "name": "",
          "type": "uint256"
        }
      ],
      "name": "figures",
      "outputs": [
        {
          "internalType": "uint256",
          "name": "proposalId",
          "type": "uint256"
        },
        {
          "internalType": "address",
          "name": "author",
          "type": "address"
        },
        {
          "internalType": "string",
          "name": "info",
          "type": "string"
        },
        {
          "internalType": "uint256",
          "name": "createAt",
          "type": "uint256"
        }
      ],
      "stateMutability": "view",
      "type": "function"
    },
    {
      "inputs": [
        {
          "internalType": "uint256",
          "name": "",
          "type": "uint256"
        },
        {
          "internalType": "uint256",
          "name": "",
          "type": "uint256"
        }
      ],
      "name": "figuresOfProposal",
      "outputs": [
        {
          "internalType": "uint256",
          "name": "",
          "type": "uint256"
        }
      ],
      "stateMutability": "view",
      "type": "function"
    },
    {
      "inputs": [
        {
          "internalType": "address",
          "name": "",
          "type": "address"
        }
      ],
      "name": "myFigureClaimed",
      "outputs": [
        {
          "internalType": "bool",
          "name": "",
          "type": "bool"
        }
      ],
      "stateMutability": "view",
      "type": "function"
    },
    {
      "inputs": [
        {
          "internalType": "address",
          "name": "",
          "type": "address"
        }
      ],
      "name": "myFigureUpdateAt",
      "outputs": [
        {
          "internalType": "uint256",
          "name": "",
          "type": "uint256"
        }
      ],
      "stateMutability": "view",
      "type": "function"
    },
    {
      "inputs": [
        {
          "internalType": "address",
          "name": "",
          "type": "address"
        }
      ],
      "name": "myFigureVotes",
      "outputs": [
        {
          "internalType": "uint256",
          "name": "",
          "type": "uint256"
        }
      ],
      "stateMutability": "view",
      "type": "function"
    },
    {
      "inputs": [
        {
          "internalType": "address",
          "name": "",
          "type": "address"
        }
      ],
      "name": "myFigureWithdrawn",
      "outputs": [
        {
          "internalType": "bool",
          "name": "",
          "type": "bool"
        }
      ],
      "stateMutability": "view",
      "type": "function"
    },
    {
      "inputs": [
        {
          "internalType": "address",
          "name": "",
          "type": "address"
        },
        {
          "internalType": "uint256",
          "name": "",
          "type": "uint256"
        }
      ],
      "name": "myFigures",
      "outputs": [
        {
          "internalType": "uint256",
          "name": "",
          "type": "uint256"
        }
      ],
      "stateMutability": "view",
      "type": "function"
    },
    {
      "inputs": [
        {
          "internalType": "address",
          "name": "",
          "type": "address"
        }
      ],
      "name": "myProposalClaimed",
      "outputs": [
        {
          "internalType": "bool",
          "name": "",
          "type": "bool"
        }
      ],
      "stateMutability": "view",
      "type": "function"
    },
    {
      "inputs": [
        {
          "internalType": "address",
          "name": "",
          "type": "address"
        }
      ],
      "name": "myProposalUpdateAt",
      "outputs": [
        {
          "internalType": "uint256",
          "name": "",
          "type": "uint256"
        }
      ],
      "stateMutability": "view",
      "type": "function"
    },
    {
      "inputs": [
        {
          "internalType": "address",
          "name": "",
          "type": "address"
        }
      ],
      "name": "myProposalVotes",
      "outputs": [
        {
          "internalType": "uint256",
          "name": "",
          "type": "uint256"
        }
      ],
      "stateMutability": "view",
      "type": "function"
    },
    {
      "inputs": [
        {
          "internalType": "address",
          "name": "",
          "type": "address"
        }
      ],
      "name": "myProposalWithdrawn",
      "outputs": [
        {
          "internalType": "bool",
          "name": "",
          "type": "bool"
        }
      ],
      "stateMutability": "view",
      "type": "function"
    },
    {
      "inputs": [
        {
          "internalType": "address",
          "name": "",
          "type": "address"
        },
        {
          "internalType": "uint256",
          "name": "",
          "type": "uint256"
        }
      ],
      "name": "myProposals",
      "outputs": [
        {
          "internalType": "uint256",
          "name": "",
          "type": "uint256"
        }
      ],
      "stateMutability": "view",
      "type": "function"
    },
    {
      "inputs": [
        {
          "internalType": "address",
          "name": "",
          "type": "address"
        },
        {
          "internalType": "uint256",
          "name": "",
          "type": "uint256"
        }
      ],
      "name": "mySingleFigureVotes",
      "outputs": [
        {
          "internalType": "uint256",
          "name": "",
          "type": "uint256"
        }
      ],
      "stateMutability": "view",
      "type": "function"
    },
    {
      "inputs": [
        {
          "internalType": "address",
          "name": "",
          "type": "address"
        },
        {
          "internalType": "uint256",
          "name": "",
          "type": "uint256"
        }
      ],
      "name": "mySingleProposalVotes",
      "outputs": [
        {
          "internalType": "uint256",
          "name": "",
          "type": "uint256"
        }
      ],
      "stateMutability": "view",
      "type": "function"
    },
    {
      "inputs": [],
      "name": "owner",
      "outputs": [
        {
          "internalType": "address",
          "name": "",
          "type": "address"
        }
      ],
      "stateMutability": "view",
      "type": "function"
    },
    {
      "inputs": [],
      "name": "paused",
      "outputs": [
        {
          "internalType": "bool",
          "name": "",
          "type": "bool"
        }
      ],
      "stateMutability": "view",
      "type": "function"
    },
    {
      "inputs": [],
      "name": "proposalRewardsBurned",
      "outputs": [
        {
          "internalType": "bool",
          "name": "",
          "type": "bool"
        }
      ],
      "stateMutability": "view",
      "type": "function"
    },
    {
      "inputs": [
        {
          "internalType": "uint256",
          "name": "",
          "type": "uint256"
        }
      ],
      "name": "proposalVotes",
      "outputs": [
        {
          "internalType": "uint256",
          "name": "",
          "type": "uint256"
        }
      ],
      "stateMutability": "view",
      "type": "function"
    },
    {
      "inputs": [
        {
          "internalType": "uint256",
          "name": "",
          "type": "uint256"
        }
      ],
      "name": "proposals",
      "outputs": [
        {
          "internalType": "address",
          "name": "proposer",
          "type": "address"
        },
        {
          "internalType": "string",
          "name": "name",
          "type": "string"
        },
        {
          "internalType": "string",
          "name": "info",
          "type": "string"
        },
        {
          "internalType": "uint256",
          "name": "createAt",
          "type": "uint256"
        }
      ],
      "stateMutability": "view",
      "type": "function"
    },
    {
      "inputs": [],
      "name": "renounceOwnership",
      "outputs": [],
      "stateMutability": "nonpayable",
      "type": "function"
    },
    {
      "inputs": [],
      "name": "rewardsToken",
      "outputs": [
        {
          "internalType": "address",
          "name": "",
          "type": "address"
        }
      ],
      "stateMutability": "view",
      "type": "function"
    },
    {
      "inputs": [],
      "name": "stakingToken",
      "outputs": [
        {
          "internalType": "address",
          "name": "",
          "type": "address"
        }
      ],
      "stateMutability": "view",
      "type": "function"
    },
    {
      "inputs": [],
      "name": "startAt",
      "outputs": [
        {
          "internalType": "uint256",
          "name": "",
          "type": "uint256"
        }
      ],
      "stateMutability": "view",
      "type": "function"
    },
    {
      "inputs": [
        {
          "internalType": "uint256",
          "name": "",
          "type": "uint256"
        }
      ],
      "name": "topFigureRewards",
      "outputs": [
        {
          "internalType": "uint256",
          "name": "",
          "type": "uint256"
        }
      ],
      "stateMutability": "view",
      "type": "function"
    },
    {
      "inputs": [
        {
          "internalType": "uint256",
          "name": "",
          "type": "uint256"
        },
        {
          "internalType": "uint256",
          "name": "",
          "type": "uint256"
        }
      ],
      "name": "topFigures",
      "outputs": [
        {
          "internalType": "uint256",
          "name": "",
          "type": "uint256"
        }
      ],
      "stateMutability": "view",
      "type": "function"
    },
    {
      "inputs": [
        {
          "internalType": "uint256",
          "name": "",
          "type": "uint256"
        }
      ],
      "name": "topProposals",
      "outputs": [
        {
          "internalType": "uint256",
          "name": "",
          "type": "uint256"
        }
      ],
      "stateMutability": "view",
      "type": "function"
    },
    {
      "inputs": [],
      "name": "totalFigureVotes",
      "outputs": [
        {
          "internalType": "uint256",
          "name": "",
          "type": "uint256"
        }
      ],
      "stateMutability": "view",
      "type": "function"
    },
    {
      "inputs": [],
      "name": "totalProposalVotes",
      "outputs": [
        {
          "internalType": "uint256",
          "name": "",
          "type": "uint256"
        }
      ],
      "stateMutability": "view",
      "type": "function"
    },
    {
      "inputs": [
        {
          "internalType": "address",
          "name": "newOwner",
          "type": "address"
        }
      ],
      "name": "transferOwnership",
      "outputs": [],
      "stateMutability": "nonpayable",
      "type": "function"
    },
    {
      "inputs": [
        {
          "internalType": "address",
          "name": "_rewardsToken",
          "type": "address"
        },
        {
          "internalType": "address",
          "name": "_stakingToken",
          "type": "address"
        }
      ],
      "name": "initialize",
      "outputs": [],
      "stateMutability": "nonpayable",
      "type": "function"
    },
    {
      "inputs": [],
      "name": "dayAt",
      "outputs": [
        {
          "internalType": "uint256",
          "name": "",
          "type": "uint256"
        }
      ],
      "stateMutability": "view",
      "type": "function"
    },
    {
      "inputs": [],
      "name": "proposalCount",
      "outputs": [
        {
          "internalType": "uint256",
          "name": "",
          "type": "uint256"
        }
      ],
      "stateMutability": "view",
      "type": "function"
    },
    {
      "inputs": [],
      "name": "figureCount",
      "outputs": [
        {
          "internalType": "uint256",
          "name": "",
          "type": "uint256"
        }
      ],
      "stateMutability": "view",
      "type": "function"
    },
    {
      "inputs": [
        {
          "internalType": "address",
          "name": "target",
          "type": "address"
        }
      ],
      "name": "myProposalCount",
      "outputs": [
        {
          "internalType": "uint256",
          "name": "",
          "type": "uint256"
        }
      ],
      "stateMutability": "view",
      "type": "function"
    },
    {
      "inputs": [
        {
          "internalType": "address",
          "name": "target",
          "type": "address"
        }
      ],
      "name": "myFigureCount",
      "outputs": [
        {
          "internalType": "uint256",
          "name": "",
          "type": "uint256"
        }
      ],
      "stateMutability": "view",
      "type": "function"
    },
    {
      "inputs": [
        {
          "internalType": "uint256",
          "name": "proposalId",
          "type": "uint256"
        }
      ],
      "name": "figuresOfProposalCount",
      "outputs": [
        {
          "internalType": "uint256",
          "name": "",
          "type": "uint256"
        }
      ],
      "stateMutability": "view",
      "type": "function"
    },
    {
      "inputs": [
        {
          "internalType": "address",
          "name": "target",
          "type": "address"
        }
      ],
      "name": "myProposalRewards",
      "outputs": [
        {
          "internalType": "uint256",
          "name": "",
          "type": "uint256"
        }
      ],
      "stateMutability": "view",
      "type": "function"
    },
    {
      "inputs": [
        {
          "internalType": "address",
          "name": "target",
          "type": "address"
        }
      ],
      "name": "myFigureRewards",
      "outputs": [
        {
          "internalType": "uint256",
          "name": "",
          "type": "uint256"
        }
      ],
      "stateMutability": "view",
      "type": "function"
    },
    {
      "inputs": [
        {
          "internalType": "string",
          "name": "name",
          "type": "string"
        },
        {
          "internalType": "string",
          "name": "info",
          "type": "string"
        }
      ],
      "name": "createProposal",
      "outputs": [],
      "stateMutability": "nonpayable",
      "type": "function"
    },
    {
      "inputs": [
        {
          "internalType": "uint256",
          "name": "proposalId",
          "type": "uint256"
        },
        {
          "internalType": "uint256",
          "name": "votes",
          "type": "uint256"
        }
      ],
      "name": "voteForProposal",
      "outputs": [],
      "stateMutability": "nonpayable",
      "type": "function"
    },
    {
      "inputs": [],
      "name": "withdrawFromProposal",
      "outputs": [],
      "stateMutability": "nonpayable",
      "type": "function"
    },
    {
      "inputs": [],
      "name": "claimFromProposal",
      "outputs": [],
      "stateMutability": "nonpayable",
      "type": "function"
    },
    {
      "inputs": [],
      "name": "burnFromProposal",
      "outputs": [],
      "stateMutability": "nonpayable",
      "type": "function"
    },
    {
      "inputs": [
        {
          "internalType": "uint256",
          "name": "proposalId",
          "type": "uint256"
        },
        {
          "internalType": "string",
          "name": "info",
          "type": "string"
        }
      ],
      "name": "createFigure",
      "outputs": [],
      "stateMutability": "nonpayable",
      "type": "function"
    },
    {
      "inputs": [
        {
          "internalType": "uint256",
          "name": "figureId",
          "type": "uint256"
        },
        {
          "internalType": "uint256",
          "name": "votes",
          "type": "uint256"
        }
      ],
      "name": "voteForFigure",
      "outputs": [],
      "stateMutability": "nonpayable",
      "type": "function"
    },
    {
      "inputs": [],
      "name": "withdrawFromFigure",
      "outputs": [],
      "stateMutability": "nonpayable",
      "type": "function"
    },
    {
      "inputs": [],
      "name": "claimFromFigure",
      "outputs": [],
      "stateMutability": "nonpayable",
      "type": "function"
    },
    {
      "inputs": [],
      "name": "pause",
      "outputs": [],
      "stateMutability": "nonpayable",
      "type": "function"
    },
    {
      "inputs": [],
      "name": "unpause",
      "outputs": [],
      "stateMutability": "nonpayable",
      "type": "function"
    }
  ],
  "bytecode": "0x608060405234801561001057600080fd5b50615e0380620000216000396000f3fe608060405234801561001057600080fd5b50600436106102d65760003560e01c80638456cb5911610182578063bee9ce39116100e9578063e15f6dab116100a2578063e6b581ea1161007c578063e6b581ea14611003578063f2fde38b14611065578063f8f1212a146110a9578063fa5dde4d146110e1576102d6565b8063e15f6dab14610f31578063e4bdda2d14610f89578063e50bbc5d14610fab576102d6565b8063bee9ce3914610e09578063c744656514610e27578063c7ab0e4f14610e45578063d1af0c7d14610e7d578063d706e52214610ec7578063da35c66414610f13576102d6565b8063a34118c21161013b578063a34118c214610c21578063adaebd6714610c79578063afb9657714610cd1578063afde521b14610d29578063b937173d14610d6b578063bcbdc85b14610dc7576102d6565b80638456cb59146109c45780638cf693e2146109ce5780638da5cb5b14610a515780638f5878c614610a9b5780639782a9f314610add5780639e7bcbea14610bc5576102d6565b80635a73abc5116102415780636b7118b7116101fa578063718ad52b116101d4578063718ad52b146108e657806372f702f3146109045780637454adc31461094e5780637d12960d1461096c576102d6565b80636b7118b714610870578063707b55641461087a578063715018a6146108dc576102d6565b80635a73abc51461069a5780635c975abb146106f65780635ddd4ce314610718578063613dd9c214610722578063657996351461074057806365e481e2146107a2576102d6565b80633d1b40e2116102935780633d1b40e21461053c5780633f4ba83a14610546578063485cc9551461055057806348985deb146105b4578063544ffc9c1461061657806356016a4a14610658576102d6565b8063013cf08b146102db5780631e060de9146104285780632c37bb31146104325780633100860f1461048a57806333f2439d146104d657806338fe6a08146104e0575b600080fd5b610307600480360360208110156102f157600080fd5b8101908080359060200190929190505050611139565b604051808573ffffffffffffffffffffffffffffffffffffffff1673ffffffffffffffffffffffffffffffffffffffff1681526020018060200180602001848152602001838103835286818151815260200191508051906020019080838360005b83811015610383578082015181840152602081019050610368565b50505050905090810190601f1680156103b05780820380516001836020036101000a031916815260200191505b50838103825285818151815260200191508051906020019080838360005b838110156103e95780820151818401526020810190506103ce565b50505050905090810190601f1680156104165780820380516001836020036101000a031916815260200191505b50965050505050505060405180910390f35b6104306112c6565b005b6104746004803603602081101561044857600080fd5b81019080803573ffffffffffffffffffffffffffffffffffffffff169060200190929190505050611633565b6040518082815260200191505060405180910390f35b6104c0600480360360408110156104a057600080fd5b81019080803590602001909291908035906020019092919050505061165f565b6040518082815260200191505060405180910390f35b6104de61168d565b005b610522600480360360208110156104f657600080fd5b81019080803573ffffffffffffffffffffffffffffffffffffffff169060200190929190505050611a10565b604051808215151515815260200191505060405180910390f35b610544611a30565b005b61054e611ea0565b005b6105b26004803603604081101561056657600080fd5b81019080803573ffffffffffffffffffffffffffffffffffffffff169060200190929190803573ffffffffffffffffffffffffffffffffffffffff169060200190929190505050611f6d565b005b610600600480360360408110156105ca57600080fd5b81019080803573ffffffffffffffffffffffffffffffffffffffff16906020019092919080359060200190929190505050612306565b6040518082815260200191505060405180910390f35b6106426004803603602081101561062c57600080fd5b8101908080359060200190929190505050612334565b6040518082815260200191505060405180910390f35b6106846004803603602081101561066e57600080fd5b810190808035906020019092919050505061234c565b6040518082815260200191505060405180910390f35b6106dc600480360360208110156106b057600080fd5b81019080803573ffffffffffffffffffffffffffffffffffffffff169060200190929190505050612364565b604051808215151515815260200191505060405180910390f35b6106fe612384565b604051808215151515815260200191505060405180910390f35b61072061239b565b005b61072a612808565b6040518082815260200191505060405180910390f35b61078c6004803603604081101561075657600080fd5b81019080803573ffffffffffffffffffffffffffffffffffffffff16906020019092919080359060200190929190505050612839565b6040518082815260200191505060405180910390f35b61086e600480360360408110156107b857600080fd5b81019080803590602001906401000000008111156107d557600080fd5b8201836020820111156107e757600080fd5b8035906020019184600183028401116401000000008311171561080957600080fd5b90919293919293908035906020019064010000000081111561082a57600080fd5b82018360208201111561083c57600080fd5b8035906020019184600183028401116401000000008311171561085e57600080fd5b909192939192939050505061285e565b005b610878612c55565b005b6108c66004803603604081101561089057600080fd5b81019080803573ffffffffffffffffffffffffffffffffffffffff16906020019092919080359060200190929190505050612fc5565b6040518082815260200191505060405180910390f35b6108e4612fea565b005b6108ee61316e565b6040518082815260200191505060405180910390f35b61090c613174565b604051808273ffffffffffffffffffffffffffffffffffffffff1673ffffffffffffffffffffffffffffffffffffffff16815260200191505060405180910390f35b61095661319a565b6040518082815260200191505060405180910390f35b6109ae6004803603602081101561098257600080fd5b81019080803573ffffffffffffffffffffffffffffffffffffffff1690602001909291905050506131a7565b6040518082815260200191505060405180910390f35b6109cc6131d6565b005b610a4f600480360360408110156109e457600080fd5b810190808035906020019092919080359060200190640100000000811115610a0b57600080fd5b820183602082011115610a1d57600080fd5b80359060200191846001830284011164010000000083111715610a3f57600080fd5b90919293919293905050506132a3565b005b610a59613877565b604051808273ffffffffffffffffffffffffffffffffffffffff1673ffffffffffffffffffffffffffffffffffffffff16815260200191505060405180910390f35b610ac760048036036020811015610ab157600080fd5b81019080803590602001909291905050506138a1565b6040518082815260200191505060405180910390f35b610b0960048036036020811015610af357600080fd5b81019080803590602001909291905050506138c1565b604051808581526020018473ffffffffffffffffffffffffffffffffffffffff1673ffffffffffffffffffffffffffffffffffffffff16815260200180602001838152602001828103825284818151815260200191508051906020019080838360005b83811015610b87578082015181840152602081019050610b6c565b50505050905090810190601f168015610bb45780820380516001836020036101000a031916815260200191505b509550505050505060405180910390f35b610c0760048036036020811015610bdb57600080fd5b81019080803573ffffffffffffffffffffffffffffffffffffffff1690602001909291905050506139b6565b604051808215151515815260200191505060405180910390f35b610c6360048036036020811015610c3757600080fd5b81019080803573ffffffffffffffffffffffffffffffffffffffff1690602001909291905050506139d6565b6040518082815260200191505060405180910390f35b610cbb60048036036020811015610c8f57600080fd5b81019080803573ffffffffffffffffffffffffffffffffffffffff1690602001909291905050506139ee565b6040518082815260200191505060405180910390f35b610d1360048036036020811015610ce757600080fd5b81019080803573ffffffffffffffffffffffffffffffffffffffff169060200190929190505050613a3a565b6040518082815260200191505060405180910390f35b610d5560048036036020811015610d3f57600080fd5b8101908080359060200190929190505050613a86565b6040518082815260200191505060405180910390f35b610dad60048036036020811015610d8157600080fd5b81019080803573ffffffffffffffffffffffffffffffffffffffff169060200190929190505050613aa7565b604051808215151515815260200191505060405180910390f35b610df360048036036020811015610ddd57600080fd5b8101908080359060200190929190505050613ac7565b6040518082815260200191505060405180910390f35b610e11613adf565b6040518082815260200191505060405180910390f35b610e2f613ae5565b6040518082815260200191505060405180910390f35b610e7b60048036036040811015610e5b57600080fd5b810190808035906020019092919080359060200190929190505050613aeb565b005b610e85613d24565b604051808273ffffffffffffffffffffffffffffffffffffffff1673ffffffffffffffffffffffffffffffffffffffff16815260200191505060405180910390f35b610efd60048036036040811015610edd57600080fd5b810190808035906020019092919080359060200190929190505050613d4a565b6040518082815260200191505060405180910390f35b610f1b613d78565b6040518082815260200191505060405180910390f35b610f7360048036036020811015610f4757600080fd5b81019080803573ffffffffffffffffffffffffffffffffffffffff169060200190929190505050613d85565b6040518082815260200191505060405180910390f35b610f91613d9d565b604051808215151515815260200191505060405180910390f35b610fed60048036036020811015610fc157600080fd5b81019080803573ffffffffffffffffffffffffffffffffffffffff169060200190929190505050613db0565b6040518082815260200191505060405180910390f35b61104f6004803603604081101561101957600080fd5b81019080803573ffffffffffffffffffffffffffffffffffffffff16906020019092919080359060200190929190505050613dc8565b6040518082815260200191505060405180910390f35b6110a76004803603602081101561107b57600080fd5b81019080803573ffffffffffffffffffffffffffffffffffffffff169060200190929190505050613df6565b005b6110df600480360360408110156110bf57600080fd5b810190808035906020019092919080359060200190929190505050613fff565b005b611123600480360360208110156110f757600080fd5b81019080803573ffffffffffffffffffffffffffffffffffffffff169060200190929190505050614235565b6040518082815260200191505060405180910390f35b609a818154811061114657fe5b90600052602060002090600402016000915090508060000160009054906101000a900473ffffffffffffffffffffffffffffffffffffffff1690806001018054600181600116156101000203166002900480601f0160208091040260200160405190810160405280929190818152602001828054600181600116156101000203166002900480156112185780601f106111ed57610100808354040283529160200191611218565b820191906000526020600020905b8154815290600101906020018083116111fb57829003601f168201915b505050505090806002018054600181600116156101000203166002900480601f0160208091040260200160405190810160405280929190818152602001828054600181600116156101000203166002900480156112b65780601f1061128b576101008083540402835291602001916112b6565b820191906000526020600020905b81548152906001019060200180831161129957829003601f168201915b5050505050908060030154905084565b603360009054906101000a900460ff1615611349576040517f08c379a00000000000000000000000000000000000000000000000000000000081526004018080602001828103825260108152602001807f5061757361626c653a207061757365640000000000000000000000000000000081525060200191505060405180910390fd5b6004611353612808565b10156113c7576040517f08c379a000000000000000000000000000000000000000000000000000000000815260040180806020018281038252600b8152602001807f4e6f74206578706972656400000000000000000000000000000000000000000081525060200191505060405180910390fd5b600060a160003373ffffffffffffffffffffffffffffffffffffffff1673ffffffffffffffffffffffffffffffffffffffff16815260200190815260200160002054141561147d576040517f08c379a000000000000000000000000000000000000000000000000000000000815260040180806020018281038252601a8152602001807f43616e6e6f7420636c61696d2066726f6d2070726f706f73616c00000000000081525060200191505060405180910390fd5b60a360003373ffffffffffffffffffffffffffffffffffffffff1673ffffffffffffffffffffffffffffffffffffffff16815260200190815260200160002060009054906101000a900460ff161561153d576040517f08c379a00000000000000000000000000000000000000000000000000000000081526004018080602001828103825260188152602001807f596f75206861766520616c726561647920636c61696d6564000000000000000081525060200191505060405180910390fd5b600160a360003373ffffffffffffffffffffffffffffffffffffffff1673ffffffffffffffffffffffffffffffffffffffff16815260200190815260200160002060006101000a81548160ff02191690831515021790555060006115a03361424d565b905060008111156115f9576115f83382609760009054906101000a900473ffffffffffffffffffffffffffffffffffffffff1673ffffffffffffffffffffffffffffffffffffffff1661439a9092919063ffffffff16565b5b7f88c49fd38b1dd9e73c466c856574ecae503baba7e7e2ddbaae8092395d63757a816040518082815260200191505060405180910390a150565b6000600461163f612808565b101561164e576000905061165a565b6116578261424d565b90505b919050565b60a6602052816000526040600020818154811061167857fe5b90600052602060002001600091509150505481565b603360009054906101000a900460ff1615611710576040517f08c379a00000000000000000000000000000000000000000000000000000000081526004018080602001828103825260108152602001807f5061757361626c653a207061757365640000000000000000000000000000000081525060200191505060405180910390fd5b3373ffffffffffffffffffffffffffffffffffffffff16606560009054906101000a900473ffffffffffffffffffffffffffffffffffffffff1673ffffffffffffffffffffffffffffffffffffffff16146117d3576040517f08c379a00000000000000000000000000000000000000000000000000000000081526004018080602001828103825260208152602001807f4f776e61626c653a2063616c6c6572206973206e6f7420746865206f776e657281525060200191505060405180910390fd5b60046117dd612808565b1015611851576040517f08c379a000000000000000000000000000000000000000000000000000000000815260040180806020018281038252600b8152602001807f4e6f74206578706972656400000000000000000000000000000000000000000081525060200191505060405180910390fd5b609c60009054906101000a900460ff16156118d4576040517f08c379a00000000000000000000000000000000000000000000000000000000081526004018080602001828103825260208152602001807f50726f706f73616c207265776172647320686173206265656e206275726e656481525060200191505060405180910390fd5b6001609c60006101000a81548160ff021916908315150217905550600080905060008090505b600a811015611958577fffffffffffffffffffffffffffffffffffffffffffffffffffffffffffffffff609b828154811061193157fe5b9060005260206000200154141561194b5781806001019250505b80806001019150506118fa565b50600080905060008211156119d557611983826815af1d78b58c40000061445290919063ffffffff16565b90506119d461dead82609760009054906101000a900473ffffffffffffffffffffffffffffffffffffffff1673ffffffffffffffffffffffffffffffffffffffff1661439a9092919063ffffffff16565b5b7f7a69f9dd77f85db837c84bf7475d3ee2cde3b5a16129d5158f8f2f3a4e839692816040518082815260200191505060405180910390a15050565b60a36020528060005260406000206000915054906101000a900460ff1681565b603360009054906101000a900460ff1615611ab3576040517f08c379a00000000000000000000000000000000000000000000000000000000081526004018080602001828103825260108152602001807f5061757361626c653a207061757365640000000000000000000000000000000081525060200191505060405180910390fd5b6005600401611ac0612808565b1015611b34576040517f08c379a000000000000000000000000000000000000000000000000000000000815260040180806020018281038252600b8152602001807f4e6f74206578706972656400000000000000000000000000000000000000000081525060200191505060405180910390fd5b600060af60003373ffffffffffffffffffffffffffffffffffffffff1673ffffffffffffffffffffffffffffffffffffffff168152602001908152602001600020541415611bea576040517f08c379a000000000000000000000000000000000000000000000000000000000815260040180806020018281038252601b8152602001807f43616e6e6f742077697468647261772066726f6d20666967757265000000000081525060200191505060405180910390fd5b62093a80611c4060af60003373ffffffffffffffffffffffffffffffffffffffff1673ffffffffffffffffffffffffffffffffffffffff16815260200190815260200160002054426144d890919063ffffffff16565b11611cb3576040517f08c379a000000000000000000000000000000000000000000000000000000000815260040180806020018281038252601a8152602001807f43616e6e6f7420636c61696d2077697468696e2037206461797300000000000081525060200191505060405180910390fd5b60b060003373ffffffffffffffffffffffffffffffffffffffff1673ffffffffffffffffffffffffffffffffffffffff16815260200190815260200160002060009054906101000a900460ff1615611d73576040517f08c379a000000000000000000000000000000000000000000000000000000000815260040180806020018281038252601a8152602001807f596f75206861766520616c72656164792077697468647261776e00000000000081525060200191505060405180910390fd5b600160b060003373ffffffffffffffffffffffffffffffffffffffff1673ffffffffffffffffffffffffffffffffffffffff16815260200190815260200160002060006101000a81548160ff021916908315150217905550600060ae60003373ffffffffffffffffffffffffffffffffffffffff1673ffffffffffffffffffffffffffffffffffffffff1681526020019081526020016000205490506000811115611e6657611e653382609860009054906101000a900473ffffffffffffffffffffffffffffffffffffffff1673ffffffffffffffffffffffffffffffffffffffff1661439a9092919063ffffffff16565b5b7f06ef32dc663fb4a00c12e47b86feeca2dbfbd76d64254d976702c22ed0a18e00816040518082815260200191505060405180910390a150565b3373ffffffffffffffffffffffffffffffffffffffff16606560009054906101000a900473ffffffffffffffffffffffffffffffffffffffff1673ffffffffffffffffffffffffffffffffffffffff1614611f63576040517f08c379a00000000000000000000000000000000000000000000000000000000081526004018080602001828103825260208152602001807f4f776e61626c653a2063616c6c6572206973206e6f7420746865206f776e657281525060200191505060405180910390fd5b611f6b614522565b565b600060019054906101000a900460ff1680611f8c5750611f8b614624565b5b80611fa357506000809054906101000a900460ff16155b611ff8576040517f08c379a000000000000000000000000000000000000000000000000000000000815260040180806020018281038252602e815260200180615d76602e913960400191505060405180910390fd5b60008060019054906101000a900460ff161590508015612048576001600060016101000a81548160ff02191690831515021790555060016000806101000a81548160ff0219169083151502179055505b61205061463b565b612058614645565b82609760006101000a81548173ffffffffffffffffffffffffffffffffffffffff021916908373ffffffffffffffffffffffffffffffffffffffff16021790555081609860006101000a81548173ffffffffffffffffffffffffffffffffffffffff021916908373ffffffffffffffffffffffffffffffffffffffff1602179055506040518060600160405280681b1ae4d6e2ef50000068ffffffffffffffffff168152602001681043561a882930000068ffffffffffffffffff168152602001680ad78ebc5ac620000068ffffffffffffffffff1681525060a7906003612141929190615b26565b506040518061014001604052807fffffffffffffffffffffffffffffffffffffffffffffffffffffffffffffffff81526020017fffffffffffffffffffffffffffffffffffffffffffffffffffffffffffffffff81526020017fffffffffffffffffffffffffffffffffffffffffffffffffffffffffffffffff81526020017fffffffffffffffffffffffffffffffffffffffffffffffffffffffffffffffff81526020017fffffffffffffffffffffffffffffffffffffffffffffffffffffffffffffffff81526020017fffffffffffffffffffffffffffffffffffffffffffffffffffffffffffffffff81526020017fffffffffffffffffffffffffffffffffffffffffffffffffffffffffffffffff81526020017fffffffffffffffffffffffffffffffffffffffffffffffffffffffffffffffff81526020017fffffffffffffffffffffffffffffffffffffffffffffffffffffffffffffffff81526020017fffffffffffffffffffffffffffffffffffffffffffffffffffffffffffffffff815250609b90600a6122d8929190615b73565b504260998190555080156123015760008060016101000a81548160ff0219169083151502179055505b505050565b609f602052816000526040600020818154811061231f57fe5b90600052602060002001600091509150505481565b609e6020528060005260406000206000915090505481565b60a7816003811061235957fe5b016000915090505481565b60b06020528060005260406000206000915054906101000a900460ff1681565b6000603360009054906101000a900460ff16905090565b603360009054906101000a900460ff161561241e576040517f08c379a00000000000000000000000000000000000000000000000000000000081526004018080602001828103825260108152602001807f5061757361626c653a207061757365640000000000000000000000000000000081525060200191505060405180910390fd5b6004612428612808565b101561249c576040517f08c379a000000000000000000000000000000000000000000000000000000000815260040180806020018281038252600b8152602001807f4e6f74206578706972656400000000000000000000000000000000000000000081525060200191505060405180910390fd5b600060a160003373ffffffffffffffffffffffffffffffffffffffff1673ffffffffffffffffffffffffffffffffffffffff168152602001908152602001600020541415612552576040517f08c379a000000000000000000000000000000000000000000000000000000000815260040180806020018281038252601d8152602001807f43616e6e6f742077697468647261772066726f6d2070726f706f73616c00000081525060200191505060405180910390fd5b620546006125a860a160003373ffffffffffffffffffffffffffffffffffffffff1673ffffffffffffffffffffffffffffffffffffffff16815260200190815260200160002054426144d890919063ffffffff16565b1161261b576040517f08c379a000000000000000000000000000000000000000000000000000000000815260040180806020018281038252601d8152602001807f43616e6e6f742077697468647261772077697468696e2034206461797300000081525060200191505060405180910390fd5b60a260003373ffffffffffffffffffffffffffffffffffffffff1673ffffffffffffffffffffffffffffffffffffffff16815260200190815260200160002060009054906101000a900460ff16156126db576040517f08c379a000000000000000000000000000000000000000000000000000000000815260040180806020018281038252601a8152602001807f596f75206861766520616c72656164792077697468647261776e00000000000081525060200191505060405180910390fd5b600160a260003373ffffffffffffffffffffffffffffffffffffffff1673ffffffffffffffffffffffffffffffffffffffff16815260200190815260200160002060006101000a81548160ff021916908315150217905550600060a060003373ffffffffffffffffffffffffffffffffffffffff1673ffffffffffffffffffffffffffffffffffffffff16815260200190815260200160002054905060008111156127ce576127cd3382609860009054906101000a900473ffffffffffffffffffffffffffffffffffffffff1673ffffffffffffffffffffffffffffffffffffffff1661439a9092919063ffffffff16565b5b7f5ca6c0bba519c857c8713fba9f5f1b582abe00c95dcccedccea41ad683bad26d816040518082815260200191505060405180910390a150565b600061283462015180612826609954426144d890919063ffffffff16565b61464f90919063ffffffff16565b905090565b60b2602052816000526040600020602052806000526040600020600091509150505481565b603360009054906101000a900460ff16156128e1576040517f08c379a00000000000000000000000000000000000000000000000000000000081526004018080602001828103825260108152602001807f5061757361626c653a207061757365640000000000000000000000000000000081525060200191505060405180910390fd5b60046128eb612808565b1061295e576040517f08c379a00000000000000000000000000000000000000000000000000000000081526004018080602001828103825260078152602001807f457870697265640000000000000000000000000000000000000000000000000081525060200191505060405180910390fd5b60208484905011156129d8576040517f08c379a00000000000000000000000000000000000000000000000000000000081526004018080602001828103825260188152602001807f4e616d652773206c656e67746820697320746f6f20626967000000000000000081525060200191505060405180910390fd5b60c8828290501115612a52576040517f08c379a00000000000000000000000000000000000000000000000000000000081526004018080602001828103825260188152602001807f496e666f2773206c656e67746820697320746f6f20626967000000000000000081525060200191505060405180910390fd5b612a5a615bc0565b33816000019073ffffffffffffffffffffffffffffffffffffffff16908173ffffffffffffffffffffffffffffffffffffffff168152505084848080601f016020809104026020016040519081016040528093929190818152602001838380828437600081840152601f19601f82011690508083019250505050505050816020018190525082828080601f016020809104026020016040519081016040528093929190818152602001838380828437600081840152601f19601f82011690508083019250505050505050816040018190525042816060018181525050609a81908060018154018082558091505060019003906000526020600020906004020160009091909190915060008201518160000160006101000a81548173ffffffffffffffffffffffffffffffffffffffff021916908373ffffffffffffffffffffffffffffffffffffffff1602179055506020820151816001019080519060200190612bc5929190615bfe565b506040820151816002019080519060200190612be2929190615bfe565b5060608201518160030155505060006001609a8054905003905060006802b5e3af16b18800009050612c148282614699565b817ffcf3b1aa65a464cef2889608f99e8b8c0f680a4be6c2acb9d961c536a5a9294b826040518082815260200191505060405180910390a250505050505050565b603360009054906101000a900460ff1615612cd8576040517f08c379a00000000000000000000000000000000000000000000000000000000081526004018080602001828103825260108152602001807f5061757361626c653a207061757365640000000000000000000000000000000081525060200191505060405180910390fd5b6005600401612ce5612808565b1015612d59576040517f08c379a000000000000000000000000000000000000000000000000000000000815260040180806020018281038252600b8152602001807f4e6f74206578706972656400000000000000000000000000000000000000000081525060200191505060405180910390fd5b600060af60003373ffffffffffffffffffffffffffffffffffffffff1673ffffffffffffffffffffffffffffffffffffffff168152602001908152602001600020541415612e0f576040517f08c379a00000000000000000000000000000000000000000000000000000000081526004018080602001828103825260188152602001807f43616e6e6f7420636c61696d2066726f6d20666967757265000000000000000081525060200191505060405180910390fd5b60b160003373ffffffffffffffffffffffffffffffffffffffff1673ffffffffffffffffffffffffffffffffffffffff16815260200190815260200160002060009054906101000a900460ff1615612ecf576040517f08c379a00000000000000000000000000000000000000000000000000000000081526004018080602001828103825260188152602001807f596f75206861766520616c726561647920636c61696d6564000000000000000081525060200191505060405180910390fd5b600160b160003373ffffffffffffffffffffffffffffffffffffffff1673ffffffffffffffffffffffffffffffffffffffff16815260200190815260200160002060006101000a81548160ff0219169083151502179055506000612f323361499d565b90506000811115612f8b57612f8a3382609760009054906101000a900473ffffffffffffffffffffffffffffffffffffffff1673ffffffffffffffffffffffffffffffffffffffff1661439a9092919063ffffffff16565b5b7fd9c11d32472a7625893f113b5a14fc082c25003ce3cdeca0f5f1be39f9918bd6816040518082815260200191505060405180910390a150565b60a4602052816000526040600020602052806000526040600020600091509150505481565b3373ffffffffffffffffffffffffffffffffffffffff16606560009054906101000a900473ffffffffffffffffffffffffffffffffffffffff1673ffffffffffffffffffffffffffffffffffffffff16146130ad576040517f08c379a00000000000000000000000000000000000000000000000000000000081526004018080602001828103825260208152602001807f4f776e61626c653a2063616c6c6572206973206e6f7420746865206f776e657281525060200191505060405180910390fd5b600073ffffffffffffffffffffffffffffffffffffffff16606560009054906101000a900473ffffffffffffffffffffffffffffffffffffffff1673ffffffffffffffffffffffffffffffffffffffff167f8be0079c531659141344cd1fd0a4f28419497f9722a3daafe3b4186f6b6457e060405160405180910390a36000606560006101000a81548173ffffffffffffffffffffffffffffffffffffffff021916908373ffffffffffffffffffffffffffffffffffffffff160217905550565b609d5481565b609860009054906101000a900473ffffffffffffffffffffffffffffffffffffffff1681565b600060a580549050905090565b600060056004016131b6612808565b10156131c557600090506131d1565b6131ce8261499d565b90505b919050565b3373ffffffffffffffffffffffffffffffffffffffff16606560009054906101000a900473ffffffffffffffffffffffffffffffffffffffff1673ffffffffffffffffffffffffffffffffffffffff1614613299576040517f08c379a00000000000000000000000000000000000000000000000000000000081526004018080602001828103825260208152602001807f4f776e61626c653a2063616c6c6572206973206e6f7420746865206f776e657281525060200191505060405180910390fd5b6132a1614c5c565b565b603360009054906101000a900460ff1615613326576040517f08c379a00000000000000000000000000000000000000000000000000000000081526004018080602001828103825260108152602001807f5061757361626c653a207061757365640000000000000000000000000000000081525060200191505060405180910390fd5b6004613330612808565b10156133a4576040517f08c379a00000000000000000000000000000000000000000000000000000000081526004018080602001828103825260098152602001807f4e6f74207265616479000000000000000000000000000000000000000000000081525060200191505060405180910390fd5b60056004016133b1612808565b10613424576040517f08c379a00000000000000000000000000000000000000000000000000000000081526004018080602001828103825260078152602001807f457870697265640000000000000000000000000000000000000000000000000081525060200191505060405180910390fd5b609a80549050831061349e576040517f08c379a00000000000000000000000000000000000000000000000000000000081526004018080602001828103825260138152602001807f496e76616c69642070726f706f73616c2069640000000000000000000000000081525060200191505060405180910390fd5b60c8828290501115613518576040517f08c379a00000000000000000000000000000000000000000000000000000000081526004018080602001828103825260188152602001807f496e666f2773206c656e67746820697320746f6f20626967000000000000000081525060200191505060405180910390fd5b600080905060008090505b600a8110156135615784609b828154811061353a57fe5b906000526020600020015414156135545760019150613561565b8080600101915050613523565b50806135d5576040517f08c379a00000000000000000000000000000000000000000000000000000000081526004018080602001828103825260138152602001807f496e76616c69642070726f706f73616c2069640000000000000000000000000081525060200191505060405180910390fd5b600360a6600086815260200190815260200160002080549050146136915760405180606001604052807fffffffffffffffffffffffffffffffffffffffffffffffffffffffffffffffff81526020017fffffffffffffffffffffffffffffffffffffffffffffffffffffffffffffffff81526020017fffffffffffffffffffffffffffffffffffffffffffffffffffffffffffffffff81525060a6600086815260200190815260200160002090600361368f929190615c7e565b505b613699615ccb565b8481600001818152505033816020019073ffffffffffffffffffffffffffffffffffffffff16908173ffffffffffffffffffffffffffffffffffffffff168152505083838080601f016020809104026020016040519081016040528093929190818152602001838380828437600081840152601f19601f8201169050808301925050505050505081604001819052504281606001818152505060a58190806001815401808255809150506001900390600052602060002090600402016000909190919091506000820151816000015560208201518160010160006101000a81548173ffffffffffffffffffffffffffffffffffffffff021916908373ffffffffffffffffffffffffffffffffffffffff16021790555060408201518160020190805190602001906137cb929190615bfe565b506060820151816003015550506000600160a5805490500390506000678ac7230489e8000090506137fc8282614d5f565b60aa6000888152602001908152602001600020829080600181540180825580915050600190039060005260206000200160009091909190915055817fc9dac9ec8848deeb7b6d2050e5452032dffa3d7a8e8b98ef154a34a64ccff707826040518082815260200191505060405180910390a250505050505050565b6000606560009054906101000a900473ffffffffffffffffffffffffffffffffffffffff16905090565b600060aa6000838152602001908152602001600020805490509050919050565b60a581815481106138ce57fe5b90600052602060002090600402016000915090508060000154908060010160009054906101000a900473ffffffffffffffffffffffffffffffffffffffff1690806002018054600181600116156101000203166002900480601f0160208091040260200160405190810160405280929190818152602001828054600181600116156101000203166002900480156139a65780601f1061397b576101008083540402835291602001916139a6565b820191906000526020600020905b81548152906001019060200180831161398957829003601f168201915b5050505050908060030154905084565b60a26020528060005260406000206000915054906101000a900460ff1681565b60af6020528060005260406000206000915090505481565b6000609f60008373ffffffffffffffffffffffffffffffffffffffff1673ffffffffffffffffffffffffffffffffffffffff168152602001908152602001600020805490509050919050565b600060ad60008373ffffffffffffffffffffffffffffffffffffffff1673ffffffffffffffffffffffffffffffffffffffff168152602001908152602001600020805490509050919050565b609b8181548110613a9357fe5b906000526020600020016000915090505481565b60b16020528060005260406000206000915054906101000a900460ff1681565b60ac6020528060005260406000206000915090505481565b60ab5481565b60995481565b603360009054906101000a900460ff1615613b6e576040517f08c379a00000000000000000000000000000000000000000000000000000000081526004018080602001828103825260108152602001807f5061757361626c653a207061757365640000000000000000000000000000000081525060200191505060405180910390fd5b6005600401613b7b612808565b10613bee576040517f08c379a00000000000000000000000000000000000000000000000000000000081526004018080602001828103825260078152602001807f457870697265640000000000000000000000000000000000000000000000000081525060200191505060405180910390fd5b60a5805490508210613c68576040517f08c379a00000000000000000000000000000000000000000000000000000000081526004018080602001828103825260118152602001807f496e76616c69642066696775726520696400000000000000000000000000000081525060200191505060405180910390fd5b60008111613cde576040517f08c379a000000000000000000000000000000000000000000000000000000000815260040180806020018281038252601d8152602001807f566f7465732073686f756c64206c6172676572207468656e207a65726f00000081525060200191505060405180910390fd5b613ce88282614d5f565b817fd44ad0027ed2a08aeb8161502fe1eb91c299c11d3ff11138be8cd127cc755c2a826040518082815260200191505060405180910390a25050565b609760009054906101000a900473ffffffffffffffffffffffffffffffffffffffff1681565b60aa6020528160005260406000208181548110613d6357fe5b90600052602060002001600091509150505481565b6000609a80549050905090565b60a06020528060005260406000206000915090505481565b609c60009054906101000a900460ff1681565b60a16020528060005260406000206000915090505481565b60ad6020528160005260406000208181548110613de157fe5b90600052602060002001600091509150505481565b3373ffffffffffffffffffffffffffffffffffffffff16606560009054906101000a900473ffffffffffffffffffffffffffffffffffffffff1673ffffffffffffffffffffffffffffffffffffffff1614613eb9576040517f08c379a00000000000000000000000000000000000000000000000000000000081526004018080602001828103825260208152602001807f4f776e61626c653a2063616c6c6572206973206e6f7420746865206f776e657281525060200191505060405180910390fd5b600073ffffffffffffffffffffffffffffffffffffffff168173ffffffffffffffffffffffffffffffffffffffff161415613f3f576040517f08c379a0000000000000000000000000000000000000000000000000000000008152600401808060200182810382526026815260200180615d2f6026913960400191505060405180910390fd5b8073ffffffffffffffffffffffffffffffffffffffff16606560009054906101000a900473ffffffffffffffffffffffffffffffffffffffff1673ffffffffffffffffffffffffffffffffffffffff167f8be0079c531659141344cd1fd0a4f28419497f9722a3daafe3b4186f6b6457e060405160405180910390a380606560006101000a81548173ffffffffffffffffffffffffffffffffffffffff021916908373ffffffffffffffffffffffffffffffffffffffff16021790555050565b603360009054906101000a900460ff1615614082576040517f08c379a00000000000000000000000000000000000000000000000000000000081526004018080602001828103825260108152602001807f5061757361626c653a207061757365640000000000000000000000000000000081525060200191505060405180910390fd5b600461408c612808565b106140ff576040517f08c379a00000000000000000000000000000000000000000000000000000000081526004018080602001828103825260078152602001807f457870697265640000000000000000000000000000000000000000000000000081525060200191505060405180910390fd5b60008111614175576040517f08c379a000000000000000000000000000000000000000000000000000000000815260040180806020018281038252601d8152602001807f566f7465732073686f756c64206c6172676572207468656e207a65726f00000081525060200191505060405180910390fd5b609a8054905082106141ef576040517f08c379a00000000000000000000000000000000000000000000000000000000081526004018080602001828103825260138152602001807f496e76616c69642070726f706f73616c2069640000000000000000000000000081525060200191505060405180910390fd5b6141f98282614699565b817fd9269f7270bc5664a2191e6eb8966494c9525a450c09c958895c80de0b2d926d826040518082815260200191505060405180910390a25050565b60ae6020528060005260406000206000915090505481565b6000806000905060008090505b609b80549050811015614390577fffffffffffffffffffffffffffffffffffffffffffffffffffffffffffffffff609b828154811061429557fe5b906000526020600020015414156142ab57614390565b6000609b82815481106142ba57fe5b90600052602060002001549050600060a460008773ffffffffffffffffffffffffffffffffffffffff1673ffffffffffffffffffffffffffffffffffffffff16815260200190815260200160002060008381526020019081526020016000205490506000811115614381576000609e600084815260200190815260200160002054905061437d61436e82614360856815af1d78b58c40000061445290919063ffffffff16565b61464f90919063ffffffff16565b8661508890919063ffffffff16565b9450505b5050808060010191505061425a565b5080915050919050565b61444d8363a9059cbb60e01b8484604051602401808373ffffffffffffffffffffffffffffffffffffffff1673ffffffffffffffffffffffffffffffffffffffff16815260200182815260200192505050604051602081830303815290604052907bffffffffffffffffffffffffffffffffffffffffffffffffffffffff19166020820180517bffffffffffffffffffffffffffffffffffffffffffffffffffffffff8381831617835250505050615110565b505050565b60008083141561446557600090506144d2565b600082840290508284828161447657fe5b04146144cd576040517f08c379a0000000000000000000000000000000000000000000000000000000008152600401808060200182810382526021815260200180615d556021913960400191505060405180910390fd5b809150505b92915050565b600061451a83836040518060400160405280601e81526020017f536166654d6174683a207375627472616374696f6e206f766572666c6f77000081525061535b565b905092915050565b603360009054906101000a900460ff166145a4576040517f08c379a00000000000000000000000000000000000000000000000000000000081526004018080602001828103825260148152602001807f5061757361626c653a206e6f742070617573656400000000000000000000000081525060200191505060405180910390fd5b6000603360006101000a81548160ff0219169083151502179055507f5db9ee0a495bf2e6ff9c91a7834c1ba4fdd244a5e8aa4e537bd38aeae4b073aa33604051808273ffffffffffffffffffffffffffffffffffffffff1673ffffffffffffffffffffffffffffffffffffffff16815260200191505060405180910390a1565b6000803090506000813b9050600081149250505090565b61464361541b565b565b61464d615438565b565b600061469183836040518060400160405280601a81526020017f536166654d6174683a206469766973696f6e206279207a65726f0000000000008152506154dc565b905092915050565b6146e8333083609860009054906101000a900473ffffffffffffffffffffffffffffffffffffffff1673ffffffffffffffffffffffffffffffffffffffff166155a2909392919063ffffffff16565b6146fd81609d5461508890919063ffffffff16565b609d8190555061472981609e60008581526020019081526020016000205461508890919063ffffffff16565b609e6000848152602001908152602001600020819055506147928160a060003373ffffffffffffffffffffffffffffffffffffffff1673ffffffffffffffffffffffffffffffffffffffff1681526020019081526020016000205461508890919063ffffffff16565b60a060003373ffffffffffffffffffffffffffffffffffffffff1673ffffffffffffffffffffffffffffffffffffffff16815260200190815260200160002081905550600060a460003373ffffffffffffffffffffffffffffffffffffffff1673ffffffffffffffffffffffffffffffffffffffff168152602001908152602001600020600084815260200190815260200160002054141561489557609f60003373ffffffffffffffffffffffffffffffffffffffff1673ffffffffffffffffffffffffffffffffffffffff1681526020019081526020016000208290806001815401808255809150506001900390600052602060002001600090919091909150555b6148f88160a460003373ffffffffffffffffffffffffffffffffffffffff1673ffffffffffffffffffffffffffffffffffffffff16815260200190815260200160002060008581526020019081526020016000205461508890919063ffffffff16565b60a460003373ffffffffffffffffffffffffffffffffffffffff1673ffffffffffffffffffffffffffffffffffffffff1681526020019081526020016000206000848152602001908152602001600020819055506149558261568f565b4260a160003373ffffffffffffffffffffffffffffffffffffffff1673ffffffffffffffffffffffffffffffffffffffff168152602001908152602001600020819055505050565b6000806000905060008090505b600a811015614c52576000609b82815481106149c257fe5b906000526020600020015490507fffffffffffffffffffffffffffffffffffffffffffffffffffffffffffffffff8114156149fd5750614c52565b600060a66000838152602001908152602001600020805490501415614a225750614c45565b60008090505b6003811015614c4257600060a660008481526020019081526020016000208281548110614a5157fe5b906000526020600020015490507fffffffffffffffffffffffffffffffffffffffffffffffffffffffffffffffff811415614a8c5750614c42565b600060b260008973ffffffffffffffffffffffffffffffffffffffff1673ffffffffffffffffffffffffffffffffffffffff16815260200190815260200160002060008381526020019081526020016000205490506000811115614c3357600060ac60008481526020019081526020016000205490506000614b47670de0b6b3a7640000614b3967016345785d8a000060a78960038110614b2957fe5b015461445290919063ffffffff16565b61464f90919063ffffffff16565b90506000614b6c8260a78860038110614b5c57fe5b01546144d890919063ffffffff16565b9050614ba5614b9684614b88878561445290919063ffffffff16565b61464f90919063ffffffff16565b8a61508890919063ffffffff16565b985060a58581548110614bb457fe5b906000526020600020906004020160010160009054906101000a900473ffffffffffffffffffffffffffffffffffffffff1673ffffffffffffffffffffffffffffffffffffffff163373ffffffffffffffffffffffffffffffffffffffff161415614c2f57614c2c828a61508890919063ffffffff16565b98505b5050505b50508080600101915050614a28565b50505b80806001019150506149aa565b5080915050919050565b603360009054906101000a900460ff1615614cdf576040517f08c379a00000000000000000000000000000000000000000000000000000000081526004018080602001828103825260108152602001807f5061757361626c653a207061757365640000000000000000000000000000000081525060200191505060405180910390fd5b6001603360006101000a81548160ff0219169083151502179055507f62e78cea01bee320cd4e420270b5ea74000d11b0c9f74754ebdbfc544b05a25833604051808273ffffffffffffffffffffffffffffffffffffffff1673ffffffffffffffffffffffffffffffffffffffff16815260200191505060405180910390a1565b614dae333083609860009054906101000a900473ffffffffffffffffffffffffffffffffffffffff1673ffffffffffffffffffffffffffffffffffffffff166155a2909392919063ffffffff16565b614dc38160ab5461508890919063ffffffff16565b60ab81905550614def8160ac60008581526020019081526020016000205461508890919063ffffffff16565b60ac600084815260200190815260200160002081905550614e588160ae60003373ffffffffffffffffffffffffffffffffffffffff1673ffffffffffffffffffffffffffffffffffffffff1681526020019081526020016000205461508890919063ffffffff16565b60ae60003373ffffffffffffffffffffffffffffffffffffffff1673ffffffffffffffffffffffffffffffffffffffff16815260200190815260200160002081905550600060b260003373ffffffffffffffffffffffffffffffffffffffff1673ffffffffffffffffffffffffffffffffffffffff1681526020019081526020016000206000848152602001908152602001600020541415614f5b5760ad60003373ffffffffffffffffffffffffffffffffffffffff1673ffffffffffffffffffffffffffffffffffffffff1681526020019081526020016000208290806001815401808255809150506001900390600052602060002001600090919091909150555b614fbe8160b260003373ffffffffffffffffffffffffffffffffffffffff1673ffffffffffffffffffffffffffffffffffffffff16815260200190815260200160002060008581526020019081526020016000205461508890919063ffffffff16565b60b260003373ffffffffffffffffffffffffffffffffffffffff1673ffffffffffffffffffffffffffffffffffffffff168152602001908152602001600020600084815260200190815260200160002081905550600060a5838154811061502157fe5b906000526020600020906004020160000154905061503f818461588a565b4260af60003373ffffffffffffffffffffffffffffffffffffffff1673ffffffffffffffffffffffffffffffffffffffff16815260200190815260200160002081905550505050565b600080828401905083811015615106576040517f08c379a000000000000000000000000000000000000000000000000000000000815260040180806020018281038252601b8152602001807f536166654d6174683a206164646974696f6e206f766572666c6f77000000000081525060200191505060405180910390fd5b8091505092915050565b61512f8273ffffffffffffffffffffffffffffffffffffffff16615adb565b6151a1576040517f08c379a000000000000000000000000000000000000000000000000000000000815260040180806020018281038252601f8152602001807f5361666545524332303a2063616c6c20746f206e6f6e2d636f6e74726163740081525060200191505060405180910390fd5b600060608373ffffffffffffffffffffffffffffffffffffffff16836040518082805190602001908083835b602083106151f057805182526020820191506020810190506020830392506151cd565b6001836020036101000a0380198251168184511680821785525050505050509050019150506000604051808303816000865af19150503d8060008114615252576040519150601f19603f3d011682016040523d82523d6000602084013e615257565b606091505b5091509150816152cf576040517f08c379a00000000000000000000000000000000000000000000000000000000081526004018080602001828103825260208152602001807f5361666545524332303a206c6f772d6c6576656c2063616c6c206661696c656481525060200191505060405180910390fd5b600081511115615355578080602001905160208110156152ee57600080fd5b8101908080519060200190929190505050615354576040517f08c379a000000000000000000000000000000000000000000000000000000000815260040180806020018281038252602a815260200180615da4602a913960400191505060405180910390fd5b5b50505050565b6000838311158290615408576040517f08c379a00000000000000000000000000000000000000000000000000000000081526004018080602001828103825283818151815260200191508051906020019080838360005b838110156153cd5780820151818401526020810190506153b2565b50505050905090810190601f1680156153fa5780820380516001836020036101000a031916815260200191505b509250505060405180910390fd5b5060008385039050809150509392505050565b6000603360006101000a81548160ff021916908315150217905550565b600033905080606560006101000a81548173ffffffffffffffffffffffffffffffffffffffff021916908373ffffffffffffffffffffffffffffffffffffffff1602179055508073ffffffffffffffffffffffffffffffffffffffff16600073ffffffffffffffffffffffffffffffffffffffff167f8be0079c531659141344cd1fd0a4f28419497f9722a3daafe3b4186f6b6457e060405160405180910390a350565b60008083118290615588576040517f08c379a00000000000000000000000000000000000000000000000000000000081526004018080602001828103825283818151815260200191508051906020019080838360005b8381101561554d578082015181840152602081019050615532565b50505050905090810190601f16801561557a5780820380516001836020036101000a031916815260200191505b509250505060405180910390fd5b50600083858161559457fe5b049050809150509392505050565b615689846323b872dd60e01b858585604051602401808473ffffffffffffffffffffffffffffffffffffffff1673ffffffffffffffffffffffffffffffffffffffff1681526020018373ffffffffffffffffffffffffffffffffffffffff1673ffffffffffffffffffffffffffffffffffffffff1681526020018281526020019350505050604051602081830303815290604052907bffffffffffffffffffffffffffffffffffffffffffffffffffffffff19166020820180517bffffffffffffffffffffffffffffffffffffffffffffffffffffffff8381831617835250505050615110565b50505050565b60007fffffffffffffffffffffffffffffffffffffffffffffffffffffffffffffffff905060006001609b8054905003905060008090505b8181116157ed576000609b82815481106156dd57fe5b906000526020600020015490507fffffffffffffffffffffffffffffffffffffffffffffffffffffffffffffffff811415615747577fffffffffffffffffffffffffffffffffffffffffffffffffffffffffffffffff84141561573e578193505b819250506157ed565b80851415615784577fffffffffffffffffffffffffffffffffffffffffffffffffffffffffffffffff84141561577b578193505b819250506157ed565b609e600082815260200190815260200160002054609e60008781526020019081526020016000205411156157df577fffffffffffffffffffffffffffffffffffffffffffffffffffffffffffffffff8414156157de578193505b5b5080806001019150506156c7565b5060008190505b8281111561584057609b600182038154811061580c57fe5b9060005260206000200154609b828154811061582457fe5b90600052602060002001819055508080600190039150506157f4565b507fffffffffffffffffffffffffffffffffffffffffffffffffffffffffffffffff82146158855782609b838154811061587657fe5b90600052602060002001819055505b505050565b60007fffffffffffffffffffffffffffffffffffffffffffffffffffffffffffffffff90506000600160a660008681526020019081526020016000208054905003905060008090505b818111615a0a57600060a6600087815260200190815260200160002082815481106158fa57fe5b906000526020600020015490507fffffffffffffffffffffffffffffffffffffffffffffffffffffffffffffffff811415615964577fffffffffffffffffffffffffffffffffffffffffffffffffffffffffffffffff84141561595b578193505b81925050615a0a565b808614156159a1577fffffffffffffffffffffffffffffffffffffffffffffffffffffffffffffffff841415615998578193505b81925050615a0a565b60ac60008281526020019081526020016000205460ac60008781526020019081526020016000205411156159fc577fffffffffffffffffffffffffffffffffffffffffffffffffffffffffffffffff8414156159fb578193505b5b5080806001019150506158d3565b5060008190505b82811115615a7f5760a660008681526020019081526020016000206001820381548110615a3a57fe5b906000526020600020015460a660008781526020019081526020016000208281548110615a6357fe5b9060005260206000200181905550808060019003915050615a11565b507fffffffffffffffffffffffffffffffffffffffffffffffffffffffffffffffff8214615ad5578260a660008681526020019081526020016000208381548110615ac657fe5b90600052602060002001819055505b50505050565b60008060007fc5d2460186f7233c927e7db2dcc703c0e500b653ca82273b7bfad8045d85a47060001b9050833f9150808214158015615b1d57506000801b8214155b92505050919050565b8260038101928215615b62579160200282015b82811115615b61578251829068ffffffffffffffffff16905591602001919060010190615b39565b5b509050615b6f9190615d09565b5090565b828054828255906000526020600020908101928215615baf579160200282015b82811115615bae578251825591602001919060010190615b93565b5b509050615bbc9190615d09565b5090565b6040518060800160405280600073ffffffffffffffffffffffffffffffffffffffff1681526020016060815260200160608152602001600081525090565b828054600181600116156101000203166002900490600052602060002090601f016020900481019282601f10615c3f57805160ff1916838001178555615c6d565b82800160010185558215615c6d579182015b82811115615c6c578251825591602001919060010190615c51565b5b509050615c7a9190615d09565b5090565b828054828255906000526020600020908101928215615cba579160200282015b82811115615cb9578251825591602001919060010190615c9e565b5b509050615cc79190615d09565b5090565b604051806080016040528060008152602001600073ffffffffffffffffffffffffffffffffffffffff16815260200160608152602001600081525090565b615d2b91905b80821115615d27576000816000905550600101615d0f565b5090565b9056fe4f776e61626c653a206e6577206f776e657220697320746865207a65726f2061646472657373536166654d6174683a206d756c7469706c69636174696f6e206f766572666c6f77436f6e747261637420696e7374616e63652068617320616c7265616479206265656e20696e697469616c697a65645361666545524332303a204552433230206f7065726174696f6e20646964206e6f742073756363656564a264697066735822122093e281fdc7baa0349dbab81a158a075f5b54f8a035ef488c98220e66c659727f64736f6c63430006060033",
  "immutableReferences": {},
  "source": "pragma solidity ^0.6.0;\n\nimport \"@openzeppelin/contracts-ethereum-package/contracts/math/Math.sol\";\nimport \"@openzeppelin/contracts-ethereum-package/contracts/math/SafeMath.sol\";\nimport \"@openzeppelin/contracts-ethereum-package/contracts/token/ERC20/SafeERC20.sol\";\nimport \"@openzeppelin/contracts-ethereum-package/contracts/token/ERC20/IERC20.sol\";\nimport \"@openzeppelin/contracts-ethereum-package/contracts/Initializable.sol\";\n\n// Inheritance\nimport \"./interfaces/IStakingRewards.sol\";\nimport \"./interfaces/IUniswapPriceOracle.sol\";\nimport \"./PausableUpgradeSafe.sol\";\nimport \"./OwnableUpgradeSafe.sol\";\n\ncontract Gallery is Initializable, PausableUpgradeSafe, OwnableUpgradeSafe {\n    using SafeMath for uint256;\n    using SafeERC20 for IERC20;\n\n    /* ========== CONSTANTS ========== */\n\n    uint256 constant PROPOSAL_DAYS = 4;\n    uint256 constant FIGURE_DAYS = 5;\n    uint256 constant WINNING_PROPOSAL_COUNT = 10;\n    uint256 constant WINNING_FIGURE_COUNT = 3;\n    uint256 constant MIN_PROPOSAL_VOTES = 50 ether;\n    uint256 constant MIN_FIGURE_VOTES = 10 ether;\n    uint256 constant REWARDS_PER_PROPOSAL = 400 ether;\n    uint256 constant AUTHOR_REWARDS_RATIO = 0.1 ether;\n    uint256 constant NULL = 2**256 - 1;\n    address constant DEAD_ADDRESS = 0x000000000000000000000000000000000000dEaD;\n\n    /* ========== STRUCTS ========== */\n\n    struct Proposal {\n        address proposer;\n        string name;\n        string info;\n        uint256 createAt;\n    }\n\n    struct Figure {\n        uint256 proposalId;\n        address author;\n        string info;\n        uint256 createAt;\n    }\n\n    /* ========== STATE VARIABLES ========== */\n\n    address public rewardsToken;\n    address public stakingToken;\n    uint256 public startAt;\n\n    // array of all proposals\n    Proposal[] public proposals;\n    // array of proposal id of top proposal\n    uint256[] public topProposals;\n    // if proposal rewards is burned\n    bool public proposalRewardsBurned;\n    // total votes of all proposals\n    uint256 public totalProposalVotes;\n    // proposal id => total votes of this proposal\n    mapping(uint256 => uint256) public proposalVotes;\n    // account => array of proposal id\n    mapping(address => uint256[]) public myProposals;\n    // account => total votes of my proposals\n    mapping(address => uint256) public myProposalVotes;\n    // account => last update at\n    mapping(address => uint256) public myProposalUpdateAt;\n    // account => if my votes and rewards of proposals is withdrawn\n    mapping(address => bool) public myProposalWithdrawn;\n    // account => if my rewards of proposals is claimed\n    mapping(address => bool) public myProposalClaimed;\n    // account => proposal id => votes\n    mapping(address => mapping(uint256 => uint256)) public mySingleProposalVotes;\n\n    // array of all proposals\n    Figure[] public figures;\n    // top proposal id => array of figure id of top figure\n    mapping(uint256 => uint256[]) public topFigures;\n    // array of top figure rewards\n    uint256[WINNING_FIGURE_COUNT] public topFigureRewards;\n    // proposal id => array of figure id\n    mapping(uint256 => uint256[]) public figuresOfProposal;\n    // total votes of all figures\n    uint256 public totalFigureVotes;\n    // figure id => total votes of this figure\n    mapping(uint256 => uint256) public figureVotes;\n    // account => array of figure id\n    mapping(address => uint256[]) public myFigures;\n    // account => total votes of my figures\n    mapping(address => uint256) public myFigureVotes;\n    // account => last update at\n    mapping(address => uint256) public myFigureUpdateAt;\n    // account => if my votes of figures is withdrawn\n    mapping(address => bool) public myFigureWithdrawn;\n    // account => if my rewards of figures is claimed\n    mapping(address => bool) public myFigureClaimed;\n    // account => figure id => votes\n    mapping(address => mapping(uint256 => uint256)) public mySingleFigureVotes;\n\n    /* ========== CONSTRUCTOR ========== */\n\n    function initialize(\n        address _rewardsToken,\n        address _stakingToken\n    )  public initializer {\n        super.__Pausable_init();\n        super.__Ownable_init();\n        rewardsToken = _rewardsToken;\n        stakingToken = _stakingToken;\n        topFigureRewards = [500 ether, 300 ether, 200 ether];\n        topProposals = [NULL, NULL, NULL, NULL, NULL, NULL, NULL, NULL, NULL, NULL];\n        startAt = block.timestamp;\n    }\n\n    /* ========== VIEWS ========== */\n\n    function dayAt() public view returns (uint256) {\n        return block.timestamp.sub(startAt).div(1 days);\n    }\n\n    function proposalCount() public view returns (uint256) {\n        return proposals.length;\n    }\n\n    function figureCount() public view returns (uint256) {\n        return figures.length;\n    }\n\n    function myProposalCount(address target) public view returns (uint256) {\n        return myProposals[target].length;\n    }\n\n    function myFigureCount(address target) public view returns (uint256) {\n        return myFigures[target].length;\n    }\n\n    function figuresOfProposalCount(uint256 proposalId) public view returns (uint256) {\n        return figuresOfProposal[proposalId].length;\n    }\n\n    function myProposalRewards(address target) public view returns (uint256) {\n        if (dayAt() < PROPOSAL_DAYS) {\n            return 0;\n        }\n        return _calculateProposalRewards(target);\n    }\n\n    function myFigureRewards(address target) public view returns (uint256) {\n        if (dayAt() < PROPOSAL_DAYS + FIGURE_DAYS) {\n            return 0;\n        }\n        return _calculateFigureRewards(target);\n    }\n\n    /* ========== MUTATIVE FUNCTIONS ========== */\n\n    function createProposal(string calldata name, string calldata info) external whenNotPaused {\n        require(dayAt() < PROPOSAL_DAYS, \"Expired\");\n        require(bytes(name).length <= 32, \"Name's length is too big\");\n        require(bytes(info).length <= 200, \"Info's length is too big\");\n\n        // create proposal\n        Proposal memory proposal;\n        proposal.proposer = msg.sender;\n        proposal.name = name;\n        proposal.info = info;\n        proposal.createAt = block.timestamp;\n        proposals.push(proposal);\n\n        // vote for proposal\n        uint256 proposalId = proposals.length - 1;\n        uint256 votes = MIN_PROPOSAL_VOTES;\n        _voteForProposal(proposalId, votes);\n\n        emit ProposalCreated(proposalId, votes);\n    }\n\n    function voteForProposal(uint256 proposalId, uint256 votes) external whenNotPaused {\n        require(dayAt() < PROPOSAL_DAYS, \"Expired\");\n        require(votes > 0, \"Votes should larger then zero\");\n        require(proposalId < proposals.length, \"Invalid proposal id\");\n\n        // vote for proposal\n        _voteForProposal(proposalId, votes);\n\n        emit ProposalVoted(proposalId, votes);\n    }\n\n    function withdrawFromProposal() external whenNotPaused {\n        require(dayAt() >= PROPOSAL_DAYS, \"Not expired\");\n        require(myProposalUpdateAt[msg.sender] != 0, \"Cannot withdraw from proposal\");\n        require(block.timestamp.sub(myProposalUpdateAt[msg.sender]) > 4 days, \"Cannot withdraw within 4 days\");\n        require(!myProposalWithdrawn[msg.sender], \"You have already withdrawn\");\n        myProposalWithdrawn[msg.sender] = true;\n\n        // withdraw votes\n        uint256 votes = myProposalVotes[msg.sender];\n        if (votes > 0) {\n            IERC20(stakingToken).safeTransfer(msg.sender, votes);\n        }\n\n        emit ProposalWithdrawn(votes);\n    }\n\n    function claimFromProposal() external whenNotPaused {\n        require(dayAt() >= PROPOSAL_DAYS, \"Not expired\");\n        require(myProposalUpdateAt[msg.sender] != 0, \"Cannot claim from proposal\");\n        require(!myProposalClaimed[msg.sender], \"You have already claimed\");\n        myProposalClaimed[msg.sender] = true;\n\n        // claim rewards\n        uint256 rewards = _calculateProposalRewards(msg.sender);\n        if (rewards > 0) {\n            IERC20(rewardsToken).safeTransfer(msg.sender, rewards);\n        }\n\n        emit ProposalClaimed(rewards);\n    }\n\n    function burnFromProposal() external whenNotPaused onlyOwner {\n        require(dayAt() >= PROPOSAL_DAYS, \"Not expired\");\n        require(!proposalRewardsBurned, \"Proposal rewards has been burned\");\n        proposalRewardsBurned = true;\n\n        uint256 burnCount = 0;\n        for (uint256 i = 0; i < WINNING_PROPOSAL_COUNT; i++) {\n            if (topProposals[i] == NULL) {\n                burnCount++;\n            }\n        }\n        uint256 burnAmount = 0;\n        if (burnCount > 0) {\n            burnAmount = REWARDS_PER_PROPOSAL.mul(burnCount);\n            IERC20(rewardsToken).safeTransfer(DEAD_ADDRESS, burnAmount);\n        }\n\n        emit ProposalBurned(burnAmount);\n    }\n\n    function createFigure(uint256 proposalId, string calldata info) external whenNotPaused {\n        require(dayAt() >= PROPOSAL_DAYS, \"Not ready\");\n        require(dayAt() < PROPOSAL_DAYS + FIGURE_DAYS, \"Expired\");\n        require(proposalId < proposals.length, \"Invalid proposal id\");\n        require(bytes(info).length <= 200, \"Info's length is too big\");\n        bool inTopProposals = false;\n        for (uint256 i = 0; i < WINNING_PROPOSAL_COUNT; i++) {\n            if (topProposals[i] == proposalId) {\n                inTopProposals = true;\n                break;\n            }\n        }\n        if (!inTopProposals) {\n            revert(\"Invalid proposal id\");\n        }\n\n        if (topFigures[proposalId].length != WINNING_FIGURE_COUNT) {\n            topFigures[proposalId] = [NULL, NULL, NULL];\n        }\n\n        // create figure\n        Figure memory figure;\n        figure.proposalId = proposalId;\n        figure.author = msg.sender;\n        figure.info = info;\n        figure.createAt = block.timestamp;\n        figures.push(figure);\n\n        // vote for figure\n        uint256 figureId = figures.length - 1;\n        uint256 votes = MIN_FIGURE_VOTES;\n        _voteForFigure(figureId, votes);\n        figuresOfProposal[proposalId].push(figureId);\n\n        emit FigureCreated(figureId, votes);\n    }\n\n    function voteForFigure(uint256 figureId, uint256 votes) external whenNotPaused {\n        require(dayAt() < PROPOSAL_DAYS + FIGURE_DAYS, \"Expired\");\n        require(figureId < figures.length, \"Invalid figure id\");\n        require(votes > 0, \"Votes should larger then zero\");\n\n        // vote for figure\n        _voteForFigure(figureId, votes);\n\n        emit FigureVoted(figureId, votes);\n    }\n\n    function withdrawFromFigure() external whenNotPaused {\n        require(dayAt() >= PROPOSAL_DAYS + FIGURE_DAYS, \"Not expired\");\n        require(myFigureUpdateAt[msg.sender] != 0, \"Cannot withdraw from figure\");\n        require(block.timestamp.sub(myFigureUpdateAt[msg.sender]) > 7 days, \"Cannot claim within 7 days\");\n        require(!myFigureWithdrawn[msg.sender], \"You have already withdrawn\");\n        myFigureWithdrawn[msg.sender] = true;\n\n        // withdraw votes\n        uint256 votes = myFigureVotes[msg.sender];\n        if (votes > 0) {\n            IERC20(stakingToken).safeTransfer(msg.sender, votes);\n        }\n\n        emit FigureWithdrawn(votes);\n    }\n\n    function claimFromFigure() external whenNotPaused {\n        require(dayAt() >= PROPOSAL_DAYS + FIGURE_DAYS, \"Not expired\");\n        require(myFigureUpdateAt[msg.sender] != 0, \"Cannot claim from figure\");\n        require(!myFigureClaimed[msg.sender], \"You have already claimed\");\n        myFigureClaimed[msg.sender] = true;\n\n        // claim rewards\n        uint256 rewards = _calculateFigureRewards(msg.sender);\n        if (rewards > 0) {\n            IERC20(rewardsToken).safeTransfer(msg.sender, rewards);\n        }\n\n        emit FigureClaimed(rewards);\n    }\n\n    function pause() external onlyOwner {\n        super._pause();\n    }\n\n    function unpause() external onlyOwner {\n        super._unpause();\n    }\n\n    function _voteForProposal(uint256 proposalId, uint256 votes) private {\n        // send token to contract\n        IERC20(stakingToken).safeTransferFrom(msg.sender, address(this), votes);\n\n        // update votes\n        totalProposalVotes = totalProposalVotes.add(votes);\n        proposalVotes[proposalId] = proposalVotes[proposalId].add(votes);\n        myProposalVotes[msg.sender] = myProposalVotes[msg.sender].add(votes);\n        if (mySingleProposalVotes[msg.sender][proposalId] == 0) {\n            myProposals[msg.sender].push(proposalId);\n        }\n        mySingleProposalVotes[msg.sender][proposalId] = mySingleProposalVotes[msg.sender][proposalId].add(votes);\n\n        // sort top proposals\n        _sortTopProposals(proposalId);\n\n        // update vote time\n        myProposalUpdateAt[msg.sender] = block.timestamp;\n    }\n\n    function _voteForFigure(uint256 figureId, uint256 votes) private {\n        // send token to contract\n        IERC20(stakingToken).safeTransferFrom(msg.sender, address(this), votes);\n\n        // update votes\n        totalFigureVotes = totalFigureVotes.add(votes);\n        figureVotes[figureId] = figureVotes[figureId].add(votes);\n        myFigureVotes[msg.sender] = myFigureVotes[msg.sender].add(votes);\n        if (mySingleFigureVotes[msg.sender][figureId] == 0) {\n            myFigures[msg.sender].push(figureId);\n        }\n        mySingleFigureVotes[msg.sender][figureId] = mySingleFigureVotes[msg.sender][figureId].add(votes);\n\n        // sort top figures\n        uint256 proposalId = figures[figureId].proposalId;\n        _sortTopFigures(proposalId, figureId);\n\n        // update vote time\n        myFigureUpdateAt[msg.sender] = block.timestamp;\n    }\n\n    function _sortTopProposals(uint256 proposalId) private {\n        uint256 begin = NULL;\n        uint256 end = topProposals.length-1;\n        for (uint256 i = 0; i <= end; i++) {\n            uint256 _proposalId = topProposals[i];\n            if (_proposalId == NULL) {\n                if (begin == NULL) {\n                    begin = i;\n                }\n                end = i;\n                break;\n            }\n            if (proposalId == _proposalId) {\n                if (begin == NULL) {\n                    begin = i;\n                }\n                end = i;\n                break;\n            }\n            if (proposalVotes[proposalId] > proposalVotes[_proposalId]) {\n                if (begin == NULL) {\n                    begin = i;\n                }\n            }\n        }\n        // right shift array elements\n        for (uint256 j = end; j > begin; j--) {\n            topProposals[j] = topProposals[j-1];\n        }\n        if (begin != NULL) {\n            topProposals[begin] = proposalId;\n        }\n    }\n\n    function _sortTopFigures(uint256 proposalId, uint256 figureId) private {\n        uint256 begin = NULL;\n        uint256 end = topFigures[proposalId].length-1;\n        for (uint256 i = 0; i <= end; i++) {\n            uint256 _figureId = topFigures[proposalId][i];\n            if (_figureId == NULL) {\n                if (begin == NULL) {\n                    begin = i;\n                }\n                end = i;\n                break;\n            }\n            if (proposalId == _figureId) {\n                if (begin == NULL) {\n                    begin = i;\n                }\n                end = i;\n                break;\n            }\n            if (figureVotes[figureId] > figureVotes[_figureId]) {\n                if (begin == NULL) {\n                    begin = i;\n                }\n            }\n        }\n        // right shift array elements\n        for (uint256 j = end; j > begin; j--) {\n            topFigures[proposalId][j] = topFigures[proposalId][j-1];\n        }\n        if (begin != NULL) {\n            topFigures[proposalId][begin] = figureId;\n        }\n    }\n\n    function _calculateProposalRewards(address target) private view returns(uint256) {\n        uint256 rewards = 0;\n        for (uint256 i = 0; i < topProposals.length; i++) {\n            if (topProposals[i] == NULL) {\n                break;\n            }\n            uint256 proposalId = topProposals[i];\n            uint256 myVotes = mySingleProposalVotes[target][proposalId];\n            if (myVotes > 0) {\n                uint256 totalVotes = proposalVotes[proposalId];\n                rewards = rewards.add(REWARDS_PER_PROPOSAL.mul(myVotes).div(totalVotes));\n            }\n        }\n        return rewards;\n    }\n\n    function _calculateFigureRewards(address target) private view returns(uint256) {\n        uint256 rewards = 0;\n        for (uint256 i = 0; i < WINNING_PROPOSAL_COUNT; i++) {\n            uint256 proposalId = topProposals[i];\n            if (proposalId == NULL) {\n                break;\n            }\n            if (topFigures[proposalId].length == 0) {\n                continue;\n            }\n            for (uint256 j = 0; j < WINNING_FIGURE_COUNT; j++) {\n                uint256 figureId = topFigures[proposalId][j];\n                if (figureId == NULL) {\n                    break;\n                }\n                uint256 myVotes = mySingleFigureVotes[target][figureId];\n                if (myVotes > 0) {\n                    uint256 totalVotes = figureVotes[figureId];\n                    uint256 authorRewards = topFigureRewards[j].mul(AUTHOR_REWARDS_RATIO).div(1 ether);\n                    uint256 totalRewards = topFigureRewards[j].sub(authorRewards);\n                    rewards = rewards.add(totalRewards.mul(myVotes).div(totalVotes));\n                    // is author\n                    if (msg.sender == figures[figureId].author) {\n                        rewards = rewards.add(authorRewards);\n                    }\n                }\n            }\n        }\n        return rewards;\n    }\n\n    /* ========== EVENTS ========== */\n\n    event ProposalCreated(uint256 indexed proposalId, uint256 votes);\n    event ProposalVoted(uint256 indexed proposalId, uint256 votes);\n    event ProposalWithdrawn(uint256 votes);\n    event ProposalClaimed(uint256 rewards);\n    event ProposalBurned(uint256 votes);\n    event FigureCreated(uint256 indexed figureId, uint256 votes);\n    event FigureVoted(uint256 indexed figureId, uint256 votes);\n    event FigureWithdrawn(uint256 votes);\n    event FigureClaimed(uint256 rewards);\n}",
  "sourcePath": "/Users/edwin/github/gallery.finance/gallery.finance.smart/contracts/Gallery.sol",
  "compiler": {
    "name": "solc",
    "version": "0.6.6+commit.6c089d02.Emscripten.clang"
  },
  "schemaVersion": "3.2.2",
  "updatedAt": "2020-10-22T14:57:34.089Z",
  "devdoc": {
    "methods": {
      "owner()": {
        "details": "Returns the address of the current owner."
      },
      "paused()": {
        "details": "Returns true if the contract is paused, and false otherwise."
      },
      "renounceOwnership()": {
        "details": "Leaves the contract without owner. It will not be possible to call `onlyOwner` functions anymore. Can only be called by the current owner.     * NOTE: Renouncing ownership will leave the contract without an owner, thereby removing any functionality that is only available to the owner."
      },
      "transferOwnership(address)": {
        "details": "Transfers ownership of the contract to a new account (`newOwner`). Can only be called by the current owner."
      }
    }
  },
  "userdoc": {
    "methods": {}
  }
}