{
  "contractName": "Gallery",
  "abi": [
    {
      "anonymous": false,
      "inputs": [
        {
          "indexed": false,
          "internalType": "uint256",
          "name": "rewards",
          "type": "uint256"
        }
      ],
      "name": "FigureClaimed",
      "type": "event"
    },
    {
      "anonymous": false,
      "inputs": [
        {
          "indexed": true,
          "internalType": "uint256",
          "name": "figureId",
          "type": "uint256"
        },
        {
          "indexed": false,
          "internalType": "uint256",
          "name": "votes",
          "type": "uint256"
        }
      ],
      "name": "FigureCreated",
      "type": "event"
    },
    {
      "anonymous": false,
      "inputs": [
        {
          "indexed": true,
          "internalType": "uint256",
          "name": "figureId",
          "type": "uint256"
        },
        {
          "indexed": false,
          "internalType": "uint256",
          "name": "votes",
          "type": "uint256"
        }
      ],
      "name": "FigureVoted",
      "type": "event"
    },
    {
      "anonymous": false,
      "inputs": [
        {
          "indexed": false,
          "internalType": "uint256",
          "name": "votes",
          "type": "uint256"
        }
      ],
      "name": "FigureWithdrawn",
      "type": "event"
    },
    {
      "anonymous": false,
      "inputs": [
        {
          "indexed": true,
          "internalType": "address",
          "name": "previousOwner",
          "type": "address"
        },
        {
          "indexed": true,
          "internalType": "address",
          "name": "newOwner",
          "type": "address"
        }
      ],
      "name": "OwnershipTransferred",
      "type": "event"
    },
    {
      "anonymous": false,
      "inputs": [
        {
          "indexed": false,
          "internalType": "address",
          "name": "account",
          "type": "address"
        }
      ],
      "name": "Paused",
      "type": "event"
    },
    {
      "anonymous": false,
      "inputs": [
        {
          "indexed": false,
          "internalType": "uint256",
          "name": "votes",
          "type": "uint256"
        }
      ],
      "name": "ProposalBurned",
      "type": "event"
    },
    {
      "anonymous": false,
      "inputs": [
        {
          "indexed": false,
          "internalType": "uint256",
          "name": "rewards",
          "type": "uint256"
        }
      ],
      "name": "ProposalClaimed",
      "type": "event"
    },
    {
      "anonymous": false,
      "inputs": [
        {
          "indexed": true,
          "internalType": "uint256",
          "name": "proposalId",
          "type": "uint256"
        },
        {
          "indexed": false,
          "internalType": "uint256",
          "name": "votes",
          "type": "uint256"
        }
      ],
      "name": "ProposalCreated",
      "type": "event"
    },
    {
      "anonymous": false,
      "inputs": [
        {
          "indexed": true,
          "internalType": "uint256",
          "name": "proposalId",
          "type": "uint256"
        },
        {
          "indexed": false,
          "internalType": "uint256",
          "name": "votes",
          "type": "uint256"
        }
      ],
      "name": "ProposalVoted",
      "type": "event"
    },
    {
      "anonymous": false,
      "inputs": [
        {
          "indexed": false,
          "internalType": "uint256",
          "name": "votes",
          "type": "uint256"
        }
      ],
      "name": "ProposalWithdrawn",
      "type": "event"
    },
    {
      "anonymous": false,
      "inputs": [
        {
          "indexed": false,
          "internalType": "address",
          "name": "account",
          "type": "address"
        }
      ],
      "name": "Unpaused",
      "type": "event"
    },
    {
      "inputs": [
        {
          "internalType": "uint256",
          "name": "",
          "type": "uint256"
        }
      ],
      "name": "figureVotes",
      "outputs": [
        {
          "internalType": "uint256",
          "name": "",
          "type": "uint256"
        }
      ],
      "stateMutability": "view",
      "type": "function",
      "constant": true
    },
    {
      "inputs": [
        {
          "internalType": "uint256",
          "name": "",
          "type": "uint256"
        }
      ],
      "name": "figures",
      "outputs": [
        {
          "internalType": "uint256",
          "name": "proposalId",
          "type": "uint256"
        },
        {
          "internalType": "address",
          "name": "author",
          "type": "address"
        },
        {
          "internalType": "string",
          "name": "info",
          "type": "string"
        },
        {
          "internalType": "uint256",
          "name": "createAt",
          "type": "uint256"
        }
      ],
      "stateMutability": "view",
      "type": "function",
      "constant": true
    },
    {
      "inputs": [
        {
          "internalType": "uint256",
          "name": "",
          "type": "uint256"
        },
        {
          "internalType": "uint256",
          "name": "",
          "type": "uint256"
        }
      ],
      "name": "figuresOfProposal",
      "outputs": [
        {
          "internalType": "uint256",
          "name": "",
          "type": "uint256"
        }
      ],
      "stateMutability": "view",
      "type": "function",
      "constant": true
    },
    {
      "inputs": [
        {
          "internalType": "address",
          "name": "",
          "type": "address"
        }
      ],
      "name": "myFigureClaimed",
      "outputs": [
        {
          "internalType": "bool",
          "name": "",
          "type": "bool"
        }
      ],
      "stateMutability": "view",
      "type": "function",
      "constant": true
    },
    {
      "inputs": [
        {
          "internalType": "address",
          "name": "",
          "type": "address"
        }
      ],
      "name": "myFigureUpdateAt",
      "outputs": [
        {
          "internalType": "uint256",
          "name": "",
          "type": "uint256"
        }
      ],
      "stateMutability": "view",
      "type": "function",
      "constant": true
    },
    {
      "inputs": [
        {
          "internalType": "address",
          "name": "",
          "type": "address"
        }
      ],
      "name": "myFigureVotes",
      "outputs": [
        {
          "internalType": "uint256",
          "name": "",
          "type": "uint256"
        }
      ],
      "stateMutability": "view",
      "type": "function",
      "constant": true
    },
    {
      "inputs": [
        {
          "internalType": "address",
          "name": "",
          "type": "address"
        }
      ],
      "name": "myFigureWithdrawn",
      "outputs": [
        {
          "internalType": "bool",
          "name": "",
          "type": "bool"
        }
      ],
      "stateMutability": "view",
      "type": "function",
      "constant": true
    },
    {
      "inputs": [
        {
          "internalType": "address",
          "name": "",
          "type": "address"
        },
        {
          "internalType": "uint256",
          "name": "",
          "type": "uint256"
        }
      ],
      "name": "myFigures",
      "outputs": [
        {
          "internalType": "uint256",
          "name": "",
          "type": "uint256"
        }
      ],
      "stateMutability": "view",
      "type": "function",
      "constant": true
    },
    {
      "inputs": [
        {
          "internalType": "address",
          "name": "",
          "type": "address"
        }
      ],
      "name": "myProposalClaimed",
      "outputs": [
        {
          "internalType": "bool",
          "name": "",
          "type": "bool"
        }
      ],
      "stateMutability": "view",
      "type": "function",
      "constant": true
    },
    {
      "inputs": [
        {
          "internalType": "address",
          "name": "",
          "type": "address"
        }
      ],
      "name": "myProposalUpdateAt",
      "outputs": [
        {
          "internalType": "uint256",
          "name": "",
          "type": "uint256"
        }
      ],
      "stateMutability": "view",
      "type": "function",
      "constant": true
    },
    {
      "inputs": [
        {
          "internalType": "address",
          "name": "",
          "type": "address"
        }
      ],
      "name": "myProposalVotes",
      "outputs": [
        {
          "internalType": "uint256",
          "name": "",
          "type": "uint256"
        }
      ],
      "stateMutability": "view",
      "type": "function",
      "constant": true
    },
    {
      "inputs": [
        {
          "internalType": "address",
          "name": "",
          "type": "address"
        }
      ],
      "name": "myProposalWithdrawn",
      "outputs": [
        {
          "internalType": "bool",
          "name": "",
          "type": "bool"
        }
      ],
      "stateMutability": "view",
      "type": "function",
      "constant": true
    },
    {
      "inputs": [
        {
          "internalType": "address",
          "name": "",
          "type": "address"
        },
        {
          "internalType": "uint256",
          "name": "",
          "type": "uint256"
        }
      ],
      "name": "myProposals",
      "outputs": [
        {
          "internalType": "uint256",
          "name": "",
          "type": "uint256"
        }
      ],
      "stateMutability": "view",
      "type": "function",
      "constant": true
    },
    {
      "inputs": [
        {
          "internalType": "address",
          "name": "",
          "type": "address"
        },
        {
          "internalType": "uint256",
          "name": "",
          "type": "uint256"
        }
      ],
      "name": "mySingleFigureVotes",
      "outputs": [
        {
          "internalType": "uint256",
          "name": "",
          "type": "uint256"
        }
      ],
      "stateMutability": "view",
      "type": "function",
      "constant": true
    },
    {
      "inputs": [
        {
          "internalType": "address",
          "name": "",
          "type": "address"
        },
        {
          "internalType": "uint256",
          "name": "",
          "type": "uint256"
        }
      ],
      "name": "mySingleProposalVotes",
      "outputs": [
        {
          "internalType": "uint256",
          "name": "",
          "type": "uint256"
        }
      ],
      "stateMutability": "view",
      "type": "function",
      "constant": true
    },
    {
      "inputs": [],
      "name": "owner",
      "outputs": [
        {
          "internalType": "address",
          "name": "",
          "type": "address"
        }
      ],
      "stateMutability": "view",
      "type": "function",
      "constant": true
    },
    {
      "inputs": [],
      "name": "paused",
      "outputs": [
        {
          "internalType": "bool",
          "name": "",
          "type": "bool"
        }
      ],
      "stateMutability": "view",
      "type": "function",
      "constant": true
    },
    {
      "inputs": [],
      "name": "proposalRewardsBurned",
      "outputs": [
        {
          "internalType": "bool",
          "name": "",
          "type": "bool"
        }
      ],
      "stateMutability": "view",
      "type": "function",
      "constant": true
    },
    {
      "inputs": [
        {
          "internalType": "uint256",
          "name": "",
          "type": "uint256"
        }
      ],
      "name": "proposalVotes",
      "outputs": [
        {
          "internalType": "uint256",
          "name": "",
          "type": "uint256"
        }
      ],
      "stateMutability": "view",
      "type": "function",
      "constant": true
    },
    {
      "inputs": [
        {
          "internalType": "uint256",
          "name": "",
          "type": "uint256"
        }
      ],
      "name": "proposals",
      "outputs": [
        {
          "internalType": "address",
          "name": "proposer",
          "type": "address"
        },
        {
          "internalType": "string",
          "name": "name",
          "type": "string"
        },
        {
          "internalType": "string",
          "name": "info",
          "type": "string"
        },
        {
          "internalType": "uint256",
          "name": "createAt",
          "type": "uint256"
        }
      ],
      "stateMutability": "view",
      "type": "function",
      "constant": true
    },
    {
      "inputs": [],
      "name": "renounceOwnership",
      "outputs": [],
      "stateMutability": "nonpayable",
      "type": "function"
    },
    {
      "inputs": [],
      "name": "rewardsToken",
      "outputs": [
        {
          "internalType": "address",
          "name": "",
          "type": "address"
        }
      ],
      "stateMutability": "view",
      "type": "function",
      "constant": true
    },
    {
      "inputs": [],
      "name": "stakingToken",
      "outputs": [
        {
          "internalType": "address",
          "name": "",
          "type": "address"
        }
      ],
      "stateMutability": "view",
      "type": "function",
      "constant": true
    },
    {
      "inputs": [],
      "name": "startAt",
      "outputs": [
        {
          "internalType": "uint256",
          "name": "",
          "type": "uint256"
        }
      ],
      "stateMutability": "view",
      "type": "function",
      "constant": true
    },
    {
      "inputs": [
        {
          "internalType": "uint256",
          "name": "",
          "type": "uint256"
        }
      ],
      "name": "topFigureRewards",
      "outputs": [
        {
          "internalType": "uint256",
          "name": "",
          "type": "uint256"
        }
      ],
      "stateMutability": "view",
      "type": "function",
      "constant": true
    },
    {
      "inputs": [
        {
          "internalType": "uint256",
          "name": "",
          "type": "uint256"
        },
        {
          "internalType": "uint256",
          "name": "",
          "type": "uint256"
        }
      ],
      "name": "topFigures",
      "outputs": [
        {
          "internalType": "uint256",
          "name": "",
          "type": "uint256"
        }
      ],
      "stateMutability": "view",
      "type": "function",
      "constant": true
    },
    {
      "inputs": [
        {
          "internalType": "uint256",
          "name": "",
          "type": "uint256"
        }
      ],
      "name": "topProposals",
      "outputs": [
        {
          "internalType": "uint256",
          "name": "",
          "type": "uint256"
        }
      ],
      "stateMutability": "view",
      "type": "function",
      "constant": true
    },
    {
      "inputs": [],
      "name": "totalFigureVotes",
      "outputs": [
        {
          "internalType": "uint256",
          "name": "",
          "type": "uint256"
        }
      ],
      "stateMutability": "view",
      "type": "function",
      "constant": true
    },
    {
      "inputs": [],
      "name": "totalProposalVotes",
      "outputs": [
        {
          "internalType": "uint256",
          "name": "",
          "type": "uint256"
        }
      ],
      "stateMutability": "view",
      "type": "function",
      "constant": true
    },
    {
      "inputs": [
        {
          "internalType": "address",
          "name": "newOwner",
          "type": "address"
        }
      ],
      "name": "transferOwnership",
      "outputs": [],
      "stateMutability": "nonpayable",
      "type": "function"
    },
    {
      "inputs": [
        {
          "internalType": "address",
          "name": "_rewardsToken",
          "type": "address"
        },
        {
          "internalType": "address",
          "name": "_stakingToken",
          "type": "address"
        }
      ],
      "name": "initialize",
      "outputs": [],
      "stateMutability": "nonpayable",
      "type": "function"
    },
    {
      "inputs": [],
      "name": "dayAt",
      "outputs": [
        {
          "internalType": "uint256",
          "name": "",
          "type": "uint256"
        }
      ],
      "stateMutability": "view",
      "type": "function",
      "constant": true
    },
    {
      "inputs": [],
      "name": "proposalCount",
      "outputs": [
        {
          "internalType": "uint256",
          "name": "",
          "type": "uint256"
        }
      ],
      "stateMutability": "view",
      "type": "function",
      "constant": true
    },
    {
      "inputs": [],
      "name": "figureCount",
      "outputs": [
        {
          "internalType": "uint256",
          "name": "",
          "type": "uint256"
        }
      ],
      "stateMutability": "view",
      "type": "function",
      "constant": true
    },
    {
      "inputs": [
        {
          "internalType": "uint256",
          "name": "proposalId",
          "type": "uint256"
        },
        {
          "internalType": "uint256",
          "name": "figureId",
          "type": "uint256"
        }
      ],
      "name": "getTopFigure",
      "outputs": [
        {
          "internalType": "uint256",
          "name": "",
          "type": "uint256"
        }
      ],
      "stateMutability": "view",
      "type": "function",
      "constant": true
    },
    {
      "inputs": [
        {
          "internalType": "address",
          "name": "target",
          "type": "address"
        }
      ],
      "name": "myProposalCount",
      "outputs": [
        {
          "internalType": "uint256",
          "name": "",
          "type": "uint256"
        }
      ],
      "stateMutability": "view",
      "type": "function",
      "constant": true
    },
    {
      "inputs": [
        {
          "internalType": "address",
          "name": "target",
          "type": "address"
        }
      ],
      "name": "myFigureCount",
      "outputs": [
        {
          "internalType": "uint256",
          "name": "",
          "type": "uint256"
        }
      ],
      "stateMutability": "view",
      "type": "function",
      "constant": true
    },
    {
      "inputs": [
        {
          "internalType": "uint256",
          "name": "proposalId",
          "type": "uint256"
        }
      ],
      "name": "figuresOfProposalCount",
      "outputs": [
        {
          "internalType": "uint256",
          "name": "",
          "type": "uint256"
        }
      ],
      "stateMutability": "view",
      "type": "function",
      "constant": true
    },
    {
      "inputs": [
        {
          "internalType": "address",
          "name": "target",
          "type": "address"
        }
      ],
      "name": "myProposalRewards",
      "outputs": [
        {
          "internalType": "uint256",
          "name": "",
          "type": "uint256"
        }
      ],
      "stateMutability": "view",
      "type": "function",
      "constant": true
    },
    {
      "inputs": [
        {
          "internalType": "address",
          "name": "target",
          "type": "address"
        }
      ],
      "name": "myFigureRewards",
      "outputs": [
        {
          "internalType": "uint256",
          "name": "",
          "type": "uint256"
        }
      ],
      "stateMutability": "view",
      "type": "function",
      "constant": true
    },
    {
      "inputs": [
        {
          "internalType": "string",
          "name": "name",
          "type": "string"
        },
        {
          "internalType": "string",
          "name": "info",
          "type": "string"
        }
      ],
      "name": "createProposal",
      "outputs": [],
      "stateMutability": "nonpayable",
      "type": "function"
    },
    {
      "inputs": [
        {
          "internalType": "uint256",
          "name": "proposalId",
          "type": "uint256"
        },
        {
          "internalType": "uint256",
          "name": "votes",
          "type": "uint256"
        }
      ],
      "name": "voteForProposal",
      "outputs": [],
      "stateMutability": "nonpayable",
      "type": "function"
    },
    {
      "inputs": [],
      "name": "withdrawFromProposal",
      "outputs": [],
      "stateMutability": "nonpayable",
      "type": "function"
    },
    {
      "inputs": [],
      "name": "claimFromProposal",
      "outputs": [],
      "stateMutability": "nonpayable",
      "type": "function"
    },
    {
      "inputs": [],
      "name": "burnFromProposal",
      "outputs": [],
      "stateMutability": "nonpayable",
      "type": "function"
    },
    {
      "inputs": [
        {
          "internalType": "uint256",
          "name": "proposalId",
          "type": "uint256"
        },
        {
          "internalType": "string",
          "name": "info",
          "type": "string"
        }
      ],
      "name": "createFigure",
      "outputs": [],
      "stateMutability": "nonpayable",
      "type": "function"
    },
    {
      "inputs": [
        {
          "internalType": "uint256",
          "name": "figureId",
          "type": "uint256"
        },
        {
          "internalType": "uint256",
          "name": "votes",
          "type": "uint256"
        }
      ],
      "name": "voteForFigure",
      "outputs": [],
      "stateMutability": "nonpayable",
      "type": "function"
    },
    {
      "inputs": [],
      "name": "withdrawFromFigure",
      "outputs": [],
      "stateMutability": "nonpayable",
      "type": "function"
    },
    {
      "inputs": [],
      "name": "claimFromFigure",
      "outputs": [],
      "stateMutability": "nonpayable",
      "type": "function"
    },
    {
      "inputs": [],
      "name": "pause",
      "outputs": [],
      "stateMutability": "nonpayable",
      "type": "function"
    },
    {
      "inputs": [],
      "name": "unpause",
      "outputs": [],
      "stateMutability": "nonpayable",
      "type": "function"
    }
  ],
  "bytecode": "0x608060405234801561001057600080fd5b50615e6780620000216000396000f3fe608060405234801561001057600080fd5b50600436106102f15760003560e01c80637d12960d1161019d578063bee9ce39116100e9578063e15f6dab116100a2578063e6b581ea1161007c578063e6b581ea1461106a578063f2fde38b146110cc578063f8f1212a14611110578063fa5dde4d14611148576102f1565b8063e15f6dab14610f98578063e4bdda2d14610ff0578063e50bbc5d14611012576102f1565b8063bee9ce3914610e70578063c744656514610e8e578063c7ab0e4f14610eac578063d1af0c7d14610ee4578063d706e52214610f2e578063da35c66414610f7a576102f1565b80639e7bcbea11610156578063afb9657711610130578063afb9657714610d38578063afde521b14610d90578063b937173d14610dd2578063bcbdc85b14610e2e576102f1565b80639e7bcbea14610c2c578063a34118c214610c88578063adaebd6714610ce0576102f1565b80637d12960d146109d35780638456cb5914610a2b5780638cf693e214610a355780638da5cb5b14610ab85780638f5878c614610b025780639782a9f314610b44576102f1565b806356016a4a1161025c57806365e481e211610215578063715018a6116101ef578063715018a614610943578063718ad52b1461094d57806372f702f31461096b5780637454adc3146109b5576102f1565b806365e481e2146108095780636b7118b7146108d7578063707b5564146108e1576102f1565b806356016a4a146106bf5780635a73abc5146107015780635c975abb1461075d5780635ddd4ce31461077f578063613dd9c21461078957806365799635146107a7576102f1565b806338fe6a08116102ae57806338fe6a08146105475780633d1b40e2146105a35780633f4ba83a146105ad578063485cc955146105b757806348985deb1461061b578063544ffc9c1461067d576102f1565b8063013cf08b146102f65780631e060de91461044357806325c949c11461044d5780632c37bb31146104995780633100860f146104f157806333f2439d1461053d575b600080fd5b6103226004803603602081101561030c57600080fd5b81019080803590602001909291905050506111a0565b604051808573ffffffffffffffffffffffffffffffffffffffff1673ffffffffffffffffffffffffffffffffffffffff1681526020018060200180602001848152602001838103835286818151815260200191508051906020019080838360005b8381101561039e578082015181840152602081019050610383565b50505050905090810190601f1680156103cb5780820380516001836020036101000a031916815260200191505b50838103825285818151815260200191508051906020019080838360005b838110156104045780820151818401526020810190506103e9565b50505050905090810190601f1680156104315780820380516001836020036101000a031916815260200191505b50965050505050505060405180910390f35b61044b61132d565b005b6104836004803603604081101561046357600080fd5b81019080803590602001909291908035906020019092919050505061169a565b6040518082815260200191505060405180910390f35b6104db600480360360208110156104af57600080fd5b81019080803573ffffffffffffffffffffffffffffffffffffffff169060200190929190505050611714565b6040518082815260200191505060405180910390f35b6105276004803603604081101561050757600080fd5b810190808035906020019092919080359060200190929190505050611740565b6040518082815260200191505060405180910390f35b61054561176e565b005b6105896004803603602081101561055d57600080fd5b81019080803573ffffffffffffffffffffffffffffffffffffffff169060200190929190505050611af1565b604051808215151515815260200191505060405180910390f35b6105ab611b11565b005b6105b5611f81565b005b610619600480360360408110156105cd57600080fd5b81019080803573ffffffffffffffffffffffffffffffffffffffff169060200190929190803573ffffffffffffffffffffffffffffffffffffffff16906020019092919050505061204e565b005b6106676004803603604081101561063157600080fd5b81019080803573ffffffffffffffffffffffffffffffffffffffff169060200190929190803590602001909291905050506123e7565b6040518082815260200191505060405180910390f35b6106a96004803603602081101561069357600080fd5b8101908080359060200190929190505050612415565b6040518082815260200191505060405180910390f35b6106eb600480360360208110156106d557600080fd5b810190808035906020019092919050505061242d565b6040518082815260200191505060405180910390f35b6107436004803603602081101561071757600080fd5b81019080803573ffffffffffffffffffffffffffffffffffffffff169060200190929190505050612445565b604051808215151515815260200191505060405180910390f35b610765612465565b604051808215151515815260200191505060405180910390f35b61078761247c565b005b6107916128e9565b6040518082815260200191505060405180910390f35b6107f3600480360360408110156107bd57600080fd5b81019080803573ffffffffffffffffffffffffffffffffffffffff1690602001909291908035906020019092919050505061291a565b6040518082815260200191505060405180910390f35b6108d56004803603604081101561081f57600080fd5b810190808035906020019064010000000081111561083c57600080fd5b82018360208201111561084e57600080fd5b8035906020019184600183028401116401000000008311171561087057600080fd5b90919293919293908035906020019064010000000081111561089157600080fd5b8201836020820111156108a357600080fd5b803590602001918460018302840111640100000000831117156108c557600080fd5b909192939192939050505061293f565b005b6108df612d36565b005b61092d600480360360408110156108f757600080fd5b81019080803573ffffffffffffffffffffffffffffffffffffffff169060200190929190803590602001909291905050506130a6565b6040518082815260200191505060405180910390f35b61094b6130cb565b005b61095561324f565b6040518082815260200191505060405180910390f35b610973613255565b604051808273ffffffffffffffffffffffffffffffffffffffff1673ffffffffffffffffffffffffffffffffffffffff16815260200191505060405180910390f35b6109bd61327b565b6040518082815260200191505060405180910390f35b610a15600480360360208110156109e957600080fd5b81019080803573ffffffffffffffffffffffffffffffffffffffff169060200190929190505050613288565b6040518082815260200191505060405180910390f35b610a336132b7565b005b610ab660048036036040811015610a4b57600080fd5b810190808035906020019092919080359060200190640100000000811115610a7257600080fd5b820183602082011115610a8457600080fd5b80359060200191846001830284011164010000000083111715610aa657600080fd5b9091929391929390505050613384565b005b610ac06138db565b604051808273ffffffffffffffffffffffffffffffffffffffff1673ffffffffffffffffffffffffffffffffffffffff16815260200191505060405180910390f35b610b2e60048036036020811015610b1857600080fd5b8101908080359060200190929190505050613905565b6040518082815260200191505060405180910390f35b610b7060048036036020811015610b5a57600080fd5b8101908080359060200190929190505050613925565b604051808581526020018473ffffffffffffffffffffffffffffffffffffffff1673ffffffffffffffffffffffffffffffffffffffff16815260200180602001838152602001828103825284818151815260200191508051906020019080838360005b83811015610bee578082015181840152602081019050610bd3565b50505050905090810190601f168015610c1b5780820380516001836020036101000a031916815260200191505b509550505050505060405180910390f35b610c6e60048036036020811015610c4257600080fd5b81019080803573ffffffffffffffffffffffffffffffffffffffff169060200190929190505050613a1a565b604051808215151515815260200191505060405180910390f35b610cca60048036036020811015610c9e57600080fd5b81019080803573ffffffffffffffffffffffffffffffffffffffff169060200190929190505050613a3a565b6040518082815260200191505060405180910390f35b610d2260048036036020811015610cf657600080fd5b81019080803573ffffffffffffffffffffffffffffffffffffffff169060200190929190505050613a52565b6040518082815260200191505060405180910390f35b610d7a60048036036020811015610d4e57600080fd5b81019080803573ffffffffffffffffffffffffffffffffffffffff169060200190929190505050613a9e565b6040518082815260200191505060405180910390f35b610dbc60048036036020811015610da657600080fd5b8101908080359060200190929190505050613aea565b6040518082815260200191505060405180910390f35b610e1460048036036020811015610de857600080fd5b81019080803573ffffffffffffffffffffffffffffffffffffffff169060200190929190505050613b0b565b604051808215151515815260200191505060405180910390f35b610e5a60048036036020811015610e4457600080fd5b8101908080359060200190929190505050613b2b565b6040518082815260200191505060405180910390f35b610e78613b43565b6040518082815260200191505060405180910390f35b610e96613b49565b6040518082815260200191505060405180910390f35b610ee260048036036040811015610ec257600080fd5b810190808035906020019092919080359060200190929190505050613b4f565b005b610eec613d88565b604051808273ffffffffffffffffffffffffffffffffffffffff1673ffffffffffffffffffffffffffffffffffffffff16815260200191505060405180910390f35b610f6460048036036040811015610f4457600080fd5b810190808035906020019092919080359060200190929190505050613dae565b6040518082815260200191505060405180910390f35b610f82613ddc565b6040518082815260200191505060405180910390f35b610fda60048036036020811015610fae57600080fd5b81019080803573ffffffffffffffffffffffffffffffffffffffff169060200190929190505050613de9565b6040518082815260200191505060405180910390f35b610ff8613e01565b604051808215151515815260200191505060405180910390f35b6110546004803603602081101561102857600080fd5b81019080803573ffffffffffffffffffffffffffffffffffffffff169060200190929190505050613e14565b6040518082815260200191505060405180910390f35b6110b66004803603604081101561108057600080fd5b81019080803573ffffffffffffffffffffffffffffffffffffffff16906020019092919080359060200190929190505050613e2c565b6040518082815260200191505060405180910390f35b61110e600480360360208110156110e257600080fd5b81019080803573ffffffffffffffffffffffffffffffffffffffff169060200190929190505050613e5a565b005b6111466004803603604081101561112657600080fd5b810190808035906020019092919080359060200190929190505050614063565b005b61118a6004803603602081101561115e57600080fd5b81019080803573ffffffffffffffffffffffffffffffffffffffff169060200190929190505050614299565b6040518082815260200191505060405180910390f35b609a81815481106111ad57fe5b90600052602060002090600402016000915090508060000160009054906101000a900473ffffffffffffffffffffffffffffffffffffffff1690806001018054600181600116156101000203166002900480601f01602080910402602001604051908101604052809291908181526020018280546001816001161561010002031660029004801561127f5780601f106112545761010080835404028352916020019161127f565b820191906000526020600020905b81548152906001019060200180831161126257829003601f168201915b505050505090806002018054600181600116156101000203166002900480601f01602080910402602001604051908101604052809291908181526020018280546001816001161561010002031660029004801561131d5780601f106112f25761010080835404028352916020019161131d565b820191906000526020600020905b81548152906001019060200180831161130057829003601f168201915b5050505050908060030154905084565b603360009054906101000a900460ff16156113b0576040517f08c379a00000000000000000000000000000000000000000000000000000000081526004018080602001828103825260108152602001807f5061757361626c653a207061757365640000000000000000000000000000000081525060200191505060405180910390fd5b60046113ba6128e9565b101561142e576040517f08c379a000000000000000000000000000000000000000000000000000000000815260040180806020018281038252600b8152602001807f4e6f74206578706972656400000000000000000000000000000000000000000081525060200191505060405180910390fd5b600060a160003373ffffffffffffffffffffffffffffffffffffffff1673ffffffffffffffffffffffffffffffffffffffff1681526020019081526020016000205414156114e4576040517f08c379a000000000000000000000000000000000000000000000000000000000815260040180806020018281038252601a8152602001807f43616e6e6f7420636c61696d2066726f6d2070726f706f73616c00000000000081525060200191505060405180910390fd5b60a360003373ffffffffffffffffffffffffffffffffffffffff1673ffffffffffffffffffffffffffffffffffffffff16815260200190815260200160002060009054906101000a900460ff16156115a4576040517f08c379a00000000000000000000000000000000000000000000000000000000081526004018080602001828103825260188152602001807f596f75206861766520616c726561647920636c61696d6564000000000000000081525060200191505060405180910390fd5b600160a360003373ffffffffffffffffffffffffffffffffffffffff1673ffffffffffffffffffffffffffffffffffffffff16815260200190815260200160002060006101000a81548160ff0219169083151502179055506000611607336142b1565b905060008111156116605761165f3382609760009054906101000a900473ffffffffffffffffffffffffffffffffffffffff1673ffffffffffffffffffffffffffffffffffffffff166143fe9092919063ffffffff16565b5b7f88c49fd38b1dd9e73c466c856574ecae503baba7e7e2ddbaae8092395d63757a816040518082815260200191505060405180910390a150565b60008060a660008581526020019081526020016000208054905014156116e2577fffffffffffffffffffffffffffffffffffffffffffffffffffffffffffffffff905061170e565b60a66000848152602001908152602001600020828154811061170057fe5b906000526020600020015490505b92915050565b600060046117206128e9565b101561172f576000905061173b565b611738826142b1565b90505b919050565b60a6602052816000526040600020818154811061175957fe5b90600052602060002001600091509150505481565b603360009054906101000a900460ff16156117f1576040517f08c379a00000000000000000000000000000000000000000000000000000000081526004018080602001828103825260108152602001807f5061757361626c653a207061757365640000000000000000000000000000000081525060200191505060405180910390fd5b3373ffffffffffffffffffffffffffffffffffffffff16606560009054906101000a900473ffffffffffffffffffffffffffffffffffffffff1673ffffffffffffffffffffffffffffffffffffffff16146118b4576040517f08c379a00000000000000000000000000000000000000000000000000000000081526004018080602001828103825260208152602001807f4f776e61626c653a2063616c6c6572206973206e6f7420746865206f776e657281525060200191505060405180910390fd5b60046118be6128e9565b1015611932576040517f08c379a000000000000000000000000000000000000000000000000000000000815260040180806020018281038252600b8152602001807f4e6f74206578706972656400000000000000000000000000000000000000000081525060200191505060405180910390fd5b609c60009054906101000a900460ff16156119b5576040517f08c379a00000000000000000000000000000000000000000000000000000000081526004018080602001828103825260208152602001807f50726f706f73616c207265776172647320686173206265656e206275726e656481525060200191505060405180910390fd5b6001609c60006101000a81548160ff021916908315150217905550600080905060008090505b600a811015611a39577fffffffffffffffffffffffffffffffffffffffffffffffffffffffffffffffff609b8281548110611a1257fe5b90600052602060002001541415611a2c5781806001019250505b80806001019150506119db565b5060008090506000821115611ab657611a64826815af1d78b58c4000006144b690919063ffffffff16565b9050611ab561dead82609760009054906101000a900473ffffffffffffffffffffffffffffffffffffffff1673ffffffffffffffffffffffffffffffffffffffff166143fe9092919063ffffffff16565b5b7f7a69f9dd77f85db837c84bf7475d3ee2cde3b5a16129d5158f8f2f3a4e839692816040518082815260200191505060405180910390a15050565b60a36020528060005260406000206000915054906101000a900460ff1681565b603360009054906101000a900460ff1615611b94576040517f08c379a00000000000000000000000000000000000000000000000000000000081526004018080602001828103825260108152602001807f5061757361626c653a207061757365640000000000000000000000000000000081525060200191505060405180910390fd5b6005600401611ba16128e9565b1015611c15576040517f08c379a000000000000000000000000000000000000000000000000000000000815260040180806020018281038252600b8152602001807f4e6f74206578706972656400000000000000000000000000000000000000000081525060200191505060405180910390fd5b600060af60003373ffffffffffffffffffffffffffffffffffffffff1673ffffffffffffffffffffffffffffffffffffffff168152602001908152602001600020541415611ccb576040517f08c379a000000000000000000000000000000000000000000000000000000000815260040180806020018281038252601b8152602001807f43616e6e6f742077697468647261772066726f6d20666967757265000000000081525060200191505060405180910390fd5b62093a80611d2160af60003373ffffffffffffffffffffffffffffffffffffffff1673ffffffffffffffffffffffffffffffffffffffff168152602001908152602001600020544261453c90919063ffffffff16565b11611d94576040517f08c379a000000000000000000000000000000000000000000000000000000000815260040180806020018281038252601a8152602001807f43616e6e6f7420636c61696d2077697468696e2037206461797300000000000081525060200191505060405180910390fd5b60b060003373ffffffffffffffffffffffffffffffffffffffff1673ffffffffffffffffffffffffffffffffffffffff16815260200190815260200160002060009054906101000a900460ff1615611e54576040517f08c379a000000000000000000000000000000000000000000000000000000000815260040180806020018281038252601a8152602001807f596f75206861766520616c72656164792077697468647261776e00000000000081525060200191505060405180910390fd5b600160b060003373ffffffffffffffffffffffffffffffffffffffff1673ffffffffffffffffffffffffffffffffffffffff16815260200190815260200160002060006101000a81548160ff021916908315150217905550600060ae60003373ffffffffffffffffffffffffffffffffffffffff1673ffffffffffffffffffffffffffffffffffffffff1681526020019081526020016000205490506000811115611f4757611f463382609860009054906101000a900473ffffffffffffffffffffffffffffffffffffffff1673ffffffffffffffffffffffffffffffffffffffff166143fe9092919063ffffffff16565b5b7f06ef32dc663fb4a00c12e47b86feeca2dbfbd76d64254d976702c22ed0a18e00816040518082815260200191505060405180910390a150565b3373ffffffffffffffffffffffffffffffffffffffff16606560009054906101000a900473ffffffffffffffffffffffffffffffffffffffff1673ffffffffffffffffffffffffffffffffffffffff1614612044576040517f08c379a00000000000000000000000000000000000000000000000000000000081526004018080602001828103825260208152602001807f4f776e61626c653a2063616c6c6572206973206e6f7420746865206f776e657281525060200191505060405180910390fd5b61204c614586565b565b600060019054906101000a900460ff168061206d575061206c614688565b5b8061208457506000809054906101000a900460ff16155b6120d9576040517f08c379a000000000000000000000000000000000000000000000000000000000815260040180806020018281038252602e815260200180615dda602e913960400191505060405180910390fd5b60008060019054906101000a900460ff161590508015612129576001600060016101000a81548160ff02191690831515021790555060016000806101000a81548160ff0219169083151502179055505b61213161469f565b6121396146a9565b82609760006101000a81548173ffffffffffffffffffffffffffffffffffffffff021916908373ffffffffffffffffffffffffffffffffffffffff16021790555081609860006101000a81548173ffffffffffffffffffffffffffffffffffffffff021916908373ffffffffffffffffffffffffffffffffffffffff1602179055506040518060600160405280681b1ae4d6e2ef50000068ffffffffffffffffff168152602001681043561a882930000068ffffffffffffffffff168152602001680ad78ebc5ac620000068ffffffffffffffffff1681525060a7906003612222929190615b8a565b506040518061014001604052807fffffffffffffffffffffffffffffffffffffffffffffffffffffffffffffffff81526020017fffffffffffffffffffffffffffffffffffffffffffffffffffffffffffffffff81526020017fffffffffffffffffffffffffffffffffffffffffffffffffffffffffffffffff81526020017fffffffffffffffffffffffffffffffffffffffffffffffffffffffffffffffff81526020017fffffffffffffffffffffffffffffffffffffffffffffffffffffffffffffffff81526020017fffffffffffffffffffffffffffffffffffffffffffffffffffffffffffffffff81526020017fffffffffffffffffffffffffffffffffffffffffffffffffffffffffffffffff81526020017fffffffffffffffffffffffffffffffffffffffffffffffffffffffffffffffff81526020017fffffffffffffffffffffffffffffffffffffffffffffffffffffffffffffffff81526020017fffffffffffffffffffffffffffffffffffffffffffffffffffffffffffffffff815250609b90600a6123b9929190615bd7565b504260998190555080156123e25760008060016101000a81548160ff0219169083151502179055505b505050565b609f602052816000526040600020818154811061240057fe5b90600052602060002001600091509150505481565b609e6020528060005260406000206000915090505481565b60a7816003811061243a57fe5b016000915090505481565b60b06020528060005260406000206000915054906101000a900460ff1681565b6000603360009054906101000a900460ff16905090565b603360009054906101000a900460ff16156124ff576040517f08c379a00000000000000000000000000000000000000000000000000000000081526004018080602001828103825260108152602001807f5061757361626c653a207061757365640000000000000000000000000000000081525060200191505060405180910390fd5b60046125096128e9565b101561257d576040517f08c379a000000000000000000000000000000000000000000000000000000000815260040180806020018281038252600b8152602001807f4e6f74206578706972656400000000000000000000000000000000000000000081525060200191505060405180910390fd5b600060a160003373ffffffffffffffffffffffffffffffffffffffff1673ffffffffffffffffffffffffffffffffffffffff168152602001908152602001600020541415612633576040517f08c379a000000000000000000000000000000000000000000000000000000000815260040180806020018281038252601d8152602001807f43616e6e6f742077697468647261772066726f6d2070726f706f73616c00000081525060200191505060405180910390fd5b6205460061268960a160003373ffffffffffffffffffffffffffffffffffffffff1673ffffffffffffffffffffffffffffffffffffffff168152602001908152602001600020544261453c90919063ffffffff16565b116126fc576040517f08c379a000000000000000000000000000000000000000000000000000000000815260040180806020018281038252601d8152602001807f43616e6e6f742077697468647261772077697468696e2034206461797300000081525060200191505060405180910390fd5b60a260003373ffffffffffffffffffffffffffffffffffffffff1673ffffffffffffffffffffffffffffffffffffffff16815260200190815260200160002060009054906101000a900460ff16156127bc576040517f08c379a000000000000000000000000000000000000000000000000000000000815260040180806020018281038252601a8152602001807f596f75206861766520616c72656164792077697468647261776e00000000000081525060200191505060405180910390fd5b600160a260003373ffffffffffffffffffffffffffffffffffffffff1673ffffffffffffffffffffffffffffffffffffffff16815260200190815260200160002060006101000a81548160ff021916908315150217905550600060a060003373ffffffffffffffffffffffffffffffffffffffff1673ffffffffffffffffffffffffffffffffffffffff16815260200190815260200160002054905060008111156128af576128ae3382609860009054906101000a900473ffffffffffffffffffffffffffffffffffffffff1673ffffffffffffffffffffffffffffffffffffffff166143fe9092919063ffffffff16565b5b7f5ca6c0bba519c857c8713fba9f5f1b582abe00c95dcccedccea41ad683bad26d816040518082815260200191505060405180910390a150565b6000612915620151806129076099544261453c90919063ffffffff16565b6146b390919063ffffffff16565b905090565b60b2602052816000526040600020602052806000526040600020600091509150505481565b603360009054906101000a900460ff16156129c2576040517f08c379a00000000000000000000000000000000000000000000000000000000081526004018080602001828103825260108152602001807f5061757361626c653a207061757365640000000000000000000000000000000081525060200191505060405180910390fd5b60046129cc6128e9565b10612a3f576040517f08c379a00000000000000000000000000000000000000000000000000000000081526004018080602001828103825260078152602001807f457870697265640000000000000000000000000000000000000000000000000081525060200191505060405180910390fd5b6020848490501115612ab9576040517f08c379a00000000000000000000000000000000000000000000000000000000081526004018080602001828103825260188152602001807f4e616d652773206c656e67746820697320746f6f20626967000000000000000081525060200191505060405180910390fd5b60c8828290501115612b33576040517f08c379a00000000000000000000000000000000000000000000000000000000081526004018080602001828103825260188152602001807f496e666f2773206c656e67746820697320746f6f20626967000000000000000081525060200191505060405180910390fd5b612b3b615c24565b33816000019073ffffffffffffffffffffffffffffffffffffffff16908173ffffffffffffffffffffffffffffffffffffffff168152505084848080601f016020809104026020016040519081016040528093929190818152602001838380828437600081840152601f19601f82011690508083019250505050505050816020018190525082828080601f016020809104026020016040519081016040528093929190818152602001838380828437600081840152601f19601f82011690508083019250505050505050816040018190525042816060018181525050609a81908060018154018082558091505060019003906000526020600020906004020160009091909190915060008201518160000160006101000a81548173ffffffffffffffffffffffffffffffffffffffff021916908373ffffffffffffffffffffffffffffffffffffffff1602179055506020820151816001019080519060200190612ca6929190615c62565b506040820151816002019080519060200190612cc3929190615c62565b5060608201518160030155505060006001609a8054905003905060006802b5e3af16b18800009050612cf582826146fd565b817ffcf3b1aa65a464cef2889608f99e8b8c0f680a4be6c2acb9d961c536a5a9294b826040518082815260200191505060405180910390a250505050505050565b603360009054906101000a900460ff1615612db9576040517f08c379a00000000000000000000000000000000000000000000000000000000081526004018080602001828103825260108152602001807f5061757361626c653a207061757365640000000000000000000000000000000081525060200191505060405180910390fd5b6005600401612dc66128e9565b1015612e3a576040517f08c379a000000000000000000000000000000000000000000000000000000000815260040180806020018281038252600b8152602001807f4e6f74206578706972656400000000000000000000000000000000000000000081525060200191505060405180910390fd5b600060af60003373ffffffffffffffffffffffffffffffffffffffff1673ffffffffffffffffffffffffffffffffffffffff168152602001908152602001600020541415612ef0576040517f08c379a00000000000000000000000000000000000000000000000000000000081526004018080602001828103825260188152602001807f43616e6e6f7420636c61696d2066726f6d20666967757265000000000000000081525060200191505060405180910390fd5b60b160003373ffffffffffffffffffffffffffffffffffffffff1673ffffffffffffffffffffffffffffffffffffffff16815260200190815260200160002060009054906101000a900460ff1615612fb0576040517f08c379a00000000000000000000000000000000000000000000000000000000081526004018080602001828103825260188152602001807f596f75206861766520616c726561647920636c61696d6564000000000000000081525060200191505060405180910390fd5b600160b160003373ffffffffffffffffffffffffffffffffffffffff1673ffffffffffffffffffffffffffffffffffffffff16815260200190815260200160002060006101000a81548160ff021916908315150217905550600061301333614a01565b9050600081111561306c5761306b3382609760009054906101000a900473ffffffffffffffffffffffffffffffffffffffff1673ffffffffffffffffffffffffffffffffffffffff166143fe9092919063ffffffff16565b5b7fd9c11d32472a7625893f113b5a14fc082c25003ce3cdeca0f5f1be39f9918bd6816040518082815260200191505060405180910390a150565b60a4602052816000526040600020602052806000526040600020600091509150505481565b3373ffffffffffffffffffffffffffffffffffffffff16606560009054906101000a900473ffffffffffffffffffffffffffffffffffffffff1673ffffffffffffffffffffffffffffffffffffffff161461318e576040517f08c379a00000000000000000000000000000000000000000000000000000000081526004018080602001828103825260208152602001807f4f776e61626c653a2063616c6c6572206973206e6f7420746865206f776e657281525060200191505060405180910390fd5b600073ffffffffffffffffffffffffffffffffffffffff16606560009054906101000a900473ffffffffffffffffffffffffffffffffffffffff1673ffffffffffffffffffffffffffffffffffffffff167f8be0079c531659141344cd1fd0a4f28419497f9722a3daafe3b4186f6b6457e060405160405180910390a36000606560006101000a81548173ffffffffffffffffffffffffffffffffffffffff021916908373ffffffffffffffffffffffffffffffffffffffff160217905550565b609d5481565b609860009054906101000a900473ffffffffffffffffffffffffffffffffffffffff1681565b600060a580549050905090565b600060056004016132976128e9565b10156132a657600090506132b2565b6132af82614a01565b90505b919050565b3373ffffffffffffffffffffffffffffffffffffffff16606560009054906101000a900473ffffffffffffffffffffffffffffffffffffffff1673ffffffffffffffffffffffffffffffffffffffff161461337a576040517f08c379a00000000000000000000000000000000000000000000000000000000081526004018080602001828103825260208152602001807f4f776e61626c653a2063616c6c6572206973206e6f7420746865206f776e657281525060200191505060405180910390fd5b613382614cc0565b565b603360009054906101000a900460ff1615613407576040517f08c379a00000000000000000000000000000000000000000000000000000000081526004018080602001828103825260108152602001807f5061757361626c653a207061757365640000000000000000000000000000000081525060200191505060405180910390fd5b60056004016134146128e9565b10613487576040517f08c379a00000000000000000000000000000000000000000000000000000000081526004018080602001828103825260078152602001807f457870697265640000000000000000000000000000000000000000000000000081525060200191505060405180910390fd5b609a805490508310613501576040517f08c379a00000000000000000000000000000000000000000000000000000000081526004018080602001828103825260138152602001807f496e76616c69642070726f706f73616c2069640000000000000000000000000081525060200191505060405180910390fd5b6101f482829050111561357c576040517f08c379a00000000000000000000000000000000000000000000000000000000081526004018080602001828103825260188152602001807f496e666f2773206c656e67746820697320746f6f20626967000000000000000081525060200191505060405180910390fd5b600080905060008090505b600a8110156135c55784609b828154811061359e57fe5b906000526020600020015414156135b857600191506135c5565b8080600101915050613587565b5080613639576040517f08c379a00000000000000000000000000000000000000000000000000000000081526004018080602001828103825260138152602001807f496e76616c69642070726f706f73616c2069640000000000000000000000000081525060200191505060405180910390fd5b600360a6600086815260200190815260200160002080549050146136f55760405180606001604052807fffffffffffffffffffffffffffffffffffffffffffffffffffffffffffffffff81526020017fffffffffffffffffffffffffffffffffffffffffffffffffffffffffffffffff81526020017fffffffffffffffffffffffffffffffffffffffffffffffffffffffffffffffff81525060a660008681526020019081526020016000209060036136f3929190615ce2565b505b6136fd615d2f565b8481600001818152505033816020019073ffffffffffffffffffffffffffffffffffffffff16908173ffffffffffffffffffffffffffffffffffffffff168152505083838080601f016020809104026020016040519081016040528093929190818152602001838380828437600081840152601f19601f8201169050808301925050505050505081604001819052504281606001818152505060a58190806001815401808255809150506001900390600052602060002090600402016000909190919091506000820151816000015560208201518160010160006101000a81548173ffffffffffffffffffffffffffffffffffffffff021916908373ffffffffffffffffffffffffffffffffffffffff160217905550604082015181600201908051906020019061382f929190615c62565b506060820151816003015550506000600160a5805490500390506000678ac7230489e8000090506138608282614dc3565b60aa6000888152602001908152602001600020829080600181540180825580915050600190039060005260206000200160009091909190915055817fc9dac9ec8848deeb7b6d2050e5452032dffa3d7a8e8b98ef154a34a64ccff707826040518082815260200191505060405180910390a250505050505050565b6000606560009054906101000a900473ffffffffffffffffffffffffffffffffffffffff16905090565b600060aa6000838152602001908152602001600020805490509050919050565b60a5818154811061393257fe5b90600052602060002090600402016000915090508060000154908060010160009054906101000a900473ffffffffffffffffffffffffffffffffffffffff1690806002018054600181600116156101000203166002900480601f016020809104026020016040519081016040528092919081815260200182805460018160011615610100020316600290048015613a0a5780601f106139df57610100808354040283529160200191613a0a565b820191906000526020600020905b8154815290600101906020018083116139ed57829003601f168201915b5050505050908060030154905084565b60a26020528060005260406000206000915054906101000a900460ff1681565b60af6020528060005260406000206000915090505481565b6000609f60008373ffffffffffffffffffffffffffffffffffffffff1673ffffffffffffffffffffffffffffffffffffffff168152602001908152602001600020805490509050919050565b600060ad60008373ffffffffffffffffffffffffffffffffffffffff1673ffffffffffffffffffffffffffffffffffffffff168152602001908152602001600020805490509050919050565b609b8181548110613af757fe5b906000526020600020016000915090505481565b60b16020528060005260406000206000915054906101000a900460ff1681565b60ac6020528060005260406000206000915090505481565b60ab5481565b60995481565b603360009054906101000a900460ff1615613bd2576040517f08c379a00000000000000000000000000000000000000000000000000000000081526004018080602001828103825260108152602001807f5061757361626c653a207061757365640000000000000000000000000000000081525060200191505060405180910390fd5b6005600401613bdf6128e9565b10613c52576040517f08c379a00000000000000000000000000000000000000000000000000000000081526004018080602001828103825260078152602001807f457870697265640000000000000000000000000000000000000000000000000081525060200191505060405180910390fd5b60a5805490508210613ccc576040517f08c379a00000000000000000000000000000000000000000000000000000000081526004018080602001828103825260118152602001807f496e76616c69642066696775726520696400000000000000000000000000000081525060200191505060405180910390fd5b60008111613d42576040517f08c379a000000000000000000000000000000000000000000000000000000000815260040180806020018281038252601d8152602001807f566f7465732073686f756c64206c6172676572207468656e207a65726f00000081525060200191505060405180910390fd5b613d4c8282614dc3565b817fd44ad0027ed2a08aeb8161502fe1eb91c299c11d3ff11138be8cd127cc755c2a826040518082815260200191505060405180910390a25050565b609760009054906101000a900473ffffffffffffffffffffffffffffffffffffffff1681565b60aa6020528160005260406000208181548110613dc757fe5b90600052602060002001600091509150505481565b6000609a80549050905090565b60a06020528060005260406000206000915090505481565b609c60009054906101000a900460ff1681565b60a16020528060005260406000206000915090505481565b60ad6020528160005260406000208181548110613e4557fe5b90600052602060002001600091509150505481565b3373ffffffffffffffffffffffffffffffffffffffff16606560009054906101000a900473ffffffffffffffffffffffffffffffffffffffff1673ffffffffffffffffffffffffffffffffffffffff1614613f1d576040517f08c379a00000000000000000000000000000000000000000000000000000000081526004018080602001828103825260208152602001807f4f776e61626c653a2063616c6c6572206973206e6f7420746865206f776e657281525060200191505060405180910390fd5b600073ffffffffffffffffffffffffffffffffffffffff168173ffffffffffffffffffffffffffffffffffffffff161415613fa3576040517f08c379a0000000000000000000000000000000000000000000000000000000008152600401808060200182810382526026815260200180615d936026913960400191505060405180910390fd5b8073ffffffffffffffffffffffffffffffffffffffff16606560009054906101000a900473ffffffffffffffffffffffffffffffffffffffff1673ffffffffffffffffffffffffffffffffffffffff167f8be0079c531659141344cd1fd0a4f28419497f9722a3daafe3b4186f6b6457e060405160405180910390a380606560006101000a81548173ffffffffffffffffffffffffffffffffffffffff021916908373ffffffffffffffffffffffffffffffffffffffff16021790555050565b603360009054906101000a900460ff16156140e6576040517f08c379a00000000000000000000000000000000000000000000000000000000081526004018080602001828103825260108152602001807f5061757361626c653a207061757365640000000000000000000000000000000081525060200191505060405180910390fd5b60046140f06128e9565b10614163576040517f08c379a00000000000000000000000000000000000000000000000000000000081526004018080602001828103825260078152602001807f457870697265640000000000000000000000000000000000000000000000000081525060200191505060405180910390fd5b600081116141d9576040517f08c379a000000000000000000000000000000000000000000000000000000000815260040180806020018281038252601d8152602001807f566f7465732073686f756c64206c6172676572207468656e207a65726f00000081525060200191505060405180910390fd5b609a805490508210614253576040517f08c379a00000000000000000000000000000000000000000000000000000000081526004018080602001828103825260138152602001807f496e76616c69642070726f706f73616c2069640000000000000000000000000081525060200191505060405180910390fd5b61425d82826146fd565b817fd9269f7270bc5664a2191e6eb8966494c9525a450c09c958895c80de0b2d926d826040518082815260200191505060405180910390a25050565b60ae6020528060005260406000206000915090505481565b6000806000905060008090505b609b805490508110156143f4577fffffffffffffffffffffffffffffffffffffffffffffffffffffffffffffffff609b82815481106142f957fe5b9060005260206000200154141561430f576143f4565b6000609b828154811061431e57fe5b90600052602060002001549050600060a460008773ffffffffffffffffffffffffffffffffffffffff1673ffffffffffffffffffffffffffffffffffffffff168152602001908152602001600020600083815260200190815260200160002054905060008111156143e5576000609e60008481526020019081526020016000205490506143e16143d2826143c4856815af1d78b58c4000006144b690919063ffffffff16565b6146b390919063ffffffff16565b866150ec90919063ffffffff16565b9450505b505080806001019150506142be565b5080915050919050565b6144b18363a9059cbb60e01b8484604051602401808373ffffffffffffffffffffffffffffffffffffffff1673ffffffffffffffffffffffffffffffffffffffff16815260200182815260200192505050604051602081830303815290604052907bffffffffffffffffffffffffffffffffffffffffffffffffffffffff19166020820180517bffffffffffffffffffffffffffffffffffffffffffffffffffffffff8381831617835250505050615174565b505050565b6000808314156144c95760009050614536565b60008284029050828482816144da57fe5b0414614531576040517f08c379a0000000000000000000000000000000000000000000000000000000008152600401808060200182810382526021815260200180615db96021913960400191505060405180910390fd5b809150505b92915050565b600061457e83836040518060400160405280601e81526020017f536166654d6174683a207375627472616374696f6e206f766572666c6f7700008152506153bf565b905092915050565b603360009054906101000a900460ff16614608576040517f08c379a00000000000000000000000000000000000000000000000000000000081526004018080602001828103825260148152602001807f5061757361626c653a206e6f742070617573656400000000000000000000000081525060200191505060405180910390fd5b6000603360006101000a81548160ff0219169083151502179055507f5db9ee0a495bf2e6ff9c91a7834c1ba4fdd244a5e8aa4e537bd38aeae4b073aa33604051808273ffffffffffffffffffffffffffffffffffffffff1673ffffffffffffffffffffffffffffffffffffffff16815260200191505060405180910390a1565b6000803090506000813b9050600081149250505090565b6146a761547f565b565b6146b161549c565b565b60006146f583836040518060400160405280601a81526020017f536166654d6174683a206469766973696f6e206279207a65726f000000000000815250615540565b905092915050565b61474c333083609860009054906101000a900473ffffffffffffffffffffffffffffffffffffffff1673ffffffffffffffffffffffffffffffffffffffff16615606909392919063ffffffff16565b61476181609d546150ec90919063ffffffff16565b609d8190555061478d81609e6000858152602001908152602001600020546150ec90919063ffffffff16565b609e6000848152602001908152602001600020819055506147f68160a060003373ffffffffffffffffffffffffffffffffffffffff1673ffffffffffffffffffffffffffffffffffffffff168152602001908152602001600020546150ec90919063ffffffff16565b60a060003373ffffffffffffffffffffffffffffffffffffffff1673ffffffffffffffffffffffffffffffffffffffff16815260200190815260200160002081905550600060a460003373ffffffffffffffffffffffffffffffffffffffff1673ffffffffffffffffffffffffffffffffffffffff16815260200190815260200160002060008481526020019081526020016000205414156148f957609f60003373ffffffffffffffffffffffffffffffffffffffff1673ffffffffffffffffffffffffffffffffffffffff1681526020019081526020016000208290806001815401808255809150506001900390600052602060002001600090919091909150555b61495c8160a460003373ffffffffffffffffffffffffffffffffffffffff1673ffffffffffffffffffffffffffffffffffffffff1681526020019081526020016000206000858152602001908152602001600020546150ec90919063ffffffff16565b60a460003373ffffffffffffffffffffffffffffffffffffffff1673ffffffffffffffffffffffffffffffffffffffff1681526020019081526020016000206000848152602001908152602001600020819055506149b9826156f3565b4260a160003373ffffffffffffffffffffffffffffffffffffffff1673ffffffffffffffffffffffffffffffffffffffff168152602001908152602001600020819055505050565b6000806000905060008090505b600a811015614cb6576000609b8281548110614a2657fe5b906000526020600020015490507fffffffffffffffffffffffffffffffffffffffffffffffffffffffffffffffff811415614a615750614cb6565b600060a66000838152602001908152602001600020805490501415614a865750614ca9565b60008090505b6003811015614ca657600060a660008481526020019081526020016000208281548110614ab557fe5b906000526020600020015490507fffffffffffffffffffffffffffffffffffffffffffffffffffffffffffffffff811415614af05750614ca6565b600060b260008973ffffffffffffffffffffffffffffffffffffffff1673ffffffffffffffffffffffffffffffffffffffff16815260200190815260200160002060008381526020019081526020016000205490506000811115614c9757600060ac60008481526020019081526020016000205490506000614bab670de0b6b3a7640000614b9d67016345785d8a000060a78960038110614b8d57fe5b01546144b690919063ffffffff16565b6146b390919063ffffffff16565b90506000614bd08260a78860038110614bc057fe5b015461453c90919063ffffffff16565b9050614c09614bfa84614bec87856144b690919063ffffffff16565b6146b390919063ffffffff16565b8a6150ec90919063ffffffff16565b985060a58581548110614c1857fe5b906000526020600020906004020160010160009054906101000a900473ffffffffffffffffffffffffffffffffffffffff1673ffffffffffffffffffffffffffffffffffffffff168b73ffffffffffffffffffffffffffffffffffffffff161415614c9357614c90828a6150ec90919063ffffffff16565b98505b5050505b50508080600101915050614a8c565b50505b8080600101915050614a0e565b5080915050919050565b603360009054906101000a900460ff1615614d43576040517f08c379a00000000000000000000000000000000000000000000000000000000081526004018080602001828103825260108152602001807f5061757361626c653a207061757365640000000000000000000000000000000081525060200191505060405180910390fd5b6001603360006101000a81548160ff0219169083151502179055507f62e78cea01bee320cd4e420270b5ea74000d11b0c9f74754ebdbfc544b05a25833604051808273ffffffffffffffffffffffffffffffffffffffff1673ffffffffffffffffffffffffffffffffffffffff16815260200191505060405180910390a1565b614e12333083609860009054906101000a900473ffffffffffffffffffffffffffffffffffffffff1673ffffffffffffffffffffffffffffffffffffffff16615606909392919063ffffffff16565b614e278160ab546150ec90919063ffffffff16565b60ab81905550614e538160ac6000858152602001908152602001600020546150ec90919063ffffffff16565b60ac600084815260200190815260200160002081905550614ebc8160ae60003373ffffffffffffffffffffffffffffffffffffffff1673ffffffffffffffffffffffffffffffffffffffff168152602001908152602001600020546150ec90919063ffffffff16565b60ae60003373ffffffffffffffffffffffffffffffffffffffff1673ffffffffffffffffffffffffffffffffffffffff16815260200190815260200160002081905550600060b260003373ffffffffffffffffffffffffffffffffffffffff1673ffffffffffffffffffffffffffffffffffffffff1681526020019081526020016000206000848152602001908152602001600020541415614fbf5760ad60003373ffffffffffffffffffffffffffffffffffffffff1673ffffffffffffffffffffffffffffffffffffffff1681526020019081526020016000208290806001815401808255809150506001900390600052602060002001600090919091909150555b6150228160b260003373ffffffffffffffffffffffffffffffffffffffff1673ffffffffffffffffffffffffffffffffffffffff1681526020019081526020016000206000858152602001908152602001600020546150ec90919063ffffffff16565b60b260003373ffffffffffffffffffffffffffffffffffffffff1673ffffffffffffffffffffffffffffffffffffffff168152602001908152602001600020600084815260200190815260200160002081905550600060a5838154811061508557fe5b90600052602060002090600402016000015490506150a381846158ee565b4260af60003373ffffffffffffffffffffffffffffffffffffffff1673ffffffffffffffffffffffffffffffffffffffff16815260200190815260200160002081905550505050565b60008082840190508381101561516a576040517f08c379a000000000000000000000000000000000000000000000000000000000815260040180806020018281038252601b8152602001807f536166654d6174683a206164646974696f6e206f766572666c6f77000000000081525060200191505060405180910390fd5b8091505092915050565b6151938273ffffffffffffffffffffffffffffffffffffffff16615b3f565b615205576040517f08c379a000000000000000000000000000000000000000000000000000000000815260040180806020018281038252601f8152602001807f5361666545524332303a2063616c6c20746f206e6f6e2d636f6e74726163740081525060200191505060405180910390fd5b600060608373ffffffffffffffffffffffffffffffffffffffff16836040518082805190602001908083835b602083106152545780518252602082019150602081019050602083039250615231565b6001836020036101000a0380198251168184511680821785525050505050509050019150506000604051808303816000865af19150503d80600081146152b6576040519150601f19603f3d011682016040523d82523d6000602084013e6152bb565b606091505b509150915081615333576040517f08c379a00000000000000000000000000000000000000000000000000000000081526004018080602001828103825260208152602001807f5361666545524332303a206c6f772d6c6576656c2063616c6c206661696c656481525060200191505060405180910390fd5b6000815111156153b95780806020019051602081101561535257600080fd5b81019080805190602001909291905050506153b8576040517f08c379a000000000000000000000000000000000000000000000000000000000815260040180806020018281038252602a815260200180615e08602a913960400191505060405180910390fd5b5b50505050565b600083831115829061546c576040517f08c379a00000000000000000000000000000000000000000000000000000000081526004018080602001828103825283818151815260200191508051906020019080838360005b83811015615431578082015181840152602081019050615416565b50505050905090810190601f16801561545e5780820380516001836020036101000a031916815260200191505b509250505060405180910390fd5b5060008385039050809150509392505050565b6000603360006101000a81548160ff021916908315150217905550565b600033905080606560006101000a81548173ffffffffffffffffffffffffffffffffffffffff021916908373ffffffffffffffffffffffffffffffffffffffff1602179055508073ffffffffffffffffffffffffffffffffffffffff16600073ffffffffffffffffffffffffffffffffffffffff167f8be0079c531659141344cd1fd0a4f28419497f9722a3daafe3b4186f6b6457e060405160405180910390a350565b600080831182906155ec576040517f08c379a00000000000000000000000000000000000000000000000000000000081526004018080602001828103825283818151815260200191508051906020019080838360005b838110156155b1578082015181840152602081019050615596565b50505050905090810190601f1680156155de5780820380516001836020036101000a031916815260200191505b509250505060405180910390fd5b5060008385816155f857fe5b049050809150509392505050565b6156ed846323b872dd60e01b858585604051602401808473ffffffffffffffffffffffffffffffffffffffff1673ffffffffffffffffffffffffffffffffffffffff1681526020018373ffffffffffffffffffffffffffffffffffffffff1673ffffffffffffffffffffffffffffffffffffffff1681526020018281526020019350505050604051602081830303815290604052907bffffffffffffffffffffffffffffffffffffffffffffffffffffffff19166020820180517bffffffffffffffffffffffffffffffffffffffffffffffffffffffff8381831617835250505050615174565b50505050565b60007fffffffffffffffffffffffffffffffffffffffffffffffffffffffffffffffff905060006001609b8054905003905060008090505b818111615851576000609b828154811061574157fe5b906000526020600020015490507fffffffffffffffffffffffffffffffffffffffffffffffffffffffffffffffff8114156157ab577fffffffffffffffffffffffffffffffffffffffffffffffffffffffffffffffff8414156157a2578193505b81925050615851565b808514156157e8577fffffffffffffffffffffffffffffffffffffffffffffffffffffffffffffffff8414156157df578193505b81925050615851565b609e600082815260200190815260200160002054609e6000878152602001908152602001600020541115615843577fffffffffffffffffffffffffffffffffffffffffffffffffffffffffffffffff841415615842578193505b5b50808060010191505061572b565b5060008190505b828111156158a457609b600182038154811061587057fe5b9060005260206000200154609b828154811061588857fe5b9060005260206000200181905550808060019003915050615858565b507fffffffffffffffffffffffffffffffffffffffffffffffffffffffffffffffff82146158e95782609b83815481106158da57fe5b90600052602060002001819055505b505050565b60007fffffffffffffffffffffffffffffffffffffffffffffffffffffffffffffffff90506000600160a660008681526020019081526020016000208054905003905060008090505b818111615a6e57600060a66000878152602001908152602001600020828154811061595e57fe5b906000526020600020015490507fffffffffffffffffffffffffffffffffffffffffffffffffffffffffffffffff8114156159c8577fffffffffffffffffffffffffffffffffffffffffffffffffffffffffffffffff8414156159bf578193505b81925050615a6e565b80851415615a05577fffffffffffffffffffffffffffffffffffffffffffffffffffffffffffffffff8414156159fc578193505b81925050615a6e565b60ac60008281526020019081526020016000205460ac6000878152602001908152602001600020541115615a60577fffffffffffffffffffffffffffffffffffffffffffffffffffffffffffffffff841415615a5f578193505b5b508080600101915050615937565b5060008190505b82811115615ae35760a660008681526020019081526020016000206001820381548110615a9e57fe5b906000526020600020015460a660008781526020019081526020016000208281548110615ac757fe5b9060005260206000200181905550808060019003915050615a75565b507fffffffffffffffffffffffffffffffffffffffffffffffffffffffffffffffff8214615b39578260a660008681526020019081526020016000208381548110615b2a57fe5b90600052602060002001819055505b50505050565b60008060007fc5d2460186f7233c927e7db2dcc703c0e500b653ca82273b7bfad8045d85a47060001b9050833f9150808214158015615b8157506000801b8214155b92505050919050565b8260038101928215615bc6579160200282015b82811115615bc5578251829068ffffffffffffffffff16905591602001919060010190615b9d565b5b509050615bd39190615d6d565b5090565b828054828255906000526020600020908101928215615c13579160200282015b82811115615c12578251825591602001919060010190615bf7565b5b509050615c209190615d6d565b5090565b6040518060800160405280600073ffffffffffffffffffffffffffffffffffffffff1681526020016060815260200160608152602001600081525090565b828054600181600116156101000203166002900490600052602060002090601f016020900481019282601f10615ca357805160ff1916838001178555615cd1565b82800160010185558215615cd1579182015b82811115615cd0578251825591602001919060010190615cb5565b5b509050615cde9190615d6d565b5090565b828054828255906000526020600020908101928215615d1e579160200282015b82811115615d1d578251825591602001919060010190615d02565b5b509050615d2b9190615d6d565b5090565b604051806080016040528060008152602001600073ffffffffffffffffffffffffffffffffffffffff16815260200160608152602001600081525090565b615d8f91905b80821115615d8b576000816000905550600101615d73565b5090565b9056fe4f776e61626c653a206e6577206f776e657220697320746865207a65726f2061646472657373536166654d6174683a206d756c7469706c69636174696f6e206f766572666c6f77436f6e747261637420696e7374616e63652068617320616c7265616479206265656e20696e697469616c697a65645361666545524332303a204552433230206f7065726174696f6e20646964206e6f742073756363656564a2646970667358221220ec72287530af3aee76b77aea8782de6a719a9be9662e3426517c75e0652b4e6064736f6c63430006060033",
  "immutableReferences": {},
  "source": "pragma solidity ^0.6.0;\n\nimport \"@openzeppelin/contracts-ethereum-package/contracts/math/Math.sol\";\nimport \"@openzeppelin/contracts-ethereum-package/contracts/math/SafeMath.sol\";\nimport \"@openzeppelin/contracts-ethereum-package/contracts/token/ERC20/SafeERC20.sol\";\nimport \"@openzeppelin/contracts-ethereum-package/contracts/token/ERC20/IERC20.sol\";\nimport \"@openzeppelin/contracts-ethereum-package/contracts/Initializable.sol\";\n\n// Inheritance\nimport \"./PausableUpgradeSafe.sol\";\nimport \"./OwnableUpgradeSafe.sol\";\n\ncontract Gallery is Initializable, PausableUpgradeSafe, OwnableUpgradeSafe {\n    using SafeMath for uint256;\n    using SafeERC20 for IERC20;\n\n    /* ========== CONSTANTS ========== */\n\n    uint256 constant PROPOSAL_DAYS = 4;\n    uint256 constant FIGURE_DAYS = 5;\n    uint256 constant WINNING_PROPOSAL_COUNT = 10;\n    uint256 constant WINNING_FIGURE_COUNT = 3;\n    uint256 constant MIN_PROPOSAL_VOTES = 50 ether;\n    uint256 constant MIN_FIGURE_VOTES = 10 ether;\n    uint256 constant REWARDS_PER_PROPOSAL = 400 ether;\n    uint256 constant AUTHOR_REWARDS_RATIO = 0.1 ether;\n    uint256 constant NULL = 2**256 - 1;\n    address constant DEAD_ADDRESS = 0x000000000000000000000000000000000000dEaD;\n\n    /* ========== STRUCTS ========== */\n\n    struct Proposal {\n        address proposer;\n        string name;\n        string info;\n        uint256 createAt;\n    }\n\n    struct Figure {\n        uint256 proposalId;\n        address author;\n        string info;\n        uint256 createAt;\n    }\n\n    /* ========== STATE VARIABLES ========== */\n\n    address public rewardsToken;\n    address public stakingToken;\n    uint256 public startAt;\n\n    // array of all proposals\n    Proposal[] public proposals;\n    // array of proposal id of top proposal\n    uint256[] public topProposals;\n    // if proposal rewards is burned\n    bool public proposalRewardsBurned;\n    // total votes of all proposals\n    uint256 public totalProposalVotes;\n    // proposal id => total votes of this proposal\n    mapping(uint256 => uint256) public proposalVotes;\n    // account => array of proposal id\n    mapping(address => uint256[]) public myProposals;\n    // account => total votes of my proposals\n    mapping(address => uint256) public myProposalVotes;\n    // account => last update at\n    mapping(address => uint256) public myProposalUpdateAt;\n    // account => if my votes and rewards of proposals is withdrawn\n    mapping(address => bool) public myProposalWithdrawn;\n    // account => if my rewards of proposals is claimed\n    mapping(address => bool) public myProposalClaimed;\n    // account => proposal id => votes\n    mapping(address => mapping(uint256 => uint256)) public mySingleProposalVotes;\n\n    // array of all proposals\n    Figure[] public figures;\n    // top proposal id => array of figure id of top figure\n    mapping(uint256 => uint256[]) public topFigures;\n    // array of top figure rewards\n    uint256[WINNING_FIGURE_COUNT] public topFigureRewards;\n    // proposal id => array of figure id\n    mapping(uint256 => uint256[]) public figuresOfProposal;\n    // total votes of all figures\n    uint256 public totalFigureVotes;\n    // figure id => total votes of this figure\n    mapping(uint256 => uint256) public figureVotes;\n    // account => array of figure id\n    mapping(address => uint256[]) public myFigures;\n    // account => total votes of my figures\n    mapping(address => uint256) public myFigureVotes;\n    // account => last update at\n    mapping(address => uint256) public myFigureUpdateAt;\n    // account => if my votes of figures is withdrawn\n    mapping(address => bool) public myFigureWithdrawn;\n    // account => if my rewards of figures is claimed\n    mapping(address => bool) public myFigureClaimed;\n    // account => figure id => votes\n    mapping(address => mapping(uint256 => uint256)) public mySingleFigureVotes;\n\n    /* ========== CONSTRUCTOR ========== */\n\n    function initialize(\n        address _rewardsToken,\n        address _stakingToken\n    )  public initializer {\n        super.__Pausable_init();\n        super.__Ownable_init();\n        rewardsToken = _rewardsToken;\n        stakingToken = _stakingToken;\n        topFigureRewards = [500 ether, 300 ether, 200 ether];\n        topProposals = [NULL, NULL, NULL, NULL, NULL, NULL, NULL, NULL, NULL, NULL];\n        startAt = block.timestamp;\n    }\n\n    /* ========== VIEWS ========== */\n\n    function dayAt() public view returns (uint256) {\n        return block.timestamp.sub(startAt).div(1 days);\n    }\n\n    function proposalCount() public view returns (uint256) {\n        return proposals.length;\n    }\n\n    function figureCount() public view returns (uint256) {\n        return figures.length;\n    }\n\n    function getTopFigure(uint256 proposalId, uint256 figureId) public view returns (uint256) {\n        if (topFigures[proposalId].length == 0) {\n            return NULL;\n        }\n        return topFigures[proposalId][figureId];\n    }\n\n    function myProposalCount(address target) public view returns (uint256) {\n        return myProposals[target].length;\n    }\n\n    function myFigureCount(address target) public view returns (uint256) {\n        return myFigures[target].length;\n    }\n\n    function figuresOfProposalCount(uint256 proposalId) public view returns (uint256) {\n        return figuresOfProposal[proposalId].length;\n    }\n\n    function myProposalRewards(address target) public view returns (uint256) {\n        if (dayAt() < PROPOSAL_DAYS) {\n            return 0;\n        }\n        return _calculateProposalRewards(target);\n    }\n\n    function myFigureRewards(address target) public view returns (uint256) {\n        if (dayAt() < PROPOSAL_DAYS + FIGURE_DAYS) {\n            return 0;\n        }\n        return _calculateFigureRewards(target);\n    }\n\n    /* ========== MUTATIVE FUNCTIONS ========== */\n\n    function createProposal(string calldata name, string calldata info) external whenNotPaused {\n        require(dayAt() < PROPOSAL_DAYS, \"Expired\");\n        require(bytes(name).length <= 32, \"Name's length is too big\");\n        require(bytes(info).length <= 200, \"Info's length is too big\");\n\n        // create proposal\n        Proposal memory proposal;\n        proposal.proposer = msg.sender;\n        proposal.name = name;\n        proposal.info = info;\n        proposal.createAt = block.timestamp;\n        proposals.push(proposal);\n\n        // vote for proposal\n        uint256 proposalId = proposals.length - 1;\n        uint256 votes = MIN_PROPOSAL_VOTES;\n        _voteForProposal(proposalId, votes);\n\n        emit ProposalCreated(proposalId, votes);\n    }\n\n    function voteForProposal(uint256 proposalId, uint256 votes) external whenNotPaused {\n        require(dayAt() < PROPOSAL_DAYS, \"Expired\");\n        require(votes > 0, \"Votes should larger then zero\");\n        require(proposalId < proposals.length, \"Invalid proposal id\");\n\n        // vote for proposal\n        _voteForProposal(proposalId, votes);\n\n        emit ProposalVoted(proposalId, votes);\n    }\n\n    function withdrawFromProposal() external whenNotPaused {\n        require(dayAt() >= PROPOSAL_DAYS, \"Not expired\");\n        require(myProposalUpdateAt[msg.sender] != 0, \"Cannot withdraw from proposal\");\n        require(block.timestamp.sub(myProposalUpdateAt[msg.sender]) > 4 days, \"Cannot withdraw within 4 days\");\n        require(!myProposalWithdrawn[msg.sender], \"You have already withdrawn\");\n        myProposalWithdrawn[msg.sender] = true;\n\n        // withdraw votes\n        uint256 votes = myProposalVotes[msg.sender];\n        if (votes > 0) {\n            IERC20(stakingToken).safeTransfer(msg.sender, votes);\n        }\n\n        emit ProposalWithdrawn(votes);\n    }\n\n    function claimFromProposal() external whenNotPaused {\n        require(dayAt() >= PROPOSAL_DAYS, \"Not expired\");\n        require(myProposalUpdateAt[msg.sender] != 0, \"Cannot claim from proposal\");\n        require(!myProposalClaimed[msg.sender], \"You have already claimed\");\n        myProposalClaimed[msg.sender] = true;\n\n        // claim rewards\n        uint256 rewards = _calculateProposalRewards(msg.sender);\n        if (rewards > 0) {\n            IERC20(rewardsToken).safeTransfer(msg.sender, rewards);\n        }\n\n        emit ProposalClaimed(rewards);\n    }\n\n    function burnFromProposal() external whenNotPaused onlyOwner {\n        require(dayAt() >= PROPOSAL_DAYS, \"Not expired\");\n        require(!proposalRewardsBurned, \"Proposal rewards has been burned\");\n        proposalRewardsBurned = true;\n\n        uint256 burnCount = 0;\n        for (uint256 i = 0; i < WINNING_PROPOSAL_COUNT; i++) {\n            if (topProposals[i] == NULL) {\n                burnCount++;\n            }\n        }\n        uint256 burnAmount = 0;\n        if (burnCount > 0) {\n            burnAmount = REWARDS_PER_PROPOSAL.mul(burnCount);\n            IERC20(rewardsToken).safeTransfer(DEAD_ADDRESS, burnAmount);\n        }\n\n        emit ProposalBurned(burnAmount);\n    }\n\n    function createFigure(uint256 proposalId, string calldata info) external whenNotPaused {\n        require(dayAt() < PROPOSAL_DAYS + FIGURE_DAYS, \"Expired\");\n        require(proposalId < proposals.length, \"Invalid proposal id\");\n        require(bytes(info).length <= 500, \"Info's length is too big\");\n        bool inTopProposals = false;\n        for (uint256 i = 0; i < WINNING_PROPOSAL_COUNT; i++) {\n            if (topProposals[i] == proposalId) {\n                inTopProposals = true;\n                break;\n            }\n        }\n        if (!inTopProposals) {\n            revert(\"Invalid proposal id\");\n        }\n\n        if (topFigures[proposalId].length != WINNING_FIGURE_COUNT) {\n            topFigures[proposalId] = [NULL, NULL, NULL];\n        }\n\n        // create figure\n        Figure memory figure;\n        figure.proposalId = proposalId;\n        figure.author = msg.sender;\n        figure.info = info;\n        figure.createAt = block.timestamp;\n        figures.push(figure);\n\n        // vote for figure\n        uint256 figureId = figures.length - 1;\n        uint256 votes = MIN_FIGURE_VOTES;\n        _voteForFigure(figureId, votes);\n        figuresOfProposal[proposalId].push(figureId);\n\n        emit FigureCreated(figureId, votes);\n    }\n\n    function voteForFigure(uint256 figureId, uint256 votes) external whenNotPaused {\n        require(dayAt() < PROPOSAL_DAYS + FIGURE_DAYS, \"Expired\");\n        require(figureId < figures.length, \"Invalid figure id\");\n        require(votes > 0, \"Votes should larger then zero\");\n\n        // vote for figure\n        _voteForFigure(figureId, votes);\n\n        emit FigureVoted(figureId, votes);\n    }\n\n    function withdrawFromFigure() external whenNotPaused {\n        require(dayAt() >= PROPOSAL_DAYS + FIGURE_DAYS, \"Not expired\");\n        require(myFigureUpdateAt[msg.sender] != 0, \"Cannot withdraw from figure\");\n        require(block.timestamp.sub(myFigureUpdateAt[msg.sender]) > 7 days, \"Cannot claim within 7 days\");\n        require(!myFigureWithdrawn[msg.sender], \"You have already withdrawn\");\n        myFigureWithdrawn[msg.sender] = true;\n\n        // withdraw votes\n        uint256 votes = myFigureVotes[msg.sender];\n        if (votes > 0) {\n            IERC20(stakingToken).safeTransfer(msg.sender, votes);\n        }\n\n        emit FigureWithdrawn(votes);\n    }\n\n    function claimFromFigure() external whenNotPaused {\n        require(dayAt() >= PROPOSAL_DAYS + FIGURE_DAYS, \"Not expired\");\n        require(myFigureUpdateAt[msg.sender] != 0, \"Cannot claim from figure\");\n        require(!myFigureClaimed[msg.sender], \"You have already claimed\");\n        myFigureClaimed[msg.sender] = true;\n\n        // claim rewards\n        uint256 rewards = _calculateFigureRewards(msg.sender);\n        if (rewards > 0) {\n            IERC20(rewardsToken).safeTransfer(msg.sender, rewards);\n        }\n\n        emit FigureClaimed(rewards);\n    }\n\n    function pause() external onlyOwner {\n        super._pause();\n    }\n\n    function unpause() external onlyOwner {\n        super._unpause();\n    }\n\n    function _voteForProposal(uint256 proposalId, uint256 votes) private {\n        // send token to contract\n        IERC20(stakingToken).safeTransferFrom(msg.sender, address(this), votes);\n\n        // update votes\n        totalProposalVotes = totalProposalVotes.add(votes);\n        proposalVotes[proposalId] = proposalVotes[proposalId].add(votes);\n        myProposalVotes[msg.sender] = myProposalVotes[msg.sender].add(votes);\n        if (mySingleProposalVotes[msg.sender][proposalId] == 0) {\n            myProposals[msg.sender].push(proposalId);\n        }\n        mySingleProposalVotes[msg.sender][proposalId] = mySingleProposalVotes[msg.sender][proposalId].add(votes);\n\n        // sort top proposals\n        _sortTopProposals(proposalId);\n\n        // update vote time\n        myProposalUpdateAt[msg.sender] = block.timestamp;\n    }\n\n    function _voteForFigure(uint256 figureId, uint256 votes) private {\n        // send token to contract\n        IERC20(stakingToken).safeTransferFrom(msg.sender, address(this), votes);\n\n        // update votes\n        totalFigureVotes = totalFigureVotes.add(votes);\n        figureVotes[figureId] = figureVotes[figureId].add(votes);\n        myFigureVotes[msg.sender] = myFigureVotes[msg.sender].add(votes);\n        if (mySingleFigureVotes[msg.sender][figureId] == 0) {\n            myFigures[msg.sender].push(figureId);\n        }\n        mySingleFigureVotes[msg.sender][figureId] = mySingleFigureVotes[msg.sender][figureId].add(votes);\n\n        // sort top figures\n        uint256 proposalId = figures[figureId].proposalId;\n        _sortTopFigures(proposalId, figureId);\n\n        // update vote time\n        myFigureUpdateAt[msg.sender] = block.timestamp;\n    }\n\n    function _sortTopProposals(uint256 proposalId) private {\n        uint256 begin = NULL;\n        uint256 end = topProposals.length-1;\n        for (uint256 i = 0; i <= end; i++) {\n            uint256 _proposalId = topProposals[i];\n            if (_proposalId == NULL) {\n                if (begin == NULL) {\n                    begin = i;\n                }\n                end = i;\n                break;\n            }\n            if (proposalId == _proposalId) {\n                if (begin == NULL) {\n                    begin = i;\n                }\n                end = i;\n                break;\n            }\n            if (proposalVotes[proposalId] > proposalVotes[_proposalId]) {\n                if (begin == NULL) {\n                    begin = i;\n                }\n            }\n        }\n        // right shift array elements\n        for (uint256 j = end; j > begin; j--) {\n            topProposals[j] = topProposals[j-1];\n        }\n        if (begin != NULL) {\n            topProposals[begin] = proposalId;\n        }\n    }\n\n    function _sortTopFigures(uint256 proposalId, uint256 figureId) private {\n        uint256 begin = NULL;\n        uint256 end = topFigures[proposalId].length-1;\n        for (uint256 i = 0; i <= end; i++) {\n            uint256 _figureId = topFigures[proposalId][i];\n            if (_figureId == NULL) {\n                if (begin == NULL) {\n                    begin = i;\n                }\n                end = i;\n                break;\n            }\n            if (figureId == _figureId) {\n                if (begin == NULL) {\n                    begin = i;\n                }\n                end = i;\n                break;\n            }\n            if (figureVotes[figureId] > figureVotes[_figureId]) {\n                if (begin == NULL) {\n                    begin = i;\n                }\n            }\n        }\n        // right shift array elements\n        for (uint256 j = end; j > begin; j--) {\n            topFigures[proposalId][j] = topFigures[proposalId][j-1];\n        }\n        if (begin != NULL) {\n            topFigures[proposalId][begin] = figureId;\n        }\n    }\n\n    function _calculateProposalRewards(address target) private view returns(uint256) {\n        uint256 rewards = 0;\n        for (uint256 i = 0; i < topProposals.length; i++) {\n            if (topProposals[i] == NULL) {\n                break;\n            }\n            uint256 proposalId = topProposals[i];\n            uint256 myVotes = mySingleProposalVotes[target][proposalId];\n            if (myVotes > 0) {\n                uint256 totalVotes = proposalVotes[proposalId];\n                rewards = rewards.add(REWARDS_PER_PROPOSAL.mul(myVotes).div(totalVotes));\n            }\n        }\n        return rewards;\n    }\n\n    function _calculateFigureRewards(address target) private view returns(uint256) {\n        uint256 rewards = 0;\n        for (uint256 i = 0; i < WINNING_PROPOSAL_COUNT; i++) {\n            uint256 proposalId = topProposals[i];\n            if (proposalId == NULL) {\n                break;\n            }\n            if (topFigures[proposalId].length == 0) {\n                continue;\n            }\n            for (uint256 j = 0; j < WINNING_FIGURE_COUNT; j++) {\n                uint256 figureId = topFigures[proposalId][j];\n                if (figureId == NULL) {\n                    break;\n                }\n                uint256 myVotes = mySingleFigureVotes[target][figureId];\n                if (myVotes > 0) {\n                    uint256 totalVotes = figureVotes[figureId];\n                    uint256 authorRewards = topFigureRewards[j].mul(AUTHOR_REWARDS_RATIO).div(1 ether);\n                    uint256 totalRewards = topFigureRewards[j].sub(authorRewards);\n                    rewards = rewards.add(totalRewards.mul(myVotes).div(totalVotes));\n                    // is author\n                    if (target == figures[figureId].author) {\n                        rewards = rewards.add(authorRewards);\n                    }\n                }\n            }\n        }\n        return rewards;\n    }\n\n    /* ========== EVENTS ========== */\n\n    event ProposalCreated(uint256 indexed proposalId, uint256 votes);\n    event ProposalVoted(uint256 indexed proposalId, uint256 votes);\n    event ProposalWithdrawn(uint256 votes);\n    event ProposalClaimed(uint256 rewards);\n    event ProposalBurned(uint256 votes);\n    event FigureCreated(uint256 indexed figureId, uint256 votes);\n    event FigureVoted(uint256 indexed figureId, uint256 votes);\n    event FigureWithdrawn(uint256 votes);\n    event FigureClaimed(uint256 rewards);\n}",
  "sourcePath": "/Users/edwin/github/gallery.finance/gallery.finance.smart/contracts/Gallery.sol",
  "compiler": {
    "name": "solc",
    "version": "0.6.6+commit.6c089d02.Emscripten.clang"
  },
  "schemaVersion": "3.3.0",
  "updatedAt": "2020-10-30T13:35:14.444Z",
  "networkType": "ethereum",
  "devdoc": {
    "methods": {
      "owner()": {
        "details": "Returns the address of the current owner."
      },
      "paused()": {
        "details": "Returns true if the contract is paused, and false otherwise."
      },
      "renounceOwnership()": {
        "details": "Leaves the contract without owner. It will not be possible to call `onlyOwner` functions anymore. Can only be called by the current owner.     * NOTE: Renouncing ownership will leave the contract without an owner, thereby removing any functionality that is only available to the owner."
      },
      "transferOwnership(address)": {
        "details": "Transfers ownership of the contract to a new account (`newOwner`). Can only be called by the current owner."
      }
    }
  },
  "userdoc": {
    "methods": {}
  }
}