{
  "contractName": "Gallery",
  "abi": [
    {
      "anonymous": false,
      "inputs": [
        {
          "indexed": false,
          "internalType": "uint256",
          "name": "rewards",
          "type": "uint256"
        }
      ],
      "name": "FigureClaimed",
      "type": "event"
    },
    {
      "anonymous": false,
      "inputs": [
        {
          "indexed": true,
          "internalType": "uint256",
          "name": "figureId",
          "type": "uint256"
        },
        {
          "indexed": false,
          "internalType": "uint256",
          "name": "votes",
          "type": "uint256"
        }
      ],
      "name": "FigureCreated",
      "type": "event"
    },
    {
      "anonymous": false,
      "inputs": [
        {
          "indexed": true,
          "internalType": "uint256",
          "name": "figureId",
          "type": "uint256"
        },
        {
          "indexed": false,
          "internalType": "uint256",
          "name": "votes",
          "type": "uint256"
        }
      ],
      "name": "FigureVoted",
      "type": "event"
    },
    {
      "anonymous": false,
      "inputs": [
        {
          "indexed": false,
          "internalType": "uint256",
          "name": "votes",
          "type": "uint256"
        }
      ],
      "name": "FigureWithdrawn",
      "type": "event"
    },
    {
      "anonymous": false,
      "inputs": [
        {
          "indexed": true,
          "internalType": "address",
          "name": "previousOwner",
          "type": "address"
        },
        {
          "indexed": true,
          "internalType": "address",
          "name": "newOwner",
          "type": "address"
        }
      ],
      "name": "OwnershipTransferred",
      "type": "event"
    },
    {
      "anonymous": false,
      "inputs": [
        {
          "indexed": false,
          "internalType": "address",
          "name": "account",
          "type": "address"
        }
      ],
      "name": "Paused",
      "type": "event"
    },
    {
      "anonymous": false,
      "inputs": [
        {
          "indexed": false,
          "internalType": "uint256",
          "name": "votes",
          "type": "uint256"
        }
      ],
      "name": "ProposalBurned",
      "type": "event"
    },
    {
      "anonymous": false,
      "inputs": [
        {
          "indexed": false,
          "internalType": "uint256",
          "name": "rewards",
          "type": "uint256"
        }
      ],
      "name": "ProposalClaimed",
      "type": "event"
    },
    {
      "anonymous": false,
      "inputs": [
        {
          "indexed": true,
          "internalType": "uint256",
          "name": "proposalId",
          "type": "uint256"
        },
        {
          "indexed": false,
          "internalType": "uint256",
          "name": "votes",
          "type": "uint256"
        }
      ],
      "name": "ProposalCreated",
      "type": "event"
    },
    {
      "anonymous": false,
      "inputs": [
        {
          "indexed": true,
          "internalType": "uint256",
          "name": "proposalId",
          "type": "uint256"
        },
        {
          "indexed": false,
          "internalType": "uint256",
          "name": "votes",
          "type": "uint256"
        }
      ],
      "name": "ProposalVoted",
      "type": "event"
    },
    {
      "anonymous": false,
      "inputs": [
        {
          "indexed": false,
          "internalType": "uint256",
          "name": "votes",
          "type": "uint256"
        }
      ],
      "name": "ProposalWithdrawn",
      "type": "event"
    },
    {
      "anonymous": false,
      "inputs": [
        {
          "indexed": false,
          "internalType": "address",
          "name": "account",
          "type": "address"
        }
      ],
      "name": "Unpaused",
      "type": "event"
    },
    {
      "inputs": [
        {
          "internalType": "uint256",
          "name": "",
          "type": "uint256"
        }
      ],
      "name": "figureVotes",
      "outputs": [
        {
          "internalType": "uint256",
          "name": "",
          "type": "uint256"
        }
      ],
      "stateMutability": "view",
      "type": "function",
      "constant": true
    },
    {
      "inputs": [
        {
          "internalType": "uint256",
          "name": "",
          "type": "uint256"
        }
      ],
      "name": "figures",
      "outputs": [
        {
          "internalType": "uint256",
          "name": "proposalId",
          "type": "uint256"
        },
        {
          "internalType": "address",
          "name": "author",
          "type": "address"
        },
        {
          "internalType": "string",
          "name": "info",
          "type": "string"
        },
        {
          "internalType": "uint256",
          "name": "createAt",
          "type": "uint256"
        }
      ],
      "stateMutability": "view",
      "type": "function",
      "constant": true
    },
    {
      "inputs": [
        {
          "internalType": "uint256",
          "name": "",
          "type": "uint256"
        },
        {
          "internalType": "uint256",
          "name": "",
          "type": "uint256"
        }
      ],
      "name": "figuresOfProposal",
      "outputs": [
        {
          "internalType": "uint256",
          "name": "",
          "type": "uint256"
        }
      ],
      "stateMutability": "view",
      "type": "function",
      "constant": true
    },
    {
      "inputs": [
        {
          "internalType": "address",
          "name": "",
          "type": "address"
        }
      ],
      "name": "myFigureClaimed",
      "outputs": [
        {
          "internalType": "bool",
          "name": "",
          "type": "bool"
        }
      ],
      "stateMutability": "view",
      "type": "function",
      "constant": true
    },
    {
      "inputs": [
        {
          "internalType": "address",
          "name": "",
          "type": "address"
        }
      ],
      "name": "myFigureUpdateAt",
      "outputs": [
        {
          "internalType": "uint256",
          "name": "",
          "type": "uint256"
        }
      ],
      "stateMutability": "view",
      "type": "function",
      "constant": true
    },
    {
      "inputs": [
        {
          "internalType": "address",
          "name": "",
          "type": "address"
        }
      ],
      "name": "myFigureVotes",
      "outputs": [
        {
          "internalType": "uint256",
          "name": "",
          "type": "uint256"
        }
      ],
      "stateMutability": "view",
      "type": "function",
      "constant": true
    },
    {
      "inputs": [
        {
          "internalType": "address",
          "name": "",
          "type": "address"
        }
      ],
      "name": "myFigureWithdrawn",
      "outputs": [
        {
          "internalType": "bool",
          "name": "",
          "type": "bool"
        }
      ],
      "stateMutability": "view",
      "type": "function",
      "constant": true
    },
    {
      "inputs": [
        {
          "internalType": "address",
          "name": "",
          "type": "address"
        },
        {
          "internalType": "uint256",
          "name": "",
          "type": "uint256"
        }
      ],
      "name": "myFigures",
      "outputs": [
        {
          "internalType": "uint256",
          "name": "",
          "type": "uint256"
        }
      ],
      "stateMutability": "view",
      "type": "function",
      "constant": true
    },
    {
      "inputs": [
        {
          "internalType": "address",
          "name": "",
          "type": "address"
        }
      ],
      "name": "myProposalClaimed",
      "outputs": [
        {
          "internalType": "bool",
          "name": "",
          "type": "bool"
        }
      ],
      "stateMutability": "view",
      "type": "function",
      "constant": true
    },
    {
      "inputs": [
        {
          "internalType": "address",
          "name": "",
          "type": "address"
        }
      ],
      "name": "myProposalUpdateAt",
      "outputs": [
        {
          "internalType": "uint256",
          "name": "",
          "type": "uint256"
        }
      ],
      "stateMutability": "view",
      "type": "function",
      "constant": true
    },
    {
      "inputs": [
        {
          "internalType": "address",
          "name": "",
          "type": "address"
        }
      ],
      "name": "myProposalVotes",
      "outputs": [
        {
          "internalType": "uint256",
          "name": "",
          "type": "uint256"
        }
      ],
      "stateMutability": "view",
      "type": "function",
      "constant": true
    },
    {
      "inputs": [
        {
          "internalType": "address",
          "name": "",
          "type": "address"
        }
      ],
      "name": "myProposalWithdrawn",
      "outputs": [
        {
          "internalType": "bool",
          "name": "",
          "type": "bool"
        }
      ],
      "stateMutability": "view",
      "type": "function",
      "constant": true
    },
    {
      "inputs": [
        {
          "internalType": "address",
          "name": "",
          "type": "address"
        },
        {
          "internalType": "uint256",
          "name": "",
          "type": "uint256"
        }
      ],
      "name": "myProposals",
      "outputs": [
        {
          "internalType": "uint256",
          "name": "",
          "type": "uint256"
        }
      ],
      "stateMutability": "view",
      "type": "function",
      "constant": true
    },
    {
      "inputs": [
        {
          "internalType": "address",
          "name": "",
          "type": "address"
        },
        {
          "internalType": "uint256",
          "name": "",
          "type": "uint256"
        }
      ],
      "name": "mySingleFigureVotes",
      "outputs": [
        {
          "internalType": "uint256",
          "name": "",
          "type": "uint256"
        }
      ],
      "stateMutability": "view",
      "type": "function",
      "constant": true
    },
    {
      "inputs": [
        {
          "internalType": "address",
          "name": "",
          "type": "address"
        },
        {
          "internalType": "uint256",
          "name": "",
          "type": "uint256"
        }
      ],
      "name": "mySingleProposalVotes",
      "outputs": [
        {
          "internalType": "uint256",
          "name": "",
          "type": "uint256"
        }
      ],
      "stateMutability": "view",
      "type": "function",
      "constant": true
    },
    {
      "inputs": [],
      "name": "owner",
      "outputs": [
        {
          "internalType": "address",
          "name": "",
          "type": "address"
        }
      ],
      "stateMutability": "view",
      "type": "function",
      "constant": true
    },
    {
      "inputs": [],
      "name": "paused",
      "outputs": [
        {
          "internalType": "bool",
          "name": "",
          "type": "bool"
        }
      ],
      "stateMutability": "view",
      "type": "function",
      "constant": true
    },
    {
      "inputs": [
        {
          "internalType": "uint256",
          "name": "",
          "type": "uint256"
        }
      ],
      "name": "proposalVotes",
      "outputs": [
        {
          "internalType": "uint256",
          "name": "",
          "type": "uint256"
        }
      ],
      "stateMutability": "view",
      "type": "function",
      "constant": true
    },
    {
      "inputs": [
        {
          "internalType": "uint256",
          "name": "",
          "type": "uint256"
        }
      ],
      "name": "proposals",
      "outputs": [
        {
          "internalType": "address",
          "name": "proposer",
          "type": "address"
        },
        {
          "internalType": "string",
          "name": "name",
          "type": "string"
        },
        {
          "internalType": "string",
          "name": "info",
          "type": "string"
        },
        {
          "internalType": "uint256",
          "name": "createAt",
          "type": "uint256"
        }
      ],
      "stateMutability": "view",
      "type": "function",
      "constant": true
    },
    {
      "inputs": [],
      "name": "renounceOwnership",
      "outputs": [],
      "stateMutability": "nonpayable",
      "type": "function"
    },
    {
      "inputs": [],
      "name": "rewardsToken",
      "outputs": [
        {
          "internalType": "address",
          "name": "",
          "type": "address"
        }
      ],
      "stateMutability": "view",
      "type": "function",
      "constant": true
    },
    {
      "inputs": [],
      "name": "stakingToken",
      "outputs": [
        {
          "internalType": "address",
          "name": "",
          "type": "address"
        }
      ],
      "stateMutability": "view",
      "type": "function",
      "constant": true
    },
    {
      "inputs": [],
      "name": "startAt",
      "outputs": [
        {
          "internalType": "uint256",
          "name": "",
          "type": "uint256"
        }
      ],
      "stateMutability": "view",
      "type": "function",
      "constant": true
    },
    {
      "inputs": [],
      "name": "totalFigureVotes",
      "outputs": [
        {
          "internalType": "uint256",
          "name": "",
          "type": "uint256"
        }
      ],
      "stateMutability": "view",
      "type": "function",
      "constant": true
    },
    {
      "inputs": [],
      "name": "totalProposalVotes",
      "outputs": [
        {
          "internalType": "uint256",
          "name": "",
          "type": "uint256"
        }
      ],
      "stateMutability": "view",
      "type": "function",
      "constant": true
    },
    {
      "inputs": [
        {
          "internalType": "address",
          "name": "newOwner",
          "type": "address"
        }
      ],
      "name": "transferOwnership",
      "outputs": [],
      "stateMutability": "nonpayable",
      "type": "function"
    },
    {
      "inputs": [
        {
          "internalType": "address",
          "name": "_rewardsToken",
          "type": "address"
        },
        {
          "internalType": "address",
          "name": "_stakingToken",
          "type": "address"
        }
      ],
      "name": "initialize",
      "outputs": [],
      "stateMutability": "nonpayable",
      "type": "function"
    },
    {
      "inputs": [],
      "name": "dayAt",
      "outputs": [
        {
          "internalType": "uint256",
          "name": "",
          "type": "uint256"
        }
      ],
      "stateMutability": "view",
      "type": "function",
      "constant": true
    },
    {
      "inputs": [],
      "name": "proposalCount",
      "outputs": [
        {
          "internalType": "uint256",
          "name": "",
          "type": "uint256"
        }
      ],
      "stateMutability": "view",
      "type": "function",
      "constant": true
    },
    {
      "inputs": [],
      "name": "figureCount",
      "outputs": [
        {
          "internalType": "uint256",
          "name": "",
          "type": "uint256"
        }
      ],
      "stateMutability": "view",
      "type": "function",
      "constant": true
    },
    {
      "inputs": [
        {
          "internalType": "address",
          "name": "target",
          "type": "address"
        }
      ],
      "name": "myProposalCount",
      "outputs": [
        {
          "internalType": "uint256",
          "name": "",
          "type": "uint256"
        }
      ],
      "stateMutability": "view",
      "type": "function",
      "constant": true
    },
    {
      "inputs": [
        {
          "internalType": "address",
          "name": "target",
          "type": "address"
        }
      ],
      "name": "myFigureCount",
      "outputs": [
        {
          "internalType": "uint256",
          "name": "",
          "type": "uint256"
        }
      ],
      "stateMutability": "view",
      "type": "function",
      "constant": true
    },
    {
      "inputs": [
        {
          "internalType": "uint256",
          "name": "proposalId",
          "type": "uint256"
        }
      ],
      "name": "figuresOfProposalCount",
      "outputs": [
        {
          "internalType": "uint256",
          "name": "",
          "type": "uint256"
        }
      ],
      "stateMutability": "view",
      "type": "function",
      "constant": true
    },
    {
      "inputs": [
        {
          "internalType": "address",
          "name": "target",
          "type": "address"
        }
      ],
      "name": "myProposalRewards",
      "outputs": [
        {
          "internalType": "uint256",
          "name": "",
          "type": "uint256"
        }
      ],
      "stateMutability": "view",
      "type": "function",
      "constant": true
    },
    {
      "inputs": [
        {
          "internalType": "address",
          "name": "target",
          "type": "address"
        }
      ],
      "name": "myFigureRewards",
      "outputs": [
        {
          "internalType": "uint256",
          "name": "",
          "type": "uint256"
        }
      ],
      "stateMutability": "view",
      "type": "function",
      "constant": true
    },
    {
      "inputs": [
        {
          "internalType": "string",
          "name": "name",
          "type": "string"
        },
        {
          "internalType": "string",
          "name": "info",
          "type": "string"
        }
      ],
      "name": "createProposal",
      "outputs": [],
      "stateMutability": "nonpayable",
      "type": "function"
    },
    {
      "inputs": [
        {
          "internalType": "uint256",
          "name": "proposalId",
          "type": "uint256"
        },
        {
          "internalType": "uint256",
          "name": "votes",
          "type": "uint256"
        }
      ],
      "name": "voteForProposal",
      "outputs": [],
      "stateMutability": "nonpayable",
      "type": "function"
    },
    {
      "inputs": [],
      "name": "withdrawFromProposal",
      "outputs": [],
      "stateMutability": "nonpayable",
      "type": "function"
    },
    {
      "inputs": [],
      "name": "claimFromProposal",
      "outputs": [],
      "stateMutability": "nonpayable",
      "type": "function"
    },
    {
      "inputs": [],
      "name": "burnFromProposal",
      "outputs": [],
      "stateMutability": "nonpayable",
      "type": "function"
    },
    {
      "inputs": [
        {
          "internalType": "uint256",
          "name": "proposalId",
          "type": "uint256"
        },
        {
          "internalType": "string",
          "name": "info",
          "type": "string"
        }
      ],
      "name": "createFigure",
      "outputs": [],
      "stateMutability": "nonpayable",
      "type": "function"
    },
    {
      "inputs": [
        {
          "internalType": "uint256",
          "name": "figureId",
          "type": "uint256"
        },
        {
          "internalType": "uint256",
          "name": "votes",
          "type": "uint256"
        }
      ],
      "name": "voteForFigure",
      "outputs": [],
      "stateMutability": "nonpayable",
      "type": "function"
    },
    {
      "inputs": [],
      "name": "withdrawFromFigure",
      "outputs": [],
      "stateMutability": "nonpayable",
      "type": "function"
    },
    {
      "inputs": [],
      "name": "claimFromFigure",
      "outputs": [],
      "stateMutability": "nonpayable",
      "type": "function"
    },
    {
      "inputs": [],
      "name": "pause",
      "outputs": [],
      "stateMutability": "nonpayable",
      "type": "function"
    },
    {
      "inputs": [],
      "name": "unpause",
      "outputs": [],
      "stateMutability": "nonpayable",
      "type": "function"
    }
  ],
  "bytecode": "0x608060405234801561001057600080fd5b506156cc80620000216000396000f3fe608060405234801561001057600080fd5b506004361061028a5760003560e01c80638456cb591161015c578063bee9ce39116100ce578063e15f6dab11610087578063e15f6dab14610e15578063e50bbc5d14610e6d578063e6b581ea14610ec5578063f2fde38b14610f27578063f8f1212a14610f6b578063fa5dde4d14610fa35761028a565b8063bee9ce3914610ced578063c744656514610d0b578063c7ab0e4f14610d29578063d1af0c7d14610d61578063d706e52214610dab578063da35c66414610df75761028a565b80639e7bcbea116101205780639e7bcbea14610aeb578063a34118c214610b47578063adaebd6714610b9f578063afb9657714610bf7578063b937173d14610c4f578063bcbdc85b14610cab5761028a565b80638456cb59146108ea5780638cf693e2146108f45780638da5cb5b146109775780638f5878c6146109c15780639782a9f314610a035761028a565b80635c975abb11610200578063707b5564116101b9578063707b5564146107a0578063715018a614610802578063718ad52b1461080c57806372f702f31461082a5780637454adc3146108745780637d12960d146108925761028a565b80635c975abb1461061c5780635ddd4ce31461063e578063613dd9c214610648578063657996351461066657806365e481e2146106c85780636b7118b7146107965761028a565b80633d1b40e2116102525780633d1b40e2146104a45780633f4ba83a146104ae578063485cc955146104b857806348985deb1461051c578063544ffc9c1461057e5780635a73abc5146105c05761028a565b8063013cf08b1461028f5780631e060de9146103dc5780632c37bb31146103e657806333f2439d1461043e57806338fe6a0814610448575b600080fd5b6102bb600480360360208110156102a557600080fd5b8101908080359060200190929190505050610ffb565b604051808573ffffffffffffffffffffffffffffffffffffffff1673ffffffffffffffffffffffffffffffffffffffff1681526020018060200180602001848152602001838103835286818151815260200191508051906020019080838360005b8381101561033757808201518184015260208101905061031c565b50505050905090810190601f1680156103645780820380516001836020036101000a031916815260200191505b50838103825285818151815260200191508051906020019080838360005b8381101561039d578082015181840152602081019050610382565b50505050905090810190601f1680156103ca5780820380516001836020036101000a031916815260200191505b50965050505050505060405180910390f35b6103e4611188565b005b610428600480360360208110156103fc57600080fd5b81019080803573ffffffffffffffffffffffffffffffffffffffff1690602001909291905050506114f5565b6040518082815260200191505060405180910390f35b610446611521565b005b61048a6004803603602081101561045e57600080fd5b81019080803573ffffffffffffffffffffffffffffffffffffffff1690602001909291905050506118a4565b604051808215151515815260200191505060405180910390f35b6104ac6118c4565b005b6104b6611d34565b005b61051a600480360360408110156104ce57600080fd5b81019080803573ffffffffffffffffffffffffffffffffffffffff169060200190929190803573ffffffffffffffffffffffffffffffffffffffff169060200190929190505050611d3e565b005b6105686004803603604081101561053257600080fd5b81019080803573ffffffffffffffffffffffffffffffffffffffff169060200190929190803590602001909291905050506121a9565b6040518082815260200191505060405180910390f35b6105aa6004803603602081101561059457600080fd5b81019080803590602001909291905050506121d7565b6040518082815260200191505060405180910390f35b610602600480360360208110156105d657600080fd5b81019080803573ffffffffffffffffffffffffffffffffffffffff1690602001909291905050506121ef565b604051808215151515815260200191505060405180910390f35b61062461220f565b604051808215151515815260200191505060405180910390f35b610646612226565b005b610650612693565b6040518082815260200191505060405180910390f35b6106b26004803603604081101561067c57600080fd5b81019080803573ffffffffffffffffffffffffffffffffffffffff169060200190929190803590602001909291905050506126c4565b6040518082815260200191505060405180910390f35b610794600480360360408110156106de57600080fd5b81019080803590602001906401000000008111156106fb57600080fd5b82018360208201111561070d57600080fd5b8035906020019184600183028401116401000000008311171561072f57600080fd5b90919293919293908035906020019064010000000081111561075057600080fd5b82018360208201111561076257600080fd5b8035906020019184600183028401116401000000008311171561078457600080fd5b90919293919293905050506126e9565b005b61079e612ae0565b005b6107ec600480360360408110156107b657600080fd5b81019080803573ffffffffffffffffffffffffffffffffffffffff16906020019092919080359060200190929190505050612e50565b6040518082815260200191505060405180910390f35b61080a612e75565b005b610814612ff9565b6040518082815260200191505060405180910390f35b610832612fff565b604051808273ffffffffffffffffffffffffffffffffffffffff1673ffffffffffffffffffffffffffffffffffffffff16815260200191505060405180910390f35b61087c613025565b6040518082815260200191505060405180910390f35b6108d4600480360360208110156108a857600080fd5b81019080803573ffffffffffffffffffffffffffffffffffffffff169060200190929190505050613032565b6040518082815260200191505060405180910390f35b6108f2613061565b005b6109756004803603604081101561090a57600080fd5b81019080803590602001909291908035906020019064010000000081111561093157600080fd5b82018360208201111561094357600080fd5b8035906020019184600183028401116401000000008311171561096557600080fd5b909192939192939050505061306b565b005b61097f613447565b604051808273ffffffffffffffffffffffffffffffffffffffff1673ffffffffffffffffffffffffffffffffffffffff16815260200191505060405180910390f35b6109ed600480360360208110156109d757600080fd5b8101908080359060200190929190505050613471565b6040518082815260200191505060405180910390f35b610a2f60048036036020811015610a1957600080fd5b8101908080359060200190929190505050613491565b604051808581526020018473ffffffffffffffffffffffffffffffffffffffff1673ffffffffffffffffffffffffffffffffffffffff16815260200180602001838152602001828103825284818151815260200191508051906020019080838360005b83811015610aad578082015181840152602081019050610a92565b50505050905090810190601f168015610ada5780820380516001836020036101000a031916815260200191505b509550505050505060405180910390f35b610b2d60048036036020811015610b0157600080fd5b81019080803573ffffffffffffffffffffffffffffffffffffffff169060200190929190505050613586565b604051808215151515815260200191505060405180910390f35b610b8960048036036020811015610b5d57600080fd5b81019080803573ffffffffffffffffffffffffffffffffffffffff1690602001909291905050506135a6565b6040518082815260200191505060405180910390f35b610be160048036036020811015610bb557600080fd5b81019080803573ffffffffffffffffffffffffffffffffffffffff1690602001909291905050506135be565b6040518082815260200191505060405180910390f35b610c3960048036036020811015610c0d57600080fd5b81019080803573ffffffffffffffffffffffffffffffffffffffff16906020019092919050505061360a565b6040518082815260200191505060405180910390f35b610c9160048036036020811015610c6557600080fd5b81019080803573ffffffffffffffffffffffffffffffffffffffff169060200190929190505050613656565b604051808215151515815260200191505060405180910390f35b610cd760048036036020811015610cc157600080fd5b8101908080359060200190929190505050613676565b6040518082815260200191505060405180910390f35b610cf561368e565b6040518082815260200191505060405180910390f35b610d13613694565b6040518082815260200191505060405180910390f35b610d5f60048036036040811015610d3f57600080fd5b81019080803590602001909291908035906020019092919050505061369a565b005b610d696138d3565b604051808273ffffffffffffffffffffffffffffffffffffffff1673ffffffffffffffffffffffffffffffffffffffff16815260200191505060405180910390f35b610de160048036036040811015610dc157600080fd5b8101908080359060200190929190803590602001909291905050506138f9565b6040518082815260200191505060405180910390f35b610dff613927565b6040518082815260200191505060405180910390f35b610e5760048036036020811015610e2b57600080fd5b81019080803573ffffffffffffffffffffffffffffffffffffffff169060200190929190505050613934565b6040518082815260200191505060405180910390f35b610eaf60048036036020811015610e8357600080fd5b81019080803573ffffffffffffffffffffffffffffffffffffffff16906020019092919050505061394c565b6040518082815260200191505060405180910390f35b610f1160048036036040811015610edb57600080fd5b81019080803573ffffffffffffffffffffffffffffffffffffffff16906020019092919080359060200190929190505050613964565b6040518082815260200191505060405180910390f35b610f6960048036036020811015610f3d57600080fd5b81019080803573ffffffffffffffffffffffffffffffffffffffff169060200190929190505050613992565b005b610fa160048036036040811015610f8157600080fd5b810190808035906020019092919080359060200190929190505050613b9b565b005b610fe560048036036020811015610fb957600080fd5b81019080803573ffffffffffffffffffffffffffffffffffffffff169060200190929190505050613d57565b6040518082815260200191505060405180910390f35b609a818154811061100857fe5b90600052602060002090600402016000915090508060000160009054906101000a900473ffffffffffffffffffffffffffffffffffffffff1690806001018054600181600116156101000203166002900480601f0160208091040260200160405190810160405280929190818152602001828054600181600116156101000203166002900480156110da5780601f106110af576101008083540402835291602001916110da565b820191906000526020600020905b8154815290600101906020018083116110bd57829003601f168201915b505050505090806002018054600181600116156101000203166002900480601f0160208091040260200160405190810160405280929190818152602001828054600181600116156101000203166002900480156111785780601f1061114d57610100808354040283529160200191611178565b820191906000526020600020905b81548152906001019060200180831161115b57829003601f168201915b5050505050908060030154905084565b603360009054906101000a900460ff161561120b576040517f08c379a00000000000000000000000000000000000000000000000000000000081526004018080602001828103825260108152602001807f5061757361626c653a207061757365640000000000000000000000000000000081525060200191505060405180910390fd5b6004611215612693565b1015611289576040517f08c379a000000000000000000000000000000000000000000000000000000000815260040180806020018281038252600b8152602001807f4e6f74206578706972656400000000000000000000000000000000000000000081525060200191505060405180910390fd5b600060a160003373ffffffffffffffffffffffffffffffffffffffff1673ffffffffffffffffffffffffffffffffffffffff16815260200190815260200160002054141561133f576040517f08c379a000000000000000000000000000000000000000000000000000000000815260040180806020018281038252601a8152602001807f43616e6e6f7420636c61696d2066726f6d2070726f706f73616c00000000000081525060200191505060405180910390fd5b60a360003373ffffffffffffffffffffffffffffffffffffffff1673ffffffffffffffffffffffffffffffffffffffff16815260200190815260200160002060009054906101000a900460ff16156113ff576040517f08c379a00000000000000000000000000000000000000000000000000000000081526004018080602001828103825260188152602001807f596f75206861766520616c726561647920636c61696d6564000000000000000081525060200191505060405180910390fd5b600160a360003373ffffffffffffffffffffffffffffffffffffffff1673ffffffffffffffffffffffffffffffffffffffff16815260200190815260200160002060006101000a81548160ff021916908315150217905550600061146233613d6f565b905060008111156114bb576114ba3382609760009054906101000a900473ffffffffffffffffffffffffffffffffffffffff1673ffffffffffffffffffffffffffffffffffffffff16613ebc9092919063ffffffff16565b5b7f88c49fd38b1dd9e73c466c856574ecae503baba7e7e2ddbaae8092395d63757a816040518082815260200191505060405180910390a150565b60006004611501612693565b1015611510576000905061151c565b61151982613d6f565b90505b919050565b603360009054906101000a900460ff16156115a4576040517f08c379a00000000000000000000000000000000000000000000000000000000081526004018080602001828103825260108152602001807f5061757361626c653a207061757365640000000000000000000000000000000081525060200191505060405180910390fd5b3373ffffffffffffffffffffffffffffffffffffffff16606560009054906101000a900473ffffffffffffffffffffffffffffffffffffffff1673ffffffffffffffffffffffffffffffffffffffff1614611667576040517f08c379a00000000000000000000000000000000000000000000000000000000081526004018080602001828103825260208152602001807f4f776e61626c653a2063616c6c6572206973206e6f7420746865206f776e657281525060200191505060405180910390fd5b6004611671612693565b10156116e5576040517f08c379a000000000000000000000000000000000000000000000000000000000815260040180806020018281038252600b8152602001807f4e6f74206578706972656400000000000000000000000000000000000000000081525060200191505060405180910390fd5b609c60009054906101000a900460ff1615611768576040517f08c379a00000000000000000000000000000000000000000000000000000000081526004018080602001828103825260208152602001807f50726f706f73616c207265776172647320686173206265656e206275726e656481525060200191505060405180910390fd5b6001609c60006101000a81548160ff021916908315150217905550600080905060008090505b600a8110156117ec577fffffffffffffffffffffffffffffffffffffffffffffffffffffffffffffffff609b82815481106117c557fe5b906000526020600020015414156117df5781806001019250505b808060010191505061178e565b506000809050600082111561186957611817826815af1d78b58c400000613f7490919063ffffffff16565b905061186861dead82609760009054906101000a900473ffffffffffffffffffffffffffffffffffffffff1673ffffffffffffffffffffffffffffffffffffffff16613ebc9092919063ffffffff16565b5b7f7a69f9dd77f85db837c84bf7475d3ee2cde3b5a16129d5158f8f2f3a4e839692816040518082815260200191505060405180910390a15050565b60a36020528060005260406000206000915054906101000a900460ff1681565b603360009054906101000a900460ff1615611947576040517f08c379a00000000000000000000000000000000000000000000000000000000081526004018080602001828103825260108152602001807f5061757361626c653a207061757365640000000000000000000000000000000081525060200191505060405180910390fd5b6007600401611954612693565b10156119c8576040517f08c379a000000000000000000000000000000000000000000000000000000000815260040180806020018281038252600b8152602001807f4e6f74206578706972656400000000000000000000000000000000000000000081525060200191505060405180910390fd5b600060af60003373ffffffffffffffffffffffffffffffffffffffff1673ffffffffffffffffffffffffffffffffffffffff168152602001908152602001600020541415611a7e576040517f08c379a000000000000000000000000000000000000000000000000000000000815260040180806020018281038252601b8152602001807f43616e6e6f742077697468647261772066726f6d20666967757265000000000081525060200191505060405180910390fd5b62093a80611ad460af60003373ffffffffffffffffffffffffffffffffffffffff1673ffffffffffffffffffffffffffffffffffffffff1681526020019081526020016000205442613ffa90919063ffffffff16565b11611b47576040517f08c379a000000000000000000000000000000000000000000000000000000000815260040180806020018281038252601a8152602001807f43616e6e6f7420636c61696d2077697468696e2037206461797300000000000081525060200191505060405180910390fd5b60b060003373ffffffffffffffffffffffffffffffffffffffff1673ffffffffffffffffffffffffffffffffffffffff16815260200190815260200160002060009054906101000a900460ff1615611c07576040517f08c379a000000000000000000000000000000000000000000000000000000000815260040180806020018281038252601a8152602001807f596f75206861766520616c72656164792077697468647261776e00000000000081525060200191505060405180910390fd5b600160b060003373ffffffffffffffffffffffffffffffffffffffff1673ffffffffffffffffffffffffffffffffffffffff16815260200190815260200160002060006101000a81548160ff021916908315150217905550600060ae60003373ffffffffffffffffffffffffffffffffffffffff1673ffffffffffffffffffffffffffffffffffffffff1681526020019081526020016000205490506000811115611cfa57611cf93382609860009054906101000a900473ffffffffffffffffffffffffffffffffffffffff1673ffffffffffffffffffffffffffffffffffffffff16613ebc9092919063ffffffff16565b5b7f06ef32dc663fb4a00c12e47b86feeca2dbfbd76d64254d976702c22ed0a18e00816040518082815260200191505060405180910390a150565b611d3c614044565b565b600060019054906101000a900460ff1680611d5d5750611d5c614146565b5b80611d7457506000809054906101000a900460ff16155b611dc9576040517f08c379a000000000000000000000000000000000000000000000000000000000815260040180806020018281038252602e81526020018061563f602e913960400191505060405180910390fd5b60008060019054906101000a900460ff161590508015611e19576001600060016101000a81548160ff02191690831515021790555060016000806101000a81548160ff0219169083151502179055505b611e2161415d565b611e29614167565b82609760006101000a81548173ffffffffffffffffffffffffffffffffffffffff021916908373ffffffffffffffffffffffffffffffffffffffff16021790555081609860006101000a81548173ffffffffffffffffffffffffffffffffffffffff021916908373ffffffffffffffffffffffffffffffffffffffff1602179055506040518060600160405280681b1ae4d6e2ef50000068ffffffffffffffffff168152602001681043561a882930000068ffffffffffffffffff168152602001680ad78ebc5ac620000068ffffffffffffffffff1681525060a7906003611f129291906153fc565b506040518061014001604052807fffffffffffffffffffffffffffffffffffffffffffffffffffffffffffffffff81526020017fffffffffffffffffffffffffffffffffffffffffffffffffffffffffffffffff81526020017fffffffffffffffffffffffffffffffffffffffffffffffffffffffffffffffff81526020017fffffffffffffffffffffffffffffffffffffffffffffffffffffffffffffffff81526020017fffffffffffffffffffffffffffffffffffffffffffffffffffffffffffffffff81526020017fffffffffffffffffffffffffffffffffffffffffffffffffffffffffffffffff81526020017fffffffffffffffffffffffffffffffffffffffffffffffffffffffffffffffff81526020017fffffffffffffffffffffffffffffffffffffffffffffffffffffffffffffffff81526020017fffffffffffffffffffffffffffffffffffffffffffffffffffffffffffffffff81526020017fffffffffffffffffffffffffffffffffffffffffffffffffffffffffffffffff815250609b90600a6120a9929190615449565b5060008090505b600a81101561217b5760a660405180606001604052807fffffffffffffffffffffffffffffffffffffffffffffffffffffffffffffffff81526020017fffffffffffffffffffffffffffffffffffffffffffffffffffffffffffffffff81526020017fffffffffffffffffffffffffffffffffffffffffffffffffffffffffffffffff81525090806001815401808255809150506001900390600052602060002090600a020160009091909190915090600361216d929190615496565b5080806001019150506120b0565b504260998190555080156121a45760008060016101000a81548160ff0219169083151502179055505b505050565b609f60205281600052604060002081815481106121c257fe5b90600052602060002001600091509150505481565b609e6020528060005260406000206000915090505481565b60b06020528060005260406000206000915054906101000a900460ff1681565b6000603360009054906101000a900460ff16905090565b603360009054906101000a900460ff16156122a9576040517f08c379a00000000000000000000000000000000000000000000000000000000081526004018080602001828103825260108152602001807f5061757361626c653a207061757365640000000000000000000000000000000081525060200191505060405180910390fd5b60046122b3612693565b1015612327576040517f08c379a000000000000000000000000000000000000000000000000000000000815260040180806020018281038252600b8152602001807f4e6f74206578706972656400000000000000000000000000000000000000000081525060200191505060405180910390fd5b600060a160003373ffffffffffffffffffffffffffffffffffffffff1673ffffffffffffffffffffffffffffffffffffffff1681526020019081526020016000205414156123dd576040517f08c379a000000000000000000000000000000000000000000000000000000000815260040180806020018281038252601d8152602001807f43616e6e6f742077697468647261772066726f6d2070726f706f73616c00000081525060200191505060405180910390fd5b6205460061243360a160003373ffffffffffffffffffffffffffffffffffffffff1673ffffffffffffffffffffffffffffffffffffffff1681526020019081526020016000205442613ffa90919063ffffffff16565b116124a6576040517f08c379a000000000000000000000000000000000000000000000000000000000815260040180806020018281038252601d8152602001807f43616e6e6f742077697468647261772077697468696e2034206461797300000081525060200191505060405180910390fd5b60a260003373ffffffffffffffffffffffffffffffffffffffff1673ffffffffffffffffffffffffffffffffffffffff16815260200190815260200160002060009054906101000a900460ff1615612566576040517f08c379a000000000000000000000000000000000000000000000000000000000815260040180806020018281038252601a8152602001807f596f75206861766520616c72656164792077697468647261776e00000000000081525060200191505060405180910390fd5b600160a260003373ffffffffffffffffffffffffffffffffffffffff1673ffffffffffffffffffffffffffffffffffffffff16815260200190815260200160002060006101000a81548160ff021916908315150217905550600060a060003373ffffffffffffffffffffffffffffffffffffffff1673ffffffffffffffffffffffffffffffffffffffff1681526020019081526020016000205490506000811115612659576126583382609860009054906101000a900473ffffffffffffffffffffffffffffffffffffffff1673ffffffffffffffffffffffffffffffffffffffff16613ebc9092919063ffffffff16565b5b7f5ca6c0bba519c857c8713fba9f5f1b582abe00c95dcccedccea41ad683bad26d816040518082815260200191505060405180910390a150565b60006126bf620151806126b160995442613ffa90919063ffffffff16565b61417190919063ffffffff16565b905090565b60b2602052816000526040600020602052806000526040600020600091509150505481565b603360009054906101000a900460ff161561276c576040517f08c379a00000000000000000000000000000000000000000000000000000000081526004018080602001828103825260108152602001807f5061757361626c653a207061757365640000000000000000000000000000000081525060200191505060405180910390fd5b6004612776612693565b106127e9576040517f08c379a00000000000000000000000000000000000000000000000000000000081526004018080602001828103825260078152602001807f457870697265640000000000000000000000000000000000000000000000000081525060200191505060405180910390fd5b6020848490501115612863576040517f08c379a00000000000000000000000000000000000000000000000000000000081526004018080602001828103825260188152602001807f4e616d652773206c656e67746820697320746f6f20626967000000000000000081525060200191505060405180910390fd5b60c88282905011156128dd576040517f08c379a00000000000000000000000000000000000000000000000000000000081526004018080602001828103825260188152602001807f496e666f2773206c656e67746820697320746f6f20626967000000000000000081525060200191505060405180910390fd5b6128e56154d6565b33816000019073ffffffffffffffffffffffffffffffffffffffff16908173ffffffffffffffffffffffffffffffffffffffff168152505084848080601f016020809104026020016040519081016040528093929190818152602001838380828437600081840152601f19601f82011690508083019250505050505050816020018190525082828080601f016020809104026020016040519081016040528093929190818152602001838380828437600081840152601f19601f82011690508083019250505050505050816040018190525042816060018181525050609a81908060018154018082558091505060019003906000526020600020906004020160009091909190915060008201518160000160006101000a81548173ffffffffffffffffffffffffffffffffffffffff021916908373ffffffffffffffffffffffffffffffffffffffff1602179055506020820151816001019080519060200190612a50929190615514565b506040820151816002019080519060200190612a6d929190615514565b5060608201518160030155505060006001609a8054905003905060006802b5e3af16b18800009050612a9f82826141bb565b817ffcf3b1aa65a464cef2889608f99e8b8c0f680a4be6c2acb9d961c536a5a9294b826040518082815260200191505060405180910390a250505050505050565b603360009054906101000a900460ff1615612b63576040517f08c379a00000000000000000000000000000000000000000000000000000000081526004018080602001828103825260108152602001807f5061757361626c653a207061757365640000000000000000000000000000000081525060200191505060405180910390fd5b6007600401612b70612693565b1015612be4576040517f08c379a000000000000000000000000000000000000000000000000000000000815260040180806020018281038252600b8152602001807f4e6f74206578706972656400000000000000000000000000000000000000000081525060200191505060405180910390fd5b600060af60003373ffffffffffffffffffffffffffffffffffffffff1673ffffffffffffffffffffffffffffffffffffffff168152602001908152602001600020541415612c9a576040517f08c379a00000000000000000000000000000000000000000000000000000000081526004018080602001828103825260188152602001807f43616e6e6f7420636c61696d2066726f6d20666967757265000000000000000081525060200191505060405180910390fd5b60b160003373ffffffffffffffffffffffffffffffffffffffff1673ffffffffffffffffffffffffffffffffffffffff16815260200190815260200160002060009054906101000a900460ff1615612d5a576040517f08c379a00000000000000000000000000000000000000000000000000000000081526004018080602001828103825260188152602001807f596f75206861766520616c726561647920636c61696d6564000000000000000081525060200191505060405180910390fd5b600160b160003373ffffffffffffffffffffffffffffffffffffffff1673ffffffffffffffffffffffffffffffffffffffff16815260200190815260200160002060006101000a81548160ff0219169083151502179055506000612dbd3361462d565b90506000811115612e1657612e153382609760009054906101000a900473ffffffffffffffffffffffffffffffffffffffff1673ffffffffffffffffffffffffffffffffffffffff16613ebc9092919063ffffffff16565b5b7fd9c11d32472a7625893f113b5a14fc082c25003ce3cdeca0f5f1be39f9918bd6816040518082815260200191505060405180910390a150565b60a4602052816000526040600020602052806000526040600020600091509150505481565b3373ffffffffffffffffffffffffffffffffffffffff16606560009054906101000a900473ffffffffffffffffffffffffffffffffffffffff1673ffffffffffffffffffffffffffffffffffffffff1614612f38576040517f08c379a00000000000000000000000000000000000000000000000000000000081526004018080602001828103825260208152602001807f4f776e61626c653a2063616c6c6572206973206e6f7420746865206f776e657281525060200191505060405180910390fd5b600073ffffffffffffffffffffffffffffffffffffffff16606560009054906101000a900473ffffffffffffffffffffffffffffffffffffffff1673ffffffffffffffffffffffffffffffffffffffff167f8be0079c531659141344cd1fd0a4f28419497f9722a3daafe3b4186f6b6457e060405160405180910390a36000606560006101000a81548173ffffffffffffffffffffffffffffffffffffffff021916908373ffffffffffffffffffffffffffffffffffffffff160217905550565b609d5481565b609860009054906101000a900473ffffffffffffffffffffffffffffffffffffffff1681565b600060a580549050905090565b60006007600401613041612693565b1015613050576000905061305c565b6130598261462d565b90505b919050565b613069614792565b565b603360009054906101000a900460ff16156130ee576040517f08c379a00000000000000000000000000000000000000000000000000000000081526004018080602001828103825260108152602001807f5061757361626c653a207061757365640000000000000000000000000000000081525060200191505060405180910390fd5b60076004016130fb612693565b1061316e576040517f08c379a00000000000000000000000000000000000000000000000000000000081526004018080602001828103825260078152602001807f457870697265640000000000000000000000000000000000000000000000000081525060200191505060405180910390fd5b609a8054905083106131e8576040517f08c379a00000000000000000000000000000000000000000000000000000000081526004018080602001828103825260138152602001807f496e76616c69642070726f706f73616c2069640000000000000000000000000081525060200191505060405180910390fd5b60c8828290501115613262576040517f08c379a00000000000000000000000000000000000000000000000000000000081526004018080602001828103825260188152602001807f496e666f2773206c656e67746820697320746f6f20626967000000000000000081525060200191505060405180910390fd5b61326a615594565b8381600001818152505033816020019073ffffffffffffffffffffffffffffffffffffffff16908173ffffffffffffffffffffffffffffffffffffffff168152505082828080601f016020809104026020016040519081016040528093929190818152602001838380828437600081840152601f19601f8201169050808301925050505050505081604001819052504281606001818152505060a58190806001815401808255809150506001900390600052602060002090600402016000909190919091506000820151816000015560208201518160010160006101000a81548173ffffffffffffffffffffffffffffffffffffffff021916908373ffffffffffffffffffffffffffffffffffffffff160217905550604082015181600201908051906020019061339c929190615514565b506060820151816003015550506000600160a5805490500390506000678ac7230489e8000090506133cd8282614895565b60aa6000878152602001908152602001600020829080600181540180825580915050600190039060005260206000200160009091909190915055817fc9dac9ec8848deeb7b6d2050e5452032dffa3d7a8e8b98ef154a34a64ccff707826040518082815260200191505060405180910390a2505050505050565b6000606560009054906101000a900473ffffffffffffffffffffffffffffffffffffffff16905090565b600060aa6000838152602001908152602001600020805490509050919050565b60a5818154811061349e57fe5b90600052602060002090600402016000915090508060000154908060010160009054906101000a900473ffffffffffffffffffffffffffffffffffffffff1690806002018054600181600116156101000203166002900480601f0160208091040260200160405190810160405280929190818152602001828054600181600116156101000203166002900480156135765780601f1061354b57610100808354040283529160200191613576565b820191906000526020600020905b81548152906001019060200180831161355957829003601f168201915b5050505050908060030154905084565b60a26020528060005260406000206000915054906101000a900460ff1681565b60af6020528060005260406000206000915090505481565b6000609f60008373ffffffffffffffffffffffffffffffffffffffff1673ffffffffffffffffffffffffffffffffffffffff168152602001908152602001600020805490509050919050565b600060ad60008373ffffffffffffffffffffffffffffffffffffffff1673ffffffffffffffffffffffffffffffffffffffff168152602001908152602001600020805490509050919050565b60b16020528060005260406000206000915054906101000a900460ff1681565b60ac6020528060005260406000206000915090505481565b60ab5481565b60995481565b603360009054906101000a900460ff161561371d576040517f08c379a00000000000000000000000000000000000000000000000000000000081526004018080602001828103825260108152602001807f5061757361626c653a207061757365640000000000000000000000000000000081525060200191505060405180910390fd5b600760040161372a612693565b1061379d576040517f08c379a00000000000000000000000000000000000000000000000000000000081526004018080602001828103825260078152602001807f457870697265640000000000000000000000000000000000000000000000000081525060200191505060405180910390fd5b60a5805490508210613817576040517f08c379a00000000000000000000000000000000000000000000000000000000081526004018080602001828103825260118152602001807f496e76616c69642066696775726520696400000000000000000000000000000081525060200191505060405180910390fd5b6000811161388d576040517f08c379a000000000000000000000000000000000000000000000000000000000815260040180806020018281038252601d8152602001807f566f7465732073686f756c64206c6172676572207468656e207a65726f00000081525060200191505060405180910390fd5b6138978282614895565b817fd44ad0027ed2a08aeb8161502fe1eb91c299c11d3ff11138be8cd127cc755c2a826040518082815260200191505060405180910390a25050565b609760009054906101000a900473ffffffffffffffffffffffffffffffffffffffff1681565b60aa602052816000526040600020818154811061391257fe5b90600052602060002001600091509150505481565b6000609a80549050905090565b60a06020528060005260406000206000915090505481565b60a16020528060005260406000206000915090505481565b60ad602052816000526040600020818154811061397d57fe5b90600052602060002001600091509150505481565b3373ffffffffffffffffffffffffffffffffffffffff16606560009054906101000a900473ffffffffffffffffffffffffffffffffffffffff1673ffffffffffffffffffffffffffffffffffffffff1614613a55576040517f08c379a00000000000000000000000000000000000000000000000000000000081526004018080602001828103825260208152602001807f4f776e61626c653a2063616c6c6572206973206e6f7420746865206f776e657281525060200191505060405180910390fd5b600073ffffffffffffffffffffffffffffffffffffffff168173ffffffffffffffffffffffffffffffffffffffff161415613adb576040517f08c379a00000000000000000000000000000000000000000000000000000000081526004018080602001828103825260268152602001806155f86026913960400191505060405180910390fd5b8073ffffffffffffffffffffffffffffffffffffffff16606560009054906101000a900473ffffffffffffffffffffffffffffffffffffffff1673ffffffffffffffffffffffffffffffffffffffff167f8be0079c531659141344cd1fd0a4f28419497f9722a3daafe3b4186f6b6457e060405160405180910390a380606560006101000a81548173ffffffffffffffffffffffffffffffffffffffff021916908373ffffffffffffffffffffffffffffffffffffffff16021790555050565b603360009054906101000a900460ff1615613c1e576040517f08c379a00000000000000000000000000000000000000000000000000000000081526004018080602001828103825260108152602001807f5061757361626c653a207061757365640000000000000000000000000000000081525060200191505060405180910390fd5b6004613c28612693565b10613c9b576040517f08c379a00000000000000000000000000000000000000000000000000000000081526004018080602001828103825260078152602001807f457870697265640000000000000000000000000000000000000000000000000081525060200191505060405180910390fd5b60008111613d11576040517f08c379a000000000000000000000000000000000000000000000000000000000815260040180806020018281038252601d8152602001807f566f7465732073686f756c64206c6172676572207468656e207a65726f00000081525060200191505060405180910390fd5b613d1b82826141bb565b817fd9269f7270bc5664a2191e6eb8966494c9525a450c09c958895c80de0b2d926d826040518082815260200191505060405180910390a25050565b60ae6020528060005260406000206000915090505481565b6000806000905060008090505b609b80549050811015613eb2577fffffffffffffffffffffffffffffffffffffffffffffffffffffffffffffffff609b8281548110613db757fe5b90600052602060002001541415613dcd57613eb2565b6000609b8281548110613ddc57fe5b90600052602060002001549050600060a460008773ffffffffffffffffffffffffffffffffffffffff1673ffffffffffffffffffffffffffffffffffffffff16815260200190815260200160002060008381526020019081526020016000205490506000811115613ea3576000609e6000848152602001908152602001600020549050613e9f613e9082613e82856815af1d78b58c400000613f7490919063ffffffff16565b61417190919063ffffffff16565b86614daa90919063ffffffff16565b9450505b50508080600101915050613d7c565b5080915050919050565b613f6f8363a9059cbb60e01b8484604051602401808373ffffffffffffffffffffffffffffffffffffffff1673ffffffffffffffffffffffffffffffffffffffff16815260200182815260200192505050604051602081830303815290604052907bffffffffffffffffffffffffffffffffffffffffffffffffffffffff19166020820180517bffffffffffffffffffffffffffffffffffffffffffffffffffffffff8381831617835250505050614e32565b505050565b600080831415613f875760009050613ff4565b6000828402905082848281613f9857fe5b0414613fef576040517f08c379a000000000000000000000000000000000000000000000000000000000815260040180806020018281038252602181526020018061561e6021913960400191505060405180910390fd5b809150505b92915050565b600061403c83836040518060400160405280601e81526020017f536166654d6174683a207375627472616374696f6e206f766572666c6f77000081525061507d565b905092915050565b603360009054906101000a900460ff166140c6576040517f08c379a00000000000000000000000000000000000000000000000000000000081526004018080602001828103825260148152602001807f5061757361626c653a206e6f742070617573656400000000000000000000000081525060200191505060405180910390fd5b6000603360006101000a81548160ff0219169083151502179055507f5db9ee0a495bf2e6ff9c91a7834c1ba4fdd244a5e8aa4e537bd38aeae4b073aa33604051808273ffffffffffffffffffffffffffffffffffffffff1673ffffffffffffffffffffffffffffffffffffffff16815260200191505060405180910390a1565b6000803090506000813b9050600081149250505090565b61416561513d565b565b61416f61515a565b565b60006141b383836040518060400160405280601a81526020017f536166654d6174683a206469766973696f6e206279207a65726f0000000000008152506151fe565b905092915050565b61420a333083609860009054906101000a900473ffffffffffffffffffffffffffffffffffffffff1673ffffffffffffffffffffffffffffffffffffffff166152c4909392919063ffffffff16565b61421f81609d54614daa90919063ffffffff16565b609d8190555061424b81609e600085815260200190815260200160002054614daa90919063ffffffff16565b609e6000848152602001908152602001600020819055506142b48160a060003373ffffffffffffffffffffffffffffffffffffffff1673ffffffffffffffffffffffffffffffffffffffff16815260200190815260200160002054614daa90919063ffffffff16565b60a060003373ffffffffffffffffffffffffffffffffffffffff1673ffffffffffffffffffffffffffffffffffffffff16815260200190815260200160002081905550600060a460003373ffffffffffffffffffffffffffffffffffffffff1673ffffffffffffffffffffffffffffffffffffffff16815260200190815260200160002060008481526020019081526020016000205414156143b757609f60003373ffffffffffffffffffffffffffffffffffffffff1673ffffffffffffffffffffffffffffffffffffffff1681526020019081526020016000208290806001815401808255809150506001900390600052602060002001600090919091909150555b61441a8160a460003373ffffffffffffffffffffffffffffffffffffffff1673ffffffffffffffffffffffffffffffffffffffff168152602001908152602001600020600085815260200190815260200160002054614daa90919063ffffffff16565b60a460003373ffffffffffffffffffffffffffffffffffffffff1673ffffffffffffffffffffffffffffffffffffffff16815260200190815260200160002060008481526020019081526020016000208190555060008090505b609b805490508110156145e4576000609b828154811061449057fe5b906000526020600020015490507fffffffffffffffffffffffffffffffffffffffffffffffffffffffffffffffff8114156144e75783609b83815481106144d357fe5b9060005260206000200181905550506145e4565b609e600082815260200190815260200160002054609e600086815260200190815260200160002054141561451b57506145e4565b609e600082815260200190815260200160002054609e60008681526020019081526020016000205411156145d6576001609b805490500382146145b45760006001609b805490500390505b828111156145b257609b600182038154811061457e57fe5b9060005260206000200154609b828154811061459657fe5b9060005260206000200181905550808060019003915050614566565b505b83609b83815481106145c257fe5b9060005260206000200181905550506145e4565b508080600101915050614474565b504260a160003373ffffffffffffffffffffffffffffffffffffffff1673ffffffffffffffffffffffffffffffffffffffff168152602001908152602001600020819055505050565b6000806000905060008090505b600a8110156147885760008090505b600381101561477a57600060a6838154811061466157fe5b90600052602060002090600a020182600a811061467a57fe5b015490507fffffffffffffffffffffffffffffffffffffffffffffffffffffffffffffffff8114156146ac575061477a565b600060b260008873ffffffffffffffffffffffffffffffffffffffff1673ffffffffffffffffffffffffffffffffffffffff1681526020019081526020016000206000838152602001908152602001600020549050600081111561476b57600060ac60008481526020019081526020016000205490506147676147588261474a8560a7896003811061473a57fe5b0154613f7490919063ffffffff16565b61417190919063ffffffff16565b87614daa90919063ffffffff16565b9550505b50508080600101915050614649565b50808060010191505061463a565b5080915050919050565b603360009054906101000a900460ff1615614815576040517f08c379a00000000000000000000000000000000000000000000000000000000081526004018080602001828103825260108152602001807f5061757361626c653a207061757365640000000000000000000000000000000081525060200191505060405180910390fd5b6001603360006101000a81548160ff0219169083151502179055507f62e78cea01bee320cd4e420270b5ea74000d11b0c9f74754ebdbfc544b05a25833604051808273ffffffffffffffffffffffffffffffffffffffff1673ffffffffffffffffffffffffffffffffffffffff16815260200191505060405180910390a1565b600060a583815481106148a457fe5b9060005260206000209060040201600001549050614907333084609860009054906101000a900473ffffffffffffffffffffffffffffffffffffffff1673ffffffffffffffffffffffffffffffffffffffff166152c4909392919063ffffffff16565b61491c8260ab54614daa90919063ffffffff16565b60ab819055506149488260ac600086815260200190815260200160002054614daa90919063ffffffff16565b60ac6000858152602001908152602001600020819055506149b18260ae60003373ffffffffffffffffffffffffffffffffffffffff1673ffffffffffffffffffffffffffffffffffffffff16815260200190815260200160002054614daa90919063ffffffff16565b60ae60003373ffffffffffffffffffffffffffffffffffffffff1673ffffffffffffffffffffffffffffffffffffffff16815260200190815260200160002081905550600060b260003373ffffffffffffffffffffffffffffffffffffffff1673ffffffffffffffffffffffffffffffffffffffff1681526020019081526020016000206000838152602001908152602001600020541415614ab45760ad60003373ffffffffffffffffffffffffffffffffffffffff1673ffffffffffffffffffffffffffffffffffffffff1681526020019081526020016000208390806001815401808255809150506001900390600052602060002001600090919091909150555b614b178260b260003373ffffffffffffffffffffffffffffffffffffffff1673ffffffffffffffffffffffffffffffffffffffff168152602001908152602001600020600084815260200190815260200160002054614daa90919063ffffffff16565b60b260003373ffffffffffffffffffffffffffffffffffffffff1673ffffffffffffffffffffffffffffffffffffffff16815260200190815260200160002060008381526020019081526020016000208190555060008090505b60a68281548110614b7e57fe5b906000526020600020905050600a811015614d6057600060a68381548110614ba257fe5b90600052602060002090600a020182600a8110614bbb57fe5b015490507fffffffffffffffffffffffffffffffffffffffffffffffffffffffffffffffff811415614c19578460a68481548110614bf557fe5b90600052602060002090600a020183600a8110614c0e57fe5b018190555050614d60565b60ac60008281526020019081526020016000205460ac6000878152602001908152602001600020541415614c4d5750614d60565b60ac60008281526020019081526020016000205460ac6000878152602001908152602001600020541115614d5257600160a68481548110614c8a57fe5b906000526020600020905050600a038214614d30576000600160a68581548110614cb057fe5b906000526020600020905050600a0390505b82811115614d2e5760a68481548110614cd757fe5b90600052602060002090600a020160018203600a8110614cf357fe5b015460a68581548110614d0257fe5b90600052602060002090600a020182600a8110614d1b57fe5b0181905550808060019003915050614cc2565b505b84609b8381548110614d3e57fe5b906000526020600020018190555050614d60565b508080600101915050614b71565b504260af60003373ffffffffffffffffffffffffffffffffffffffff1673ffffffffffffffffffffffffffffffffffffffff16815260200190815260200160002081905550505050565b600080828401905083811015614e28576040517f08c379a000000000000000000000000000000000000000000000000000000000815260040180806020018281038252601b8152602001807f536166654d6174683a206164646974696f6e206f766572666c6f77000000000081525060200191505060405180910390fd5b8091505092915050565b614e518273ffffffffffffffffffffffffffffffffffffffff166153b1565b614ec3576040517f08c379a000000000000000000000000000000000000000000000000000000000815260040180806020018281038252601f8152602001807f5361666545524332303a2063616c6c20746f206e6f6e2d636f6e74726163740081525060200191505060405180910390fd5b600060608373ffffffffffffffffffffffffffffffffffffffff16836040518082805190602001908083835b60208310614f125780518252602082019150602081019050602083039250614eef565b6001836020036101000a0380198251168184511680821785525050505050509050019150506000604051808303816000865af19150503d8060008114614f74576040519150601f19603f3d011682016040523d82523d6000602084013e614f79565b606091505b509150915081614ff1576040517f08c379a00000000000000000000000000000000000000000000000000000000081526004018080602001828103825260208152602001807f5361666545524332303a206c6f772d6c6576656c2063616c6c206661696c656481525060200191505060405180910390fd5b6000815111156150775780806020019051602081101561501057600080fd5b8101908080519060200190929190505050615076576040517f08c379a000000000000000000000000000000000000000000000000000000000815260040180806020018281038252602a81526020018061566d602a913960400191505060405180910390fd5b5b50505050565b600083831115829061512a576040517f08c379a00000000000000000000000000000000000000000000000000000000081526004018080602001828103825283818151815260200191508051906020019080838360005b838110156150ef5780820151818401526020810190506150d4565b50505050905090810190601f16801561511c5780820380516001836020036101000a031916815260200191505b509250505060405180910390fd5b5060008385039050809150509392505050565b6000603360006101000a81548160ff021916908315150217905550565b600033905080606560006101000a81548173ffffffffffffffffffffffffffffffffffffffff021916908373ffffffffffffffffffffffffffffffffffffffff1602179055508073ffffffffffffffffffffffffffffffffffffffff16600073ffffffffffffffffffffffffffffffffffffffff167f8be0079c531659141344cd1fd0a4f28419497f9722a3daafe3b4186f6b6457e060405160405180910390a350565b600080831182906152aa576040517f08c379a00000000000000000000000000000000000000000000000000000000081526004018080602001828103825283818151815260200191508051906020019080838360005b8381101561526f578082015181840152602081019050615254565b50505050905090810190601f16801561529c5780820380516001836020036101000a031916815260200191505b509250505060405180910390fd5b5060008385816152b657fe5b049050809150509392505050565b6153ab846323b872dd60e01b858585604051602401808473ffffffffffffffffffffffffffffffffffffffff1673ffffffffffffffffffffffffffffffffffffffff1681526020018373ffffffffffffffffffffffffffffffffffffffff1673ffffffffffffffffffffffffffffffffffffffff1681526020018281526020019350505050604051602081830303815290604052907bffffffffffffffffffffffffffffffffffffffffffffffffffffffff19166020820180517bffffffffffffffffffffffffffffffffffffffffffffffffffffffff8381831617835250505050614e32565b50505050565b60008060007fc5d2460186f7233c927e7db2dcc703c0e500b653ca82273b7bfad8045d85a47060001b9050833f91508082141580156153f357506000801b8214155b92505050919050565b8260038101928215615438579160200282015b82811115615437578251829068ffffffffffffffffff1690559160200191906001019061540f565b5b50905061544591906155d2565b5090565b828054828255906000526020600020908101928215615485579160200282015b82811115615484578251825591602001919060010190615469565b5b50905061549291906155d2565b5090565b82600a81019282156154c5579160200282015b828111156154c45782518255916020019190600101906154a9565b5b5090506154d291906155d2565b5090565b6040518060800160405280600073ffffffffffffffffffffffffffffffffffffffff1681526020016060815260200160608152602001600081525090565b828054600181600116156101000203166002900490600052602060002090601f016020900481019282601f1061555557805160ff1916838001178555615583565b82800160010185558215615583579182015b82811115615582578251825591602001919060010190615567565b5b50905061559091906155d2565b5090565b604051806080016040528060008152602001600073ffffffffffffffffffffffffffffffffffffffff16815260200160608152602001600081525090565b6155f491905b808211156155f05760008160009055506001016155d8565b5090565b9056fe4f776e61626c653a206e6577206f776e657220697320746865207a65726f2061646472657373536166654d6174683a206d756c7469706c69636174696f6e206f766572666c6f77436f6e747261637420696e7374616e63652068617320616c7265616479206265656e20696e697469616c697a65645361666545524332303a204552433230206f7065726174696f6e20646964206e6f742073756363656564a2646970667358221220deffad3092e01724c1c0e346d88cafccd8e44b06229a06d6c5635462085df9b764736f6c63430006060033",
  "immutableReferences": {},
  "source": "pragma solidity ^0.6.0;\n\nimport \"@openzeppelin/contracts-ethereum-package/contracts/math/Math.sol\";\nimport \"@openzeppelin/contracts-ethereum-package/contracts/math/SafeMath.sol\";\nimport \"@openzeppelin/contracts-ethereum-package/contracts/token/ERC20/SafeERC20.sol\";\nimport \"@openzeppelin/contracts-ethereum-package/contracts/token/ERC20/IERC20.sol\";\nimport \"@openzeppelin/contracts-ethereum-package/contracts/Initializable.sol\";\n\n// Inheritance\nimport \"./interfaces/IStakingRewards.sol\";\nimport \"./interfaces/IUniswapPriceOracle.sol\";\nimport \"./PausableUpgradeSafe.sol\";\nimport \"./OwnableUpgradeSafe.sol\";\n\ncontract Gallery is Initializable, PausableUpgradeSafe, OwnableUpgradeSafe {\n    using SafeMath for uint256;\n    using SafeERC20 for IERC20;\n\n    /* ========== CONSTANTS ========== */\n\n    uint256 constant PROPOSAL_DAYS = 4;\n    uint256 constant FIGURE_DAYS = 7;\n    uint256 constant WINNING_PROPOSAL_COUNT = 10;\n    uint256 constant WINNING_FIGURE_COUNT = 3;\n    uint256 constant MIN_PROPOSAL_VOTES = 50 ether;\n    uint256 constant MIN_FIGURE_VOTES = 10 ether;\n    uint256 constant REWARDS_PER_PROPOSAL = 400 ether;\n    uint256 constant NULL = 2**256 - 1;\n    address constant DEAD_ADDRESS = 0x000000000000000000000000000000000000dEaD;\n\n    /* ========== STRUCTS ========== */\n\n    struct Proposal {\n        address proposer;\n        string name;\n        string info;\n        uint256 createAt;\n    }\n\n    struct Figure {\n        uint256 proposalId;\n        address author;\n        string info;\n        uint256 createAt;\n    }\n\n    /* ========== STATE VARIABLES ========== */\n\n    address public rewardsToken;\n    address public stakingToken;\n    uint256 public startAt;\n\n    // array of all proposals\n    Proposal[] public proposals;\n    // array of proposal id of top proposal\n    uint256[] topProposals;\n    // if proposal rewards is burned\n    bool proposalRewardsBurned;\n    // total votes of all proposals\n    uint256 public totalProposalVotes;\n    // proposal id => total votes of this proposal\n    mapping(uint256 => uint256) public proposalVotes;\n    // account => array of proposal id\n    mapping(address => uint256[]) public myProposals;\n    // account => total votes of my proposals\n    mapping(address => uint256) public myProposalVotes;\n    // account => last update at\n    mapping(address => uint256) public myProposalUpdateAt;\n    // account => if my votes and rewards of proposals is withdrawn\n    mapping(address => bool) public myProposalWithdrawn;\n    // account => if my rewards of proposals is claimed\n    mapping(address => bool) public myProposalClaimed;\n    // account => proposal id => votes\n    mapping(address => mapping(uint256 => uint256)) public mySingleProposalVotes;\n\n    // array of all proposals\n    Figure[] public figures;\n    // array of figure id of top figure\n    uint256[WINNING_PROPOSAL_COUNT][] topFigures;\n    // array of top figure rewards\n    uint256[WINNING_FIGURE_COUNT] topFigureRewards;\n    // proposal id => array of figure id\n    mapping(uint256 => uint256[]) public figuresOfProposal;\n    // total votes of all figures\n    uint256 public totalFigureVotes;\n    // figure id => total votes of this figure\n    mapping(uint256 => uint256) public figureVotes;\n    // account => array of figure id\n    mapping(address => uint256[]) public myFigures;\n    // account => total votes of my figures\n    mapping(address => uint256) public myFigureVotes;\n    // account => last update at\n    mapping(address => uint256) public myFigureUpdateAt;\n    // account => if my votes of figures is withdrawn\n    mapping(address => bool) public myFigureWithdrawn;\n    // account => if my rewards of figures is claimed\n    mapping(address => bool) public myFigureClaimed;\n    // account => figure id => votes\n    mapping(address => mapping(uint256 => uint256)) public mySingleFigureVotes;\n\n    /* ========== CONSTRUCTOR ========== */\n\n    function initialize(\n        address _rewardsToken,\n        address _stakingToken\n    )  public initializer {\n        super.__Pausable_init();\n        super.__Ownable_init();\n        rewardsToken = _rewardsToken;\n        stakingToken = _stakingToken;\n        topFigureRewards = [500 ether, 300 ether, 200 ether];\n        topProposals = [NULL, NULL, NULL, NULL, NULL, NULL, NULL, NULL, NULL, NULL];\n        for (uint256 i = 0; i < WINNING_PROPOSAL_COUNT; i++) {\n            topFigures.push([NULL, NULL, NULL]);\n        }\n        startAt = block.timestamp;\n    }\n\n    /* ========== VIEWS ========== */\n\n    function dayAt() public view returns (uint256) {\n        return block.timestamp.sub(startAt).div(1 days);\n    }\n\n    function proposalCount() public view returns (uint256) {\n        return proposals.length;\n    }\n\n    function figureCount() public view returns (uint256) {\n        return figures.length;\n    }\n\n    function myProposalCount(address target) public view returns (uint256) {\n        return myProposals[target].length;\n    }\n\n    function myFigureCount(address target) public view returns (uint256) {\n        return myFigures[target].length;\n    }\n\n    function figuresOfProposalCount(uint256 proposalId) public view returns (uint256) {\n        return figuresOfProposal[proposalId].length;\n    }\n\n    function myProposalRewards(address target) public view returns (uint256) {\n        if (dayAt() < PROPOSAL_DAYS) {\n            return 0;\n        }\n        return _calculateProposalRewards(target);\n    }\n\n    function myFigureRewards(address target) public view returns (uint256) {\n        if (dayAt() < PROPOSAL_DAYS + FIGURE_DAYS) {\n            return 0;\n        }\n        return _calculateFigureRewards(target);\n    }\n\n    /* ========== MUTATIVE FUNCTIONS ========== */\n\n    function createProposal(string calldata name, string calldata info) external whenNotPaused {\n        require(dayAt() < PROPOSAL_DAYS, \"Expired\");\n        require(bytes(name).length <= 32, \"Name's length is too big\");\n        require(bytes(info).length <= 200, \"Info's length is too big\");\n\n        // create proposal\n        Proposal memory proposal;\n        proposal.proposer = msg.sender;\n        proposal.name = name;\n        proposal.info = info;\n        proposal.createAt = block.timestamp;\n        proposals.push(proposal);\n\n        // vote for proposal\n        uint256 proposalId = proposals.length - 1;\n        uint256 votes = MIN_PROPOSAL_VOTES;\n        _voteForProposal(proposalId, votes);\n\n        emit ProposalCreated(proposalId, votes);\n    }\n\n    function voteForProposal(uint256 proposalId, uint256 votes) external whenNotPaused {\n        require(dayAt() < PROPOSAL_DAYS, \"Expired\");\n        require(votes > 0, \"Votes should larger then zero\");\n\n        // vote for proposal\n        _voteForProposal(proposalId, votes);\n\n        emit ProposalVoted(proposalId, votes);\n    }\n\n    function withdrawFromProposal() external whenNotPaused {\n        require(dayAt() >= PROPOSAL_DAYS, \"Not expired\");\n        require(myProposalUpdateAt[msg.sender] != 0, \"Cannot withdraw from proposal\");\n        require(block.timestamp.sub(myProposalUpdateAt[msg.sender]) > 4 days, \"Cannot withdraw within 4 days\");\n        require(!myProposalWithdrawn[msg.sender], \"You have already withdrawn\");\n        myProposalWithdrawn[msg.sender] = true;\n\n        // withdraw votes\n        uint256 votes = myProposalVotes[msg.sender];\n        if (votes > 0) {\n            IERC20(stakingToken).safeTransfer(msg.sender, votes);\n        }\n\n        emit ProposalWithdrawn(votes);\n    }\n\n    function claimFromProposal() external whenNotPaused {\n        require(dayAt() >= PROPOSAL_DAYS, \"Not expired\");\n        require(myProposalUpdateAt[msg.sender] != 0, \"Cannot claim from proposal\");\n        require(!myProposalClaimed[msg.sender], \"You have already claimed\");\n        myProposalClaimed[msg.sender] = true;\n\n        // claim rewards\n        uint256 rewards = _calculateProposalRewards(msg.sender);\n        if (rewards > 0) {\n            IERC20(rewardsToken).safeTransfer(msg.sender, rewards);\n        }\n\n        emit ProposalClaimed(rewards);\n    }\n\n    function burnFromProposal() external whenNotPaused onlyOwner {\n        require(dayAt() >= PROPOSAL_DAYS, \"Not expired\");\n        require(!proposalRewardsBurned, \"Proposal rewards has been burned\");\n        proposalRewardsBurned = true;\n\n        uint256 burnCount = 0;\n        for (uint256 i = 0; i < WINNING_PROPOSAL_COUNT; i++) {\n            if (topProposals[i] == NULL) {\n                burnCount++;\n            }\n        }\n        uint256 burnAmount = 0;\n        if (burnCount > 0) {\n            burnAmount = REWARDS_PER_PROPOSAL.mul(burnCount);\n            IERC20(rewardsToken).safeTransfer(DEAD_ADDRESS, burnAmount);\n        }\n\n        emit ProposalBurned(burnAmount);\n    }\n\n    function createFigure(uint256 proposalId, string calldata info) external whenNotPaused {\n        require(dayAt() < PROPOSAL_DAYS + FIGURE_DAYS, \"Expired\");\n        require(proposalId < proposals.length, \"Invalid proposal id\");\n        require(bytes(info).length <= 200, \"Info's length is too big\");\n\n        // create figure\n        Figure memory figure;\n        figure.proposalId = proposalId;\n        figure.author = msg.sender;\n        figure.info = info;\n        figure.createAt = block.timestamp;\n        figures.push(figure);\n\n        // vote for figure\n        uint256 figureId = figures.length - 1;\n        uint256 votes = MIN_FIGURE_VOTES;\n        _voteForFigure(figureId, votes);\n        figuresOfProposal[proposalId].push(figureId);\n\n        emit FigureCreated(figureId, votes);\n    }\n\n    function voteForFigure(uint256 figureId, uint256 votes) external whenNotPaused {\n        require(dayAt() < PROPOSAL_DAYS + FIGURE_DAYS, \"Expired\");\n        require(figureId < figures.length, \"Invalid figure id\");\n        require(votes > 0, \"Votes should larger then zero\");\n\n        // vote for figure\n        _voteForFigure(figureId, votes);\n\n        emit FigureVoted(figureId, votes);\n    }\n\n    function withdrawFromFigure() external whenNotPaused {\n        require(dayAt() >= PROPOSAL_DAYS + FIGURE_DAYS, \"Not expired\");\n        require(myFigureUpdateAt[msg.sender] != 0, \"Cannot withdraw from figure\");\n        require(block.timestamp.sub(myFigureUpdateAt[msg.sender]) > 7 days, \"Cannot claim within 7 days\");\n        require(!myFigureWithdrawn[msg.sender], \"You have already withdrawn\");\n        myFigureWithdrawn[msg.sender] = true;\n\n        // withdraw votes\n        uint256 votes = myFigureVotes[msg.sender];\n        if (votes > 0) {\n            IERC20(stakingToken).safeTransfer(msg.sender, votes);\n        }\n\n        emit FigureWithdrawn(votes);\n    }\n\n    function claimFromFigure() external whenNotPaused {\n        require(dayAt() >= PROPOSAL_DAYS + FIGURE_DAYS, \"Not expired\");\n        require(myFigureUpdateAt[msg.sender] != 0, \"Cannot claim from figure\");\n        require(!myFigureClaimed[msg.sender], \"You have already claimed\");\n        myFigureClaimed[msg.sender] = true;\n\n        // claim rewards\n        uint256 rewards = _calculateFigureRewards(msg.sender);\n        if (rewards > 0) {\n            IERC20(rewardsToken).safeTransfer(msg.sender, rewards);\n        }\n\n        emit FigureClaimed(rewards);\n    }\n\n    function pause() external {\n        super._pause();\n    }\n\n    function unpause() external {\n        super._unpause();\n    }\n\n    function _voteForProposal(uint256 proposalId, uint256 votes) private {\n        IERC20(stakingToken).safeTransferFrom(msg.sender, address(this), votes);\n        totalProposalVotes = totalProposalVotes.add(votes);\n        proposalVotes[proposalId] = proposalVotes[proposalId].add(votes);\n        myProposalVotes[msg.sender] = myProposalVotes[msg.sender].add(votes);\n        if (mySingleProposalVotes[msg.sender][proposalId] == 0) {\n            myProposals[msg.sender].push(proposalId);\n        }\n        mySingleProposalVotes[msg.sender][proposalId] = mySingleProposalVotes[msg.sender][proposalId].add(votes);\n\n        // sort top proposals\n        for (uint256 i = 0; i < topProposals.length; i++) {\n            uint256 _proposalId = topProposals[i];\n            if (_proposalId == NULL) {\n                topProposals[i] = proposalId;\n                break;\n            }\n            if (proposalVotes[proposalId] == proposalVotes[_proposalId]) {\n                break;\n            }\n            if (proposalVotes[proposalId] > proposalVotes[_proposalId]) {\n                if (i != topProposals.length-1) {\n                    // right shift array elements\n                    for (uint256 j = topProposals.length-1; j > i; j--) {\n                        topProposals[j] = topProposals[j-1];\n                    }\n                }\n                topProposals[i] = proposalId;\n                break;\n            }\n        }\n\n        myProposalUpdateAt[msg.sender] = block.timestamp;\n    }\n\n    function _voteForFigure(uint256 figureId, uint256 votes) private {\n        uint256 proposalId = figures[figureId].proposalId;\n        IERC20(stakingToken).safeTransferFrom(msg.sender, address(this), votes);\n        totalFigureVotes = totalFigureVotes.add(votes);\n        figureVotes[figureId] = figureVotes[figureId].add(votes);\n        myFigureVotes[msg.sender] = myFigureVotes[msg.sender].add(votes);\n        if (mySingleFigureVotes[msg.sender][proposalId] == 0) {\n            myFigures[msg.sender].push(figureId);\n        }\n        mySingleFigureVotes[msg.sender][proposalId] = mySingleFigureVotes[msg.sender][proposalId].add(votes);\n\n        // sort top figures\n        for (uint256 i = 0; i < topFigures[proposalId].length; i++) {\n            uint256 _figureId = topFigures[proposalId][i];\n            if (_figureId == NULL) {\n                topFigures[proposalId][i] = figureId;\n                break;\n            }\n            if (figureVotes[figureId] == figureVotes[_figureId]) {\n                break;\n            }\n            if (figureVotes[figureId] > figureVotes[_figureId]) {\n                if (i != topFigures[proposalId].length-1) {\n                    // right shift array elements\n                    for (uint256 j = topFigures[proposalId].length-1; j > i; j--) {\n                        topFigures[proposalId][j] = topFigures[proposalId][j-1];\n                    }\n                }\n                topProposals[i] = figureId;\n                break;\n            }\n        }\n\n        myFigureUpdateAt[msg.sender] = block.timestamp;\n    }\n\n    function _calculateProposalRewards(address target) private view returns(uint256) {\n        uint256 rewards = 0;\n        for (uint256 i = 0; i < topProposals.length; i++) {\n            if (topProposals[i] == NULL) {\n                break;\n            }\n            uint256 proposalId = topProposals[i];\n            uint256 myVotes = mySingleProposalVotes[target][proposalId];\n            if (myVotes > 0) {\n                uint256 totalVotes = proposalVotes[proposalId];\n                rewards = rewards.add(REWARDS_PER_PROPOSAL.mul(myVotes).div(totalVotes));\n            }\n        }\n        return rewards;\n    }\n\n    function _calculateFigureRewards(address target) private view returns(uint256) {\n        uint256 rewards = 0;\n        for (uint256 i = 0; i < WINNING_PROPOSAL_COUNT; i++) {\n            for (uint256 j = 0; j < WINNING_FIGURE_COUNT; j++) {\n                uint256 figureId = topFigures[i][j];\n                if (figureId == NULL) {\n                    break;\n                }\n                uint256 myVotes = mySingleFigureVotes[target][figureId];\n                if (myVotes > 0) {\n                    uint256 totalVotes = figureVotes[figureId];\n                    rewards = rewards.add(topFigureRewards[j].mul(myVotes).div(totalVotes));\n                }\n            }\n        }\n        return rewards;\n    }\n\n    /* ========== EVENTS ========== */\n\n    event ProposalCreated(uint256 indexed proposalId, uint256 votes);\n    event ProposalVoted(uint256 indexed proposalId, uint256 votes);\n    event ProposalWithdrawn(uint256 votes);\n    event ProposalClaimed(uint256 rewards);\n    event ProposalBurned(uint256 votes);\n    event FigureCreated(uint256 indexed figureId, uint256 votes);\n    event FigureVoted(uint256 indexed figureId, uint256 votes);\n    event FigureWithdrawn(uint256 votes);\n    event FigureClaimed(uint256 rewards);\n}",
  "sourcePath": "/Users/edwin/github/gallery.finance/gallery.finance.smart/contracts/Gallery.sol",
  "compiler": {
    "name": "solc",
    "version": "0.6.6+commit.6c089d02.Emscripten.clang"
  },
  "schemaVersion": "3.3.0",
  "updatedAt": "2020-10-22T06:17:31.405Z",
  "networkType": "ethereum",
  "devdoc": {
    "methods": {
      "owner()": {
        "details": "Returns the address of the current owner."
      },
      "paused()": {
        "details": "Returns true if the contract is paused, and false otherwise."
      },
      "renounceOwnership()": {
        "details": "Leaves the contract without owner. It will not be possible to call `onlyOwner` functions anymore. Can only be called by the current owner.     * NOTE: Renouncing ownership will leave the contract without an owner, thereby removing any functionality that is only available to the owner."
      },
      "transferOwnership(address)": {
        "details": "Transfers ownership of the contract to a new account (`newOwner`). Can only be called by the current owner."
      }
    }
  },
  "userdoc": {
    "methods": {}
  }
}