{
  "contractName": "Gallery",
  "abi": [
    {
      "anonymous": false,
      "inputs": [
        {
          "indexed": false,
          "internalType": "uint256",
          "name": "rewards",
          "type": "uint256"
        }
      ],
      "name": "FigureClaimed",
      "type": "event"
    },
    {
      "anonymous": false,
      "inputs": [
        {
          "indexed": true,
          "internalType": "uint256",
          "name": "figureId",
          "type": "uint256"
        },
        {
          "indexed": false,
          "internalType": "uint256",
          "name": "votes",
          "type": "uint256"
        }
      ],
      "name": "FigureCreated",
      "type": "event"
    },
    {
      "anonymous": false,
      "inputs": [
        {
          "indexed": true,
          "internalType": "uint256",
          "name": "figureId",
          "type": "uint256"
        },
        {
          "indexed": false,
          "internalType": "uint256",
          "name": "votes",
          "type": "uint256"
        }
      ],
      "name": "FigureVoted",
      "type": "event"
    },
    {
      "anonymous": false,
      "inputs": [
        {
          "indexed": false,
          "internalType": "uint256",
          "name": "votes",
          "type": "uint256"
        }
      ],
      "name": "FigureWithdrawn",
      "type": "event"
    },
    {
      "anonymous": false,
      "inputs": [
        {
          "indexed": true,
          "internalType": "address",
          "name": "previousOwner",
          "type": "address"
        },
        {
          "indexed": true,
          "internalType": "address",
          "name": "newOwner",
          "type": "address"
        }
      ],
      "name": "OwnershipTransferred",
      "type": "event"
    },
    {
      "anonymous": false,
      "inputs": [
        {
          "indexed": false,
          "internalType": "address",
          "name": "account",
          "type": "address"
        }
      ],
      "name": "Paused",
      "type": "event"
    },
    {
      "anonymous": false,
      "inputs": [
        {
          "indexed": false,
          "internalType": "uint256",
          "name": "votes",
          "type": "uint256"
        }
      ],
      "name": "ProposalBurned",
      "type": "event"
    },
    {
      "anonymous": false,
      "inputs": [
        {
          "indexed": false,
          "internalType": "uint256",
          "name": "rewards",
          "type": "uint256"
        }
      ],
      "name": "ProposalClaimed",
      "type": "event"
    },
    {
      "anonymous": false,
      "inputs": [
        {
          "indexed": true,
          "internalType": "uint256",
          "name": "proposalId",
          "type": "uint256"
        },
        {
          "indexed": false,
          "internalType": "uint256",
          "name": "votes",
          "type": "uint256"
        }
      ],
      "name": "ProposalCreated",
      "type": "event"
    },
    {
      "anonymous": false,
      "inputs": [
        {
          "indexed": true,
          "internalType": "uint256",
          "name": "proposalId",
          "type": "uint256"
        },
        {
          "indexed": false,
          "internalType": "uint256",
          "name": "votes",
          "type": "uint256"
        }
      ],
      "name": "ProposalVoted",
      "type": "event"
    },
    {
      "anonymous": false,
      "inputs": [
        {
          "indexed": false,
          "internalType": "uint256",
          "name": "votes",
          "type": "uint256"
        }
      ],
      "name": "ProposalWithdrawn",
      "type": "event"
    },
    {
      "anonymous": false,
      "inputs": [
        {
          "indexed": false,
          "internalType": "address",
          "name": "account",
          "type": "address"
        }
      ],
      "name": "Unpaused",
      "type": "event"
    },
    {
      "inputs": [
        {
          "internalType": "uint256",
          "name": "",
          "type": "uint256"
        }
      ],
      "name": "figureVotes",
      "outputs": [
        {
          "internalType": "uint256",
          "name": "",
          "type": "uint256"
        }
      ],
      "stateMutability": "view",
      "type": "function"
    },
    {
      "inputs": [
        {
          "internalType": "uint256",
          "name": "",
          "type": "uint256"
        }
      ],
      "name": "figures",
      "outputs": [
        {
          "internalType": "uint256",
          "name": "proposalId",
          "type": "uint256"
        },
        {
          "internalType": "address",
          "name": "author",
          "type": "address"
        },
        {
          "internalType": "string",
          "name": "info",
          "type": "string"
        }
      ],
      "stateMutability": "view",
      "type": "function"
    },
    {
      "inputs": [
        {
          "internalType": "uint256",
          "name": "",
          "type": "uint256"
        },
        {
          "internalType": "uint256",
          "name": "",
          "type": "uint256"
        }
      ],
      "name": "figuresOfProposal",
      "outputs": [
        {
          "internalType": "uint256",
          "name": "",
          "type": "uint256"
        }
      ],
      "stateMutability": "view",
      "type": "function"
    },
    {
      "inputs": [
        {
          "internalType": "address",
          "name": "",
          "type": "address"
        }
      ],
      "name": "myFigureClaimed",
      "outputs": [
        {
          "internalType": "bool",
          "name": "",
          "type": "bool"
        }
      ],
      "stateMutability": "view",
      "type": "function"
    },
    {
      "inputs": [
        {
          "internalType": "address",
          "name": "",
          "type": "address"
        }
      ],
      "name": "myFigureUpdateAt",
      "outputs": [
        {
          "internalType": "uint256",
          "name": "",
          "type": "uint256"
        }
      ],
      "stateMutability": "view",
      "type": "function"
    },
    {
      "inputs": [
        {
          "internalType": "address",
          "name": "",
          "type": "address"
        }
      ],
      "name": "myFigureVotes",
      "outputs": [
        {
          "internalType": "uint256",
          "name": "",
          "type": "uint256"
        }
      ],
      "stateMutability": "view",
      "type": "function"
    },
    {
      "inputs": [
        {
          "internalType": "address",
          "name": "",
          "type": "address"
        }
      ],
      "name": "myFigureWithdrawn",
      "outputs": [
        {
          "internalType": "bool",
          "name": "",
          "type": "bool"
        }
      ],
      "stateMutability": "view",
      "type": "function"
    },
    {
      "inputs": [
        {
          "internalType": "address",
          "name": "",
          "type": "address"
        },
        {
          "internalType": "uint256",
          "name": "",
          "type": "uint256"
        }
      ],
      "name": "myFigures",
      "outputs": [
        {
          "internalType": "uint256",
          "name": "",
          "type": "uint256"
        }
      ],
      "stateMutability": "view",
      "type": "function"
    },
    {
      "inputs": [
        {
          "internalType": "address",
          "name": "",
          "type": "address"
        }
      ],
      "name": "myProposalClaimed",
      "outputs": [
        {
          "internalType": "bool",
          "name": "",
          "type": "bool"
        }
      ],
      "stateMutability": "view",
      "type": "function"
    },
    {
      "inputs": [
        {
          "internalType": "address",
          "name": "",
          "type": "address"
        }
      ],
      "name": "myProposalUpdateAt",
      "outputs": [
        {
          "internalType": "uint256",
          "name": "",
          "type": "uint256"
        }
      ],
      "stateMutability": "view",
      "type": "function"
    },
    {
      "inputs": [
        {
          "internalType": "address",
          "name": "",
          "type": "address"
        }
      ],
      "name": "myProposalVotes",
      "outputs": [
        {
          "internalType": "uint256",
          "name": "",
          "type": "uint256"
        }
      ],
      "stateMutability": "view",
      "type": "function"
    },
    {
      "inputs": [
        {
          "internalType": "address",
          "name": "",
          "type": "address"
        }
      ],
      "name": "myProposalWithdrawn",
      "outputs": [
        {
          "internalType": "bool",
          "name": "",
          "type": "bool"
        }
      ],
      "stateMutability": "view",
      "type": "function"
    },
    {
      "inputs": [
        {
          "internalType": "address",
          "name": "",
          "type": "address"
        },
        {
          "internalType": "uint256",
          "name": "",
          "type": "uint256"
        }
      ],
      "name": "myProposals",
      "outputs": [
        {
          "internalType": "uint256",
          "name": "",
          "type": "uint256"
        }
      ],
      "stateMutability": "view",
      "type": "function"
    },
    {
      "inputs": [
        {
          "internalType": "address",
          "name": "",
          "type": "address"
        },
        {
          "internalType": "uint256",
          "name": "",
          "type": "uint256"
        }
      ],
      "name": "mySingleFigureVotes",
      "outputs": [
        {
          "internalType": "uint256",
          "name": "",
          "type": "uint256"
        }
      ],
      "stateMutability": "view",
      "type": "function"
    },
    {
      "inputs": [
        {
          "internalType": "address",
          "name": "",
          "type": "address"
        },
        {
          "internalType": "uint256",
          "name": "",
          "type": "uint256"
        }
      ],
      "name": "mySingleProposalVotes",
      "outputs": [
        {
          "internalType": "uint256",
          "name": "",
          "type": "uint256"
        }
      ],
      "stateMutability": "view",
      "type": "function"
    },
    {
      "inputs": [],
      "name": "owner",
      "outputs": [
        {
          "internalType": "address",
          "name": "",
          "type": "address"
        }
      ],
      "stateMutability": "view",
      "type": "function"
    },
    {
      "inputs": [],
      "name": "paused",
      "outputs": [
        {
          "internalType": "bool",
          "name": "",
          "type": "bool"
        }
      ],
      "stateMutability": "view",
      "type": "function"
    },
    {
      "inputs": [
        {
          "internalType": "uint256",
          "name": "",
          "type": "uint256"
        }
      ],
      "name": "proposalVotes",
      "outputs": [
        {
          "internalType": "uint256",
          "name": "",
          "type": "uint256"
        }
      ],
      "stateMutability": "view",
      "type": "function"
    },
    {
      "inputs": [
        {
          "internalType": "uint256",
          "name": "",
          "type": "uint256"
        }
      ],
      "name": "proposals",
      "outputs": [
        {
          "internalType": "address",
          "name": "proposer",
          "type": "address"
        },
        {
          "internalType": "string",
          "name": "name",
          "type": "string"
        },
        {
          "internalType": "string",
          "name": "info",
          "type": "string"
        }
      ],
      "stateMutability": "view",
      "type": "function"
    },
    {
      "inputs": [],
      "name": "renounceOwnership",
      "outputs": [],
      "stateMutability": "nonpayable",
      "type": "function"
    },
    {
      "inputs": [],
      "name": "rewardsToken",
      "outputs": [
        {
          "internalType": "address",
          "name": "",
          "type": "address"
        }
      ],
      "stateMutability": "view",
      "type": "function"
    },
    {
      "inputs": [],
      "name": "stakingToken",
      "outputs": [
        {
          "internalType": "address",
          "name": "",
          "type": "address"
        }
      ],
      "stateMutability": "view",
      "type": "function"
    },
    {
      "inputs": [],
      "name": "startAt",
      "outputs": [
        {
          "internalType": "uint256",
          "name": "",
          "type": "uint256"
        }
      ],
      "stateMutability": "view",
      "type": "function"
    },
    {
      "inputs": [],
      "name": "totalFigureVotes",
      "outputs": [
        {
          "internalType": "uint256",
          "name": "",
          "type": "uint256"
        }
      ],
      "stateMutability": "view",
      "type": "function"
    },
    {
      "inputs": [],
      "name": "totalProposalVotes",
      "outputs": [
        {
          "internalType": "uint256",
          "name": "",
          "type": "uint256"
        }
      ],
      "stateMutability": "view",
      "type": "function"
    },
    {
      "inputs": [
        {
          "internalType": "address",
          "name": "newOwner",
          "type": "address"
        }
      ],
      "name": "transferOwnership",
      "outputs": [],
      "stateMutability": "nonpayable",
      "type": "function"
    },
    {
      "inputs": [
        {
          "internalType": "address",
          "name": "_rewardsToken",
          "type": "address"
        },
        {
          "internalType": "address",
          "name": "_stakingToken",
          "type": "address"
        }
      ],
      "name": "initialize",
      "outputs": [],
      "stateMutability": "nonpayable",
      "type": "function"
    },
    {
      "inputs": [],
      "name": "dayAt",
      "outputs": [
        {
          "internalType": "uint256",
          "name": "",
          "type": "uint256"
        }
      ],
      "stateMutability": "view",
      "type": "function"
    },
    {
      "inputs": [
        {
          "internalType": "address",
          "name": "target",
          "type": "address"
        }
      ],
      "name": "myProposalCount",
      "outputs": [
        {
          "internalType": "uint256",
          "name": "",
          "type": "uint256"
        }
      ],
      "stateMutability": "view",
      "type": "function"
    },
    {
      "inputs": [
        {
          "internalType": "address",
          "name": "target",
          "type": "address"
        }
      ],
      "name": "myFigureCount",
      "outputs": [
        {
          "internalType": "uint256",
          "name": "",
          "type": "uint256"
        }
      ],
      "stateMutability": "view",
      "type": "function"
    },
    {
      "inputs": [
        {
          "internalType": "uint256",
          "name": "proposalId",
          "type": "uint256"
        }
      ],
      "name": "figuresOfProposalCount",
      "outputs": [
        {
          "internalType": "uint256",
          "name": "",
          "type": "uint256"
        }
      ],
      "stateMutability": "view",
      "type": "function"
    },
    {
      "inputs": [
        {
          "internalType": "string",
          "name": "name",
          "type": "string"
        },
        {
          "internalType": "string",
          "name": "info",
          "type": "string"
        }
      ],
      "name": "createProposal",
      "outputs": [],
      "stateMutability": "nonpayable",
      "type": "function"
    },
    {
      "inputs": [
        {
          "internalType": "uint256",
          "name": "proposalId",
          "type": "uint256"
        },
        {
          "internalType": "uint256",
          "name": "votes",
          "type": "uint256"
        }
      ],
      "name": "voteForProposal",
      "outputs": [],
      "stateMutability": "nonpayable",
      "type": "function"
    },
    {
      "inputs": [],
      "name": "withdrawFromProposal",
      "outputs": [],
      "stateMutability": "nonpayable",
      "type": "function"
    },
    {
      "inputs": [],
      "name": "claimFromProposal",
      "outputs": [],
      "stateMutability": "nonpayable",
      "type": "function"
    },
    {
      "inputs": [],
      "name": "burnFromProposal",
      "outputs": [],
      "stateMutability": "nonpayable",
      "type": "function"
    },
    {
      "inputs": [
        {
          "internalType": "uint256",
          "name": "proposalId",
          "type": "uint256"
        },
        {
          "internalType": "string",
          "name": "info",
          "type": "string"
        }
      ],
      "name": "createFigure",
      "outputs": [],
      "stateMutability": "nonpayable",
      "type": "function"
    },
    {
      "inputs": [
        {
          "internalType": "uint256",
          "name": "figureId",
          "type": "uint256"
        },
        {
          "internalType": "uint256",
          "name": "votes",
          "type": "uint256"
        }
      ],
      "name": "voteForFigure",
      "outputs": [],
      "stateMutability": "nonpayable",
      "type": "function"
    },
    {
      "inputs": [],
      "name": "withdrawFromFigure",
      "outputs": [],
      "stateMutability": "nonpayable",
      "type": "function"
    },
    {
      "inputs": [],
      "name": "claimFromFigure",
      "outputs": [],
      "stateMutability": "nonpayable",
      "type": "function"
    },
    {
      "inputs": [],
      "name": "pause",
      "outputs": [],
      "stateMutability": "nonpayable",
      "type": "function"
    },
    {
      "inputs": [],
      "name": "unpause",
      "outputs": [],
      "stateMutability": "nonpayable",
      "type": "function"
    }
  ],
  "bytecode": "0x608060405234801561001057600080fd5b5061517a806100206000396000f3fe608060405234801561001057600080fd5b506004361061025e5760003560e01c80638cf693e211610146578063bee9ce39116100c3578063e15f6dab11610087578063e15f6dab14610cef578063e50bbc5d14610d47578063e6b581ea14610d9f578063f2fde38b14610e01578063f8f1212a14610e45578063fa5dde4d14610e7d5761025e565b8063bee9ce3914610be5578063c744656514610c03578063c7ab0e4f14610c21578063d1af0c7d14610c59578063d706e52214610ca35761025e565b8063a34118c21161010a578063a34118c214610a3f578063adaebd6714610a97578063afb9657714610aef578063b937173d14610b47578063bcbdc85b14610ba35761025e565b80638cf693e2146107f35780638da5cb5b146108765780638f5878c6146108c05780639782a9f3146109025780639e7bcbea146109e35761025e565b80635c975abb116101df5780636b7118b7116101a35780636b7118b71461070b578063707b556414610715578063715018a614610777578063718ad52b1461078157806372f702f31461079f5780638456cb59146107e95761025e565b80635c975abb146105915780635ddd4ce3146105b3578063613dd9c2146105bd57806365799635146105db57806365e481e21461063d5761025e565b80633f4ba83a116102265780633f4ba83a14610423578063485cc9551461042d57806348985deb14610491578063544ffc9c146104f35780635a73abc5146105355761025e565b8063013cf08b146102635780631e060de9146103a957806333f2439d146103b357806338fe6a08146103bd5780633d1b40e214610419575b600080fd5b61028f6004803603602081101561027957600080fd5b8101908080359060200190929190505050610ed5565b604051808473ffffffffffffffffffffffffffffffffffffffff1673ffffffffffffffffffffffffffffffffffffffff1681526020018060200180602001838103835285818151815260200191508051906020019080838360005b838110156103055780820151818401526020810190506102ea565b50505050905090810190601f1680156103325780820380516001836020036101000a031916815260200191505b50838103825284818151815260200191508051906020019080838360005b8381101561036b578082015181840152602081019050610350565b50505050905090810190601f1680156103985780820380516001836020036101000a031916815260200191505b509550505050505060405180910390f35b6103b161105c565b005b6103bb6113dd565b005b6103ff600480360360208110156103d357600080fd5b81019080803573ffffffffffffffffffffffffffffffffffffffff169060200190929190505050611760565b604051808215151515815260200191505060405180910390f35b610421611780565b005b61042b611a71565b005b61048f6004803603604081101561044357600080fd5b81019080803573ffffffffffffffffffffffffffffffffffffffff169060200190929190803573ffffffffffffffffffffffffffffffffffffffff169060200190929190505050611a7b565b005b6104dd600480360360408110156104a757600080fd5b81019080803573ffffffffffffffffffffffffffffffffffffffff16906020019092919080359060200190929190505050611ee6565b6040518082815260200191505060405180910390f35b61051f6004803603602081101561050957600080fd5b8101908080359060200190929190505050611f14565b6040518082815260200191505060405180910390f35b6105776004803603602081101561054b57600080fd5b81019080803573ffffffffffffffffffffffffffffffffffffffff169060200190929190505050611f2c565b604051808215151515815260200191505060405180910390f35b610599611f4c565b604051808215151515815260200191505060405180910390f35b6105bb611f63565b005b6105c5612251565b6040518082815260200191505060405180910390f35b610627600480360360408110156105f157600080fd5b81019080803573ffffffffffffffffffffffffffffffffffffffff16906020019092919080359060200190929190505050612282565b6040518082815260200191505060405180910390f35b6107096004803603604081101561065357600080fd5b810190808035906020019064010000000081111561067057600080fd5b82018360208201111561068257600080fd5b803590602001918460018302840111640100000000831117156106a457600080fd5b9091929391929390803590602001906401000000008111156106c557600080fd5b8201836020820111156106d757600080fd5b803590602001918460018302840111640100000000831117156106f957600080fd5b90919293919293905050506122a7565b005b61071361268a565b005b6107616004803603604081101561072b57600080fd5b81019080803573ffffffffffffffffffffffffffffffffffffffff16906020019092919080359060200190929190505050612a0e565b6040518082815260200191505060405180910390f35b61077f612a33565b005b610789612bb7565b6040518082815260200191505060405180910390f35b6107a7612bbd565b604051808273ffffffffffffffffffffffffffffffffffffffff1673ffffffffffffffffffffffffffffffffffffffff16815260200191505060405180910390f35b6107f1612be3565b005b6108746004803603604081101561080957600080fd5b81019080803590602001909291908035906020019064010000000081111561083057600080fd5b82018360208201111561084257600080fd5b8035906020019184600183028401116401000000008311171561086457600080fd5b9091929391929390505050612bed565b005b61087e612fb5565b604051808273ffffffffffffffffffffffffffffffffffffffff1673ffffffffffffffffffffffffffffffffffffffff16815260200191505060405180910390f35b6108ec600480360360208110156108d657600080fd5b8101908080359060200190929190505050612fdf565b6040518082815260200191505060405180910390f35b61092e6004803603602081101561091857600080fd5b8101908080359060200190929190505050612fff565b604051808481526020018373ffffffffffffffffffffffffffffffffffffffff1673ffffffffffffffffffffffffffffffffffffffff16815260200180602001828103825283818151815260200191508051906020019080838360005b838110156109a657808201518184015260208101905061098b565b50505050905090810190601f1680156109d35780820380516001836020036101000a031916815260200191505b5094505050505060405180910390f35b610a25600480360360208110156109f957600080fd5b81019080803573ffffffffffffffffffffffffffffffffffffffff1690602001909291905050506130ee565b604051808215151515815260200191505060405180910390f35b610a8160048036036020811015610a5557600080fd5b81019080803573ffffffffffffffffffffffffffffffffffffffff16906020019092919050505061310e565b6040518082815260200191505060405180910390f35b610ad960048036036020811015610aad57600080fd5b81019080803573ffffffffffffffffffffffffffffffffffffffff169060200190929190505050613126565b6040518082815260200191505060405180910390f35b610b3160048036036020811015610b0557600080fd5b81019080803573ffffffffffffffffffffffffffffffffffffffff169060200190929190505050613172565b6040518082815260200191505060405180910390f35b610b8960048036036020811015610b5d57600080fd5b81019080803573ffffffffffffffffffffffffffffffffffffffff1690602001909291905050506131be565b604051808215151515815260200191505060405180910390f35b610bcf60048036036020811015610bb957600080fd5b81019080803590602001909291905050506131de565b6040518082815260200191505060405180910390f35b610bed6131f6565b6040518082815260200191505060405180910390f35b610c0b6131fc565b6040518082815260200191505060405180910390f35b610c5760048036036040811015610c3757600080fd5b810190808035906020019092919080359060200190929190505050613202565b005b610c6161343b565b604051808273ffffffffffffffffffffffffffffffffffffffff1673ffffffffffffffffffffffffffffffffffffffff16815260200191505060405180910390f35b610cd960048036036040811015610cb957600080fd5b810190808035906020019092919080359060200190929190505050613461565b6040518082815260200191505060405180910390f35b610d3160048036036020811015610d0557600080fd5b81019080803573ffffffffffffffffffffffffffffffffffffffff16906020019092919050505061348f565b6040518082815260200191505060405180910390f35b610d8960048036036020811015610d5d57600080fd5b81019080803573ffffffffffffffffffffffffffffffffffffffff1690602001909291905050506134a7565b6040518082815260200191505060405180910390f35b610deb60048036036040811015610db557600080fd5b81019080803573ffffffffffffffffffffffffffffffffffffffff169060200190929190803590602001909291905050506134bf565b6040518082815260200191505060405180910390f35b610e4360048036036020811015610e1757600080fd5b81019080803573ffffffffffffffffffffffffffffffffffffffff1690602001909291905050506134ed565b005b610e7b60048036036040811015610e5b57600080fd5b8101908080359060200190929190803590602001909291905050506136f6565b005b610ebf60048036036020811015610e9357600080fd5b81019080803573ffffffffffffffffffffffffffffffffffffffff1690602001909291905050506138b2565b6040518082815260200191505060405180910390f35b609a8181548110610ee257fe5b90600052602060002090600302016000915090508060000160009054906101000a900473ffffffffffffffffffffffffffffffffffffffff1690806001018054600181600116156101000203166002900480601f016020809104026020016040519081016040528092919081815260200182805460018160011615610100020316600290048015610fb45780601f10610f8957610100808354040283529160200191610fb4565b820191906000526020600020905b815481529060010190602001808311610f9757829003601f168201915b505050505090806002018054600181600116156101000203166002900480601f0160208091040260200160405190810160405280929190818152602001828054600181600116156101000203166002900480156110525780601f1061102757610100808354040283529160200191611052565b820191906000526020600020905b81548152906001019060200180831161103557829003601f168201915b5050505050905083565b603360009054906101000a900460ff16156110df576040517f08c379a00000000000000000000000000000000000000000000000000000000081526004018080602001828103825260108152602001807f5061757361626c653a207061757365640000000000000000000000000000000081525060200191505060405180910390fd5b60046110e9612251565b101561115d576040517f08c379a000000000000000000000000000000000000000000000000000000000815260040180806020018281038252600b8152602001807f4e6f74206578706972656400000000000000000000000000000000000000000081525060200191505060405180910390fd5b620546006111b360a160003373ffffffffffffffffffffffffffffffffffffffff1673ffffffffffffffffffffffffffffffffffffffff16815260200190815260200160002054426138ca90919063ffffffff16565b1115611227576040517f08c379a000000000000000000000000000000000000000000000000000000000815260040180806020018281038252601a8152602001807f43616e6e6f7420636c61696d2077697468696e2034206461797300000000000081525060200191505060405180910390fd5b60a360003373ffffffffffffffffffffffffffffffffffffffff1673ffffffffffffffffffffffffffffffffffffffff16815260200190815260200160002060009054906101000a900460ff16156112e7576040517f08c379a00000000000000000000000000000000000000000000000000000000081526004018080602001828103825260188152602001807f596f75206861766520616c726561647920636c61696d6564000000000000000081525060200191505060405180910390fd5b600160a360003373ffffffffffffffffffffffffffffffffffffffff1673ffffffffffffffffffffffffffffffffffffffff16815260200190815260200160002060006101000a81548160ff021916908315150217905550600061134a33613914565b905060008111156113a3576113a23382609860009054906101000a900473ffffffffffffffffffffffffffffffffffffffff1673ffffffffffffffffffffffffffffffffffffffff16613a619092919063ffffffff16565b5b7f88c49fd38b1dd9e73c466c856574ecae503baba7e7e2ddbaae8092395d63757a816040518082815260200191505060405180910390a150565b603360009054906101000a900460ff1615611460576040517f08c379a00000000000000000000000000000000000000000000000000000000081526004018080602001828103825260108152602001807f5061757361626c653a207061757365640000000000000000000000000000000081525060200191505060405180910390fd5b3373ffffffffffffffffffffffffffffffffffffffff16606560009054906101000a900473ffffffffffffffffffffffffffffffffffffffff1673ffffffffffffffffffffffffffffffffffffffff1614611523576040517f08c379a00000000000000000000000000000000000000000000000000000000081526004018080602001828103825260208152602001807f4f776e61626c653a2063616c6c6572206973206e6f7420746865206f776e657281525060200191505060405180910390fd5b600461152d612251565b10156115a1576040517f08c379a000000000000000000000000000000000000000000000000000000000815260040180806020018281038252600b8152602001807f4e6f74206578706972656400000000000000000000000000000000000000000081525060200191505060405180910390fd5b609c60009054906101000a900460ff1615611624576040517f08c379a00000000000000000000000000000000000000000000000000000000081526004018080602001828103825260208152602001807f50726f706f73616c207265776172647320686173206265656e206275726e656481525060200191505060405180910390fd5b6001609c60006101000a81548160ff021916908315150217905550600080905060008090505b600a8110156116a8577fffffffffffffffffffffffffffffffffffffffffffffffffffffffffffffffff609b828154811061168157fe5b9060005260206000200154141561169b5781806001019250505b808060010191505061164a565b5060008090506000821115611725576116d3826815af1d78b58c400000613b1990919063ffffffff16565b905061172461dead82609760009054906101000a900473ffffffffffffffffffffffffffffffffffffffff1673ffffffffffffffffffffffffffffffffffffffff16613a619092919063ffffffff16565b5b7f7a69f9dd77f85db837c84bf7475d3ee2cde3b5a16129d5158f8f2f3a4e839692816040518082815260200191505060405180910390a15050565b60a36020528060005260406000206000915054906101000a900460ff1681565b603360009054906101000a900460ff1615611803576040517f08c379a00000000000000000000000000000000000000000000000000000000081526004018080602001828103825260108152602001807f5061757361626c653a207061757365640000000000000000000000000000000081525060200191505060405180910390fd5b6007600401611810612251565b1015611884576040517f08c379a000000000000000000000000000000000000000000000000000000000815260040180806020018281038252600b8152602001807f4e6f74206578706972656400000000000000000000000000000000000000000081525060200191505060405180910390fd5b60b060003373ffffffffffffffffffffffffffffffffffffffff1673ffffffffffffffffffffffffffffffffffffffff16815260200190815260200160002060009054906101000a900460ff1615611944576040517f08c379a000000000000000000000000000000000000000000000000000000000815260040180806020018281038252601a8152602001807f596f75206861766520616c72656164792077697468647261776e00000000000081525060200191505060405180910390fd5b600160b060003373ffffffffffffffffffffffffffffffffffffffff1673ffffffffffffffffffffffffffffffffffffffff16815260200190815260200160002060006101000a81548160ff021916908315150217905550600060ae60003373ffffffffffffffffffffffffffffffffffffffff1673ffffffffffffffffffffffffffffffffffffffff1681526020019081526020016000205490506000811115611a3757611a363382609860009054906101000a900473ffffffffffffffffffffffffffffffffffffffff1673ffffffffffffffffffffffffffffffffffffffff16613a619092919063ffffffff16565b5b7f06ef32dc663fb4a00c12e47b86feeca2dbfbd76d64254d976702c22ed0a18e00816040518082815260200191505060405180910390a150565b611a79613b9f565b565b600060019054906101000a900460ff1680611a9a5750611a99613ca1565b5b80611ab157506000809054906101000a900460ff16155b611b06576040517f08c379a000000000000000000000000000000000000000000000000000000000815260040180806020018281038252602e8152602001806150ed602e913960400191505060405180910390fd5b60008060019054906101000a900460ff161590508015611b56576001600060016101000a81548160ff02191690831515021790555060016000806101000a81548160ff0219169083151502179055505b611b5e613cb8565b611b66613cc2565b82609760006101000a81548173ffffffffffffffffffffffffffffffffffffffff021916908373ffffffffffffffffffffffffffffffffffffffff16021790555081609860006101000a81548173ffffffffffffffffffffffffffffffffffffffff021916908373ffffffffffffffffffffffffffffffffffffffff1602179055506040518060600160405280681b1ae4d6e2ef50000068ffffffffffffffffff168152602001681043561a882930000068ffffffffffffffffff168152602001680ad78ebc5ac620000068ffffffffffffffffff1681525060a7906003611c4f929190614eb8565b506040518061014001604052807fffffffffffffffffffffffffffffffffffffffffffffffffffffffffffffffff81526020017fffffffffffffffffffffffffffffffffffffffffffffffffffffffffffffffff81526020017fffffffffffffffffffffffffffffffffffffffffffffffffffffffffffffffff81526020017fffffffffffffffffffffffffffffffffffffffffffffffffffffffffffffffff81526020017fffffffffffffffffffffffffffffffffffffffffffffffffffffffffffffffff81526020017fffffffffffffffffffffffffffffffffffffffffffffffffffffffffffffffff81526020017fffffffffffffffffffffffffffffffffffffffffffffffffffffffffffffffff81526020017fffffffffffffffffffffffffffffffffffffffffffffffffffffffffffffffff81526020017fffffffffffffffffffffffffffffffffffffffffffffffffffffffffffffffff81526020017fffffffffffffffffffffffffffffffffffffffffffffffffffffffffffffffff815250609b90600a611de6929190614f05565b5060008090505b600a811015611eb85760a660405180606001604052807fffffffffffffffffffffffffffffffffffffffffffffffffffffffffffffffff81526020017fffffffffffffffffffffffffffffffffffffffffffffffffffffffffffffffff81526020017fffffffffffffffffffffffffffffffffffffffffffffffffffffffffffffffff81525090806001815401808255809150506001900390600052602060002090600a0201600090919091909150906003611eaa929190614f52565b508080600101915050611ded565b50426099819055508015611ee15760008060016101000a81548160ff0219169083151502179055505b505050565b609f6020528160005260406000208181548110611eff57fe5b90600052602060002001600091509150505481565b609e6020528060005260406000206000915090505481565b60b06020528060005260406000206000915054906101000a900460ff1681565b6000603360009054906101000a900460ff16905090565b603360009054906101000a900460ff1615611fe6576040517f08c379a00000000000000000000000000000000000000000000000000000000081526004018080602001828103825260108152602001807f5061757361626c653a207061757365640000000000000000000000000000000081525060200191505060405180910390fd5b6004611ff0612251565b1015612064576040517f08c379a000000000000000000000000000000000000000000000000000000000815260040180806020018281038252600b8152602001807f4e6f74206578706972656400000000000000000000000000000000000000000081525060200191505060405180910390fd5b60a260003373ffffffffffffffffffffffffffffffffffffffff1673ffffffffffffffffffffffffffffffffffffffff16815260200190815260200160002060009054906101000a900460ff1615612124576040517f08c379a000000000000000000000000000000000000000000000000000000000815260040180806020018281038252601a8152602001807f596f75206861766520616c72656164792077697468647261776e00000000000081525060200191505060405180910390fd5b600160a260003373ffffffffffffffffffffffffffffffffffffffff1673ffffffffffffffffffffffffffffffffffffffff16815260200190815260200160002060006101000a81548160ff021916908315150217905550600060a060003373ffffffffffffffffffffffffffffffffffffffff1673ffffffffffffffffffffffffffffffffffffffff1681526020019081526020016000205490506000811115612217576122163382609860009054906101000a900473ffffffffffffffffffffffffffffffffffffffff1673ffffffffffffffffffffffffffffffffffffffff16613a619092919063ffffffff16565b5b7f5ca6c0bba519c857c8713fba9f5f1b582abe00c95dcccedccea41ad683bad26d816040518082815260200191505060405180910390a150565b600061227d6201518061226f609954426138ca90919063ffffffff16565b613ccc90919063ffffffff16565b905090565b60b2602052816000526040600020602052806000526040600020600091509150505481565b603360009054906101000a900460ff161561232a576040517f08c379a00000000000000000000000000000000000000000000000000000000081526004018080602001828103825260108152602001807f5061757361626c653a207061757365640000000000000000000000000000000081525060200191505060405180910390fd5b6004612334612251565b106123a7576040517f08c379a00000000000000000000000000000000000000000000000000000000081526004018080602001828103825260188152602001807f43616e6e6f74207374616b65206f76657220342064617973000000000000000081525060200191505060405180910390fd5b6020848490501115612421576040517f08c379a00000000000000000000000000000000000000000000000000000000081526004018080602001828103825260188152602001807f6e616d652773206c656e67746820697320746f6f20626967000000000000000081525060200191505060405180910390fd5b60c882829050111561249b576040517f08c379a00000000000000000000000000000000000000000000000000000000081526004018080602001828103825260188152602001807f696e666f2773206c656e67746820697320746f6f20626967000000000000000081525060200191505060405180910390fd5b6124a3614f92565b33816000019073ffffffffffffffffffffffffffffffffffffffff16908173ffffffffffffffffffffffffffffffffffffffff168152505084848080601f016020809104026020016040519081016040528093929190818152602001838380828437600081840152601f19601f82011690508083019250505050505050816020018190525082828080601f016020809104026020016040519081016040528093929190818152602001838380828437600081840152601f19601f820116905080830192505050505050508160400181905250609a81908060018154018082558091505060019003906000526020600020906003020160009091909190915060008201518160000160006101000a81548173ffffffffffffffffffffffffffffffffffffffff021916908373ffffffffffffffffffffffffffffffffffffffff1602179055506020820151816001019080519060200190612604929190614fc9565b506040820151816002019080519060200190612621929190614fc9565b50505060006001609a8054905003905060006802b5e3af16b188000090506126498282613d16565b817ffcf3b1aa65a464cef2889608f99e8b8c0f680a4be6c2acb9d961c536a5a9294b826040518082815260200191505060405180910390a250505050505050565b603360009054906101000a900460ff161561270d576040517f08c379a00000000000000000000000000000000000000000000000000000000081526004018080602001828103825260108152602001807f5061757361626c653a207061757365640000000000000000000000000000000081525060200191505060405180910390fd5b600760040161271a612251565b101561278e576040517f08c379a000000000000000000000000000000000000000000000000000000000815260040180806020018281038252600b8152602001807f4e6f74206578706972656400000000000000000000000000000000000000000081525060200191505060405180910390fd5b62093a806127e460af60003373ffffffffffffffffffffffffffffffffffffffff1673ffffffffffffffffffffffffffffffffffffffff16815260200190815260200160002054426138ca90919063ffffffff16565b1115612858576040517f08c379a000000000000000000000000000000000000000000000000000000000815260040180806020018281038252601a8152602001807f43616e6e6f7420636c61696d2077697468696e2037206461797300000000000081525060200191505060405180910390fd5b60b160003373ffffffffffffffffffffffffffffffffffffffff1673ffffffffffffffffffffffffffffffffffffffff16815260200190815260200160002060009054906101000a900460ff1615612918576040517f08c379a00000000000000000000000000000000000000000000000000000000081526004018080602001828103825260188152602001807f596f75206861766520616c726561647920636c61696d6564000000000000000081525060200191505060405180910390fd5b600160b160003373ffffffffffffffffffffffffffffffffffffffff1673ffffffffffffffffffffffffffffffffffffffff16815260200190815260200160002060006101000a81548160ff021916908315150217905550600061297b33614143565b905060008111156129d4576129d33382609860009054906101000a900473ffffffffffffffffffffffffffffffffffffffff1673ffffffffffffffffffffffffffffffffffffffff16613a619092919063ffffffff16565b5b7fd9c11d32472a7625893f113b5a14fc082c25003ce3cdeca0f5f1be39f9918bd6816040518082815260200191505060405180910390a150565b60a4602052816000526040600020602052806000526040600020600091509150505481565b3373ffffffffffffffffffffffffffffffffffffffff16606560009054906101000a900473ffffffffffffffffffffffffffffffffffffffff1673ffffffffffffffffffffffffffffffffffffffff1614612af6576040517f08c379a00000000000000000000000000000000000000000000000000000000081526004018080602001828103825260208152602001807f4f776e61626c653a2063616c6c6572206973206e6f7420746865206f776e657281525060200191505060405180910390fd5b600073ffffffffffffffffffffffffffffffffffffffff16606560009054906101000a900473ffffffffffffffffffffffffffffffffffffffff1673ffffffffffffffffffffffffffffffffffffffff167f8be0079c531659141344cd1fd0a4f28419497f9722a3daafe3b4186f6b6457e060405160405180910390a36000606560006101000a81548173ffffffffffffffffffffffffffffffffffffffff021916908373ffffffffffffffffffffffffffffffffffffffff160217905550565b609d5481565b609860009054906101000a900473ffffffffffffffffffffffffffffffffffffffff1681565b612beb6142a8565b565b603360009054906101000a900460ff1615612c70576040517f08c379a00000000000000000000000000000000000000000000000000000000081526004018080602001828103825260108152602001807f5061757361626c653a207061757365640000000000000000000000000000000081525060200191505060405180910390fd5b6007600401612c7d612251565b10612cf0576040517f08c379a00000000000000000000000000000000000000000000000000000000081526004018080602001828103825260188152602001807f43616e6e6f74207374616b65206f76657220342064617973000000000000000081525060200191505060405180910390fd5b609a805490508310612d6a576040517f08c379a00000000000000000000000000000000000000000000000000000000081526004018080602001828103825260138152602001807f496e76616c69642070726f706f73616c2069640000000000000000000000000081525060200191505060405180910390fd5b60c8828290501115612de4576040517f08c379a00000000000000000000000000000000000000000000000000000000081526004018080602001828103825260188152602001807f696e666f2773206c656e67746820697320746f6f20626967000000000000000081525060200191505060405180910390fd5b612dec615049565b8381600001818152505033816020019073ffffffffffffffffffffffffffffffffffffffff16908173ffffffffffffffffffffffffffffffffffffffff168152505082828080601f016020809104026020016040519081016040528093929190818152602001838380828437600081840152601f19601f82011690508083019250505050505050816040018190525060a58190806001815401808255809150506001900390600052602060002090600302016000909190919091506000820151816000015560208201518160010160006101000a81548173ffffffffffffffffffffffffffffffffffffffff021916908373ffffffffffffffffffffffffffffffffffffffff1602179055506040820151816002019080519060200190612f14929190614fc9565b5050506000600160a5805490500390506000678ac7230489e800009050612f3b82826143ab565b60aa6000878152602001908152602001600020829080600181540180825580915050600190039060005260206000200160009091909190915055817fc9dac9ec8848deeb7b6d2050e5452032dffa3d7a8e8b98ef154a34a64ccff707826040518082815260200191505060405180910390a2505050505050565b6000606560009054906101000a900473ffffffffffffffffffffffffffffffffffffffff16905090565b600060aa6000838152602001908152602001600020805490509050919050565b60a5818154811061300c57fe5b90600052602060002090600302016000915090508060000154908060010160009054906101000a900473ffffffffffffffffffffffffffffffffffffffff1690806002018054600181600116156101000203166002900480601f0160208091040260200160405190810160405280929190818152602001828054600181600116156101000203166002900480156130e45780601f106130b9576101008083540402835291602001916130e4565b820191906000526020600020905b8154815290600101906020018083116130c757829003601f168201915b5050505050905083565b60a26020528060005260406000206000915054906101000a900460ff1681565b60af6020528060005260406000206000915090505481565b6000609f60008373ffffffffffffffffffffffffffffffffffffffff1673ffffffffffffffffffffffffffffffffffffffff168152602001908152602001600020805490509050919050565b600060ad60008373ffffffffffffffffffffffffffffffffffffffff1673ffffffffffffffffffffffffffffffffffffffff168152602001908152602001600020805490509050919050565b60b16020528060005260406000206000915054906101000a900460ff1681565b60ac6020528060005260406000206000915090505481565b60ab5481565b60995481565b603360009054906101000a900460ff1615613285576040517f08c379a00000000000000000000000000000000000000000000000000000000081526004018080602001828103825260108152602001807f5061757361626c653a207061757365640000000000000000000000000000000081525060200191505060405180910390fd5b6007600401613292612251565b10613305576040517f08c379a00000000000000000000000000000000000000000000000000000000081526004018080602001828103825260188152602001807f43616e6e6f74207374616b65206f76657220342064617973000000000000000081525060200191505060405180910390fd5b60a580549050821061337f576040517f08c379a00000000000000000000000000000000000000000000000000000000081526004018080602001828103825260118152602001807f496e76616c69642066696775726520696400000000000000000000000000000081525060200191505060405180910390fd5b600081116133f5576040517f08c379a000000000000000000000000000000000000000000000000000000000815260040180806020018281038252601d8152602001807f566f7465732073686f756c64206c6172676572207468656e207a65726f00000081525060200191505060405180910390fd5b6133ff82826143ab565b817fd44ad0027ed2a08aeb8161502fe1eb91c299c11d3ff11138be8cd127cc755c2a826040518082815260200191505060405180910390a25050565b609760009054906101000a900473ffffffffffffffffffffffffffffffffffffffff1681565b60aa602052816000526040600020818154811061347a57fe5b90600052602060002001600091509150505481565b60a06020528060005260406000206000915090505481565b60a16020528060005260406000206000915090505481565b60ad60205281600052604060002081815481106134d857fe5b90600052602060002001600091509150505481565b3373ffffffffffffffffffffffffffffffffffffffff16606560009054906101000a900473ffffffffffffffffffffffffffffffffffffffff1673ffffffffffffffffffffffffffffffffffffffff16146135b0576040517f08c379a00000000000000000000000000000000000000000000000000000000081526004018080602001828103825260208152602001807f4f776e61626c653a2063616c6c6572206973206e6f7420746865206f776e657281525060200191505060405180910390fd5b600073ffffffffffffffffffffffffffffffffffffffff168173ffffffffffffffffffffffffffffffffffffffff161415613636576040517f08c379a00000000000000000000000000000000000000000000000000000000081526004018080602001828103825260268152602001806150a66026913960400191505060405180910390fd5b8073ffffffffffffffffffffffffffffffffffffffff16606560009054906101000a900473ffffffffffffffffffffffffffffffffffffffff1673ffffffffffffffffffffffffffffffffffffffff167f8be0079c531659141344cd1fd0a4f28419497f9722a3daafe3b4186f6b6457e060405160405180910390a380606560006101000a81548173ffffffffffffffffffffffffffffffffffffffff021916908373ffffffffffffffffffffffffffffffffffffffff16021790555050565b603360009054906101000a900460ff1615613779576040517f08c379a00000000000000000000000000000000000000000000000000000000081526004018080602001828103825260108152602001807f5061757361626c653a207061757365640000000000000000000000000000000081525060200191505060405180910390fd5b6004613783612251565b106137f6576040517f08c379a00000000000000000000000000000000000000000000000000000000081526004018080602001828103825260188152602001807f43616e6e6f74207374616b65206f76657220342064617973000000000000000081525060200191505060405180910390fd5b6000811161386c576040517f08c379a000000000000000000000000000000000000000000000000000000000815260040180806020018281038252601d8152602001807f566f7465732073686f756c64206c6172676572207468656e207a65726f00000081525060200191505060405180910390fd5b6138768282613d16565b817fd9269f7270bc5664a2191e6eb8966494c9525a450c09c958895c80de0b2d926d826040518082815260200191505060405180910390a25050565b60ae6020528060005260406000206000915090505481565b600061390c83836040518060400160405280601e81526020017f536166654d6174683a207375627472616374696f6e206f766572666c6f770000815250614866565b905092915050565b6000806000905060008090505b609b80549050811015613a57577fffffffffffffffffffffffffffffffffffffffffffffffffffffffffffffffff609b828154811061395c57fe5b9060005260206000200154141561397257613a57565b6000609b828154811061398157fe5b90600052602060002001549050600060a460008773ffffffffffffffffffffffffffffffffffffffff1673ffffffffffffffffffffffffffffffffffffffff16815260200190815260200160002060008381526020019081526020016000205490506000811115613a48576000609e6000848152602001908152602001600020549050613a44613a3582613a27856815af1d78b58c400000613b1990919063ffffffff16565b613ccc90919063ffffffff16565b8661492690919063ffffffff16565b9450505b50508080600101915050613921565b5080915050919050565b613b148363a9059cbb60e01b8484604051602401808373ffffffffffffffffffffffffffffffffffffffff1673ffffffffffffffffffffffffffffffffffffffff16815260200182815260200192505050604051602081830303815290604052907bffffffffffffffffffffffffffffffffffffffffffffffffffffffff19166020820180517bffffffffffffffffffffffffffffffffffffffffffffffffffffffff83818316178352505050506149ae565b505050565b600080831415613b2c5760009050613b99565b6000828402905082848281613b3d57fe5b0414613b94576040517f08c379a00000000000000000000000000000000000000000000000000000000081526004018080602001828103825260218152602001806150cc6021913960400191505060405180910390fd5b809150505b92915050565b603360009054906101000a900460ff16613c21576040517f08c379a00000000000000000000000000000000000000000000000000000000081526004018080602001828103825260148152602001807f5061757361626c653a206e6f742070617573656400000000000000000000000081525060200191505060405180910390fd5b6000603360006101000a81548160ff0219169083151502179055507f5db9ee0a495bf2e6ff9c91a7834c1ba4fdd244a5e8aa4e537bd38aeae4b073aa33604051808273ffffffffffffffffffffffffffffffffffffffff1673ffffffffffffffffffffffffffffffffffffffff16815260200191505060405180910390a1565b6000803090506000813b9050600081149250505090565b613cc0614bf9565b565b613cca614c16565b565b6000613d0e83836040518060400160405280601a81526020017f536166654d6174683a206469766973696f6e206279207a65726f000000000000815250614cba565b905092915050565b613d65333083609860009054906101000a900473ffffffffffffffffffffffffffffffffffffffff1673ffffffffffffffffffffffffffffffffffffffff16614d80909392919063ffffffff16565b613d7a81609d5461492690919063ffffffff16565b609d81905550613da681609e60008581526020019081526020016000205461492690919063ffffffff16565b609e600084815260200190815260200160002081905550613e0f8160a060003373ffffffffffffffffffffffffffffffffffffffff1673ffffffffffffffffffffffffffffffffffffffff1681526020019081526020016000205461492690919063ffffffff16565b60a060003373ffffffffffffffffffffffffffffffffffffffff1673ffffffffffffffffffffffffffffffffffffffff16815260200190815260200160002081905550600060a460003373ffffffffffffffffffffffffffffffffffffffff1673ffffffffffffffffffffffffffffffffffffffff1681526020019081526020016000206000848152602001908152602001600020541415613f1257609f60003373ffffffffffffffffffffffffffffffffffffffff1673ffffffffffffffffffffffffffffffffffffffff1681526020019081526020016000208290806001815401808255809150506001900390600052602060002001600090919091909150555b613f758160a460003373ffffffffffffffffffffffffffffffffffffffff1673ffffffffffffffffffffffffffffffffffffffff16815260200190815260200160002060008581526020019081526020016000205461492690919063ffffffff16565b60a460003373ffffffffffffffffffffffffffffffffffffffff1673ffffffffffffffffffffffffffffffffffffffff16815260200190815260200160002060008481526020019081526020016000208190555060008090505b609b805490508110156140fa576000609b8281548110613feb57fe5b906000526020600020015490507fffffffffffffffffffffffffffffffffffffffffffffffffffffffffffffffff8114156140425783609b838154811061402e57fe5b9060005260206000200181905550506140fa565b609e600082815260200190815260200160002054609e60008681526020019081526020016000205411156140ec5760008290505b6001609b80549050038110156140c957609b818154811061409357fe5b9060005260206000200154609b60018301815481106140ae57fe5b90600052602060002001819055508080600101915050614076565b5083609b83815481106140d857fe5b9060005260206000200181905550506140fa565b508080600101915050613fcf565b504260a160003373ffffffffffffffffffffffffffffffffffffffff1673ffffffffffffffffffffffffffffffffffffffff168152602001908152602001600020819055505050565b6000806000905060008090505b600a81101561429e5760008090505b600381101561429057600060a6838154811061417757fe5b90600052602060002090600a020182600a811061419057fe5b015490507fffffffffffffffffffffffffffffffffffffffffffffffffffffffffffffffff8114156141c25750614290565b600060b260008873ffffffffffffffffffffffffffffffffffffffff1673ffffffffffffffffffffffffffffffffffffffff1681526020019081526020016000206000838152602001908152602001600020549050600081111561428157600060ac600084815260200190815260200160002054905061427d61426e826142608560a7896003811061425057fe5b0154613b1990919063ffffffff16565b613ccc90919063ffffffff16565b8761492690919063ffffffff16565b9550505b5050808060010191505061415f565b508080600101915050614150565b5080915050919050565b603360009054906101000a900460ff161561432b576040517f08c379a00000000000000000000000000000000000000000000000000000000081526004018080602001828103825260108152602001807f5061757361626c653a207061757365640000000000000000000000000000000081525060200191505060405180910390fd5b6001603360006101000a81548160ff0219169083151502179055507f62e78cea01bee320cd4e420270b5ea74000d11b0c9f74754ebdbfc544b05a25833604051808273ffffffffffffffffffffffffffffffffffffffff1673ffffffffffffffffffffffffffffffffffffffff16815260200191505060405180910390a1565b600060a583815481106143ba57fe5b906000526020600020906003020160000154905061441d333084609860009054906101000a900473ffffffffffffffffffffffffffffffffffffffff1673ffffffffffffffffffffffffffffffffffffffff16614d80909392919063ffffffff16565b6144328260ab5461492690919063ffffffff16565b60ab8190555061445e8260ac60008681526020019081526020016000205461492690919063ffffffff16565b60ac6000858152602001908152602001600020819055506144c78260ae60003373ffffffffffffffffffffffffffffffffffffffff1673ffffffffffffffffffffffffffffffffffffffff1681526020019081526020016000205461492690919063ffffffff16565b60ae60003373ffffffffffffffffffffffffffffffffffffffff1673ffffffffffffffffffffffffffffffffffffffff16815260200190815260200160002081905550600060b260003373ffffffffffffffffffffffffffffffffffffffff1673ffffffffffffffffffffffffffffffffffffffff16815260200190815260200160002060008381526020019081526020016000205414156145ca5760ad60003373ffffffffffffffffffffffffffffffffffffffff1673ffffffffffffffffffffffffffffffffffffffff1681526020019081526020016000208390806001815401808255809150506001900390600052602060002001600090919091909150555b61462d8260b260003373ffffffffffffffffffffffffffffffffffffffff1673ffffffffffffffffffffffffffffffffffffffff16815260200190815260200160002060008481526020019081526020016000205461492690919063ffffffff16565b60b260003373ffffffffffffffffffffffffffffffffffffffff1673ffffffffffffffffffffffffffffffffffffffff16815260200190815260200160002060008381526020019081526020016000208190555060008090505b60a6828154811061469457fe5b906000526020600020905050600a81101561481c57600060a683815481106146b857fe5b90600052602060002090600a020182600a81106146d157fe5b015490507fffffffffffffffffffffffffffffffffffffffffffffffffffffffffffffffff81141561472f578460a6848154811061470b57fe5b90600052602060002090600a020183600a811061472457fe5b01819055505061481c565b60ac60008281526020019081526020016000205460ac600087815260200190815260200160002054111561480e5760008290505b600160a6858154811061477257fe5b906000526020600020905050600a038110156147eb5760a6848154811061479557fe5b90600052602060002090600a020181600a81106147ae57fe5b015460a685815481106147bd57fe5b90600052602060002090600a020160018301600a81106147d957fe5b01819055508080600101915050614763565b5084609b83815481106147fa57fe5b90600052602060002001819055505061481c565b508080600101915050614687565b504260af60003373ffffffffffffffffffffffffffffffffffffffff1673ffffffffffffffffffffffffffffffffffffffff16815260200190815260200160002081905550505050565b6000838311158290614913576040517f08c379a00000000000000000000000000000000000000000000000000000000081526004018080602001828103825283818151815260200191508051906020019080838360005b838110156148d85780820151818401526020810190506148bd565b50505050905090810190601f1680156149055780820380516001836020036101000a031916815260200191505b509250505060405180910390fd5b5060008385039050809150509392505050565b6000808284019050838110156149a4576040517f08c379a000000000000000000000000000000000000000000000000000000000815260040180806020018281038252601b8152602001807f536166654d6174683a206164646974696f6e206f766572666c6f77000000000081525060200191505060405180910390fd5b8091505092915050565b6149cd8273ffffffffffffffffffffffffffffffffffffffff16614e6d565b614a3f576040517f08c379a000000000000000000000000000000000000000000000000000000000815260040180806020018281038252601f8152602001807f5361666545524332303a2063616c6c20746f206e6f6e2d636f6e74726163740081525060200191505060405180910390fd5b600060608373ffffffffffffffffffffffffffffffffffffffff16836040518082805190602001908083835b60208310614a8e5780518252602082019150602081019050602083039250614a6b565b6001836020036101000a0380198251168184511680821785525050505050509050019150506000604051808303816000865af19150503d8060008114614af0576040519150601f19603f3d011682016040523d82523d6000602084013e614af5565b606091505b509150915081614b6d576040517f08c379a00000000000000000000000000000000000000000000000000000000081526004018080602001828103825260208152602001807f5361666545524332303a206c6f772d6c6576656c2063616c6c206661696c656481525060200191505060405180910390fd5b600081511115614bf357808060200190516020811015614b8c57600080fd5b8101908080519060200190929190505050614bf2576040517f08c379a000000000000000000000000000000000000000000000000000000000815260040180806020018281038252602a81526020018061511b602a913960400191505060405180910390fd5b5b50505050565b6000603360006101000a81548160ff021916908315150217905550565b600033905080606560006101000a81548173ffffffffffffffffffffffffffffffffffffffff021916908373ffffffffffffffffffffffffffffffffffffffff1602179055508073ffffffffffffffffffffffffffffffffffffffff16600073ffffffffffffffffffffffffffffffffffffffff167f8be0079c531659141344cd1fd0a4f28419497f9722a3daafe3b4186f6b6457e060405160405180910390a350565b60008083118290614d66576040517f08c379a00000000000000000000000000000000000000000000000000000000081526004018080602001828103825283818151815260200191508051906020019080838360005b83811015614d2b578082015181840152602081019050614d10565b50505050905090810190601f168015614d585780820380516001836020036101000a031916815260200191505b509250505060405180910390fd5b506000838581614d7257fe5b049050809150509392505050565b614e67846323b872dd60e01b858585604051602401808473ffffffffffffffffffffffffffffffffffffffff1673ffffffffffffffffffffffffffffffffffffffff1681526020018373ffffffffffffffffffffffffffffffffffffffff1673ffffffffffffffffffffffffffffffffffffffff1681526020018281526020019350505050604051602081830303815290604052907bffffffffffffffffffffffffffffffffffffffffffffffffffffffff19166020820180517bffffffffffffffffffffffffffffffffffffffffffffffffffffffff83818316178352505050506149ae565b50505050565b60008060007fc5d2460186f7233c927e7db2dcc703c0e500b653ca82273b7bfad8045d85a47060001b9050833f9150808214158015614eaf57506000801b8214155b92505050919050565b8260038101928215614ef4579160200282015b82811115614ef3578251829068ffffffffffffffffff16905591602001919060010190614ecb565b5b509050614f019190615080565b5090565b828054828255906000526020600020908101928215614f41579160200282015b82811115614f40578251825591602001919060010190614f25565b5b509050614f4e9190615080565b5090565b82600a8101928215614f81579160200282015b82811115614f80578251825591602001919060010190614f65565b5b509050614f8e9190615080565b5090565b6040518060600160405280600073ffffffffffffffffffffffffffffffffffffffff16815260200160608152602001606081525090565b828054600181600116156101000203166002900490600052602060002090601f016020900481019282601f1061500a57805160ff1916838001178555615038565b82800160010185558215615038579182015b8281111561503757825182559160200191906001019061501c565b5b5090506150459190615080565b5090565b604051806060016040528060008152602001600073ffffffffffffffffffffffffffffffffffffffff168152602001606081525090565b6150a291905b8082111561509e576000816000905550600101615086565b5090565b9056fe4f776e61626c653a206e6577206f776e657220697320746865207a65726f2061646472657373536166654d6174683a206d756c7469706c69636174696f6e206f766572666c6f77436f6e747261637420696e7374616e63652068617320616c7265616479206265656e20696e697469616c697a65645361666545524332303a204552433230206f7065726174696f6e20646964206e6f742073756363656564a264697066735822122011154d87a17c2c22eae002ba3136d3641464eb26260417df5d0d578dd45ff32d64736f6c63430006060033",
  "immutableReferences": {},
  "source": "pragma solidity ^0.6.0;\n\nimport \"@openzeppelin/contracts-ethereum-package/contracts/math/Math.sol\";\nimport \"@openzeppelin/contracts-ethereum-package/contracts/math/SafeMath.sol\";\nimport \"@openzeppelin/contracts-ethereum-package/contracts/token/ERC20/SafeERC20.sol\";\nimport \"@openzeppelin/contracts-ethereum-package/contracts/token/ERC20/IERC20.sol\";\nimport \"@openzeppelin/contracts-ethereum-package/contracts/Initializable.sol\";\n\n// Inheritance\nimport \"./interfaces/IStakingRewards.sol\";\nimport \"./interfaces/IUniswapPriceOracle.sol\";\nimport \"./PausableUpgradeSafe.sol\";\nimport \"./OwnableUpgradeSafe.sol\";\n\ncontract Gallery is Initializable, PausableUpgradeSafe, OwnableUpgradeSafe {\n    using SafeMath for uint256;\n    using SafeERC20 for IERC20;\n\n    /* ========== CONSTANTS ========== */\n\n    uint256 constant PROPOSAL_DAYS = 4;\n    uint256 constant FIGURE_DAYS = 7;\n    uint256 constant WINNING_PROPOSAL_COUNT = 10;\n    uint256 constant WINNING_FIGURE_COUNT = 3;\n    uint256 constant MIN_PROPOSAL_VOTES = 50 ether;\n    uint256 constant MIN_FIGURE_VOTES = 10 ether;\n    uint256 constant REWARDS_PER_PROPOSAL = 400 ether;\n    uint256 constant NULL = 2**256 - 1;\n    address constant DEAD_ADDRESS = 0x000000000000000000000000000000000000dEaD;\n\n    /* ========== STRUCTS ========== */\n\n    struct Proposal {\n        address proposer;\n        string name;\n        string info;\n    }\n\n    struct Figure {\n        uint256 proposalId;\n        address author;\n        string info;\n    }\n\n    /* ========== STATE VARIABLES ========== */\n\n    address public rewardsToken;\n    address public stakingToken;\n    uint256 public startAt;\n\n    // array of all proposals\n    Proposal[] public proposals;\n    // array of proposal id of top proposal\n    uint256[] topProposals;\n    // if proposal rewards is burned\n    bool proposalRewardsBurned;\n    // total votes of all proposals\n    uint256 public totalProposalVotes;\n    // proposal id => total votes of this proposal\n    mapping(uint256 => uint256) public proposalVotes;\n    // account => array of proposal id\n    mapping(address => uint256[]) public myProposals;\n    // account => total votes of my proposals\n    mapping(address => uint256) public myProposalVotes;\n    // account => last update at\n    mapping(address => uint256) public myProposalUpdateAt;\n    // account => if my votes and rewards of proposals is withdrawn\n    mapping(address => bool) public myProposalWithdrawn;\n    // account => if my rewards of proposals is claimed\n    mapping(address => bool) public myProposalClaimed;\n    // account => proposal id => votes\n    mapping(address => mapping(uint256 => uint256)) public mySingleProposalVotes;\n\n    // array of all proposals\n    Figure[] public figures;\n    // array of figure id of top figure\n    uint256[WINNING_PROPOSAL_COUNT][] topFigures;\n    // array of top figure rewards\n    uint256[WINNING_FIGURE_COUNT] topFigureRewards;\n    // proposal id => array of figure id\n    mapping(uint256 => uint256[]) public figuresOfProposal;\n    // total votes of all figures\n    uint256 public totalFigureVotes;\n    // figure id => total votes of this figure\n    mapping(uint256 => uint256) public figureVotes;\n    // account => array of figure id\n    mapping(address => uint256[]) public myFigures;\n    // account => total votes of my figures\n    mapping(address => uint256) public myFigureVotes;\n    // account => last update at\n    mapping(address => uint256) public myFigureUpdateAt;\n    // account => if my votes of figures is withdrawn\n    mapping(address => bool) public myFigureWithdrawn;\n    // account => if my rewards of figures is claimed\n    mapping(address => bool) public myFigureClaimed;\n    // account => figure id => votes\n    mapping(address => mapping(uint256 => uint256)) public mySingleFigureVotes;\n\n    /* ========== CONSTRUCTOR ========== */\n\n    function initialize(\n        address _rewardsToken,\n        address _stakingToken\n    )  public initializer {\n        super.__Pausable_init();\n        super.__Ownable_init();\n        rewardsToken = _rewardsToken;\n        stakingToken = _stakingToken;\n        topFigureRewards = [500 ether, 300 ether, 200 ether];\n        topProposals = [NULL, NULL, NULL, NULL, NULL, NULL, NULL, NULL, NULL, NULL];\n        for (uint256 i = 0; i < WINNING_PROPOSAL_COUNT; i++) {\n            topFigures.push([NULL, NULL, NULL]);\n        }\n        startAt = block.timestamp;\n    }\n\n    /* ========== VIEWS ========== */\n\n    function dayAt() public view returns (uint256) {\n        return block.timestamp.sub(startAt).div(1 days);\n    }\n\n    function myProposalCount(address target) public view returns (uint256) {\n        return myProposals[target].length;\n    }\n\n    function myFigureCount(address target) public view returns (uint256) {\n        return myFigures[target].length;\n    }\n\n    function figuresOfProposalCount(uint256 proposalId) public view returns (uint256) {\n        return figuresOfProposal[proposalId].length;\n    }\n\n    /* ========== MUTATIVE FUNCTIONS ========== */\n\n    function createProposal(string calldata name, string calldata info) external whenNotPaused {\n        require(dayAt() < PROPOSAL_DAYS, \"Cannot stake over 4 days\");\n        require(bytes(name).length <= 32, \"name's length is too big\");\n        require(bytes(info).length <= 200, \"info's length is too big\");\n\n        // create proposal\n        Proposal memory proposal;\n        proposal.proposer = msg.sender;\n        proposal.name = name;\n        proposal.info = info;\n        proposals.push(proposal);\n\n        // vote for proposal\n        uint256 proposalId = proposals.length - 1;\n        uint256 votes = MIN_PROPOSAL_VOTES;\n        _voteForProposal(proposalId, votes);\n\n        emit ProposalCreated(proposalId, votes);\n    }\n\n    function voteForProposal(uint256 proposalId, uint256 votes) external whenNotPaused {\n        require(dayAt() < PROPOSAL_DAYS, \"Cannot stake over 4 days\");\n        require(votes > 0, \"Votes should larger then zero\");\n\n        // vote for proposal\n        _voteForProposal(proposalId, votes);\n\n        emit ProposalVoted(proposalId, votes);\n    }\n\n    function withdrawFromProposal() external whenNotPaused {\n        require(dayAt() >= PROPOSAL_DAYS, \"Not expired\");\n        require(!myProposalWithdrawn[msg.sender], \"You have already withdrawn\");\n        myProposalWithdrawn[msg.sender] = true;\n\n        // claim votes\n        uint256 votes = myProposalVotes[msg.sender];\n        if (votes > 0) {\n            IERC20(stakingToken).safeTransfer(msg.sender, votes);\n        }\n\n        emit ProposalWithdrawn(votes);\n    }\n\n    function claimFromProposal() external whenNotPaused {\n        require(dayAt() >= PROPOSAL_DAYS, \"Not expired\");\n        require(block.timestamp.sub(myProposalUpdateAt[msg.sender]) <= 4 days, \"Cannot claim within 4 days\");\n        require(!myProposalClaimed[msg.sender], \"You have already claimed\");\n        myProposalClaimed[msg.sender] = true;\n\n        // claim rewards\n        uint256 rewards = _calculateProposalRewards(msg.sender);\n        if (rewards > 0) {\n            IERC20(stakingToken).safeTransfer(msg.sender, rewards);\n        }\n\n        emit ProposalClaimed(rewards);\n    }\n\n    function burnFromProposal() external whenNotPaused onlyOwner {\n        require(dayAt() >= PROPOSAL_DAYS, \"Not expired\");\n        require(!proposalRewardsBurned, \"Proposal rewards has been burned\");\n        proposalRewardsBurned = true;\n\n        uint256 burnCount = 0;\n        for (uint256 i = 0; i < WINNING_PROPOSAL_COUNT; i++) {\n            if (topProposals[i] == NULL) {\n                burnCount++;\n            }\n        }\n        uint256 burnAmount = 0;\n        if (burnCount > 0) {\n            burnAmount = REWARDS_PER_PROPOSAL.mul(burnCount);\n            IERC20(rewardsToken).safeTransfer(DEAD_ADDRESS, burnAmount);\n        }\n\n        emit ProposalBurned(burnAmount);\n    }\n\n    function createFigure(uint256 proposalId, string calldata info) external whenNotPaused {\n        require(dayAt() < PROPOSAL_DAYS + FIGURE_DAYS, \"Cannot stake over 4 days\");\n        require(proposalId < proposals.length, \"Invalid proposal id\");\n        require(bytes(info).length <= 200, \"info's length is too big\");\n\n        // create figure\n        Figure memory figure;\n        figure.proposalId = proposalId;\n        figure.author = msg.sender;\n        figure.info = info;\n        figures.push(figure);\n\n        // vote for figure\n        uint256 figureId = figures.length - 1;\n        uint256 votes = MIN_FIGURE_VOTES;\n        _voteForFigure(figureId, votes);\n        figuresOfProposal[proposalId].push(figureId);\n\n        emit FigureCreated(figureId, votes);\n    }\n\n    function voteForFigure(uint256 figureId, uint256 votes) external whenNotPaused {\n        require(dayAt() < PROPOSAL_DAYS + FIGURE_DAYS, \"Cannot stake over 4 days\");\n        require(figureId < figures.length, \"Invalid figure id\");\n        require(votes > 0, \"Votes should larger then zero\");\n\n        // vote for figure\n        _voteForFigure(figureId, votes);\n\n        emit FigureVoted(figureId, votes);\n    }\n\n    function withdrawFromFigure() external whenNotPaused {\n        require(dayAt() >= PROPOSAL_DAYS + FIGURE_DAYS, \"Not expired\");\n        require(!myFigureWithdrawn[msg.sender], \"You have already withdrawn\");\n        myFigureWithdrawn[msg.sender] = true;\n\n        // withdraw votes\n        uint256 votes = myFigureVotes[msg.sender];\n        if (votes > 0) {\n            IERC20(stakingToken).safeTransfer(msg.sender, votes);\n        }\n\n        emit FigureWithdrawn(votes);\n    }\n\n    function claimFromFigure() external whenNotPaused {\n        require(dayAt() >= PROPOSAL_DAYS + FIGURE_DAYS, \"Not expired\");\n        require(block.timestamp.sub(myFigureUpdateAt[msg.sender]) <= 7 days, \"Cannot claim within 7 days\");\n        require(!myFigureClaimed[msg.sender], \"You have already claimed\");\n        myFigureClaimed[msg.sender] = true;\n\n        // claim rewards\n        uint256 rewards = _calculateFigureRewards(msg.sender);\n        if (rewards > 0) {\n            IERC20(stakingToken).safeTransfer(msg.sender, rewards);\n        }\n\n        emit FigureClaimed(rewards);\n    }\n\n    function pause() external {\n        super._pause();\n    }\n\n    function unpause() external {\n        super._unpause();\n    }\n\n    function _voteForProposal(uint256 proposalId, uint256 votes) private {\n        IERC20(stakingToken).safeTransferFrom(msg.sender, address(this), votes);\n        totalProposalVotes = totalProposalVotes.add(votes);\n        proposalVotes[proposalId] = proposalVotes[proposalId].add(votes);\n        myProposalVotes[msg.sender] = myProposalVotes[msg.sender].add(votes);\n        if (mySingleProposalVotes[msg.sender][proposalId] == 0) {\n            myProposals[msg.sender].push(proposalId);\n        }\n        mySingleProposalVotes[msg.sender][proposalId] = mySingleProposalVotes[msg.sender][proposalId].add(votes);\n\n        // sort top proposals\n        for (uint256 i = 0; i < topProposals.length; i++) {\n            uint256 _proposalId = topProposals[i];\n            if (_proposalId == NULL) {\n                topProposals[i] = proposalId;\n                break;\n            }\n            if (proposalVotes[proposalId] > proposalVotes[_proposalId]) {\n                // right shift array elements\n                for (uint256 j = i; j < topProposals.length - 1; j++) {\n                    topProposals[j+1] = topProposals[j];\n                }\n                topProposals[i] = proposalId;\n                break;\n            }\n        }\n\n        myProposalUpdateAt[msg.sender] = block.timestamp;\n    }\n\n    function _voteForFigure(uint256 figureId, uint256 votes) private {\n        uint256 proposalId = figures[figureId].proposalId;\n        IERC20(stakingToken).safeTransferFrom(msg.sender, address(this), votes);\n        totalFigureVotes = totalFigureVotes.add(votes);\n        figureVotes[figureId] = figureVotes[figureId].add(votes);\n        myFigureVotes[msg.sender] = myFigureVotes[msg.sender].add(votes);\n        if (mySingleFigureVotes[msg.sender][proposalId] == 0) {\n            myFigures[msg.sender].push(figureId);\n        }\n        mySingleFigureVotes[msg.sender][proposalId] = mySingleFigureVotes[msg.sender][proposalId].add(votes);\n\n\n        // sort top figures\n        for (uint256 i = 0; i < topFigures[proposalId].length; i++) {\n            uint256 _figureId = topFigures[proposalId][i];\n            if (_figureId == NULL) {\n                topFigures[proposalId][i] = figureId;\n                break;\n            }\n            if (figureVotes[figureId] > figureVotes[_figureId]) {\n                // right shift array elements\n                for (uint256 j = i; j < topFigures[proposalId].length - 1; j++) {\n                    topFigures[proposalId][j+1] = topFigures[proposalId][j];\n                }\n                topProposals[i] = figureId;\n                break;\n            }\n        }\n\n        myFigureUpdateAt[msg.sender] = block.timestamp;\n    }\n\n    function _calculateProposalRewards(address target) private view returns(uint256) {\n        uint256 rewards = 0;\n        for (uint256 i = 0; i < topProposals.length; i++) {\n            if (topProposals[i] == NULL) {\n                break;\n            }\n            uint256 proposalId = topProposals[i];\n            uint256 myVotes = mySingleProposalVotes[target][proposalId];\n            if (myVotes > 0) {\n                uint256 totalVotes = proposalVotes[proposalId];\n                rewards = rewards.add(REWARDS_PER_PROPOSAL.mul(myVotes).div(totalVotes));\n            }\n        }\n        return rewards;\n    }\n\n    function _calculateFigureRewards(address target) private view returns(uint256) {\n        uint256 rewards = 0;\n        for (uint256 i = 0; i < WINNING_PROPOSAL_COUNT; i++) {\n            for (uint256 j = 0; j < WINNING_FIGURE_COUNT; j++) {\n                uint256 figureId = topFigures[i][j];\n                if (figureId == NULL) {\n                    break;\n                }\n                uint256 myVotes = mySingleFigureVotes[target][figureId];\n                if (myVotes > 0) {\n                    uint256 totalVotes = figureVotes[figureId];\n                    rewards = rewards.add(topFigureRewards[j].mul(myVotes).div(totalVotes));\n                }\n            }\n        }\n        return rewards;\n    }\n\n    /* ========== EVENTS ========== */\n\n    event ProposalCreated(uint256 indexed proposalId, uint256 votes);\n    event ProposalVoted(uint256 indexed proposalId, uint256 votes);\n    event ProposalWithdrawn(uint256 votes);\n    event ProposalClaimed(uint256 rewards);\n    event ProposalBurned(uint256 votes);\n    event FigureCreated(uint256 indexed figureId, uint256 votes);\n    event FigureVoted(uint256 indexed figureId, uint256 votes);\n    event FigureWithdrawn(uint256 votes);\n    event FigureClaimed(uint256 rewards);\n}",
  "sourcePath": "/Users/edwin/github/gallery.finance/gallery.finance.smart/contracts/Gallery.sol",
  "compiler": {
    "name": "solc",
    "version": "0.6.6+commit.6c089d02.Emscripten.clang"
  },
  "schemaVersion": "3.2.2",
  "updatedAt": "2020-10-21T05:13:36.002Z",
  "devdoc": {
    "methods": {
      "owner()": {
        "details": "Returns the address of the current owner."
      },
      "paused()": {
        "details": "Returns true if the contract is paused, and false otherwise."
      },
      "renounceOwnership()": {
        "details": "Leaves the contract without owner. It will not be possible to call `onlyOwner` functions anymore. Can only be called by the current owner.     * NOTE: Renouncing ownership will leave the contract without an owner, thereby removing any functionality that is only available to the owner."
      },
      "transferOwnership(address)": {
        "details": "Transfers ownership of the contract to a new account (`newOwner`). Can only be called by the current owner."
      }
    }
  },
  "userdoc": {
    "methods": {}
  }
}