{
  "contractName": "StakingScore",
  "abi": [
    {
      "anonymous": false,
      "inputs": [
        {
          "indexed": false,
          "internalType": "uint256",
          "name": "amount",
          "type": "uint256"
        }
      ],
      "name": "Claimed",
      "type": "event"
    },
    {
      "anonymous": false,
      "inputs": [
        {
          "indexed": true,
          "internalType": "address",
          "name": "previousOwner",
          "type": "address"
        },
        {
          "indexed": true,
          "internalType": "address",
          "name": "newOwner",
          "type": "address"
        }
      ],
      "name": "OwnershipTransferred",
      "type": "event"
    },
    {
      "anonymous": false,
      "inputs": [
        {
          "indexed": false,
          "internalType": "uint256",
          "name": "amount",
          "type": "uint256"
        }
      ],
      "name": "Staked",
      "type": "event"
    },
    {
      "anonymous": false,
      "inputs": [
        {
          "indexed": false,
          "internalType": "uint256",
          "name": "amount",
          "type": "uint256"
        }
      ],
      "name": "Withdrawn",
      "type": "event"
    },
    {
      "inputs": [
        {
          "internalType": "address",
          "name": "",
          "type": "address"
        }
      ],
      "name": "lastClaimAt",
      "outputs": [
        {
          "internalType": "uint256",
          "name": "",
          "type": "uint256"
        }
      ],
      "stateMutability": "view",
      "type": "function",
      "constant": true
    },
    {
      "inputs": [
        {
          "internalType": "address",
          "name": "",
          "type": "address"
        }
      ],
      "name": "myScore",
      "outputs": [
        {
          "internalType": "uint256",
          "name": "",
          "type": "uint256"
        }
      ],
      "stateMutability": "view",
      "type": "function",
      "constant": true
    },
    {
      "inputs": [
        {
          "internalType": "address",
          "name": "",
          "type": "address"
        }
      ],
      "name": "myStake",
      "outputs": [
        {
          "internalType": "uint256",
          "name": "",
          "type": "uint256"
        }
      ],
      "stateMutability": "view",
      "type": "function",
      "constant": true
    },
    {
      "inputs": [],
      "name": "owner",
      "outputs": [
        {
          "internalType": "address",
          "name": "",
          "type": "address"
        }
      ],
      "stateMutability": "view",
      "type": "function",
      "constant": true
    },
    {
      "inputs": [],
      "name": "renounceOwnership",
      "outputs": [],
      "stateMutability": "nonpayable",
      "type": "function"
    },
    {
      "inputs": [],
      "name": "scoreToken",
      "outputs": [
        {
          "internalType": "address",
          "name": "",
          "type": "address"
        }
      ],
      "stateMutability": "view",
      "type": "function",
      "constant": true
    },
    {
      "inputs": [],
      "name": "stakingToken",
      "outputs": [
        {
          "internalType": "address",
          "name": "",
          "type": "address"
        }
      ],
      "stateMutability": "view",
      "type": "function",
      "constant": true
    },
    {
      "inputs": [],
      "name": "startAt",
      "outputs": [
        {
          "internalType": "uint256",
          "name": "",
          "type": "uint256"
        }
      ],
      "stateMutability": "view",
      "type": "function",
      "constant": true
    },
    {
      "inputs": [],
      "name": "totalStake",
      "outputs": [
        {
          "internalType": "uint256",
          "name": "",
          "type": "uint256"
        }
      ],
      "stateMutability": "view",
      "type": "function",
      "constant": true
    },
    {
      "inputs": [
        {
          "internalType": "address",
          "name": "newOwner",
          "type": "address"
        }
      ],
      "name": "transferOwnership",
      "outputs": [],
      "stateMutability": "nonpayable",
      "type": "function"
    },
    {
      "inputs": [
        {
          "internalType": "address",
          "name": "_stakingToken",
          "type": "address"
        },
        {
          "internalType": "address",
          "name": "_scoreToken",
          "type": "address"
        }
      ],
      "name": "initialize",
      "outputs": [],
      "stateMutability": "nonpayable",
      "type": "function"
    },
    {
      "inputs": [],
      "name": "dayAt",
      "outputs": [
        {
          "internalType": "uint256",
          "name": "",
          "type": "uint256"
        }
      ],
      "stateMutability": "view",
      "type": "function",
      "constant": true
    },
    {
      "inputs": [
        {
          "internalType": "uint256",
          "name": "amount",
          "type": "uint256"
        }
      ],
      "name": "stake",
      "outputs": [],
      "stateMutability": "nonpayable",
      "type": "function"
    },
    {
      "inputs": [
        {
          "internalType": "uint256",
          "name": "amount",
          "type": "uint256"
        }
      ],
      "name": "withdraw",
      "outputs": [],
      "stateMutability": "nonpayable",
      "type": "function"
    },
    {
      "inputs": [],
      "name": "claimScore",
      "outputs": [],
      "stateMutability": "nonpayable",
      "type": "function"
    },
    {
      "inputs": [
        {
          "internalType": "address",
          "name": "target",
          "type": "address"
        }
      ],
      "name": "calculateReward",
      "outputs": [
        {
          "internalType": "uint256",
          "name": "",
          "type": "uint256"
        }
      ],
      "stateMutability": "view",
      "type": "function",
      "constant": true
    }
  ],
  "bytecode": "0x608060405234801561001057600080fd5b50610fce806100206000396000f3fe608060405234801561001057600080fd5b50600436106101005760003560e01c80638b0e9f3f11610097578063c744656511610066578063c744656514610221578063d26cd53814610229578063d82e39621461024f578063f2fde38b1461027557610100565b80638b0e9f3f146101ce5780638da5cb5b146101d6578063a694fc3a146101de578063beaa369a146101fb57610100565b8063613dd9c2116100d3578063613dd9c2146101ae5780636b1a93bf146101b6578063715018a6146101be57806372f702f3146101c657610100565b806303822d3b146101055780632e1a7d4d1461013d578063348fb5aa1461015c578063485cc95514610180575b600080fd5b61012b6004803603602081101561011b57600080fd5b50356001600160a01b031661029b565b60408051918252519081900360200190f35b61015a6004803603602081101561015357600080fd5b50356102ad565b005b6101646103a4565b604080516001600160a01b039092168252519081900360200190f35b61015a6004803603604081101561019657600080fd5b506001600160a01b03813581169160200135166103b3565b61012b6104a0565b61015a6104cf565b61015a61054a565b610164610600565b61012b61060f565b610164610615565b61015a600480360360208110156101f457600080fd5b5035610624565b61012b6004803603602081101561021157600080fd5b50356001600160a01b031661077d565b61012b61078f565b61012b6004803603602081101561023f57600080fd5b50356001600160a01b0316610795565b61012b6004803603602081101561026557600080fd5b50356001600160a01b03166107a7565b61015a6004803603602081101561028b57600080fd5b50356001600160a01b03166108cf565b606b6020526000908152604090205481565b6102b56104cf565b6000811161030a576040805162461bcd60e51b815260206004820152601960248201527f416d6f756e742073686f756c64206265206e6f6e2d7a65726f00000000000000604482015290519081900360640190fd5b3360009081526069602052604090205461032a908263ffffffff6109dc16565b3360009081526069602052604090205560685461034d908263ffffffff6109dc16565b60685560655461036e906001600160a01b031630338463ffffffff610a2716565b6040805182815290517f430648de173157e069201c943adb2d4e340e7cf5b27b1b09c9cb852f03d63b569181900360200190a150565b6066546001600160a01b031681565b600054610100900460ff16806103cc57506103cc610ab5565b806103da575060005460ff16155b6104155760405162461bcd60e51b815260040180806020018281038252602e815260200180610f41602e913960400191505060405180910390fd5b600054610100900460ff16158015610440576000805460ff1961ff0019909116610100171660011790555b610448610abb565b606580546001600160a01b0380861673ffffffffffffffffffffffffffffffffffffffff1992831617909255606680549285169290911691909117905542606755801561049b576000805461ff00191690555b505050565b60006104ca620151806104be606754426109dc90919063ffffffff16565b9063ffffffff610ac516565b905090565b60006104da336107a7565b9050801561050057606654610500906001600160a01b031633308463ffffffff610a2716565b336000908152606b6020908152604091829020429055815183815291517f7a355715549cfe7c1cba26304350343fbddc4b4f72d3ce3e7c27117dd20b5cb89281900390910190a150565b6033546001600160a01b031633146105a9576040805162461bcd60e51b815260206004820181905260248201527f4f776e61626c653a2063616c6c6572206973206e6f7420746865206f776e6572604482015290519081900360640190fd5b6033546040516000916001600160a01b0316907f8be0079c531659141344cd1fd0a4f28419497f9722a3daafe3b4186f6b6457e0908390a36033805473ffffffffffffffffffffffffffffffffffffffff19169055565b6065546001600160a01b031681565b60685481565b6033546001600160a01b031690565b61062c6104cf565b60196106366104a0565b10610688576040805162461bcd60e51b815260206004820152600760248201527f4578706972656400000000000000000000000000000000000000000000000000604482015290519081900360640190fd5b600081116106dd576040805162461bcd60e51b815260206004820152601960248201527f416d6f756e742073686f756c64206265206e6f6e2d7a65726f00000000000000604482015290519081900360640190fd5b6065546106fb906001600160a01b031633308463ffffffff610a2716565b60685461070e908263ffffffff610b0716565b60685533600090815260696020526040902054610731908263ffffffff610b0716565b3360009081526069602090815260409182902092909255805183815290517feebbaa86c348cb664e392b180fd0ff2e1998af9fa833ef69a778cb0b42d3ca27929181900390910190a150565b60696020526000908152604090205481565b60675481565b606a6020526000908152604090205481565b6001600160a01b0381166000908152606b602052604081205481906107d390429063ffffffff6109dc16565b9050606854600014156107ea5760009150506108ca565b606654604080517f70a0823100000000000000000000000000000000000000000000000000000000815230600482015290516000926001600160a01b0316916370a08231916024808301926020929190829003018186803b15801561084e57600080fd5b505afa158015610862573d6000803e3d6000fd5b505050506040513d602081101561087857600080fd5b50516068546001600160a01b0386166000908152606960205260409020549192506108c5916019916104be9186916108b9918490889063ffffffff610b6116565b9063ffffffff610b6116565b925050505b919050565b6033546001600160a01b0316331461092e576040805162461bcd60e51b815260206004820181905260248201527f4f776e61626c653a2063616c6c6572206973206e6f7420746865206f776e6572604482015290519081900360640190fd5b6001600160a01b0381166109735760405162461bcd60e51b8152600401808060200182810382526026815260200180610efa6026913960400191505060405180910390fd5b6033546040516001600160a01b038084169216907f8be0079c531659141344cd1fd0a4f28419497f9722a3daafe3b4186f6b6457e090600090a36033805473ffffffffffffffffffffffffffffffffffffffff19166001600160a01b0392909216919091179055565b6000610a1e83836040518060400160405280601e81526020017f536166654d6174683a207375627472616374696f6e206f766572666c6f770000815250610bba565b90505b92915050565b604080516001600160a01b0380861660248301528416604482015260648082018490528251808303909101815260849091019091526020810180517bffffffffffffffffffffffffffffffffffffffffffffffffffffffff167f23b872dd00000000000000000000000000000000000000000000000000000000179052610aaf908590610c51565b50505050565b303b1590565b610ac3610e09565b565b6000610a1e83836040518060400160405280601a81526020017f536166654d6174683a206469766973696f6e206279207a65726f000000000000815250610e5b565b600082820183811015610a1e576040805162461bcd60e51b815260206004820152601b60248201527f536166654d6174683a206164646974696f6e206f766572666c6f770000000000604482015290519081900360640190fd5b600082610b7057506000610a21565b82820282848281610b7d57fe5b0414610a1e5760405162461bcd60e51b8152600401808060200182810382526021815260200180610f206021913960400191505060405180910390fd5b60008184841115610c495760405162461bcd60e51b81526004018080602001828103825283818151815260200191508051906020019080838360005b83811015610c0e578181015183820152602001610bf6565b50505050905090810190601f168015610c3b5780820380516001836020036101000a031916815260200191505b509250505060405180910390fd5b505050900390565b610c63826001600160a01b0316610ec0565b610cb4576040805162461bcd60e51b815260206004820152601f60248201527f5361666545524332303a2063616c6c20746f206e6f6e2d636f6e747261637400604482015290519081900360640190fd5b60006060836001600160a01b0316836040518082805190602001908083835b60208310610cf25780518252601f199092019160209182019101610cd3565b6001836020036101000a0380198251168184511680821785525050505050509050019150506000604051808303816000865af19150503d8060008114610d54576040519150601f19603f3d011682016040523d82523d6000602084013e610d59565b606091505b509150915081610db0576040805162461bcd60e51b815260206004820181905260248201527f5361666545524332303a206c6f772d6c6576656c2063616c6c206661696c6564604482015290519081900360640190fd5b805115610aaf57808060200190516020811015610dcc57600080fd5b5051610aaf5760405162461bcd60e51b815260040180806020018281038252602a815260200180610f6f602a913960400191505060405180910390fd5b6033805473ffffffffffffffffffffffffffffffffffffffff19163390811790915560405181906000907f8be0079c531659141344cd1fd0a4f28419497f9722a3daafe3b4186f6b6457e0908290a350565b60008183610eaa5760405162461bcd60e51b8152602060048201818152835160248401528351909283926044909101919085019080838360008315610c0e578181015183820152602001610bf6565b506000838581610eb657fe5b0495945050505050565b6000813f7fc5d2460186f7233c927e7db2dcc703c0e500b653ca82273b7bfad8045d85a4708181148015906108c557505015159291505056fe4f776e61626c653a206e6577206f776e657220697320746865207a65726f2061646472657373536166654d6174683a206d756c7469706c69636174696f6e206f766572666c6f77436f6e747261637420696e7374616e63652068617320616c7265616479206265656e20696e697469616c697a65645361666545524332303a204552433230206f7065726174696f6e20646964206e6f742073756363656564a2646970667358221220ea96aad9b83d0ab3cdd43ab1c380d01e1d5b4d51e3a3d169cd1eefcf1d87babe64736f6c63430006060033",
  "immutableReferences": {},
  "source": "pragma solidity ^0.6.0;\n\nimport \"@openzeppelin/contracts-ethereum-package/contracts/math/Math.sol\";\nimport \"@openzeppelin/contracts-ethereum-package/contracts/math/SafeMath.sol\";\nimport \"@openzeppelin/contracts-ethereum-package/contracts/token/ERC20/SafeERC20.sol\";\nimport \"@openzeppelin/contracts-ethereum-package/contracts/token/ERC20/IERC20.sol\";\nimport \"@openzeppelin/contracts-ethereum-package/contracts/token/ERC721/IERC721.sol\";\nimport \"@openzeppelin/contracts-ethereum-package/contracts/Initializable.sol\";\n\n// Inheritance\nimport \"./interfaces/IStakingRewards.sol\";\nimport \"./interfaces/IUniswapPriceOracle.sol\";\nimport \"./OwnableUpgradeSafe.sol\";\n\ncontract StakingScore is Initializable, OwnableUpgradeSafe {\n    using SafeMath for uint256;\n    using SafeERC20 for IERC20;\n\n    /* ========== CONSTANTS ========== */\n\n    uint256 constant STAKING_DAYS = 25;\n    uint256 constant NULL = 2**256 - 1;\n    address constant DEAD_ADDRESS = 0x000000000000000000000000000000000000dEaD;\n\n    /* ========== STATE VARIABLES ========== */\n\n    address public stakingToken;\n    address public scoreToken;\n    uint256 public startAt;\n    uint256 public totalStake;\n    mapping(address => uint256) public myStake;\n    mapping(address => uint256) public myScore;\n    // address => last time of claim reward\n    mapping(address => uint) public lastClaimAt;\n\n    /* ========== CONSTRUCTOR ========== */\n\n    function initialize(\n        address _stakingToken,\n        address _scoreToken\n    )  public initializer {\n        super.__Ownable_init();\n        stakingToken = _stakingToken;\n        scoreToken = _scoreToken;\n        startAt = block.timestamp;\n    }\n\n    /* ========== VIEWS ========== */\n\n    function dayAt() public view returns (uint256) {\n        return block.timestamp.sub(startAt).div(1 days);\n    }\n\n    /* ========== MUTATIVE FUNCTIONS ========== */\n\n    function stake(uint256 amount) external {\n        claimScore();\n\n        require(dayAt() < STAKING_DAYS, \"Expired\");\n        require(amount > 0, \"Amount should be non-zero\");\n\n        // send ERC20 token to contract\n        IERC20(stakingToken).safeTransferFrom(msg.sender, address(this), amount);\n\n        // update stake value\n        totalStake = totalStake.add(amount);\n        myStake[msg.sender] = myStake[msg.sender].add(amount);\n\n        emit Staked(amount);\n    }\n\n    function withdraw(uint256 amount) external {\n        claimScore();\n\n        require(amount > 0, \"Amount should be non-zero\");\n\n        // update stake value\n        myStake[msg.sender] = myStake[msg.sender].sub(amount);\n        totalStake = totalStake.sub(amount);\n\n        // send ERC20 token to sender\n        IERC20(stakingToken).safeTransferFrom(address(this), msg.sender, amount);\n\n        emit Withdrawn(amount);\n    }\n\n    function claimScore() public {\n        // send ERC20 token to contract\n        uint256 amount = calculateReward(msg.sender);\n        if (amount > 0) {\n            IERC20(scoreToken).safeTransferFrom(msg.sender, address(this), amount);\n        }\n\n        lastClaimAt[msg.sender] = block.timestamp;\n\n        emit Claimed(amount);\n    }\n\n    function calculateReward(address target) public view returns (uint256) {\n        uint256 span = block.timestamp.sub(lastClaimAt[target]);\n        if (totalStake == 0) {\n            return 0;\n        }\n        uint256 totalScore = IERC20(scoreToken).balanceOf(address(this));\n        return totalScore.mul(myStake[target]).div(totalStake).mul(span).div(STAKING_DAYS);\n    }\n\n    /* ========== EVENTS ========== */\n\n    event Staked(uint256 amount);\n    event Withdrawn(uint256 amount);\n    event Claimed(uint256 amount);\n}",
  "sourcePath": "/Users/edwin/github/gallery.finance/gallery.finance.smart/contracts/StakingScore.sol",
  "compiler": {
    "name": "solc",
    "version": "0.6.6+commit.6c089d02.Emscripten.clang"
  },
  "schemaVersion": "3.3.0",
  "updatedAt": "2020-10-28T14:47:49.031Z",
  "networkType": "ethereum",
  "devdoc": {
    "methods": {
      "owner()": {
        "details": "Returns the address of the current owner."
      },
      "renounceOwnership()": {
        "details": "Leaves the contract without owner. It will not be possible to call `onlyOwner` functions anymore. Can only be called by the current owner.     * NOTE: Renouncing ownership will leave the contract without an owner, thereby removing any functionality that is only available to the owner."
      },
      "transferOwnership(address)": {
        "details": "Transfers ownership of the contract to a new account (`newOwner`). Can only be called by the current owner."
      }
    }
  },
  "userdoc": {
    "methods": {}
  }
}